:1000000000800020BD010000FD350000B535000076
:10001000B5350000B5350000B5350000B535000038
:10002000B5350000B5350000B5350000FD350000E0
:10003000FD350000B5350000FD350000A535000098
:10004000FD350000FD350000FD350000FD350000E8
:10005000FD350000FD350000FD350000FD350000D8
:10006000FD350000FD350000FD350000FD350000C8
:10007000FD350000FD350000FD350000FD350000B8
:10008000FD350000FD350000FD350000FD350000A8
:10009000FD350000FD350000FD350000FD35000098
:1000A00099300000A5300000FD350000FD3500004E
:1000B000FD350000FD350000FD350000FD35000078
:1000C000FD350000FD350000FD350000FD35000068
:1000D000FD350000FD350000FD350000FD35000058
:1000E000FD350000FD350000FD350000FD35000048
:1000F000FD350000D9550000FD3500001D5D0000F4
:10010000FD3500008D620000FD350000FD3500006A
:10011000FD350000FD350000FD350000FD35000017
:10012000FD350000FD350000FD350000FD35000007
:10013000FD350000FD350000FD350000FD350000F7
:10014000FD350000FD350000FD350000FD350000E7
:10015000FD350000FD350000FD350000FD350000D7
:10016000FD350000013E0000FD350000FD350000BA
:10017000FD350000FD350000FD350000FD350000B7
:10018000FD350000FD350000FD350000FD350000A7
:10019000FD350000FD350000FD350000FD35000097
:1001A000FD350000FD350000FD350000FD35000087
:1001B000FD350000FD3500004D4C0000564B4CF263
:1001C000205210B51A804DF628121A8000BF00BFC9
:1001D00003F018FA514B4FF010621A60504A9A60BF
:1001E000504ADA60504A136813F4807304D14F49BF
:1001F0000B604FF4A85313604D4B1A78110703D5C9
:100200001A7842F008021A704A4B4B492A221A7097
:100210004A4A4B4B8B4204D252F8040F43F8040B6A
:10022000F8E7484B484900228B4202D243F8042B9E
:10023000FAE74649464A002352F8230041F82300D2
:1002400001336F2BF8D1434B434A802103F8011B44
:100250009342FBD1414B3D4A1A60414B8A221A70AE
:10026000A3F5805324225A70A0221A709A7992071B
:10027000FCD59A79D406FCD43A4A937903F00C035E
:10028000082B384BF9D103221A7140225A719A79FE
:100290009006FCD5334A9179324B4906FBD5324A58
:1002A000324911600221516020221A709A7902F0BD
:1002B0000C020C2AFAD12E4B2E4A1A602E4B2F4AD2
:1002C0001A6000225A60072243F8042C2C4AC3F813
:1002D0000C2D62B603F06CFC144B1B68DA0705D5D5
:1002E000284803F0EDFA284B284A1A60284B1B785F
:1002F0005B0609D5244C254B22689A4204D121483B
:1003000003F0DEFA0023236008F0FEFA03F080F920
:1003100004F0BEFDFEE700BF0E2005403080044023
:10032000823F04000100002B10D0034014D0034092
:1003300002D0074000E0074074ABFF1FE04E010011
:10034000209FFF1F78ABFF1F38B8FF1F009AFF1FC9
:100350000000000000E400E05FE400E008ED00E0E1
:100360000050064000400640448004400000030165
:1003700004800440C010050014E000E0FF76010096
:10038000000020205557A25A1CE00340A5C3945AF0
:1003900000F00740FFFFFFFFFFFFFFFFFFFFFFFF32
:1003A000FFFFFFFFFFFFFFFFFFFFFFFFFFFFFFFF5D
:1003B000FFFFFFFFFFFFFFFFFFFFFFFFFFFFFFFF4D
:1003C000FFFFFFFFFFFFFFFFFFFFFFFFFFFFFFFF3D
:1003D000FFFFFFFFFFFFFFFFFFFFFFFFFFFFFFFF2D
:1003E000FFFFFFFFFFFFFFFFFFFFFFFFFFFFFFFF1D
:1003F000FFFFFFFFFFFFFFFFFFFFFFFFFFFFFFFF0D
:10040000FFFFFFFFFFFFFFFFFFFFFFFFDEF9FFFF23
:1004100010B5054C237833B9044B13B10448AFF33E
:1004200000800123237010BD78ABFF1F0000000087
:10043000DC4E0100084B10B51BB108490848AFF36A
:1004400000800848036803B910BD074B002BFBD0A0
:10045000BDE81040184700BF000000007CABFF1F44
:10046000DC4E010074ABFF1F00000000002310B43D
:10047000104C4172026104600372C36041B11946BD
:1004800000E0026942F82310427A01339A42F8DC14
:10049000094B1A680AB90AE01A465369002BFBD1C6
:1004A0005061002343618380C38010BC7047186093
:1004B000F7E700BF7C930000E8B5FF1F70B514217B
:1004C0001B481C4C1C4E04F0ADFA00211B4801F0E7
:1004D00071FD0021022003F017FB01210D2003F024
:1004E00013FB0121032003F00FFB01210D2003F07A
:1004F000F7FA0121032003F0F3FA114A11491068B9
:100500000B783BB123789B0704D0136835685B1BDD
:10051000182B04D813681B1AB3F57A7FF0D90A4850
:100520000A4B00210422C1618285D9619A8570BD80
:100530000082FF1FE4B5FF1F30B8FF1F5CAFFF1F35
:10054000E8B4FF1FCCB5FF1F4CAEFF1F80AEFF1FEE
:100550002DE9F043112083B002F086FFBC4CBD4B67
:100560002568186007F084FD294607F0CBFCBA4BDC
:10057000BA49186007F0D0FD294607F0C5FC206095
:1005800007F0A6FF5A23009340F2FF320023012117
:1005900004F072FCB24AB34BB34DB44C53F8203064
:1005A000106002202B63236303F0A0FAB04FAE4A21
:1005B00001280CBF4FF07E534FF080433B60B5F9EC
:1005C000183003B9D36146F265630F20A94E2B831F
:1005D00002F04AFFA84BD6F80090186007F048FDDB
:1005E000494607F08FFCA54B9C49186007F094FD25
:1005F000494607F089FCA249306007F08DFDA1490A
:10060000DFF8F48207F03CFE4FF07E5107F07CFCEF
:100610000021C8F80000064607F01CFF002840F043
:10062000C7839949304607F033FF002840F0938391
:100630009649304607F070FD4FF07C5107F064FC9E
:1006400007F06CFFB4F91830A862884A03B9D36187
:1006500046F265631020238302F006FF07F008FDD1
:100660008B4907F059FD874907F00AFE894907F0D1
:1006700049FCD8F8001007F047FC874B3968186030
:1006800007F0FEFD0021054607F0E4FE002840F0DB
:100690007B837D49284607F0FBFE002840F06C83F1
:1006A0007A49284607F038FD4FF07C5107F02CFCC2
:1006B00007F034FFA062122002F0D6FE07F0D8FC4B
:1006C0004FF07C5107F028FD6E49744D744C07F0D3
:1006D000D7FD002107F018FC2860132002F0C4FEAB
:1006E00007F0C6FC6F4907F017FD664907F0C8FD23
:1006F0006D4907F009FC2060142002F0B5FE07F0F8
:10070000B7FC6A4907F008FD5E4907F0B9FD4FF0F4
:100710007F5107F0F9FB2468654B6649186006466F
:10072000204607F097FE002840F01F8362492046CC
:1007300007F0AEFE002800F05783604B604F614C1D
:100740006149A7613046E36107F084FE002840F06C
:100750000A835049304607F09BFE002840F03B8357
:1007600031464FF07E5007F08BFD4FF09D4107F072
:10077000D3FC07F0ADFE6062172002F075FE002387
:1007800005221946009240F2F23204F075FB4F4AFE
:10079000116803464E488B42036000F0EF824D49DA
:1007A0004D4C31F91310A1850021E1612320136024
:1007B00002F05AFE07F05CFC324907F061FD0021AF
:1007C00007F0A2FB454B00211860064607F042FEE9
:1007D000002840F0DB824FF07E51304607F058FE93
:1007E000B4F91830002800F0A383002B00F0F78242
:1007F00047F6FF730E202383394F3A4E02F034FE42
:10080000394BD7F80080186007F032FC414607F0FA
:1008100079FB364B3649186007F07EFC414607F0FD
:1008200073FB386007F054FE4FF4007340F2A232BD
:1008300000930121A3F5806304F01EFB30602220A9
:1008400002F012FE33682B4A1844002856E000BF1D
:1008500034ACFF1F04B0FF1FFCACFF1F0AD7233CC2
:100860008CAFFF1F24A0FF1F4CAEFF1F80AEFF1FE9
:1008700050AFFF1FBCAFFF1FC4B0FF1F84AFFF1FEF
:100880000080F94300C07F44A655AC464B243E4748
:10089000000020410000A04014AEFF1F58AFFF1F12
:1008A00078AFFF1F002069460000A04200006040B2
:1008B000CCB0FF1F0000A0411EDE8946008C3C4BDF
:1008C00000BE6C50F8ABFF1F3333333F08B0FF1F3F
:1008D00094AFFF1F00A0FF1FB4AEFF1F38ACFF1F77
:1008E000C0B0FF1F88AFFF1FC4AFFF1F34AEFF1F94
:1008F0000AD7A33B48AEFF1F10AEFF1F106040F3A6
:10090000508240F2FE33984240F39C82BB48BC497F
:1009100040F2FF37BB4B17601960A06201271F2010
:1009200002F0A2FD0B2340F2FF320021009704F0F9
:10093000A3FAB54C20601E2002F096FD44F25063ED
:1009400040F2FF320097002104F096FA2378AF4A74
:10095000102B106000F20582002B08BF3B46AC4C08
:10096000237607F085FB0146AA4807F089FC4FF083
:100970007C5107F0C9FA07F0ABFD002840F30F8265
:1009800040280346A8BF4023DBB26376152002F05F
:100990006BFD07F06DFBA049A04C07F0BDFBA04923
:1009A00007F06EFC9F4907F0AFFA2060162002F0B6
:1009B0005BFD07F05DFB9C4907F0AEFB984907F033
:1009C0005FFC4FF07F5107F09FFA2468974B9849DE
:1009D00018600746204607F03DFD002840F0C8811A
:1009E0009449204607F054FD002800F01482924BF1
:1009F000DFF8B082914C9249C4F818803846E36120
:100A000007F028FD002840F0AA818E49384607F0FB
:100A10003FFD002840F0D88139464FF07E5007F066
:100A20002FFC4FF09D4107F077FB07F051FD60620E
:100A3000242002F019FD002305221946009240F2FD
:100A4000F23204F019FA804A116803467F488B425B
:100A5000036000F095817E497E4C31F91310A18529
:100A60000021E1611A20136002F0FEFC07F000FB98
:100A70006B4907F005FC002107F046FA764B002190
:100A80001860074607F0E6FC002840F08F814FF021
:100A90007E51384607F0FCFCB4F91830002800F00D
:100AA0003882002B00F08B8147F6FF7325202383CB
:100AB00002F0DAFC3368694A18440028106040F3F9
:100AC000798140F2FE33984240F3D8814B484C493B
:100AD00040F2FF37624B176019602F68614DA062CA
:100AE0004FF400436049AB61384607F0D1FC002861
:100AF00040F033815D49384607F0ACFC002840F0F7
:100B00006C814FF08F41384607F006FB07F0E0FCA0
:100B10000024E8611B202C626C6202F0A5FC052217
:100B200023462146009240F2F23204F0A5F9504AE1
:100B3000116803464F488B42036000F023814E4901
:100B40004E4D31F91310A985EC611D20136002F0A0
:100B50008BFC07F08DFA324907F092FB002107F079
:100B6000D3F9474B00211860044607F073FC0028B6
:100B700040F00E814FF07E51204607F089FCB5F918
:100B80001830002800F0B681002B00F01F8147F6D6
:100B9000FF731C202B8302F067FC3368394A18442A
:100BA0000028106040F3F68040F2FE33984240F394
:100BB00080811248124940F2FF34334B14601960AF
:100BC000A86272B6314A324BD3610023137662B603
:100BD000304C314D3149324823624FF4803643F274
:100BE000333702226362EB612B626B62AF61A661F5
:100BF000E66100F079FE022256E000BF2E464A0070
:100C00000000C842B8AFFF1FA8ACFF1F54AFFF1FC2
:100C1000ACACFF1FA6552C47002069467CAFFF1FD8
:100C200000C07F440000A04200006040D0B0FF1F21
:100C30000000A0411EDE8946008C3C4BC8AFFF1F60
:100C40003333333F0000A0401CAEFF1FC0AFFF1F77
:100C50000CA0FF1FE8AEFF1F18AEFF1F0CB0FF1F58
:100C600094ABFF1F10B0FF1F00FEFF4600FEFFC643
:100C700080AFFF1FC8B0FF1F18A0FF1F1CAFFF1FD2
:100C800090AFFF1FD0ACFF1F20AEFF1FD4ACFF1FE3
:100C90000000FF7F80B0FF1F48B0FF1F90A1FF1F23
:100CA0003CACFF1F00BE6C50AC49AD4800F01CFED0
:100CB0000222AA49AB4800F017FEAB4800F0F4FC52
:100CC0004FF07C5107F01EF9A84907F025FA0146BC
:100CD00007F01AF9002107F017F907F0F9FBA44A09
:100CE000034601460420136002F0FCFDA14800F019
:100CF000DBFC4FF07C5107F005F99C4907F00CFA3A
:100D0000014607F001F9002107F0FEF807F0E0FBCB
:100D1000994A034601460520136002F0E3FD974817
:100D200000F0C2FC4FF07C5107F0ECF88F4907F05F
:100D3000F3F9014607F0E8F8002107F0E5F807F0BD
:100D4000C7FB8F4A034601460620136003B0BDE887
:100D5000F04302F0C7BD8B4874E48B48D8E68B485B
:100D600065E61023FBE5894805E5894B894FE6E4F4
:100D7000874BDFF820823DE682489BE4864C15E5F0
:100D8000864C6FE6864DE0E6002093E4002331E5D3
:100D90000023FEE640F68210824900240DE701237D
:100DA000F3E540F682107F490027B3E500237DE696
:100DB000002047E440F682107A4900278AE647F689
:100DC000FF730022E26171E6774830E647F6FF7371
:100DD0000022EA61DDE67448CDE4744898E647F6FF
:100DE000FF730022E26105E52046714907F094F99E
:100DF0004FF09E41044607F08FF907F069FB074664
:100E0000204605F0DDFC4FF09E4107F085F907F024
:100E10005FFB034693E42046654907F07DF94FF0F8
:100E20009E41044607F078F907F052FB80462046C1
:100E300005F0C6FC4FF09E4107F06EF907F048FB45
:100E40000346D7E507F014F95A4907F065F95A49FE
:100E500007F016FA534907F057F8584B002118606D
:100E6000074607F0F7FA002840D15549384607F001
:100E70000FFB002800F0D28042484EE507F0F8F85A
:100E80004C4907F049F94C4907F0FAF9454907F090
:100E90003BF84C4B00211860074607F0DBFA18BB03
:100EA0004749384607F0F4FA002800F091803548A9
:100EB00013E607F0DDF83F4907F02EF93E4907F049
:100EC000DFF9384907F020F83F4B0021186004464D
:100ED00007F0C0FA60B93A49204607F0D9FA00286D
:100EE00000F0918027486BE60020F6E5002014E52D
:100EF000002065E62BB90021204607F0A1FA002862
:100F000079D03249204607F007F907F0E1FA03B239
:100F10003FE62BB90021384607F092FA002862D04C
:100F20002A49384607F0F8F807F0D2FA03B2BDE5CF
:100F300023B90021304607F083FA38B123493046FF
:100F400007F0EAF807F0C4FA03B253E41F49304649
:100F500007F0E2F807F0BCFA03B242E790A1FF1FE6
:100F600060ACFF1F84ACFF1F98ABFF1F00007F43E6
:100F7000B8B0FF1FC8ABFF1FBCB0FF1FD8B0FF1F2A
:100F8000CCACFF1FC0FFFF3F0000FF7F00B76D5BD1
:100F90007A5517007B551700B4AEFF1FE8AEFF1F50
:100FA0001CAFFF1FCDCC4C3DD0CCCC0C0000018041
:100FB0004656153866E6C74200C07F44B8AFFF1FEB
:100FC000A655AC4694ABFF1F20AEFF1F00FEFF46A8
:100FD0003846184907F0A0F84FF07C5106F094FF0E
:100FE00007F09CFA79E51449384607F095F807F0C0
:100FF0006FFA03B2E5E61049204607F08DF807F0D6
:1010000067FA03B2E4E620460A4907F085F84FF094
:101010007C5106F079FF07F081FAD1E538460549A1
:1010200007F07AF84FF07C5106F06EFF07F076FA81
:1010300073E400BF4B243E4700FEFF462DE9F04F0E
:10104000B14BB24DB24EDFF83CB3DFF83CA383B0F6
:1010500000221146184614460193FFF707FA019B38
:10106000AC481D60224621461C835C83DC611C6207
:101070009C629C85DC851C63FFF7F8F9A54BA648AC
:101080001D60224621461C835C83DC611C629C62DD
:101090009C85DC851C63FFF7E9F9A04B03F128026E
:1010A00018469D4B04211D601C835C83DC611C621F
:1010B0009C629C85DC851C63FFF7D8F9984B03F193
:1010C00018021846954B4FF4803901211E60C3F871
:1010D0001890C3F81C90C3F82090C3F82490FFF731
:1010E000C5F98F488F4A9049904E066007F0FAFB89
:1010F0008F4B8F4E03F1340218460221FFF7B6F9E9
:101100008B4B8C489C62DC621C638B4B33608B4B3B
:10111000B361A3F57C53183BF3614FF48053336202
:10112000874B736222462146FFF7A0F9814B854E1B
:101130001E602246214658461C76DC61FFF796F970
:10114000814BCBF8005003F1180218460121ABF88F
:101150001840ABF81A40CBF81C40CBF82040CBF835
:101160002840ABF82C40ABF82E40CBF83040FFF7CE
:101170007DF9754B754E1E602246214600260027DC
:101180005046C3E908679C62FFF770F9704BCAF8D4
:10119000005003F11C0218460121AAF81840AAF8D1
:1011A0001A40CAF81C40CAF82040CAF82840AAF8D9
:1011B0002C40AAF82E40CAF83040FFF757F9644B8C
:1011C000644A1A60644B594D644E604F03F1180233
:1011D00018460121FFF74AF95F48524A5249056013
:1011E00007F080FB5E4B4A4D03F1280218460421AC
:1011F000FFF73CF95B4B03F118021846584B0121ED
:101200001D60C3F81890C3F81C90C3F82090C3F871
:101210002490FFF72BF95348424A4349434D056058
:1012200007F060FB06F1340202213046FFF71EF999
:10123000414B33604C4BB46203F1180218463F4BEC
:10124000B361A3F57C53183BF3614FF480533362D1
:101250003B4B73620121F4623463FFF707F9434BA0
:10126000434D03F1180218463F4B01211F604FF018
:1012700000080027C3E908789C62FFF7F7F83D4BA8
:10128000324F03F118021846384B02211F604FF00D
:1012900000080027C3E908789C62FFF7E7F8354BA0
:1012A000354A1A60354B042103F128021846FFF72E
:1012B000DDF8324B164919604FF0010EDFF8CCC053
:1012C000C3F8189005F11801C3F81C90C3F82090DA
:1012D000C3F8249085F809E0224620462C72EC6081
:1012E000C5F800C02961AE46019B01E0DEF8101090
:1012F00041F82200697A1E4C01329142F6DC204A04
:101300001168002945D15BE180AEFF1F4C47010009
:10131000284701004CAEFF1FB4AEFF1F10B0FF1FE7
:101320003CACFF1FFC9FFF1FD118000010470100BD
:10133000F8ABFF1FD4ACFF1F1C47010000B28E04A6
:1013400080F9855A4047010098ABFF1FEC46010029
:10135000ACACFF1FF846010060ACFF1FC8AFFF1F19
:1013600080B0FF1F84ACFF1FD8B0FF1FC8ABFF1FAA
:101370005CAFFF1F98AFFF1F0447010048B0FF1F7D
:10138000E8B5FF1F1CAFFF1FE8AEFF1F7C930000F6
:1013900011464A69002AFBD14D614FF00009894A84
:1013A0008948C5F81490A5F80490A5F80690019313
:1013B0002A6000F03BFD854A019B13600124104622
:1013C000834B82F808905360C2F80C90547203F07B
:1013D0000DFC804A804B136010467D4B82F80890CC
:1013E000536082F80990C2F80C9003F0FFFB7B4A2F
:1013F0007B4B136010467B4B82F80890536054720D
:10140000C2F80C9003F0F2FB774A754B136010465C
:10141000764B82F80890536082F80990C2F80C90DD
:1014200003F0E4FB724A6A4B136010466D4B82F87E
:101430000890536082F80990C2F80C9003F0D6FB34
:101440006C4A6A4B136010466B4B82F808905360ED
:1014500082F80990C2F80C9003F0C8FB674A614B10
:1014600013601046664B82F80890536082F809902A
:10147000C2F80C9003F0BAFB624A634B136010464B
:10148000624B82F8089053605472C2F80C9003F0DB
:10149000ADFB5F4A5D4B82F808901046C2F800B081
:1014A000536082F80990C2F80C9003F09FFB594AF0
:1014B000594B5360104682F80890C2F800B082F889
:1014C0000990C2F80C9003F091FB544A104682F840
:1014D0000890C2F800A056605472C2F80C9003F055
:1014E00085FB4F4A4F4B82F808901046C2F800A087
:1014F000536082F80990C2F80C9003F077FB4A4AD7
:101500003F4B82F80890104682E8480082F8099024
:10151000C2F80C9003F06AFB444A3F4B136010463C
:10152000434B82F80890536082F80990C2F80C90FF
:1015300003F05CFB3F4A354B136010463E4B82F88C
:101540000890536082F80990C2F80C9003F04EFBAB
:101550003A4A344B13601046394B82F80890536076
:1015600082F80990C2F80C9003F040FB354A324BE8
:10157000547210461660536082F80890C2F80C90BE
:1015800003F034FB304A2C4B136010462F4B82F88B
:101590000890536082F80990C2F80C9003F026FB83
:1015A0002B4A2A4B82F80890104682E8280082F8DD
:1015B0000990C2F80C9003B0BDE8F04F03F016BBE1
:1015C0001460EAE6344701005CAFFF1F00ADFF1F67
:1015D00010B0FF1F10ADFF1F4CAEFF1F20ADFF1F4F
:1015E000B4AEFF1FF8ABFF1F30ADFF1F3CACFF1FB9
:1015F00040ADFF1F50ADFF1F98ABFF1F60ADFF1F39
:10160000ACACFF1F24AEFF1FD4ACFF1F80B0FF1F88
:1016100038AEFF1F70ADFF1F60ACFF1F80ADFF1F16
:1016200090ADFF1F84ACFF1FA0ADFF1FB0ADFF1F2B
:10163000D8B0FF1FC0ADFF1F98AFFF1FD0ADFF1F79
:10164000C8ABFF1FE0ADFF1FF0ADFF1F48B0FF1F8D
:1016500000AEFF1F2DE9F0410021804603F098FA0B
:10166000F8B1D8E90823011D00F5827E0F684E68A5
:101670008D68103151F8044CC7FBC723C6FBC62345
:10168000C5FBC523C4FBC4238E45EFD8D8F828106A
:101690000131C8E90823C8F82810BDE8F04103F07B
:1016A00039BABDE8F08100BFF8B572B60026002750
:1016B0000023D0E90845826A8362C0E9086762B600
:1016C000D2012046294606F049FF06F0E7FC05F066
:1016D000B5F8024906F0D4FDF8BD00BF00FEFF4694
:1016E000F8B5037E102B04464FF000014FD0204682
:1016F00003F05AFA0546002868D0637E012B57D9BB
:10170000227E102A4FF000062AD005EB4602B2F9DD
:101710000470FBB1802E41D005EB4600023032460A
:1017200001E0802A3AD0237EC3F1100327FA03F1A7
:1017300001FA03F320F8023F0132637E911B9942C4
:10174000EFDB802A2AD0164605EB4602B2F9047078
:10175000002BDFD13246F4E73246802A1ED01646EF
:1017600005EB4602B2F90470002BF5D0802E15D09F
:1017700005EB46010231324601E0802A0ED021F805
:10178000027F0132637E901B9842F6DBE5E7437EE1
:10179000012BACD803F0FCF90546B8B12046294628
:1017A000002203F0DBF92846BDE8F84003F0B2B9A7
:1017B000811C00F58170227E31F9023FC2F11002D6
:1017C0001341934088420B80F5D1E7E7F8BD00BF95
:1017D0002DE9F8430021054603F0E6F9012104460E
:1017E000284603F0D5F90646BCB3D0B304F5827E93
:1017F000231D9E4524D90C3004F10C0111E90C0085
:1018000050F8089C50F8048C12FB39FC2CF3CF3CA8
:1018100012FB09F222F3CF32C2EA0C4213FB38FC6E
:101820002CF3CF3C13FB08F323F3CF33C3EA0C4371
:101830008E4501E90C0000F1080001F10801DDD836
:1018400028460022214603F089F9204603F062F978
:101850003046BDE8F84303F05DB90028F9D1BDE892
:10186000F8832046BDE8F84303F054B9F8B5C369DE
:101870006BB30021054603F097F9044638B3B5F978
:101880002000EE69A11C04F5817731F8023F83F452
:10189000004343FA00F292B206EB420C36F912E032
:1018A000BCF902C082409B1ACEEB0C0203FB02F390
:1018B000034173448F420B80E7D128462146002222
:1018C00003F04CF92046BDE8F84003F023B9F8BD19
:1018D00010B50446C069034B236008B103F0E2FA77
:1018E000204610BD1047010079B3931EB3F5004F99
:1018F0002BD22DE9F041551E2B4224D10746C06959
:101900000C46904608B103F0CDFA4FEA480003F0C8
:10191000C7FA04EB8808F861861E0C4954F8040BDA
:1019200006F0FAFB06F0D4FD444526F8020FF4D188
:1019300010233B846B1006D00F22511E5B1010B297
:101940008AB2FAD13884BDE8F081704700FEFF46C4
:101950002DE9F04F83B08846846A0190D0F81CC00E
:10196000D0F824A0C16A076BDDF8309008F58070CC
:101970002646834638F902EB4FEA0E3E5CFB17F42D
:1019800001EB84045AFB17F57644C4EB6606A6EB1C
:1019900085065CFB16F007EB80005CFB10F104EBA6
:1019A00081015AFB10F5C1EB0E07A7EB85055CFB27
:1019B00015F700EB87070C4424F34F34384420F329
:1019C0004F30354425F34F35C34522F8024B764658
:1019D00023F8020B29F8025BCCD1019A1346C3F815
:1019E00028E0D162176303B0BDE8F08F2DE9F04F16
:1019F00085B088468169019101460C460390006AD2
:101A00000290D1F824B08F6A206BC96ADDF838A043
:101A1000DDF83C9008F58074009432F9026B029C6A
:101A200006FB04F626F0784505F10065ED0055FB50
:101A300015F5284C55FB14F5ED00013CF616C6F1E2
:101A400006062C443441019D55FB14F4224D38F90F
:101A500002CBAC42A8BF2C4624024FEA0C3C54FBFC
:101A600010F601EB86065BFB10F107EB0C0EC6EBE4
:101A70006E0EAEEB810E54FB1EF500EB850554FB9C
:101A800015F106EB81015BFB15F0C1EB0C07A7EB31
:101A9000800754FB17F405EB84000E4426F34F3601
:101AA000054425F34F35BE442EF34F3E009C23F8EA
:101AB000026B44452AF8025B674629F802EBACD179
:101AC000039A1346C3F828C0D162106305B0BDE87D
:101AD000F08F00BFABAAAA2AE71052002DE9F0430D
:101AE000002183B0044603F053F801210546204647
:101AF00003F04EF80646002D3CD002F0BFFF07462B
:101B000000283CD002F0BAFF8046002842D002F004
:101B1000B5FF8146002851D0002E45D0021D08F1A6
:101B200004030192009320463B1D321D291DFFF73F
:101B30005DFF304602F0EEFF284602F0EBFF002288
:101B40003946204603F00AF8384602F0E3FF012246
:101B50004146204603F002F8404602F0DBFF2046F3
:101B60000222494602F0FAFF484603B0BDE8F043BE
:101B700002F0D0BF0028F8D103B0BDE8F0832846BA
:101B800002F0C8FF002EF7D0304603B0BDE8F043A6
:101B900002F0C0BF284602F0BDFF384602F0BAFF8F
:101BA000002EE9D03046F0E7031D00933A1D08F1FE
:101BB0000403291D2046FFF7CBFEBDE7284602F0AF
:101BC000A9FF384602F0A6FF404602F0A3FF002E10
:101BD000D2D03046D9E700BF10B5044603F0DCF898
:101BE000204610BD024A0349034806F07BBE00BFF1
:101BF000FC9FFF1FD91B000008B1FF1F38B5074D20
:101C0000074C08482A46214606F06CFE2A46214623
:101C10000548BDE8384006F065BE00BFFC9FFF1FC9
:101C2000D91B000010B1FF1F18B1FF1F024A034962
:101C3000034806F057BE00BFFC9FFF1FD91B0000E2
:101C400020B1FF1F024A0349034806F04BBE00BF04
:101C5000FC9FFF1FD91B000028B1FF1F024A034948
:101C6000034806F03FBE00BFFC9FFF1FD91B0000CA
:101C700030B1FF1F2DE9F8434FF00008064600F190
:101C80001805474641463046002F4FD002F080FFEE
:101C9000F0B12C68B4F5803F07F1040100F1040EA7
:101CA00007F5827C27D05EF8042B34FB02F334FB6B
:101CB00012F903F30F0209F30F03C2EA03430A68A0
:101CC00093FA12F341F8043B8C45ECD802F022FF62
:101CD00008F10108B8F1040F05F10405D2D1002F75
:101CE00040D030463946002202F038FF3846BDE881
:101CF000F84302F00FBF07F10C0100F10C0451F89A
:101D0000083C54F8082C93FA12F341F8083C54F8B4
:101D1000042C51F8043C93FA12F38C4541F8043C2E
:101D200004F1080401F10801E9D8CFE702F03CFF13
:101D300007460028CCD02868B0F5803FC8D0391DB0
:101D400007F582740B6830FB03F230FB13F302F3E8
:101D50000F0203F30F03C2EA034341F8043B8C4232
:101D6000F0D8B5E7BDE8F88310B5002102F010FF08
:101D700070B172B60A4B1A6872B10A490C6844B164
:101D80001C60086062B61046BDE8104002F0C2BE9A
:101D900010BD086062B610BD186062B610BD00BF0D
:101DA00048B1FF1F38B1FF1F38B5194B19491A68E0
:101DB000194C12681B79194D0B70A242286836BF66
:101DC0002246A4F5807202F58074C8B1011D31F974
:101DD000023B03F5FF437F331B1122F8023B944281
:101DE000F5D802F097FE0E4B0022196829601A60A0
:101DF0000C4B1B781BB10C4B4FF080421A6038BD66
:101E000040F2FF7322F8023B9442FBD8F0E700BF98
:101E10003CB1FF1F1F8000405097FF1F48B1FF1FBC
:101E200038B1FF1F44B1FF1F08E200E0F8B50121FF
:101E30005148524D02F04CFF514A524913688020DC
:101E400043F480531360002408702C800120083470
:101E500001F060FEA3B2B3F5006F1CB2F5D14A4B9E
:101E60001B685B0208D5494B1A6848F6A2731340F9
:101E700048F6A27293426DD04349444A0B68444FDE
:101E8000444D4548454C43F480030B604FF0010E30
:101E900040F23F4648F6A37140F20113C7F800E054
:101EA0002E60116014600360334D3D492B680022A1
:101EB0001960197C1A746FF03F01587C59740C2119
:101EC000987C99744021D87CD974997D9A750124A5
:101ED000D97DDC7502204FF0FF316FF001065A7199
:101EE0005A729A72DA721A731A755A751A765A7683
:101EF0009A76DA765E739C71DC7118711872997338
:101F0000D973997F29799A7701F18041D87FDC775D
:101F100001F5043106201E7F1877B0205E7F5A77C6
:101F20000A70087002F07AFE2A791E4B1E4E187055
:101F300053119B0003F1604302F01F051B493270EF
:101F400003F5614302F11000AC40194D41F82050F7
:101F50001C60F8BD0F4B1A6840F23F439A428BD188
:101F60000B4B1B68012B87D10B4B1A6840F20113F6
:101F70009A4281D198E700BF3CB1FF1F00C00C40DE
:101F80002C80044021C00C403C8004400060034091
:101F90000C6003400460034010600340A28F010006
:101FA0005096FF1F44B1FF1F1B800040009AFF1F87
:101FB000A91D0000044A137802290CBF03F0BF03D7
:101FC00043F040031370704721C00C40024A03499C
:101FD000034806F087BC00BFFC9FFF1FD91B000011
:101FE0003CB1FF1F024A0349034806F07BBC00BF17
:101FF000FC9FFF1FD91B00004CB1FF1F024A034981
:10200000034806F06FBC00BFFC9FFF1FD91B0000F8
:1020100054B1FF1F024A0349034806F063BC00BFE6
:10202000FC9FFF1FD91B00005CB1FF1F024A034940
:10203000034806F057BC00BFFC9FFF1FD91B0000E0
:1020400064B1FF1F024A0349034806F04BBC00BFBE
:10205000FC9FFF1FD91B00006CB1FF1F024A034900
:10206000034806F03FBC00BFFC9FFF1FD91B0000C8
:1020700074B1FF1FF8B5054602F000FD002800F01E
:1020800092802A7E0446031D00F58276002A39D00C
:10209000286AE9696A6A81FAA0FEEFF300873F01C6
:1020A00040D49EFBF2FEBEF17F0F54DD04F1140715
:1020B00002E0E9696A6A103711448818C0EA2141D0
:1020C00010448318C3EA2040134403EB020ECEEA07
:1020D000234396447244EA61C2EA2E42BE4247F864
:1020E000101C47F80C0C47F8083C47F8042CE0D8C3
:1020F00028462146002202F031FD2046BDE8F84086
:1021000002F008BDEA69C2EA22421A605A609A6087
:10211000DA601A615A619A612033B34243F8042CA1
:10212000F3D3E5E75AB90022E8612A76C0EA2042F3
:10213000B342DDD243F8042B9E42FBD8D8E7571CAC
:10214000022FB0D990FBF2FE91FBF2F7C7EB0E0E17
:10215000BEF17F0FAADCBEF1010F18DD70461F46ED
:1021600001E0E9696A6A11440A44EA610238C2EA94
:102170002142012847F8042BF3DCAEF1020E4FEAAE
:102180005E014A1C286AAEEB410E03EB8203BEF1EE
:10219000000FC8D0E9696A6A0A44C0EA22421A609C
:1021A000286A0433BFE7F8BD2DE9F84FB0F91830BD
:1021B0000BB9BDE8F88F044602F060FC0546002824
:1021C000F7D0B4F92C30061D072B32D8DFE813F016
:1021D00066009000A700B9000800D600E9004C0096
:1021E000D4F830C0BCF1000F39D0E06905F5827831
:1021F000B646C10D4A1CC0F3CF13D2B23CF911A0B0
:102200003CF91210B4F91820A76AC3F57F4909F107
:10221000FF0909FB0AF903FB01931B1402FB03F3FB
:10222000DB132EF8023B3844C64520F00040E0D1D5
:10223000E061B4F92E206AB105F5827101E0B4F9CC
:102240002E20B6F90030134403F30F0326F8023BA7
:10225000B142F4D820460022294602F07FFC2846ED
:10226000BDE8F84F02F056BCE36900F582783746C6
:1022700008E0B4F92400A26A27F8020B134447458A
:10228000E361D6D0A26A9A42F3D9B4F91810484251
:1022900002F0E8FD00B2E369A084ECE74A4F00F5E4
:1022A000827E3046E369B4F91810D4F828804FEAEA
:1022B000D35CC3F3CF1B37F91C900CF1010CCBF5A9
:1022C0007F4A0AF1FF0A37F91CC009FB0AF20BFB2F
:1022D0000C22121401FB02F2D21320F8022B13EB92
:1022E000080348BF23F000437045E361DAD1A0E75B
:1022F000E26900F5827E3146B4F91870A06A42F3B3
:10230000CF3303FB07F3DB1321F8023B7145024493
:10231000F2D1E261B4F92E20002A8DD19AE7E26968
:10232000831D00F5837051004ABF218BB4F918104A
:10233000494223F8021CA16A023398420A44F2D1AE
:10234000E7E7E16900F5827E30460029B7BF238BBD
:10235000B4F918205B421AB24F004FEA810348BF1C
:102360005B425B0C02FB03F3DB13A76A20F8023B22
:10237000704501EB4701E8D1E1615AE7E269276A5C
:10238000831D00F58370BA4236BF218BB4F9181053
:10239000494223F8021CA16A023398420A44F2D14E
:1023A000B7E7E26900F5827E3146B4F91870A06A99
:1023B00042F3CF3303FB07F3DB1321F8023B7145F4
:1023C000A2EB0002F1D1A4E7E0440100064B074A6A
:1023D000DA620221002259609A7083F8242083F87F
:1023E000302083F83220704798B1FF1F5847010012
:1023F00008B50121007801F073FB0E4B1A7802B981
:1024000008BD0D4A127800211970002AF8D0D007B3
:1024100003D50A490A4B09681960910703D5074992
:10242000084B496819605307EAD5044A064B92687D
:102430001A6008BDF0B1FF1F94B1FF1F88B1FF1FE4
:1024400000E100E004E100E008E100E0204B1A7840
:102450001AB10078002101F043BB70B41D491E4A37
:102460000C78126801251D7004B372B60B78DC0776
:1024700007D51A4C1A49266809681A4D3140296057
:102480002160990707D5184C154926684968154DEC
:102490003140216069605B0707D51449104B0D6816
:1024A0009B68104C2B400B60A36062B6104BD96840
:1024B000914207D00F4C1C600F49DA6042F0804413
:1024C0001C6119600078002170BC01F009BB00BFDD
:1024D000F0B1FF1F94B1FF1FECB1FF1F80E100E0DE
:1024E0007CB1FF1F88B1FF1F84E100E088E100E0BC
:1024F00000C0024001401F0000001F80F0B4134CD8
:10250000134A236882B01746009300984FF00046A4
:1025100080B2FF25136843F480631360D66255636D
:10252000D36A002BFCDABB6BDBB2FF2B0AD023682B
:102530000193019B9BB21B1A8B42EBDB002002B084
:10254000F0BC7047012002B0F0BC7047E8B4FF1F38
:1025500000C00240F8B50D464FF496711646044689
:10256000FFF7CCFF284B1A684FF0004042F480621E
:1025700045F040011A60D8621A465963D36A002BAD
:10258000FCDA214918204FF000470A6826FA00F3C8
:1025900042F48062DBB20A60CF624B63CB6A002BED
:1025A000FCDA083810F1080FEFD155B3082D0CBF35
:1025B0008721FF21144B1A684FF0004042F48062DB
:1025C0001A60D8621A465963D36A002BFCDA0E4AA5
:1025D000002716464FF00045FF21136843F480633F
:1025E0001360D5625163D36A002BFCDAB36BD8B2A7
:1025F0001B06607000D4F8BD0137B7F5807FECD1C1
:10260000F8BD9521D6E700BF00C00240F0B4164CDB
:10261000164A236882B01746009300994FF000468F
:1026200089B2FF25136843F480631360D662556353
:10263000D36A002BFCDABB6BDBB2FF2B43700BD1F0
:1026400023680193019B9BB25B1AB3F5967FE9DD8A
:10265000002002B0F0BC7047A3F1FE00B0FA80F099
:10266000400902B0F0BC7047E8B4FF1F00C0024050
:10267000F8B58378032B0E46044618BF4E02154664
:10268000FFF7E4FE324611212046FFF763FF18B939
:102690002046FFF7BBFF20B92046FFF7A9FE002028
:1026A000F8BD204B2049214A1A608E4659631A46CC
:1026B00059631E46596305F5FD70A91C05F5FE77A3
:1026C000D36A13F0F00FFBD0C6F834E0B36B01F817
:1026D000013C1B1201F8023C02318F42F0D105F59A
:1026E0000075A8420DD20F4A1646D36A13F0F00FB8
:1026F000FBD0B36B191200F8021BA84200F8013C92
:10270000F3D3084B0949084A196019465A63CB6A42
:10271000044A13F0F00FFAD02046936BFFF768FEDF
:102720000120F8BD00C00240FFFF009000041F80A0
:10273000F0B4314E33684FF0004743F480633360A8
:102740003D46F762344671633346511C02F201275D
:10275000E26A002AFCDA1A6811F8016C42F480621D
:102760001A60DD625E63E26A002AFCDA1A6811F818
:10277000026B42F480628F421A60DD625E63E7D1D1
:102780001D49CA6A1C4B002AFBDA1A684FF0004543
:1027900042F48062FF241A601946DD625C63CB6AF2
:1027A000154A002BFBDA13684FF0004543F48063B1
:1027B000FF2413601146D5625463CB6A0E4A002B86
:1027C000FBDA13684FF0004543F48063FF24136085
:1027D0001146D5625463CB6A074A002BFBDA936B30
:1027E000DBB203F01F024370A2F10500B0FA80F0E3
:1027F0004009F0BC704700BF00C0024070B50446FD
:1028000071B18378032B0D4618BF4D021646FFF7B2
:102810001DFE2A4618212046FFF79CFE054620B1E2
:102820002046FFF7E5FD002070BD3246FE21204620
:10283000FFF77EFF0028F3D04FF416712046FFF714
:102840005DFE0028ECD02A460D212046FFF782FECF
:102850000028E5D10B4B1A684FF0004542F4806226
:10286000FF201A601946DD625863CB6A054A002BC7
:10287000FBDA936B13F0FF0FD2D12046FFF7B8FDC0
:10288000012070BD00C00240014B024A1A6070472F
:10289000ECB1FF1F0110013838B590F90530002B5D
:1028A00003DBBDE8384000F091B90446012100691E
:1028B00000F0B6F9F8B1257D104B13EB45151AD091
:1028C000A3790F4A012B9CBFA369EB61E3691268EE
:1028D0006B831B0CAB8232B105F1160105F11800B8
:1028E00090472B8B6B82637903F07F036371BDE8A4
:1028F000384000F06BB9002038BD00BF00B2FF1FA8
:10290000F4B1FF1F10B500F1080204460121006A6E
:1029100000F024FA50B1E3693BB96379A268E2613F
:1029200063F07F036371012010BD012010BD00BF63
:10293000F8B5837913B182698A4201D20020F8BDCB
:10294000022B0F4605461AD007B32B6AE9681C7C98
:102950004A1E04F109037C1EDA40DC40A24211D970
:10296000EB69AB6005F1080606E0A968286A00F08B
:10297000BDF9013C0028E1D03246002CF5D1EF60D2
:102980000120F8BD0029EBD0A41AEBE7AF60EF609F
:102990000120F8BD2DE9F04F8B46817985B00129E2
:1029A0008046019206D0012388F80430002005B04B
:1029B000BDE8F08F42799107F5D553070AD5D8F8CD
:1029C0000C40D8F818108C4200F0C680FFF7B0FF1A
:1029D0000028E8D0019BD8F80C40002B00F0AF8015
:1029E000DFF8C891DFF8C8A1019F3AE0002C43D17D
:1029F000D8F80810002940F08380D8F81C20002A5D
:102A000000F09280C8F80820C4F50076B6B2BE4245
:102A100039D890F810E04169023A02FA0EF20D44FA
:102A2000B6F5007F154435D1DAF80020954204BF91
:102A30004FF0FF32CAF80020584A294610685A461B
:102A4000FFF7DCFE0028AED00BF5007B4FF40074DE
:102A5000D8F80C20BF1B1444BFB2C8F80C40002F9C
:102A60006DD0D8F820000579013D05EA542515F010
:102A7000FF05C4F30804B9D0C4F50076B6B2BE426F
:102A8000D8F80820C5D9067C4169023AB2400D4405
:102A900015443E462CB9D8F80C10D8F818209142AD
:102AA0001BD22846012100F0BBF800283FF47BAF81
:102AB0004C4404EB060E744520D00BF1FF31621E2E
:102AC0000EF1FF3511F8010F02F8010F9542F9D10F
:102AD000C4EB0E0EF3443446BAE700F077F8002852
:102AE0003FF461AF2E49CAF800500A784C4404EB19
:102AF000060E42F0010274450A70DED13446A7E7A3
:102B000003AA00F0F3F800283FF451AFD8F82000F2
:102B1000244B90F82060039A4FF6F871102E18BFDE
:102B200019468A42FFF46EAF4046FFF7EBFE0028DD
:102B30003FF439AFD8F82000D8F8082064E7D8F877
:102B40001830A3420DD298F80520C8F8184042F07A
:102B5000800288F805200FE0019B002B7FF440AF36
:102B60000AE0114B98F805201B682BB1019B1BB1A3
:102B700042F0800288F8052012070AD598F806303E
:102B8000002B3FF410AF4046FFF786FE00283FF4CD
:102B90000AAF019805B0BDE8F08F00BFFCB1FF1F80
:102BA00000B4FF1FF8FFFF0FF4B1FF1F00B2FF1FBB
:102BB00098A1FF1F00B583B002AB012203F8011DED
:102BC0001946FFF7E7FE03B05DF804FB70B50F4C44
:102BD00023780BB9012070BD0D4B0E4D1968286884
:102BE0000D4AFFF70BFE70B10C4E316819B9002386
:102BF0002370012070BD2868074AFFF7FFFD10B160
:102C000000233360F3E7002070BD00BF00B4FF1F56
:102C100098A1FF1FFCB1FF1F00B2FF1FF8B1FF1FFB
:102C200070B50D4D2B6883420E460ED00446FFF75B
:102C3000CDFF08B9002070BD084B094A186821462D
:102C4000FFF716FD0028F5D02C60064B19783143AC
:102C50001970012070BD00BF98A1FF1FFCB1FF1FBC
:102C600000B2FF1F00B4FF1FF8B590F82030C46910
:102C7000102B1A4B05460E4617461B6816D004EB60
:102C8000D1149C4216D106F07F06154A42F82670F0
:102C90001449287E0A78012842F001020A7018D9E6
:102CA000A968114A0B4413600120F8BD04EB1124FC
:102CB0009C4208D000212046FFF7B2FF50B195F8A2
:102CC0002030102B07D1F6B2054A234622F81670A1
:102CD000DEE70120F8BD2346D5E700BF98A1FF1F1E
:102CE00000B2FF1F00B4FF1FF8B1FF1FC36801331C
:102CF0008B4218D370B590F82030102B154B04463A
:102D000016460D46C0691B680FD000EBD1109842E3
:102D10000FD105F07F01104B53F8213023F07043A1
:102D20003360012070BD0020704700EB11209842F5
:102D300007D00021FFF774FF50B194F82030102B1A
:102D4000E7D1E9B2044B33F811303360012070BD94
:102D5000002070BD98A1FF1F00B2FF1F2DE9F04FAA
:102D6000176883B06FB301374FF0000AC36803F1EF
:102D7000010813B38B46064691463C46002505E004
:102D80001C461F46F3680135AB4216D9A04538BF33
:102D90000224214601AA304638BF2746FFF7A6FF86
:102DA000631CD91B48B1019A002AE9D18B4510D088
:102DB0001C46F3680135AB42E8D8002003B0BDE8FB
:102DC000F08FA1F1010ABAFA8AFA07684FEA5A1A93
:102DD000CCE7012CF1D9F36801339C42EDD86FF0B8
:102DE000704221463046FFF73FFF0028E5D0A7425A
:102DF00014D2013C012CE0D9F36801339C42DCD8A9
:102E0000621C21463046FFF72FFF0028D5D0A7428D
:102E100004F1FF3402D0012CEED1CEE7D9F8001036
:102E200059B10129C9D9F36801339942C5D83A4645
:102E30003046FFF719FF0028BFD0C9F80070BAF17B
:102E4000000F01D0013737600120B7E790F8392033
:102E500090F83800101A704790F8383090F8392000
:102E60009A4205D95A1C034480F83820187E7047CE
:102E70004FF0FF30704700BF90F8383090F839209D
:102E80009A4286BF1B18187E4FF0FF30704700BF74
:102E9000704700BFB0F85E306BB190F85D30202B0A
:102EA00007D8C218013380F85D30012082F83B104A
:102EB0007047012303710020704700BF38B50546F5
:102EC000B0F85E0090B195F85D301446C3F1210270
:102ED00094420CD805F13B001844224600F018F942
:102EE00095F85D30234485F85D30204638BD0120DB
:102EF00014462871EEE700BF10B50269D378DBB243
:102F0000D90604463DD510215806D17038D503F0B6
:102F1000040303F0FF02002B51D03D49626E0023F1
:102F20000B7084F85D30002A5BD0904794F85D30D8
:102F3000002B56D02369D0229A70236994F83B2045
:102F40001A712369012284F85C200222DA7010BD14
:102F5000304B84F860009C424AD02F4B9C4252D0A8
:102F600094F8391013791F29DBB207D82848007864
:102F700020B16018013184F8391003760223D37030
:102F800010BD5906C3D4917801F0100101F0FF0083
:102F90000029DDD013F001031ED194F85C1094F8E1
:102FA0005D00884281BF4B1C091984F85C3091F8A0
:102FB0003B3013712369D0229A702269DEE72369BE
:102FC00084F83920C0229A702369114A19790121A5
:102FD00011700222DA7010BDC02393702269137938
:102FE000CCE70122002384F85D2084F83B30A1E780
:102FF000626994F86130094913440322187A00F099
:103000009FFB2269ACE7626994F861300449F3E7F9
:1030100070B4FF1F74B4FF1F04B4FF1F81300000A1
:103020008D3000000369DB7803F0200373B190F862
:1030300060300133DBB2012B80F860301AD942696D
:1030400090F861301344187A00F0F6BB70B542690D
:1030500003F0FF0590F8613013440446187A00F03D
:10306000EBFBA36E5BB184F8385094F83900BDE8EF
:103070007040184790F85F30002BE0D0704770BD6B
:103080000148FFF7CFBF00BF74B4FF1F0148FFF72F
:10309000C9BF00BF04B4FF1F0148FFF72DBF00BF29
:1030A00074B4FF1F0148FFF727BF00BF04B4FF1F20
:1030B000F0B41049104B114A0A6100224FF47A749F
:1030C0000F4F1048104E114D0A710A7381F861209C
:1030D00081F862201A711A7383F8612083F86220E4
:1030E0004F618C609C601E615D6108601860F0BC7F
:1030F000704700BF74B4FF1F04B4FF1F0060064098
:1031000060470100A84701000070064080470100A9
:10311000844641EA000313F003036DD1403A41D3E2
:1031200051F8043B40F8043B51F8043B40F8043BA1
:1031300051F8043B40F8043B51F8043B40F8043B91
:1031400051F8043B40F8043B51F8043B40F8043B81
:1031500051F8043B40F8043B51F8043B40F8043B71
:1031600051F8043B40F8043B51F8043B40F8043B61
:1031700051F8043B40F8043B51F8043B40F8043B51
:1031800051F8043B40F8043B51F8043B40F8043B41
:1031900051F8043B40F8043B51F8043B40F8043B31
:1031A000403ABDD2303211D351F8043B40F8043BD1
:1031B00051F8043B40F8043B51F8043B40F8043B11
:1031C00051F8043B40F8043B103AEDD20C3205D3E1
:1031D00051F8043B40F8043B043AF9D2043208D0D9
:1031E000D2071CBF11F8013B00F8013B01D30B884B
:1031F00003806046704700BF082A13D38B078DD029
:1032000010F003038AD0C3F10403D21ADB071CBFFA
:1032100011F8013B00F8013B80D331F8023B20F864
:10322000023B7BE7043AD9D3013A11F8013B00F89D
:10323000013BF9D20B7803704B7843708B78837025
:1032400060467047374A384913681B06FCD40B6840
:1032500013F08003F8D172B634490A78002A5FD09F
:10326000334A3448F0B4344C176806682568D4688B
:103270000C303E44143200681268304F35442C4400
:1032800020440244C2F34E022D4E2E482E4D2F4CA8
:1032900042F400423A60376806682D682C4A246878
:1032A0000C303E44006812682A4F35442C442044B8
:1032B0000244C2F34E02284E2848294D294C42F4BC
:1032C00000423A60376806682D68274A24680C3047
:1032D0003E4400681268254F35442C442044024483
:1032E000C2F34E02224E2348234D244C42F40042A6
:1032F0003A60376806682D68214A24680C303E44DD
:103300000068126835442C4420440244C2F34E0243
:103310001C4842F4004202600B7062B6F0BC704779
:1033200062B6704724B0034024B00B40E1B4FF1FE5
:1033300038B003403CB0034040B003402CB00340E1
:1033400058B003405CB0034060B0034064B0034039
:103350006CB0034030B0034038B00B403CB00B4081
:1033600040B00B4044B00B404CB00B402CB00B4075
:1033700058B00B405CB00B4060B00B4064B00B40E9
:103380006CB00B4030B00B4030B42948294A2A4B6E
:103390002A4D6024E121047011701B78284C082B01
:1033A00030D00A2B2748284937D00C2B0CBF3522A8
:1033B0003D2212232A60236002600B60234B2449C4
:1033C0001B78244ABBB101230B601360224B2349B5
:1033D0001B78234A012B26D9042B0FD9082B1ED981
:1033E000102B94BF862387230B6013601D4B012293
:1033F0001A7030BC70470B601360E7E784230B60E2
:103400001360F3E700F58E200F49083001221323E3
:103410002A60236002600B60D0E73922F7E785233A
:103420000B601360E2E780230B601360DEE700BFF0
:1034300000400740014007409CA1FF1F08B0034027
:103440000CB0034008B00B400CB00B40E4B4FF1FBD
:1034500020B0034020B00B409DA1FF1F24B00340CB
:1034600024B00B40E1B4FF1F28282FD8334B2DE99F
:10347000F0411E5CFF2E2BD0314B1B78002B2AD144
:1034800032062CD472B62F4D2F4C2F4601232660C6
:103490002B7062B672B623681B060CD43B781BB93E
:1034A000F4E72B78002BF1D062B601F01FFD72B665
:1034B00023681806F5D5254B1B6800222A7062B6D2
:1034C000234A107843FA00F0BDE8F08100207047ED
:1034D0000020BDE8F081FFF7B5FE3206D2D572B606
:1034E0001C4DDFF87C801C4C06F04007FFB206F054
:1034F0003F06D8F80030DFB123F01003C8F80030E1
:1035000001232660134A2B7062B672B6236819062F
:103510000CD413781BB9ECE72B78002BE9D062B6FA
:1035200001F0E4FC72B623681B06F5D50B4BC3E72C
:1035300043F01003C8F80030E2E700BFC0470100C5
:10354000E1B4FF1FE3B4FF1F00B0034010B003401D
:10355000E0B4FF1FE2B4FF1F00B00B4010B00B40FF
:103560000CB00B400B4A0C49136843F480531360B2
:103570000B783BB1094B80221A70094B80F30C0089
:1035800018807047054BC0221A70054B80F30C0061
:10359000188070472C800440E4B4FF1F21C00C4009
:1035A00000C00C40024A136801331360704700BF2B
:1035B000E8B4FF1F08B5104C08E0236859050DD486
:1035C00023681A050FD42368DB0411D42368580339
:1035D000F3D500F015FC23685905F1D501F0FCFF87
:1035E00023681A05EFD502F099FB2368DB04EDD5BB
:1035F00002F04CFEEAE700BF3480044008B5FFF754
:10360000D9FF00BF014B10221A80704700200540EF
:10361000704700BF094908B50B6830B16A461844C5
:10362000A2F58052904202D20860184608BD05F00B
:1036300065F90C2303604FF0FF3008BDA0A1FF1F08
:10364000FEE700BFEFF3138070B9EFF310836BB99F
:10365000EFF305825AB94FF48070EFF311832BB169
:10366000984228BF184670474FF0FF3070470F2A26
:1036700001D81846F1E7014BD05CEEE7F0E300E03B
:10368000704700BF10B40F4B53F8302092F88042BF
:103690002CB1012369B182F8803010BC704703EB74
:1036A000C0035B681A6841B922F002021A6010BCBC
:1036B000704782F8003110BC704742F003021A6074
:1036C00010BC7047EC4701001C4A02EBC003012903
:1036D0005B6811D004291BD052F83000002280F81A
:1036E000802229B1022920D0032922D01A607047F4
:1036F0004FF480721A60704752F830004FF4A27293
:1037000080F880121A601A6822F020021A6070474E
:1037100052F830104FF4A272012081F880021A6032
:103720001A6842F020021A60704740F203121A60D1
:1037300070474FF481721A60704700BFEC47010078
:10374000212817D8F8B5042A13D8DFE802F0494C2D
:103750004F1446002C4872B6236823F4702343F0BC
:103760008072C4F384011643236040F82150266020
:1037700062B6F8BD70474FF41026244B03EBC0032C
:103780000D465C68216811F4E06134D0204B214A79
:103790002149C3F89C2104F140422048C3F8A411F8
:1037A000A2F592211E4FC3F8A0017C291D48C3F841
:1037B000A871C3F8AC01CDD9A2F594237C2B18D9FC
:1037C000A2F596237C2B19D9A2F598237C2B17D927
:1037D000A2F59A227C2A15D9F8BD4FF43026CCE701
:1037E0004FF40026C9E74FF44026C6E74FF42026E1
:1037F000C3E70D48AFE7FFF767FFC7E70B48AAE746
:103800000B48A8E70B48A6E7A4A1FF1FEC4701005F
:10381000009AFF1FD19FFF1F799FFF1FA59FFF1FCA
:103820004D9FFF1F219FFF1FDCA1FF1F2CA2FF1F29
:103830005CA2FF1F7CA2FF1F1A4B03EBC00010B459
:10384000426802F14043A3F592217C2905D9A3F5F2
:1038500094217C2913D8144900E0144972B61368E6
:10386000134C23F08773C2F3840023F4803343F0B6
:103870008073136041F8204062B610BC7047A3F516
:1038800096217C2909D9A3F598217C2907D9A3F58C
:103890009A237C2BF1D80749E0E70749DEE707497F
:1038A000DCE700BFEC470100DCA1FF1FA4A1FF1F64
:1038B000813600007CA2FF1F2CA2FF1F5CA2FF1F0D
:1038C00030B4054B054D064C002210211A602A60C9
:1038D0002060196030BC704714D0034004D003400E
:1038E00000D00340282838B52ED0002904464FDDEB
:1038F0005F4B1B78012505FA03F28A4202D8212882
:1039000037D938BD0338C2B2012A3AD9202C4AD05F
:10391000192C48D0574A126802FB011222FA03F30D
:103920001D2800F29B80DFE800F0928B847D99993E
:10393000766F99999999999999999968615A539932
:103940004C99999999999945494B1B780B2B08D912
:103950000C2B1CBF0C3B19410846BDE83840FFF753
:1039600001BEC3F10C0399400846BDE83840FFF79B
:10397000F9BD2946FFF786FE2946BDE83840FFF726
:10398000A3BE3D4A126802FB011222FA03F3C7E705
:103990002128B6D80021FFF775FE20460121BDE899
:1039A0003840FFF791BE354A126802FB011222FA35
:1039B00003F3B5E73249334A0B604FF45173136098
:1039C00038BD3149314A0B604FF45173136038BD33
:1039D0002F49304A0B6040F24443136038BD2E49F2
:1039E0002E4A0B6040F24443136038BD2C492D4AE7
:1039F0000B6040F24443136038BD2B492B4A0B60E7
:103A000040F24443136038BD29492A4A0B6040F212
:103A10004443136038BD2849284A0B6040F24443B0
:103A2000136038BD2649274A0B6040F244431360B7
:103A300038BD2549254A0B6040F24443136038BD28
:103A40002349244A0B604FF45173136038BD224957
:103A5000224A0B604FF45173136038BD212C3FF69E
:103A600050AF7F29D4BF00210121204693E700BF3A
:103A700084A2FF1F088003400890034008800B4089
:103A800010800B4048A0044018800B404CA004401C
:103A90001880034008B004401080034004B0044084
:103AA0004080034018C004403880034014C00440E4
:103AB0002880034010B00440208003400CB0044034
:103AC0003080034010C00440488003401CC00440C4
:103AD000189003403490044010900340309004400C
:103AE000212801D8FFF7CEBD704700BF212806D896
:103AF000044B53F8303093F80002C0B270470020F6
:103B0000704700BFEC470100212801D8FFF7DCBD5A
:103B1000704700BF2DE9F843054672B6204F214B90
:103B2000214A1B683C68126862B6520102D5322BEA
:103B300088BF013495B3C3F5BB331C4EDFF86490E6
:103B4000DFF86480FF334FF47A72A6FB031302FBA5
:103B500004F404EB931472B6D9F800103A68D8F85C
:103B600000E062B6C1F5BB33FF33A6FB03031EF0D2
:103B7000806FC4EB93134FF47A7002D0322988BF60
:103B8000013200FB0233B3F57A7F04D3013D05D047
:103B900004F57A74DFE701F0A9F9DCE7BDE8F88302
:103BA000E8B4FF1F18E000E004ED00E0ABAAAAAA09
:103BB000F8B52D4B2D49DFF8D0E0DFF8D0C02C4E02
:103BC0002C4D2D4C2D4A2E4F4FF4000018604FF015
:103BD000807018604FF0007018604FF080601860BF
:103BE0004FF0006018600020086028234BF6FF713A
:103BF000CCF80010CEF80030336013602B602360E7
:103C00003B60B3629362092245F8242CC4F8D80FB4
:103C100005F57F65C7F8D41F07F5FF2707F5FA6795
:103C2000C6F8F83F2B6006F5FF26C4F8D42F05F53B
:103C3000FD2504F5FF24386006F2F4761148316062
:103C400005F5FF6504F5FD642B6023600260FFF756
:103C50009BFB3220FFF75EFF00F0FCFC4FF4AF70DF
:103C6000BDE8F840FFF756BF08E100E004800340DC
:103C700014800340248003402C8003401C800340B8
:103C80003480034000800B400C80034008800340D8
:103C9000431E032B14D872B60A4951F8230068B1A9
:103CA00070B4094C058834F81320466841F8236045
:103CB000521B24F8132062B670BC704762B670477E
:103CC0000020704744B5FF1F20B8FF1F01380328AC
:103CD0000BD872B6074B53F8203043B100205B6815
:103CE0000130002BFBD162B67047002070471846A8
:103CF000F9E700BF98B5FF1FF0B472B61A491B4E22
:103D0000012311F8014B194F9A00240742F00105D5
:103D100005D556F8324064B156F83520BAB10133B2
:103D2000052BEED162B6124B00221A70F0BC00F0E7
:103D30000DBD0F4C0F4D217847F8325007EB431360
:103D400008304A1E5860227062B6F0BC70470849BD
:103D5000094B0A7847F8353007EBC5030830013ABC
:103D600058600A7062B6F0E7204901000080FF1F2A
:103D7000C1B5FF1F88004000C8004000431E032B50
:103D80001DD81B4A400140F0100030B4104472B6F8
:103D9000184CE25C032A1BD8DFE802F00212151768
:103DA00003220D88E25410F0080F14BFC8238823A3
:103DB00043EA054308310360416062B630BC704796
:103DC00008300222EDE70522EBE708300422E8E79D
:103DD000094A52F8230038B1084A52F823004160DA
:103DE00042F8231062B6E9E742F82310034AF7E7E6
:103DF0000080FF1FD0B5FF1F98B5FF1FA8B5FF1F9C
:103E00002DE9F04FDFF800A3DFF800B387B044E0FE
:103E1000A84F4FEA930807EBC809013ED9F80420E0
:103E200003F00803F6B2A2F1080003F0FF04002B30
:103E300040F0FC8057F838301B0C99B222F8081C6F
:103E4000002B00F0EA809C4B22F8064C42F8044C10
:103E500053F82620002A00F02982984D55F8263084
:103E60005860974C45F8260034F81630194424F869
:103E7000161000F04BFC002800F01182914A924B82
:103E800019F0080F00F1080018BF1346C9F8040024
:103E900047F8383008238AF800309AF80040E4B236
:103EA00060071AD5894B1B78A3B189490A7802F0BB
:103EB000FF0322B1013BDBB20B7003B900BE8549A1
:103EC0000A7802F0FF032AB1013BDBB20B70002B32
:103ED00000F0BB8104238AF8003004F0080303F0EB
:103EE000FF02002B00F0C6809BF80030DBB21E09F9
:103EF0008ED19C086F4F57F8342007EBC401C2F3F2
:103F00008302013A49680C2A00F28380DFE802F05C
:103F10007777818181818181408181810700086873
:103F20006D4B6E4D0193674B4A686D4E47F83430C8
:103F300081B240F28164684B6A60286000220120EF
:103F4000A1421A603A61BA61307000F2E180B1F5C5
:103F5000D06F80F02582B1F5817F00F0DE8100F224
:103F6000C181802900F03482822940F0DC81A98857
:103F70005C4B042900F2D8815B4C89000B44227011
:103F800062701A78930740F122832070022023E2A6
:103F9000514B01931A683AB3544B514E5449188807
:103FA00034780D784028864645F0020828BF4FF047
:103FB000400E002C84F001043470CEEB00000CBFE6
:103FC0008824C82407EBC80680B285F0010544EABE
:103FD0000E447260188047F8384072440D70002813
:103FE00000F0B780019B1A603C4B1A88B2F5A06FB5
:103FF0000FD100219A7859703E4B1A7009E0374A68
:10400000108842F22102904200F0A8802D4A47F821
:104010003420394A012313703CE72A4A2A4B19F00D
:10402000080F18BF134647F8383033E700F08EFB0F
:10403000324A334952F82630002B00F03B81586851
:104040008C5D42F8260003F10802C9F80420032C15
:1040500005D8DFE804F02C02292602228A551A88A6
:1040600019F0080F0CBF8823C82343EA024347F81E
:1040700038300FE7E00700F1EB80210600F12881DE
:10408000A20706D51F4A204913780220DBB213701D
:104090000870E30602D51C4B10221A7007B0BDE869
:1040A000F08F04228A55DAE705228A55D7E70322E2
:1040B0008A55D4E70080FF1F44B5FF1FF0B4FF1FEF
:1040C00020B8FF1FC800400088004000CCB5FF1F8B
:1040D00055B5FF1FD4B5FF1FECB4FF1FB8B5FF1FC8
:1040E00054B5FF1FC0200740C4B5FF1F00B5FF1F18
:1040F000C0B5FF1F982007409420074098B5FF1FC8
:10410000D0B5FF1F8820074080200740902007403F
:1041100042F22104A14200F0948043D8B1F5086F27
:1041200000F0A881B1F5106F40F0FD80B84AB94C9D
:10413000A978117004F1800503E00834AC4200F066
:104140009E81236A1906F8D5606A083800F0FEFAE5
:10415000F3E7BEF1400F18BF002243E7AE4ACD1D82
:1041600011F8013B02F8013FA942F9D1AB4A1268AC
:10417000862A00F01181AA49AA4E0A78307882F086
:104180000105002842F002020D700CBF8821C821F1
:1041900047F8321007EBC20280F0010000213070B6
:1041A000516033E742F22124A14240F0FE81DFF862
:1041B000BCC29D4B9D49AC78DCF800501D60814627
:1041C0000C700020029080468446044694490D7885
:1041D00045F0020E07EBCE03B9F1000F5C600CBF97
:1041E0008824C82444EA080385F0010447F83E30D7
:1041F00032700C70DFF81CE28A4BDFF82482002852
:1042000040F09880BCF1400F1BD144F0020407EB52
:10421000C403029FDFF8FCE15F60002A40F09F804A
:10422000020442F0880207444EF8342086F80090D9
:104230000D703B46402804D100207D4A0199108032
:104240000B607C4A01231370E3E600F0C7FB41E6F4
:10425000704B784872491A614FF0020E80F800E006
:10426000754F0A70754919609960754E754D764C99
:104270009A610D213970FF213170DFF8F4E1297066
:104280002270724D724A8EF800109F27012406F8A2
:10429000047C5D600470DA6007B0BDE8F08F6D4AA1
:1042A00047F83800137801331370F3E543F826001C
:1042B000694DD6E58B5D032B67D801A252F823F038
:1042C000953E0000953E0000154300000F4300009E
:1042D00059495C4B80220D2008701A70A2077FF5A7
:1042E000D8AECFE640F20232914240F05681A98822
:1042F00001F07F01042916D86A88A2B94E4C8900C2
:104300000C448146217841F00201217059E70123D4
:104310008B55BFE500238B55BCE5A98801F07F01D3
:10432000042940F24781444B0F221A70414A01236D
:1043300013706EE640287FF668AF44F002040EEB7F
:10434000C401029E4E60AAB1444A83F800903346ED
:10435000403888F8005040334EF834206DE70204AE
:10436000029B86F8009042F0C8020D7003444EF89C
:1043700034205FE783F80090029B304A88F80050B1
:10438000403840334EF8342057E719F0080F0CBF7F
:10439000022303238B557DE5314A0F211170EAE694
:1043A000304A5468002CBED06888B5F804E003E0B9
:1043B0000C325468002CB6D013888342F8D153884D
:1043C0007345F5D1000A03280CBF2078108903E05B
:1043D000254C022022706270EA88824280F00C81B3
:1043E0000F490D78402A45F0020E944607EBCE00A7
:1043F00028BF4FF0400C04EB0C0344600293CCEB5D
:1044000002004FEA0C484FF001090022C824E9E6F7
:10441000CCB5FF1F0080FF1F27B8FF1F28B8FF1F64
:10442000C0B5FF1F54B5FF1F30B8FF1FE4B5FF1F15
:1044300000B5FF1F94200740C020074088004000BF
:1044400088200740802007409820074004B5FF1FC0
:1044500058B5FF1FC1B5FF1FF0B4FF1FC8004000D3
:1044600055B5FF1F24490100C4B5FF1FE8B4FF1F65
:104470008C200740684A694C12782270ACE7684982
:10448000684B694A02916949694C6A4D03940596E3
:104490004FF0000988461C4616460495206828B14E
:1044A000456800F053F92846002DF9D10023236018
:1044B000049B30681A46002342F8293028B1456829
:1044C00000F044F92846002DF9D100223260029A0A
:1044D00098F800301146002241F8042B039A02910B
:1044E000023B4FF0000122F81910032B07D8DFE838
:1044F00003F0340234024FF0010388F8003009F170
:104500000109B9F1040F04F1040406F1040608F1ED
:104510000108C3D1484B059EDFF83091DFF83081A8
:1045200000211970012518F8013B09F8043B1A070E
:1045300018D4AC0044F0020244F00304002347F80E
:10454000323047F834303D4B994505F10105EAD149
:1045500096F8009089F0010233E64FF0000388F8E6
:104560000030CCE700F0D2F8AC0007EB451300F1C7
:104570000802002837D05A60314B47F8343000F039
:10458000C5F844F0010307EBC30200F1080100B3D2
:1045900051602C4A47F83320CCE7B1F5A06F7FF487
:1045A000C2AE00224FF001090BE642F221329142E5
:1045B000F7D0B8E66A88002A7FF4B5AE224C8900AD
:1045C0000C448146217821F002012170F9E5022096
:1045D00002E7194B44F001021B7847F83200164AF3
:1045E00001331370A6E7144B134A1B78AC00013358
:1045F00047F834001370C2E74028844628BF4FF0C4
:10460000400C04EB0C03CCEB00004FEA0C48029387
:1046100000224FF00109D9E5CCB5FF1FC4B5FF1F3B
:10462000A8B5FF1F44B5FF1F98B5FF1FD0B5FF1FEA
:1046300020B8FF1FF0B4FF1FC1B5FF1FD4200740F3
:1046400088004000C8004000C0200740C420074048
:10465000204901002DE9F843204C01F083FE00229F
:1046600004F1880023461A605A60083383424FF0F1
:104670000001F8D11A4A1B4F13681B4D1B481C4EF2
:10468000DFF87880DFF878C0DFF87890DFF878E03E
:1046900043F480231360C4F307233B70C4F3074340
:1046A0002B70240EFF2302F528320470114D88F878
:1046B000003011488CF80030D4323370012389F86F
:1046C000003070268EF800104FF40074102107F8A7
:1046D000183C2E7004601170BDE8F8830080FF1F45
:1046E000348004409C200740B0200740B42007409D
:1046F0001020074049E400E008E100E08020074086
:1047000088200740942007400021074072B60D48DA
:104710000268B2FA82F30B2B10DC4FF00041D94053
:1047200022EA0102026062B6074803EBC303DB0022
:10473000C2180021C15010465160704762B6002077
:10474000704700BF88A2FF1FBC9BFF1F0D4B0E4A86
:10475000C31AA2FB03231B090B2B0CD80B4A12789C
:1047600052B972B60A484FF00041026821FA03F3C9
:104770001A43026062B67047064A1278002AF0D0E7
:10478000FFF7BABABC9BFF1F398EE338C1B5FF1FD4
:1047900088A2FF1FCCB5FF1F38B50F4D286878B130
:1047A00043880288C118013393420C7A02D24380B5
:1047B000204638BDFFF7CAFF002320462B6038BDD6
:1047C000064B1B782BB10320FFF762FA2860002804
:1047D000E6D14FF0FF3038BDE0B5FF1FCCB5FF1F6D
:1047E00010B5094C206818B143881844007A10BDF0
:1047F000064B1B782BB10320FFF74AFA20600028F4
:10480000F2D14FF0FF3010BDE0B5FF1FCCB5FF1F58
:10481000044B054A1B6890881BB11A885B88D31A21
:1048200018447047E0B5FF1F20B8FF1F0B4B1B78E3
:104830009BB110B50A4C206848B1FFF787FF0023F1
:1048400003202360FFF724FA30B1FFF77FFF032036
:10485000FFF71EFA0028F8D110BD7047CCB5FF1F36
:10486000E0B5FF1F2DE9F04FDFF8F89083B001228B
:1048700089F80020019169B3DFF8EC80364F019E82
:104880008346D8F80000B0B3344D4488C4F14001E9
:10489000B14228BF314604EB010E00221FFA8EFE02
:1048A0002A70761AA0F802E000F1080251B1013C2A
:1048B000224459441BF8014B02F8014F8B45F9D1B2
:1048C000B0F802E0BEF13F0F0BD8254A0521117068
:1048D000002ED6D10198002389F8003003B0BDE83E
:1048E000F08F4022028001460420FFF747FA0022A1
:1048F000C8F80020E9E73A782AB3184D4AF2F924BB
:104900004FF0010A07E0013C16D02A78A2B900F066
:10491000EDFA3A78BAB10420FFF7D8F90728F2D8AF
:1049200089F800A0FFF7F2FEC8F800000028ACD11B
:104930000C4B013C1870E8D101234FF0FF302B7075
:1049400003B0BDE8F08F00234FF0FF3089F800304E
:1049500003B0BDE8F08F00BFCCB5FF1FDCB5FF1F73
:10496000D4B5FF1FD5B5FF1FD8B5FF1F00B583B065
:1049700002AB012103F8010D1846FFF773FF03B0E6
:104980005DF804FBF8B5114B1B788BB1104E114D3F
:10499000346801272F7064B10F4A638800271770AD
:1049A000214623800420FFF7E9F9376000232B70AC
:1049B000F8BDFFF7ABFE084B28B1014604201C7080
:1049C000FFF7DCF9F2E71F70F0E700BFCCB5FF1F7F
:1049D000D8B5FF1FD5B5FF1FD4B5FF1F38B50E4B97
:1049E0001B7873B90D4C216861B103F0FF054B884A
:1049F0000B800420FFF7C2F9256038BD084B012267
:104A00001A7038BDFFF782FE0028F7D00146BDE8D6
:104A100038400420FFF7B2B9D5B5FF1FD8B5FF1F46
:104A2000D4B5FF1FC029F0B428BFC02172B6114B06
:104A3000114E1860002333607360B360F36033611C
:104A40007361012799B15D0903F01F0456F8252011
:104A500007FA04F4013322438B4246F82520F2D1B1
:104A60000023437001338B4200F58270F9D162B6A6
:104A7000F0BC7047F0B5FF1FF8B5FF1F70B472B6F9
:104A8000204B196821B9596821B30433202200E072
:104A900000221D4E3478B1FA81F54FF00040E84015
:104AA0000134E4B221EA00003470186062B6531B8E
:104AB00003EB83139A00154B1549186802F5FB5355
:104AC0001C330122C2540A78A242184438BF0C7029
:104AD00070BC7047996821B9D96829B10C3360223C
:104AE000D7E708334022D4E7196921B9596929B1B8
:104AF0001433A022CDE710338022CAE762B60846FD
:104B0000E6E700BFF8B5FF1FF5B5FF1FF0B5FF1FC3
:104B1000ECB5FF1F427872B60378012B03D9013B35
:104B2000037062B6704770B456110A4D0A4C55F8BE
:104B300026102378D2434FF0004002F01F0220FAE3
:104B400002F21143013B45F82610237062B670BC97
:104B5000704700BFF8B5FF1FF5B5FF1FC368B3B1BD
:104B600030B401E0DB688BB1187A9042FAD1586812
:104B70005C7A006950F82450002DF3D140F82410DD
:104B8000087801300870DB68002BEDD130BC70472D
:104B9000437A8B4206D90369002253F8210043F877
:104BA000212070470020704738B5437A8B421AD9CC
:104BB000036953F82140002243F821209CB1237857
:104BC000012B0ED9FFF75AFF054628B14FF480722A
:104BD000211D0430FEF79CFA2378013B2370284600
:104BE00038BD204638BD002038BD00BF4368427A3A
:104BF0005B7A9A420ED872B60168CA680AB90AE0AE
:104C00001A46D368002BFBD1D060426801230B7297
:104C1000137262B67047C860F7E700BF084B1A7896
:104C200062B930B407480849D02505704FF0804478
:104C300001220C6010461A7030BC7047002070478B
:104C4000F4B5FF1F5EE400E008E100E01A491B4AEA
:104C50001B48F8B50B681B4D046843F080730B606C
:104C6000136843F0010313602E6814B915E06469FA
:104C70009CB1237A002BFAD023682F681B6820464A
:104C800098472B68E188DB1B1B099AB28B42A280F4
:104C900088BFE2806469002CEBD10A4B0A4A1B688A
:104CA00010880A4C9B1B1B0999B28342218001D9B1
:104CB0001180F8BDF8BD00BFFCED00E0001000E081
:104CC000E8B5FF1F041000E0F6B5FF1F10B6FF1F88
:104CD000F0B572B699B902688AB103790F2B0ED874
:104CE000274C218841FA03F5ED070AD503F100733B
:104CF00003F59063B2EB431F03D162B6F0BD204CC5
:104D00002188002341FA03F212F0010207D0013397
:104D1000102BF7D162B6002203710260F0BD0125AD
:104D20009D402943218062B6164E174D174FDFF87C
:104D300064E0D9B20171346844F0020434602C6834
:104D400044F002042C60A6F580268224A5F5802577
:104D500003F100733C6003F59063223E243D0C4C4C
:104D60008EF800105B0131702970217003601A60A9
:104D70005A609A60DA601A615A619A61DA61F0BD2C
:104D800012B6FF1F408004403C8004400080004079
:104D90001F8000401A80004003790F2B11D8094A68
:104DA00010B4137072B6084904790A880123A3402D
:104DB00022EA03030B8062B61022002310BC0271AA
:104DC000036070471A80004012B6FF1FF8B572B139
:104DD00006460F4614460025336817F8011B1B686A
:104DE00030469847013C0544F6D12846F8BD1546A3
:104DF000FBE700BFF0B5164D2A680AB31549164BFC
:104E0000DFF85CE082FB016781FB0214D617D11941
:104E10001444C6EB2141C6EB244403FB04F40EFB0F
:104E2000112244F2A71303FB0243002B02DA03F121
:104E30000043013BB3FBF0F22B6000FB1230F0BDEE
:104E4000064B2B60B3FBF0F200FB1230F0BD00BF4D
:104E500014B6FF1F5F0B4E83ECF4FFFF42CE0C1F16
:104E60001DF30100884206DA10B50446081AFFF760
:104E7000C1FF204410BD704710B4019C401AE41AD1
:104E800004FB00F4521A94FBF2F010BC1844704773
:104E900008B5FBF713FBFBF75BFB00F027F8FAE71D
:104EA00003F05ABD03F060BDFFF7C0BCFFF76ABD59
:104EB000FFF796BCFFF770BCFFF7AABC0846114687
:104EC000FFF7D0BC0846FFF751BD00BF704700BFD9
:104ED000044B054A1A604FF47A71002299601A71E6
:104EE0001A73704718B6FF1F0449010010B5154C1E
:104EF000237803B110BD01232370FFF789FC58B953
:104F000000F0E8FA70B900F087FE88B901F050F9B6
:104F1000A0B90023237010BDFFF7D8FF00F0DAFA24
:104F20000028F0D001F0D4FA00F076FE0028EDD091
:104F300001F082FB01F03CF90028EAD001F030FCDE
:104F4000E7E700BF28B6FF1FF0B44D1E2E46002431
:104F500000E00134B0FBF2F302FB1300092800F17A
:104F600030078ABF3730F8B2C0B206F8010F1846D2
:104F7000002BEED10A1953704CB1107815F8016F5F
:104F800028700133E01A834202F80169F5DB084614
:104F9000F0BC70472DE9F84F214B1B6807460BB159
:104FA00001221A70DFF888901E4D99F80040DFF852
:104FB00084801D4E01343F2C8ABF4FF0000A5FFAF7
:104FC00084FA5446AB462B78A34216D1FEF73AFB3F
:104FD00040281FDC33791B06F5D59BF800300133E0
:104FE0003F2B86BF00221346DAB218F80330DBB23B
:104FF000F3712A702B78A342E8D00C490A4BFFB218
:1050000008F804700120BC22087089F800A0DA704A
:10501000BDE8F88FFF28D6DDFFF768FFD3E700BFB4
:10502000BCB6FF1FB9B6FF1F00A00640B8B6FF1FF1
:10503000C0B6FF1F34B6FF1F274A28491368F0B5D2
:1050400043F4806313600A78254F264E264D274C83
:10505000274900233B7033702B7023700B70002A9C
:1050600035D0152A26D0234B1B78012B2AD0052BAF
:1050700003D1214B4FF451721A60204B204C21492F
:10508000C0F34436C0F347151E7000F01F005D707A
:1050900004224FF0020E88273C26402598729A7011
:1050A0004FF4005083F813E05A751F74DE702570BA
:1050B0000860F0BD144B40F213321A600D4B1B78A0
:1050C000012BD4D1114B4FF451721A60D5E7104B1C
:1050D00040F213321A60C6E73480044074B6FF1FF2
:1050E00030B6FF1F31B6FF1FC0B6FF1FB9B6FF1F96
:1050F000B8B6FF1F8CA2FF1F1CC0044000A00640D2
:105100002DE400E004E100E018C0044044A00440A5
:1051100040A00440144B14499B7803F0EC0200F0CB
:1051200003031343420700F00F0248BF43F010038C
:10513000042A8B7013D00C4B0B4A5B79C10603F029
:10514000EF0348BF43F0100353719379820603F0D5
:10515000EF03054A48BF43F01003937170478B7902
:1051600043F040038B71E6E700A00640214B1B682B
:105170005B053ED510B5204C237823B1FFF7B6FE72
:105180002378002BFAD11D481D4A1E4B4FF40054C2
:1051900000210460D1701B78E3B1152B03D11A4BA9
:1051A00040F203121A60194B1B7803F07F03012BA6
:1051B0001AD0052B03D1164B40F203121A60154B7F
:1051C000154816491A68002303700B700AB10123B1
:1051D000137010BD124B40F203121A600B4B1B7878
:1051E00003F07F03012BE4D10E4B40F203121A604F
:1051F000E5E7704734800440B8B6FF1F84E100E063
:1052000000A0064074B6FF1F18C004408CA2FF1F08
:105210001CC004402CB6FF1F30B6FF1F31B6FF1F65
:1052200040A0044044A004400A4A38B5054613781B
:1052300003F0FF04002BFAD101212846FEF764FC9D
:1052400021462846FEF74CFC034A044B52F8352011
:105250001A6038BDB8B6FF1FEC470100BCB6FF1F8F
:1052600009B140F08000174A1378984216D010B464
:10527000154C246864050FD503F07F03012B1CD067
:10528000052B11D0002900F07F0114BF60234423B7
:1052900001290DD0052902D0107010BC70470B49B0
:1052A00043F440730B60F7E7084B00241C60E9E708
:1052B000074943F440730B60EEE7054B00241C6084
:1052C000E0E700BF8CA2FF1F348004401CC00440F4
:1052D00044A00440104B1A7882420AD00F49096852
:1052E000490505D5AAB1152A09D068B1152801D0FC
:1052F000187070470A4A40F213311160F8E7084A03
:10530000002111600028F1D1064A40F213311160EA
:10531000EEE704490A60E8E774B6FF1F34800440F2
:1053200018C0044040A004400D4B1B6813F4806378
:1053300005D0212805D90B4B00201860704718466E
:105340007047094B10B5074C53F8303023600121EA
:10535000FEF7DAFB236800221A70012010BD00BF9F
:10536000348004402CB6FF1FEC4701000F4B1B6834
:1053700013F4806308D0122808D0142811D00C4AE6
:10538000537B03F0FE03537300207047094B40F238
:1053900002321A60064A537B43F001035373012023
:1053A0007047054B40F202321A60F3E73480044044
:1053B00000A006400CA0044014C00440034B1B682E
:1053C0005B0501D5FFF7E6BD704700BF34800440A0
:1053D0002DE9F84F294B1B685A0548D5284B1B6807
:1053E00005460BB101221A7005EB010A554540D262
:1053F000DFF89C80234CDFF89C90234F0AE015F8DF
:10540000012B09F80B20214A0123AA45137088F8C3
:1054100000602ED098F80030227803F1010BBBF128
:105420003F0F86BF0026B3465FFA8BF69345E6D161
:10543000BC22FA7005E03A7913060BD42278934522
:10544000DDD1FEF7FFF84028F5DDFF28F6DDFFF798
:105450004DFDF3E7227801323F2A86BF00210A463C
:10546000D1B219F80220D2B2FA712170E6E7BDE894
:10547000F88F054BBC22DA70BDE8F88F3480044009
:10548000BCB6FF1FB9B6FF1F00A00640B8B6FF1F8D
:10549000C0B6FF1F34B6FF1F10B5044C237823B1EC
:1054A000FFF724FD2378002BFAD110BDB8B6FF1FFB
:1054B000064A074B1B781078DBB2C0B283422CBF80
:1054C0003F3000F1FF30C01A704700BFB9B6FF1F70
:1054D000C0B6FF1F054A064B10781B78C0B2DBB27E
:1054E000984238BF4030C01A704700BF30B6FF1F27
:1054F00031B6FF1F30B4154B154C1A782378D2B251
:10550000DBB29A421ED001333F2B0ED91149124B08
:10551000087819680023C0B2237021B1D31A1A2B5E
:1055200001DC00230B7030BC70470A480A49C05C9C
:105530000968DDB2C0B225700029F4D09A4238BFA4
:105540004032EBE74FF0FF30EDE700BF30B6FF1F12
:1055500031B6FF1F78B6FF1F2CB6FF1F084A094B54
:1055600012781B78DBB29A4207D00133402B28BF58
:105570000023054AD05CC0B270474FF0FF3070473F
:1055800030B6FF1F31B6FF1F78B6FF1F0D4B1B68EB
:105590005B0516D530B40C4B0C4CDA780C480D4931
:1055A00002F0CB024025DA705D74DA7842F0340202
:1055B000DA7023780268DBB20B700AB10023137033
:1055C00030BC70473480044000A0064031B6FF1F55
:1055D0002CB6FF1F30B6FF1FF0B4384B1A7912F00B
:1055E000300F2CD072B6997D01F0FF0200293DD01A
:1055F00062B6334F334938780D78334E1C46C0B20B
:10560000EDB2431C402BE17928BF0023AB4202F1ED
:10561000FF32C9B21CBFF154184612F0FF02F0D19C
:105620002A4B1B68C2B23A704BB1A84236BFC5F1D3
:105630004005401B40192728C4BF01221A701F498A
:10564000CA78D2B2150616D452060DD51B4B1B795B
:105650005B0609D51E4B1F491B6800220A7003B167
:105660001A70164B3C22DA70F0BC70474022D97990
:105670005A7462B6E3E70B791C06E5D5164B174E54
:105680001C783378E4B2DBB29C420ED0144D01E0BA
:10569000A3420AD00133402B28BF00230879E85CDD
:1056A000C0B2C871087D0728F2D9DBB20349337054
:1056B0000B79180644BF7C23CB70C5E700A00640D9
:1056C00030B6FF1F31B6FF1F78B6FF1F2CB6FF1F85
:1056D000BCB6FF1FB8B6FF1FC0B6FF1FB9B6FF1F8D
:1056E00034B6FF1F274A28491368F0B543F4006316
:1056F00013600A78254F264E264D274C2749002354
:10570000092A3B7033702B7023700B7035D01A2A26
:1057100026D0234B1B780A2B2AD01F2B03D1214BD9
:105720004FF451721A60204B204C2149C0F344368B
:10573000C0F347151E7000F01F005D7004224FF08B
:10574000020E88273C26402598729A704FF400403C
:1057500083F813E05A751F74DE7025700860F0BD81
:10576000144B40F213321A600D4B1B780A2BD4D124
:10577000114B4FF451721A60D5E7104B40F21332BF
:105780001A60C6E7348004408DA2FF1F34B7FF1FA4
:10579000C9B6FF1F3CB7FF1F35B7FF1FC8B6FF1FB5
:1057A0008EA2FF1F00D0044000B006402FE400E0AE
:1057B00004E100E004D0044010B004400CB0044008
:1057C000144B14499B7803F0EC0200F003031343DD
:1057D000420700F00F0248BF43F01003042A8B7009
:1057E00013D00C4B0B4A5B79C10603F0EF0348BFA3
:1057F00043F0100353719379820603F0EF03054AD7
:1058000048BF43F01003937170478B7943F0400316
:105810008B71E6E700B00640224B1B681B053FD5A5
:1058200010B5214C237823B1FFF760FB2378002BC0
:10583000FAD11E481E4A1F4B4FF400440021046059
:10584000D1701B78092B1CD01A2B03D11A4B40F2B4
:1058500003121A60194B1B7803F07F030A2B1AD02E
:105860001F2B03D1164B40F203121A60154B16483A
:1058700016491A68002303700B700AB101231370D4
:1058800010BD134B40F203121A600C4B1B7803F04F
:105890007F030A2BE4D10F4B40F203121A60E5E7B5
:1058A000704700BF34800440C8B6FF1F84E100E0A9
:1058B00000B006408DA2FF1F04D004408EA2FF1F3F
:1058C00000D00440C4B6FF1F34B7FF1FC9B6FF1F86
:1058D0000CB0044010B004400A4A38B505461378AD
:1058E00003F0FF04002BFAD101212846FEF70CF942
:1058F00021462846FEF7F4F8034A044B52F83520B7
:105900001A6038BDC8B6FF1FEC47010038B7FF1F4B
:1059100009B140F08000174A1378984216D010B4AD
:10592000154C246824050FD503F07F030A2B1CD0E7
:105930001F2B11D0002900F07F0114BF60234423E6
:105940000A290DD01F2902D0107010BC70470B49D6
:1059500043F440730B60F7E7084B00241C60E9E751
:10596000074943F440730B60EEE7054B00241C60CD
:10597000E0E700BF8EA2FF1F3480044000D0044047
:1059800010B00440124B1A7882420CD011490968B9
:10599000090507D5092A16D01A2A0AD009280DD0D8
:1059A0001A2801D0187070470B4A40F21331116069
:1059B000F8E7094A002109281160F1D1074A40F2AD
:1059C00013311160EEE7054A00211160E6E700BFE0
:1059D0008DA2FF1F3480044004D004400CB004406A
:1059E0000D4B1B6813F4006305D0212805D90B4B20
:1059F00000201860704718467047094B10B5074CD7
:105A000053F8303023600121FEF77EF8236800222E
:105A10001A70012010BD00BF34800440C4B6FF1FBF
:105A2000EC4701000C4B1B6813F4006306D01728E9
:105A300006D00A4A537B03F0FE03537300207047DD
:105A4000074B064A40F202311960537B43F00103D1
:105A500053730120704700BF3480044000B00640FB
:105A600008B004402DE9F84F234B1B681A053BD5BD
:105A7000224B1B680BB101221A70DFF89090204D69
:105A800099F80040DFF888801E4E0134272C8ABF29
:105A90004FF0000A5FFA84FA54460746AB462B786B
:105AA0009C4216D1FDF7CEFD40281FDC33791B0642
:105AB000F5D59BF800300133272B86BF0022134613
:105AC000DAB218F80330DBB2F3712A702B789C42FB
:105AD000E8D00D490B4BFFB20120BC2208F804703E
