:1000000000800020BD01000081AD00003DAD00007A
:100010003DAD00003DAD00003DAD00003DAD000038
:100020003DAD00003DAD00003DAD000081AD0000E4
:1000300081AD00003DAD000035A6000039A60000EE
:1000400081AD000081AD000081AD000081AD0000F8
:1000500081AD000081AD000081AD000081AD0000E8
:1000600081AD000081AD000081AD000081AD0000D8
:1000700081AD000081AD000081AD000081AD0000C8
:1000800081AD000081AD000081AD000081AD0000B8
:1000900081AD000081AD000081AD000081AD0000A8
:1000A000399F0000459F000081AD000081AD000038
:1000B00081AD000081AD000081AD000081AD000088
:1000C00081AD000081AD000081AD000081AD000078
:1000D00081AD000081AD000081AD000081AD000068
:1000E00081AD000081AD000081AD000081AD000058
:1000F00081AD000081AD000081AD000081AD000048
:1001000081AD000081AD000081AD000081AD000037
:1001100081AD000081AD000081AD000081AD000027
:1001200081AD000081AD000081AD000081AD000017
:1001300081AD000081AD000081AD000081AD000007
:1001400081AD000081AD000081AD000081AD0000F7
:1001500059A7000075A7000091A70000ADA70000F7
:1001600081AD000089B5000081AD000081AD0000C7
:1001700081AD000081AD000081AD000081AD0000C7
:1001800081AD000081AD000081AD000081AD0000B7
:1001900081AD000081AD000081AD000081AD0000A7
:1001A00081AD000081AD000081AD000081AD000097
:1001B00081AD000081AD000005A40000574B4CF25A
:1001C000205210B5DA814DF62812DA8100BF00BF47
:1001D0000AF0DAFD524B4FF010621A63514A9A63EB
:1001E000514ADA63514A136913F4807303D153619E
:1001F0004FF4A85313614E4B9A78110703D59A78A0
:1002000042F008029A704B4B4B482A221A704B4B13
:10021000DA1C121AC11E22F00302994288BF002282
:1002200047490AF0B7FC474B4748DA1C121AC11E6F
:1002300022F00302994288BF002200210FF0D2FB76
:10024000424943484FF4DE720AF0A4FC414B424A53
:10025000802103F8011B9342FBD14FF0E0233C4A7D
:10026000C3F8082D3D4B8A221A70A3F5805324222F
:100270005A70A0221A709A799207FCD59A79D406FE
:10028000FCD4374B9A7902F00C02082AFAD10322E7
:100290001A7140225A719A799006FCD5304A9379A6
:1002A0005906FCD51E4B2F4959640221996420211F
:1002B0001170917901F00C010C29FAD12A4A5A6087
:1002C0004FF0E023294A5A6100229A6107221A61FD
:1002D000274AC3F8202D62B60AF092FE134B5B69E1
:1002E000DA0705D523480AF07FFE234B234ADA615B
:1002F000234B1B785B0609D51F4C204BE2699A42C1
:1003000004D11C480AF070FE0023E3610AF042FDAC
:100310000FF01EFC0AF036FCFEE700BF002005408F
:1003200000800440823F04000100002B00D0034005
:1003300000D0074000E0074020EFFF1F48FAFF1FF2
:1003400044C201000814002048FAFF1F000000000A
:1003500000EAFF1F00E400E05FE400E00050064018
:100360000040064000000301C0100500FF760100B8
:1003700000002020E589EC6900E00340A5C3945A01
:1003800000F00740FFFFFFFFFFFFFFFFFFFFFFFF42
:10039000FFFFFFFFFFFFFFFFFFFFFFFFFFFFFFFF6D
:1003A000FFFFFFFFFFFFFFFFFFFFFFFFFFFFFFFF5D
:1003B000FFFFFFFFFFFFFFFFFFFFFFFFFFFFFFFF4D
:1003C000FFFFFFFFFFFFFFFFFFFFFFFFFFFFFFFF3D
:1003D000FFFFFFFFFFFFFFFFFFFFFFFFFFFFFFFF2D
:1003E000FFFFFFFFFFFFFFFFFFFFFFFFFFFFFFFF1D
:1003F000FFFFFFFFFFFFFFFFFFFFFFFFFFFFFFFF0D
:10040000FFFFFFFFFFFFFFFFFFFFFFFFDEF9FFFF23
:100410000548064B1B1AD90F01EBA301491002D066
:10042000034B03B11847704748FAFF1F48FAFF1FF4
:100430000000000008B5054B1BB105490548AFF3A6
:100440000080BDE80840FFF7E3BF00BF00000000E8
:1004500048FAFF1F3CC2010070B582B00446164640
:100460000D4609F0CFFE0022009233462946204671
:1004700009F03CFF204602B070BD00BF38B50B4606
:100480000E4D056000210446437202610172C16095
:100490001BB110469A000FF0A5FA094A136853B130
:1004A0001A465B69002BFBD154610023A372636180
:1004B0006360204638BD1460F7E700BF20000100EC
:1004C0002C0F002030B40246104C114B42F8183B60
:1004D0002368026100214FF480750581C16081614C
:1004E0008BB11A465B69002BFBD1506100230024BD
:1004F0000025084A4361C0E9084530BC4360837267
:100500000260836270472060F0E700BF2C0F00207C
:10051000200001005CB0010010B40146124C134BE6
:1005200041F8283B2368016100224FF4806CA0F859
:1005300008C0C2608262C2620263426393B11A461B
:100540005B69002BFBD150614FF4803300220849D6
:1005500010BC42614260827201608361C3610362C8
:10056000436270472060EFE72C0F0020200001005D
:10057000ACB40100134910B50B68044600221248C0
:10058000206022612281E260D3B11A465B69002BB0
:10059000FBD1546100230D4963604FF08042A37288
:1005A00021606361A361E36123626362A262E3622B
:1005B0002363A38604F1380003F0A4FA204610BD9B
:1005C0000C60E7E72C0F002020000100C4B50100FB
:1005D0002DE9F04F834687B010461D468A460DF040
:1005E00051FF2DA3D3E900230DF0A4FF80468946D7
:1005F0000BF034FD06460F46404649460BF07EFDA3
:100600000246284614460D460DF03CFF02460B46B6
:100610000DF0DAFD02460B46204629460EF0B4F8EE
:100620001F4B0022804689460DF0CEFD424604460F
:100630000D464B461A4900200DF0C4FD22462B46BC
:100640000EF0A2F8174B00220DF074FF0EF00CFA1A
:1006500039468046002230464FF04043CDF80480B2
:100660000DF068FF22462B460EF08EF80D4B00224F
:100670000DF060FF0EF0F8F94FF080420346039250
:100680005146584601AA02930493CDF8148001F014
:10069000E1FC07B0BDE8F08F00000060B2AC223F83
:1006A0000000F03F0000D0411848194B10B504225B
:1006B000002404624286642116481C625A8609F0AE
:1006C0005BFC154B15481C624FF400425C629A615A
:1006D000DA61214602F006F820460AF09DF921462B
:1006E00002200AF025FE01210D200AF021FE012141
:1006F00003200AF01DFE01210D200AF0E5FDBDE8F2
:100700001040012103200AF0DFBD00BF7801002066
:10071000080300200082FF1FACFCFF1F1CFDFF1F11
:100720002DE9F04F0E2085B00AF09CF9B14CB24B88
:10073000256818600EF07AFA29460EF0C1F9AF4B21
:10074000AF4918600EF0C6FA29460EF0BBF94FF01B
:100750007E5120600EF0B4F9AA49DFF8AC92AB4CA0
:100760000EF0B8FAAA490EF069FB00210EF0AAF9C2
:100770000EF076FC0246C9F80020A64A4CF6CC439F
:100780000F2053620AF06EF9A34B256818600EF033
:100790004DFA29460EF094F9A04BA14918600EF0CD
:1007A00099FA29460EF08EF99E4920600EF092FAD1
:1007B00094490EF043FB4FF07E510EF083F99A4BB3
:1007C0000021186004460EF023FC002840F07D82D2
:1007D000964920460EF03AFC002800F038828D4AF7
:1007E000934BD36111200AF03DF9924C924B25684E
:1007F00018600EF01BFA29460EF062F98F4B9049F3
:1008000018600EF067FA29460EF05CF9DFF83482C2
:100810008D4920600EF05EFA7A490EF00FFBD8F891
:10082000004000210EF04EF921460EF049F98449AE
:100830000EF050FA21460EF045F9002104460EF064
:10084000E7FB002840F045827F4920460EF0FEFB82
:1008500000286ED07C4C582757250026C8F8004049
:10086000DFF8E8812046D8F800100EF029F9784921
:1008700020F000400EF0EAFB00287CD1754D764C4C
:1008800002200AF047FD012814BF4FF080434FF0CB
:100890007E53102023600AF0E5F80EF0C7F96F4987
:1008A0000EF018FA57490EF0C9FA6D490EF008F922
:1008B0005D4B19680EF006F96A4B216818604CF61A
:1008C000CC436B620EF0BAFA002104460EF0A0FB96
:1008D000002840F00282554920460EF0B7FB002860
:1008E00000F0C281524BEB6112200AF0BBF80EF00F
:1008F0009DF94FF07C510EF0EDF942495A4D0EF042
:100900009DFA00210EF0DEF8584B594918604FF45B
:100910000043AB6104460EF099FB002840F0B28022
:10092000544920460EF074FB002800F0B281524B6F
:10093000A9E020460EF094FB5828A8BF582020EAD2
:10094000E07528460EF072F9014620460EF0B8F820
:10095000002106460EF05CFB6F1C00287FF47DAF83
:100960004FF07E5130460EF071FB00283FF476AF19
:100970004FF07E5672E7414BC8F8004053F82550BF
:1009800053F82740DFF8F8B04FF0E0234FF08042F3
:10099000C3F888214FF07E5031460EF091F8023DA9
:1009A000023C07460BF5007835F9020F0EF03EF9D0
:1009B00039460EF08FF9824634F9020F0EF036F9FF
:1009C00031460EF087F9014650460EF07BF80EF0E6
:1009D00047FB2BF8020BC345E6D10E4A1D4D284BB1
:1009E000D362EB624FF0E0234FF08042C3F808215E
:1009F00045E700BF600100200CFDFF1F64FDFF1FE5
:100A00006666663F00C07F446CFDFF1F5C010020EE
:100A100000807F447801002008FDFF1F60FDFF1F5C
:100A2000CDCCCC3E0080F94310FFFF1FA655AC464D
:100A30000000FE7F6401002010FDFF1F68FDFF1F06
:100A4000CDCC4C3D84FCFF1F0000AE4238F0FF1FB0
:100A50000AD7233C08030020680100200000204141
:100A60000000A04014FFFF1F48FEFF1F18FFFF1FDC
:100A700000FEFF4600FEFFC60000018060F0FF1F81
:100A800078FAFF1F994BEB6100226A62132009F08C
:100A9000E9FF0EF0CBF89649964C0EF01BF99649FB
:100AA0000EF0CCF995490EF00DF8034614202360A2
:100AB00009F0D8FF0EF0BAF88F490EF0BFF90146E1
:100AC0000EF008F98E490EF005F98E4B8E4918602C
:100AD00006460EF0BBFA40B98C4930460EF098FA43
:100AE000002800F0CD808A4B00E0804B2B6217205D
:100AF00009F0B8FF874A884F884E00EB800000F26B
:100B0000FF1382FB03121A44D917C1EB6222002B98
:100B1000B8BF02F1FF32824B3A6033F9123073866C
:100B200000220B2B326200F0DB800C2B00F0FF85E3
:100B3000093B9BB2012B40F26E85222009F092FF07
:100B40000EF074F87749DFF8E0A10EF0C3F86A49B7
:100B50000EF074F975490DF0B5FF0021CAF80000D8
:100B600005460EF055FA002840F0A7807049284647
:100B70000EF06CFA00285FD06E4BF361232009F071
:100B800071FF0EF053F85C496B4D0EF057F90021E0
:100B90000DF098FF0021286080460EF039FA0028F9
:100BA00040F08E804FF07E5140460EF04FFA002804
:100BB00078D04FF4803070620AF0F6FBDFF87CB139
:100BC0000646DBF80000002874D0301A0EF02AF830
:100BD0005B490EF033F95B4980460EF037FA08B1F5
:100BE000DFF86081DAF80010CBF800604046DFF8EB
:100BF00058810EF06FF8D8F800100DF063FF4FF039
:100C00007E5106460EF018FA00285BD030464FF0B1
:100C10007E510DF055FFC8F800004C4E3B68002295
:100C20003260052B00F2D285DFE813F0D004E8042F
:100C3000DB04C304B6049600454928460EF04AF882
:100C40000EF034FA3B4BF061984295D896E7404954
:100C500020460EF03FF80EF029FA364B3D4A9842F6
:100C6000D0613FF6BCADBDE5394920460EF032F803
:100C70000EF01CFA2F4BE86198423FF633AE33E694
:100C80004FF08F4130460EF025F80EF0E9F903469B
:100C90002CE74FF08F4120460EF01CF80EF0E0F9E3
:100CA0000346F0E64FF08F4140460EF013F80EF089
:100CB000D7F980E74FF0000894E70023F3615DE780
:100CC000002078E7C8F80060A7E7224A0023D36134
:100CD00088E5012700240025BFE50023EB6103E63A
:100CE000F16906F1380002F009FF26E70000FF7FF6
:100CF0000080894514FDFF1F00C07F440000C842EA
:100D00003333333FC000002000FEFF4600FEFFC625
:100D100000000180030820806C010020980400205E
:100D20003CF0FF1FC3F5474264FAFF1F0AD7233C7C
:100D3000A655AC460000FE7F60FAFF1F88FCFF1F2F
:100D400000247449CDCC4C3DA0FCFF1F94FCFF1F38
:100D50004B24BE4778010020D8F80070DFF8E8B2D5
:100D60003846DBF800100EF053F9002840F0F1840B
:100D7000B64BD3F800A0CBF80070C6F800A0D9F8A5
:100D800000000DF053FFB2490DF0A4FFB1490EF081
:100D900055F800210DF096FE2968074650460DF0E3
:100DA00099FFAB490DF096FF014638460DF08AFEDB
:100DB00021680DF087FEA84904460EF029F90028A5
:100DC00040F03684A54920460EF040F900B1A34C0E
:100DD000A34F20463C6821460DF072FEA1490DF05C
:100DE00079FF21460DF06EFE9F4B386002460021D0
:100DF0009E48FFF7EDFB3A689B4B9C489C4F0121B6
:100E0000FFF7E6FB1E2009F02DFE9A4B9A4900FBE6
:100E100003F36FF4FF70034481FB03211944DA17D5
:100E2000C2EB612202F58C42002BB4BF503251322A
:100E30001F203A6009F016FE6FF0090300FB03F370
:100E40006FF4FF7213448C4A386882FB03121A4411
:100E5000DC17C4EB6224002B884BB4BF0B340C347A
:100E60001C600DF0E3FE014685480DF0E7FF4FF0F2
:100E70007C510DF027FE0EF0F3F8E4B24028034653
:100E8000A8BF4023012C38BF0124012BB8BF012388
:100E90007C4AD9F800005376102C28BF1024147611
:100EA0000DF0C4FE78490DF015FF6A490DF0C6FF3C
:100EB00000210DF007FE0446152009F0D3FD0DF0CA
:100EC000B5FE71490DF006FF62490DF0B7FF6F499D
:100ED0000DF0F8FD21460DF0F5FD6C4904460EF0CD
:100EE00097F8002840F0A283694920460EF0AEF83A
:100EF00000B1674C674F16203C6009F0B3FD0DF060
:100F000095FE65490DF0E6FE52490DF097FF4FF052
:100F10007F510DF0D7FD3F68604B61491860044672
:100F200038460EF075F8002840F07C835D4938465D
:100F30000EF08CF8002840F096835B4938460DF09F
:100F4000C9FE4FF09E4107460DF0C4FE0EF088F832
:100F5000804638460BF04AF84FF09E410DF0BAFE3D
:100F60000EF07EF8514F5249F861C7F818802046BC
:100F70000EF04EF8002840F05E834E4920460EF0F9
:100F800065F8002840F0738321464FF07E500DF045
:100F900055FF4FF09D410DF09DFE0EF061F80346A8
:100FA00024207B6209F05EFD334ADFF80C81434F59
:100FB00000EB800000F2FF1382FB03121A44D917E2
:100FC000C1EB6222002BB8BF02F1FF323C4BC8F8E4
:100FD000002033F912307B8600220B2B3A6200F09E
:100FE0005A830C2B00F07383093B9BB2012B40F218
:100FF0006883252009F036FD0DF018FE3149DFF831
:10100000C8A00DF067FE13490DF018FF2F490DF031
:1010100059FD0021CAF8000004460DF0F9FF002830
:1010200040F01E832A4920460EF010F848B929499D
:1010300020460DF04FFE0EF039F8274BF86198422C
:101040004CD9254BFB6149E028F0FF1F78FCFF1FBE
:101050000080894500C07F440000964300007A4527
:1010600034F0FF1FCDCC4C3DF4FD343F70FDFF1F2D
:101070005801002040BBFFFF03082080E4FCFF1F55
:10108000A6552C47E8FCFF1F002069460000A0423F
:1010900000606A4618FDFF1F00006040C400002089
:1010A0000000A0411EDE8946465615380CFEFF1F83
:1010B0003333333F0000A040700100202806002099
:1010C00048F0FF1FC3F547426CFAFF1F0AD7233CC5
:1010D000A655AC464B24BE470000FE7F1A2009F0FF
:1010E000C1FC0DF0A3FD9A499A4C0DF0A7FE00211A
:1010F0000DF0E8FC0021206081460DF089FF0028FA
:1011000040F0A3824FF07E5148460DF09FFF00282B
:1011100000F0B9824FF4803078620AF045F9DFF8C8
:1011200038B20746DBF80000002800F08682381A43
:101130000DF078FD89490DF081FE894981460DF059
:1011400085FF08B1DFF81892DAF80010CBF80070CC
:101150004846DFF810920DF0BDFDD9F800100DF0F3
:10116000B1FC4FF07E5107460DF066FF002800F0FD
:101170006E8238464FF07E510DF0A2FCC9F8000097
:10118000D8F80030052B00F21E83DFE813F0F901D8
:10119000E401D701BE01CC010600D9F80070DFF8E8
:1011A000C8813846D8F800100DF032FF002840F012
:1011B000F7826E4B1B68C8F800706D4A019213608D
:1011C00072B66C4B6C4ADA6100221A7662B66B4BCF
:1011D000DFF8AC911A625A624FF480329A61DA6198
:1011E0001B2009F03FFC674ADFF89C8100EB800080
:1011F00000F2FF1382FB03121A44D917C1EB6222DB
:10120000002BB8BF02F1FF32604BC9F8002033F960
:101210001230A8F8323000220B2BC8F8202000F042
:1012200040820C2B00F04482093B9BB2012B40F220
:1012300077821C2009F016FC0DF0F8FC5449DFF809
:1012400054B10DF047FD42490DF0F8FD52490DF043
:1012500039FC0021CBF8000082460DF0D9FE0028B1
:1012600040F0FA814D4950460DF0F0FE50B94C491E
:1012700050460DF02FFD0DF019FF4A4BC8F81C0029
:10128000984202D9474BC8F81C301D2009F0EAFBF0
:101290000DF0CCFC2E49DFF810A10DF0CFFD0021A0
:1012A0000DF010FC0021CAF8000007460DF0B0FE5A
:1012B000002840F0CF814FF07E5138460DF0C6FE39
:1012C000002800F0D8814FF48030C8F824000AF0DC
:1012D0006BF8DFF8D8800246D8F80000002800F04C
:1012E000AF81101A02920DF09DFC1C490DF0A6FD75
:1012F0001B4903900DF0AAFE029A002840F0B98124
:10130000039BDBF80010DFF8A8B0C8F800201846EF
:101310000DF0E0FCDBF800100DF0D4FB4FF07E5137
:1013200080460DF089FE002800F08C8140464FF089
:101330007E510DF0C5FBCBF80000D9F80030052B2D
:1013400000F24882DFE803F0D5BFB1A2973600BFB4
:1013500000C07F4468FAFF1F8CFCFF1F0024744903
:10136000CDCC4C3DA4FCFF1F2CF0FF1F7CFCFF1FCD
:1013700098FCFF1F38FDFF1F0000FF7FB8FEFF1F16
:101380007401002003082080B807002054F0FF1FDC
:10139000C3F5474274FAFF1F0AD7233CA655AC4653
:1013A0004B24BE470000FE7F70FAFF1F90FCFF1F1A
:1013B000A8FCFF1FDBF80080DFF820934046D9F837
:1013C00000100DF025FE002840F0D781C44B1B68AB
:1013D000C9F80080DFF80C83C8F80030C24B3068D1
:1013E0000022DA611A625A624CF6CC429A614FF0DE
:1013F0007C510DF06FFC4FF07C510DF063FB2968C0
:101400000DF068FCB9490DF065FC0DF029FE0146B0
:10141000042009F047FE019B4FF07C5118680DF045
:1014200059FC4FF07C510DF04DFB21680DF052FC42
:10143000AE490DF04FFC0DF013FE0146052009F0FA
:1014400031FED8F800004FF07C510DF043FC4FF016
:101450007C510DF037FBDAF800100DF03BFCA3498E
:101460000DF038FC0DF0FCFD0146062005B0BDE88E
:10147000F04F09F017BEDBF800004FF07C510DF083
:10148000C7FD002840F05B81994BA3E7DBF8001013
:10149000DFF8508208460DF015FB01464FF07E50F4
:1014A0000DF00EFBC8F8000098E7DBF80010DFF83D
:1014B000348208460DF006FB4FF07E510DF000FB24
:1014C000C8F800008AE74FF07C51DBF80000DFF835
:1014D00014820DF0F5FA4FF0814120F000400DF03C
:1014E000F9FB01464FF07E500DF0EAFAC8F8000013
:1014F00074E78049DBF80000DFF8E8810DF0EAFBD3
:101500000AF074FDC8F8000068E7D9F800107A4FB7
:10151000019708460DF0D6FA01464FF07E500DF0C7
:10152000CFFA38604CE6D9F800004FF07C510DF04E
:101530006FFD002840F006816D4B3EE6D9F80010A3
:101540006D4F019708460DF0BDFA4FF07E510DF03A
:10155000B7FA386034E6684FD9F8000001974FF0C9
:101560007C510DF0ADFA4FF0814120F000400DF0BC
:10157000B1FB01464FF07E500DF0A2FA38601FE635
:101580005C49D9F800000DF0A5FB5B4B01931F46A9
:101590000AF02CFD386013E6D8F800004FF07C51BB
:1015A0000DF036FD002840F0D080DFF844A1FFF7B1
:1015B000E4BBD8F8001008460DF084FA01464FF05D
:1015C0007E500DF07DFA8246FFF7D7BB4949D8F827
:1015D00000000DF07FFB0AF009FD82463060FFF746
:1015E000CEBBD8F8001008460DF06CFA4FF07E51D3
:1015F0000DF066FA82463060FFF7C1BBD8F80000F4
:101600004FF07C510DF05CFA4FF0814120F000402A
:101610000DF060FBD2E7F16906F1380002F0C6F97F
:10162000FFF78BBA3548DFF8D8809BE4354C61E48E
:10163000354CFFF7CDBB354BB2E44FF0000983E5E5
:1016400000235EE6CBF8008077E6002064E5C9F869
:10165000007095E5002038E60023C8F81C3014E639
:101660000023FB613AE52A48DFF8A8807AE42A4B98
:1016700096E42A4B45E64FF08F4138460DF02AFBA1
:101680000DF0EEFC21E64FF08F4148460DF022FBB5
:101690000DF0E6FC40E5F96907F1380002F02EFA9A
:1016A000A7E4D8F81C1008F1380002F027FAC0E5CA
:1016B000D8F82820D8F81C1008F1380002F0DAF920
:1016C000B7E5F96907F1380002F070F991E4BA6AF8
:1016D000F96907F1380002F0CDF98AE430F0FF1F14
:1016E00080FCFF1F9CFCFF1F80FEFF1F00007F434C
:1016F000000080BFDB0FC94098FCFF1F7A55170020
:101700007B5517000000A0420000964300B76D5BB8
:10171000008C3C4B00BE6C50D0CCCC0CCDCC4C3DA6
:10172000D8F81C1008F1380002F040F981E5B26ADF
:10173000F16906F1380002F09DF9FFF7FEB94FF0AC
:101740007E5347E64FF07E5337E54FF07E5AFFF762
:1017500014BB47F6FF7009F06BF80DF063FA1F49F0
:101760000DF06CFB4FF07E510DF0AAF91C4BD8F830
:10177000007018608246FFF7FEBA47F6FF7009F066
:1017800057F80DF04FFA15490DF058FB4FF07E5108
:101790000DF096F9134ADBF800801060034617E657
:1017A00047F6FF7009F044F80DF03CFA0B490DF0D4
:1017B00045FB4FF07E510DF083F90B4AD9F80070CC
:1017C00010600346F7E4094B0193F9E44FF0000A77
:1017D000FFF7D5BADFF8188000E600BF00FE7F46AD
:1017E00078FCFF1F80FCFF1F7CFCFF1F98FCFF1F85
:1017F0009CFCFF1F2DE9F043AF48B04CB04FB14EF9
:1018000083B0FEF7B7FEB048FEF7B4FEAF48FEF770
:10181000B1FEAF48FEF780FE002504F11802012159
:101820002046FEF72BFEE561AA4A27602046AA491A
:101830000CF0BEFCA94A1346D560C2F89850A84DDA
:1018400043F8986B2C6813614FF480731381002C5C
:1018500000F03282234619465B69002BFBD14A61B6
:101860004FF000089F4B1360C2F81480C2F8048048
:1018700082F80A809C48802241460EF0B3F89B4BC8
:10188000C3F80880C3F80C80C3F81080224664694E
:10189000002CFBD15361964A1A605C605C619C72BB
:1018A0001C76DC619348DFF85092DFF85082FEF737
:1018B00061FE9348FEF706FE9248FEF75BFE9248F3
:1018C000FEF72AFE09F11C0201214846FEF7D6FD6B
:1018D0008E4BC9F8003008F1180201214046FEF78E
:1018E000CDFD7C4A7C49C8F80070C8F81C404046D1
:1018F000DFF81C820CF05CFC8648FEF70DFE08F158
:10190000180201214046FEF7B9FD724A7249C8F833
:101910000070C8F81C4040460CF04AFC7E4A2B6818
:10192000D4601146546341F8346B11614FF4007177
:1019300094631181002B00F0C48119465B69002B70
:10194000FBD14A61754B1360754B9361A3F57C53D2
:10195000183BD3614FF4805300241362714B5362E0
:10196000714F5461546094729462D46214636F48EE
:10197000FEF7A8FD6E48FEF7A5FD07F1180202214B
:101980003846FEF77BFD6B4B3B606B48FEF7C4FDB2
:101990006A4A13464FF4807143F8186B13612B6841
:1019A000D46011819461002B00F0898119465B6934
:1019B000002BFBD14A610024614B54615460947246
:1019C00013605E4800F0FAFD01255E4808F01AFC3D
:1019D0003F4B3949009522465A4808F087FC3D4A5A
:1019E000594958480CF0E4FB584808F00BFC384BB8
:1019F000354900942246554808F078FC354A52494A
:101A000052480CF0D5FB524808F0FCFB3E4B3049E5
:101A1000009422464E4808F069FC2E4A4A494C4838
:101A20000CF0C6FB254A29494A48FEF715FD294A0C
:101A3000454948480CF0BCFB474808F0E3FB274BFE
:101A4000234900942246444808F050FC214A3E496C
:101A500041480CF0ADFB2A4A18494048FEF7FCFC0F
:101A60001C4A39493D480CF0A3FB3D4808F0CAFB2D
:101A7000254B1A4900952246394808F037FC154A8B
:101A8000314937480CF094FB364808F0BBFB022183
:101A90000F4B009122461C49324808F027FC0D4AA2
:101AA000294930480CF084FB2F4808F0ABFB124B5F
:101AB00015490094224659E00803002048090020F7
:101AC00088B4010020000100780100209804002063
:101AD00048FEFF1F24F0FF1F791F000070FDFF1F4D
:101AE0002C0F002094B4010088FDFF1F38FDFF1F5C
:101AF000B8B50100B8070020E8FCFF1F6C09002002
:101B0000C800002028060020ACFCFF1F70B40100B4
:101B100090090020B8FEFF1F0CFEFF1FA0B40100BB
:101B200000B28E0480F9855AF0FEFF1F28010020C4
:101B3000F80000207CB4010080FEFF1F1CFDFF1F89
:101B4000B8B401001CFFFF1FA1A30000F8FFFF1F96
:101B50000C0000202000002034000020480000205D
:101B60005C0000208400002070000020564808F02F
:101B7000BDFB564A564954480CF01AFB554808F02C
:101B800041FB554B554900952246524808F0AEFBA3
:101B90004E4A4F494F480CF00BFB514808F032FBBE
:101BA0004D4B5049009422464D4808F09FFB474A50
:101BB00047494B480CF0FCFA4B4A4A494B48FEF760
:101BC0004BFC424A424949480CF0F2FA484808F0B6
:101BD00019FB484B484900952246454808F086FBCA
:101BE0003A4A3B4942480CF0E3FA444A42494448E5
:101BF000FEF732FC354A364941480CF0D9FA4148E3
:101C000008F000FB3B4B4049009422463D4808F059
:101C10006DFB2E4A2E493B480CF0CAFA3B4A32492A
:101C20003B48FEF719FC294A294939480CF0C0FA0B
:101C3000384808F0E7FA384B2749009422463548DF
:101C400008F054FB214A224932480CF0B1FA334AD9
:101C50002A493348FEF700FC1C4A1D4930480CF065
:101C6000A7FA304808F0CEFA2B4B224900952246BD
:101C70002C4808F03BFB154A15492A480CF098FA05
:101C8000294808F0BFFA294B2349009422462648E8
:101C900008F02CFB0D4A0E4923480CF089FA244A1F
:101CA00022492448FEF7D8FB084A0949214803B0D5
:101CB000BDE8F0430CF07CBA2A601446D0E52A60F7
:101CC00079E62A603EE600BF7000002024F0FF1F86
:101CD000A1A3000098000020B8FEFF1F38FDFF1FE1
:101CE000AC000020B80700206C09002030FFFF1F67
:101CF00044FFFF1F0CFEFF1F280600209009002054
:101D000058FFFF1F6CFFFF1FE8FCFF1F280100208A
:101D100080FFFF1F94FFFF1FF0FEFF1FF800002051
:101D2000A8FFFF1FBCFFFF1FD0FFFF1F80FEFF1F8C
:101D30001CFDFF1FE4FFFF1F2DE9F041002180463D
:101D400008F030FA18B3D8E9082300F1140100F5BF
:101D50008A7C51F8107C51F80C6C51F8085C51F8F1
:101D6000044CC7FBC723C6FBC623C5FBC523C4FB66
:101D7000C42310316145ECD1D8F828100131C8E9ED
:101D80000823C8F82810BDE8F04108F0BFB9D8F81A
:101D900028300133C8F82830BDE8F08170B5037EE3
:101DA000102B04464FF0000102D1437E012B62D973
:101DB000204608F003FA0546002861D094F819C0BF
:101DC000BCF1010F46D9267E102E4FF000032AD019
:101DD000C6F1100605EB430E802BBEF9041016D099
:101DE00003F10042F140B14002320CEB0300AEF8C7
:101DF000041005EB420209B20133802B03F1010309
:101E000005D0834222F8021FF7D1802BE2D1204671
:101E10002946002208F0A4F92846BDE8704008F0E1
:101E200075B9802BF3D005EB4302802BB2F9041077
:101E3000EDD003F1004202320CEB030005EB42024D
:101E40000133802B03F10103E1D0984222F8021FF5
:101E5000F7D1E6E794F818C0821CCCF1100C00F51D
:101E6000817132F9023F43FA0CF303FA0CF3914209
:101E70001380F6D1CBE708F095F905460028C6D1C6
:101E800070BD00BF2DE9F0410021804608F096F9B1
:101E900001210446404608F085F905468CB3A0B3FD
:101EA0000C3004F10C0105F5867C51E9022350E960
:101EB000026712FB36FE2EF3CF3E12FB06F222F330
:101EC000CF32C2EA0E4213FB37FE2EF3CF3E13FB96
:101ED00007F323F3CF33C3EA0E430830604541E9EB
:101EE000022301F10801E0D100222146404608F01A
:101EF00037F9204608F00AF92846BDE8F04108F015
:101F000005B90028F9D1BDE8F0812046BDE8F041CF
:101F100008F0FCB8F8B5C3696BB30021044608F0BB
:101F20004DF9054638B3B4F92000E669A91C05F55A
:101F3000817C31F8022F82F4004242FA00FE06EB67
:101F40004E0336F91E70B3F902300EFA00FEDB1BA9
:101F5000A2EB0E0202FB03F303413B448C450B80D2
:101F6000E7D120462946002208F0FAF82846BDE8C5
:101F7000F84008F0CBB8F8BD10B50446C069034B73
:101F8000236008B108F022FF204610BD88B401008C
:101F90002DE9F04F83B000210446009008F00EF9BF
:101FA0000190002853D000F1040A04F1380900F52B
:101FB000827819E90E0059F820CC59F81C7C59F8A0
:101FC000186C59F8145C59F8104CC3F30D035046C3
:101FD0008B4601683CFB013337FB1B3336FB0B336D
:101FE00035FB123334FB023323F38F3EC3F30D036F
:101FF0003CFB113337FB013336FB1B3335FB0E3310
:1020000034FB123323F38F32CEEA024240F8042B22
:102010008045C3F30D03DBD159F8040C49F8082CB3
:1020200000F000421343002849F8043C49F80C1C16
:1020300009F12009BDDB019C00980022214608F02F
:102040008FF8204603B0BDE8F04F08F05FB803B04A
:10205000BDE8F08F03291FD8183030B400EB4113CE
:102060004C0172B629B153F8041C41F0004143F809
:10207000041C11680151D4681069D96955685D6004
:10208000644295689D60404201F00041DC60186147
:10209000D96162B630BC7047704700BF2DE9F04F80
:1020A00083B090461F46DDF830A0C569D0F8249073
:1020B000846AC26A036B01900E4601F5807B36F993
:1020C000020B2146040355FB13FC02EB8C0C59FB5D
:1020D00013F22144CCEB6101A1EB820155FB11F01D
:1020E00003EB800055FB10F20CEB820259FB10F35E
:1020F000A4EB020EAEEB830E55FB1EF300EB830345
:1021000094442CF34F3C184420F34F30714421F396
:102110004F31B34528F802CB27F8020B2AF8021BEF
:10212000CDD101998C62CA620B6303B0BDE8F08F18
:102130002DE9F04F85B01F46836901930E46036A6F
:1021400002939046DDF838B0DDF83CA0D0F824903A
:10215000846AC16A036B039006F580720092029A4A
:1021600038F9020B02FB00F020F0784202F1006225
:10217000D20052FB12F2254D52FB15F2013DC01662
:1021800005EBC202C0F106000241019850FB12F2B9
:102190001F488242A8BF0246204636F9024B12026F
:1021A000240352FB13FC01EB8C0C59FB13F120446C
:1021B000CCEB6000A0EB810052FB10F503EB850532
:1021C00052FB15F10CEB810159FB15FE631AA3EBD1
:1021D0008E0E52FB1EF205EB82038C442CF34F3C17
:1021E0001D4425F34F35704420F34F30009A27F8F3
:1021F00002CBB2422BF8025B2AF8020BAFD1039A52
:102200009462D162136305B0BDE8F08FABAAAA2A2D
:10221000E71052002DE9F043002183B0044607F097
:10222000C1FF01210546204607F0BCFF0646002DF0
:102230003CD007F015FF0746002853D007F010FFE9
:102240008046002837D007F00BFF8146002850D089
:10225000031D002E3DD0019308F104030093204696
:102260003B1D321D291DFFF763FF304607F04EFF6F
:10227000284607F04BFF00223946204607F070FF42
:10228000384607F043FF01224146204607F068FF29
:10229000404607F03BFF20460222494607F060FF18
:1022A000484603B0BDE8F04307F030BF0028F8D13E
:1022B00003B0BDE8F083284607F028FF384607F052
:1022C00025FF002EF4D0304603B0BDE8F04307F000
:1022D0001DBF00933A1D08F10403291D2046FFF796
:1022E000DDFEC5E7284607F011FF002EE0D030469E
:1022F000EAE7284607F00AFF384607F007FF40469E
:1023000007F004FF002ED3D03046DDE710B50446B9
:1023100008F012F9204610BD024A034903480BF0A9
:1023200047BF00BF24F0FF1F0D230000B4090020A9
:1023300038B5074D074C08482A4621460BF038FFB0
:102340002A4621460548BDE838400BF031BF00BFA2
:1023500024F0FF1F0D230000BC090020C409002049
:10236000024A034903480BF023BF00BF24F0FF1FBC
:102370000D230000CC090020024A034903480BF05A
:1023800017BF00BF24F0FF1F0D230000D409002059
:10239000024A034903480BF00BBF00BF24F0FF1FA4
:1023A0000D230000DC090020024A034903480BF01A
:1023B000FFBE00BF24F0FF1F0D230000E409002032
:1023C000024A034903480BF0F3BE00BF24F0FF1F8D
:1023D0000D230000EC090020024A034903480BF0DA
:1023E000E7BE00BF24F0FF1F0D230000F40900200A
:1023F000F8B5002705463C46B4B33946284607F0F1
:10240000D1FE08B3BB1D04F1040E55F82360B6F5E8
:10241000803F00F1040C47D000F582715CF8042B7A
:1024200036FB02F336FB12F203F30F0302F30F0243
:10243000C3EA0243DEF8002093FA12F38C454EF80B
:10244000043BEBD107F062FE0137042FD4D12846BC
:102450002146002207F084FE2046BDE8F84007F040
:1024600055BE0137042F3BD03946284607F0A6FE5B
:1024700004460028F5D0BB1D55F82300B0F5803F79
:10248000E2D0211D04F582760B6830FB03F230FBAD
:1024900013F302F30F0203F30F03C2EA034341F8FD
:1024A000043BB142F0D1CFE700F10C0204F10C0380
:1024B00000F5867C53F8081C52F8086C91FA16F166
:1024C00043F8081C52F8046C53F8041C91FA16F1F6
:1024D0000832944543F8041C03F10803EAD1B1E73C
:1024E000F8BD00BF024A034903480BF061BE00BFBC
:1024F00024F0FF1F0D230000FC09002010B500216F
:1025000007F050FE80B1034672B6094A106860B108
:1025100008490C6834B114600B6062B6BDE8104025
:1025200007F0F4BD0B6062B610BD136062B610BD5B
:10253000040A0020080A002010B51A4B1A481A682D
:102540001A4912681B791A4CC3778A42206836BF31
:102550000A46A1F5807202F58071D8B100F1040C31
:102560003CF9023B03F500431B1122F8023B914268
:10257000F6D807F0CBFD0F4B0022196821601A60D6
:102580000D4B1B782BB14FF0E0234FF08042C3F886
:10259000082210BD4FF4006322F8023B9142FBD8A1
:1025A000EEE700BF100A002000800040A0E8FF1FF7
:1025B000040A0020080A00200C0A002070B501213E
:1025C0003C483D4D07F05AFF3C4AD36A802143F412
:1025D0008053D362002485F8211040F608062C8031
:1025E0000120083408F000FFA3B2B34224B2F6D1B0
:1025F000324BDB6B5B0205D5314A116848F6A2739A
:102600008B4348D02D492E4BCA6B2E4842F4800292
:102610000124CA63DC6048F6A37140F23F4440F2F3
:1026200001125C60196018601A61224C2648236808
:102630002649D860264A204819605A60186100224D
:102640004FF4807102250620D9829A82D9839A613B
:1026500098839D60237903F1804303F50433B0210F
:102660001A70197007F0B6FE22791A491A4C5311E4
:10267000207003F13823CA7602F110001749184C74
:1026800041F820404033AB4002F01F02012101FA23
:1026900002F21A6070BD516840F23F439942B1D1D5
:1026A000D368012BAED1126940F201139A42A9D12D
:1026B000BBE700BF100A002000C00C4000800440AF
:1026C00000600340A28F010000FEFFFFA0E7FF1F94
:1026D00002000101008000400C0A002000EAFF1FF8
:1026E00039250000054A92F8213002290CBF03F079
:1026F000BF0343F0400382F82130704700C00C4014
:10270000024A034903480BF053BD00BF24F0FF1FEA
:102710000D230000100A0020024A034903480BF071
:1027200047BD00BF24F0FF1F0D230000180A002042
:10273000024A034903480BF03BBD00BF24F0FF1FD2
:102740000D230000200A0020024A034903480BF031
:102750002FBD00BF24F0FF1F0D230000280A00201A
:10276000024A034903480BF023BD00BF24F0FF1FBA
:102770000D230000300A0020024A034903480BF0F1
:1027800017BD00BF24F0FF1F0D230000380A0020F2
:10279000024A034903480BF00BBD00BF24F0FF1FA2
:1027A0000D230000400A002000207047704700BF42
:1027B000036D0BB101207047406D003818BF012038
:1027C000704700BF10B50446806D18B10CF014FEC0
:1027D0000023A365236D2BB104F11800BDE8104060
:1027E00006F092B8636D002BF6D110BD10B504460B
:1027F000806D00B110BD4FF480700CF0F5FDA06548
:10280000B0B1236D002202703BB101464FF48072DB
:10281000184605F0A1FDA06D10BD636D002BE9D039
:1028200001464FF48072184603F0F8FAA06D10BD0F
:102830000148A06510BD00BF480A002038B5056DED
:102840006DB10BB1002038BD1146284604F0E2FA04
:102850000028F7D02846BDE8384004F073BC446D2A
:10286000002CEFD0204601F09FFF0028EAD0204640
:10287000BDE8384002F0BABD8A79A2F150031B06C8
:1028800020D4F0B54B79046D0D798E784F780978A6
:10289000013385B002F26C72DBB244B103918DE872
:1028A000E0000421204604F0E1FB05B0F0BD406DDE
:1028B0000028FAD003918DE8E000042102F0E6FC44
:1028C00005B0F0BD0020704710B50446006D80B122
:1028D000037813F0700F00D110BD002104F09AFAB4
:1028E000606D0028F8D0BDE810400022002301F000
:1028F0005BBF606D0028EFD090F8313013F0500FBF
:10290000EAD0BDE810400022002301F04DBF00BF17
:1029100010B50346006D82B00C4620B30DF10602DF
:1029200001A903F09FFE38B3BDF80430BDF80620BE
:1029300053EA020120D0C2F3451C02F01F00D20A64
:10294000C3F343114000A2705A0A0139207003F00A
:102950001F0302F5EA62012084F801C0237161714E
:10296000A27102B010BD586D30B10DF1060201A97F
:1029700001F0B4FD0028D7D1002002B010BD00BF87
:1029800010B50346006D82B00C4620B30DF106026F
:1029900001A903F057FE38B3BDF80430BDF8062096
:1029A00053EA020120D0C2F3451C02F01F00D20AF4
:1029B000C3F343114000A2705A0A0139207003F09A
:1029C0001F0302F5EA62012084F801C023716171DE
:1029D000A27102B010BD586D30B10DF1060201A90F
:1029E00001F06AFD0028D7D1002002B010BD00BF61
:1029F0000369B3B110B41C680B48E46884420CD17D
:102A0000186D10B110BC04F0D7BB586D10B110BCDC
:102A100002F060BD002010BC70471846234610BC71
:102A200018470020704700BFE92C0000006990B1F2
:102A30000368154A1B69934225D1036D63B1187869
:102A400010F0080007D0D8695B69C01A48BF6FF062
:102A50000040704718467047436D002BFAD093F83A
:102A6000310010F00800F6D0186919685A695B68DF
:102A7000401A62EB0303B0F1004F73F10003EAD395
:102A80006FF0004070471847E12D0000036963B103
:102A90001A68074992698A4208D1186D08B104F092
:102AA000DFBA586D08B102F0A9BA7047184610474E
:102AB000692C0000036973B11A68084952698A4297
:102AC00007D1186D08B104F069B8586D18B101F05C
:102AD00053BE184610474FF0FF307047C12B00001F
:102AE000036D13B1586900217047436D13B1D3E9E9
:102AF0000001704718461946704700BF036D13B1B7
:102B0000D86900217047436D13B1D3E904017047C0
:102B100018461946704700BFF0B595B00022234F04
:102B200001924FF47A741831054604A8CDE91222B7
:102B300002948DF80C20009705F052FF129B002B99
:102B400029D05C2008F040F9019BC360029B03611F
:102B50009DF80C300375164B03600026154B8360FF
:102B60000446466004A9183005F0A0FE4FF47A73BD
:102B7000AB606368104AA7600133A6656E602A6087
:102B80002E732C6163600D4B009304A805F0BCFE0E
:102B9000284615B0F0BD139B002BD2D1064A6B60BE
:102BA000AC602B732A602B61EDE700BF0CB5010010
:102BB0005CB50100C4B4010030B50100E8B4010007
:102BC0000346006D08B103F0E9BF586D08B101F08C
:102BD000D3BD4FF0FF3070470346806C08B103F05F
:102BE000DDBFD86C08B101F0C7BD4FF0FF307047B2
:102BF000036D33B11B7813F0700F14BF0120002058
:102C00007047406D30B190F8313013F0500F14BF61
:102C100001200020704700BF0346006D08B103F09B
:102C2000EFBE586D08B101F0D3BC4FF0FF307047D4
:102C300000B50346806C83B058B101220DF1070145
:102C400003F0DEFE01280CD19DF8070003B05DF80B
:102C500004FBD86C28B101220DF1070101F0B8FC8A
:102C6000F0E74FF0FF30F1E70346006D08B104F0E4
:102C7000F7B9586D08B102F0C1B970470346806CCE
:102C800008B104F0EDB9D86C08B102F0B7B97047DB
:102C9000036923B310B51968124A8C68944282B054
:102CA00014D1186D48B101220DF1070103F0A8FEFF
:102CB00090B19DF8070002B010BD586D0028F8D003
:102CC00001220DF1070101F083FCF1E701220DF172
:102CD00007011846A047EBE74FF0FF30EBE74FF056
:102CE000FF307047192C00000346006D08B104F056
:102CF00063BA586D08B102F0EDBB70470346806CB3
:102D000008B104F059BAD86C08B102F0E3BB7047BF
:102D100000B5034683B0806C8DF8071038B10122EE
:102D20000DF1070104F048FA03B05DF804FBD86C1C
:102D30000028F9D001220DF1070102F0CBFB03B00E
:102D40005DF804FB8A79A2F150031B0620D4F0B58C
:102D50004B79046D0D798E784F780978013385B001
:102D600002F26C72DBB244B103918DE8E000022103
:102D7000204604F07BF905B0F0BD406D0028FAD084
:102D800003918DE8E000022102F080FA05B0F0BD69
:102D900000207047836C53B1187810F008000DD0F4
:102DA000D8695B69C01A48BF6FF000407047C36CB8
:102DB000A3B193F8310010F0080000D170471869F2
:102DC00019685A695B68401A62EB0303B0F1004F5F
:102DD00073F10003F2D36FF0004070471846EDE73F
:102DE000036D53B1187810F008000DD0D8695B69F5
:102DF000C01A48BF6FF000407047436DA3B193F80D
:102E0000310010F0080000D17047186919685A693C
:102E10005B68401A62EB0303B0F1004F73F10003EB
:102E2000F2D36FF0004070471846EDE710B5036924
:102E300082B08DF80710BBB11968104ACC68944273
:102E400015D1186D30B101220DF1070104F0B4F96C
:102E500002B010BD586D0028FAD001220DF1070113
:102E600002F038FB02B010BD184602B010BD0122BE
:102E70000DF107011846A04702B010BDE92C000073
:102E800038B50446806D0C4B236018B10CF0B4FAD1
:102E90000023A365236D04F118054BB1284605F006
:102EA00033FD064BA360284605F02EFD204638BDB5
:102EB000636D002BF2D1F4E75CB50100E8B40100CA
:102EC00038B50446806D0E4B236018B10CF094FAAF
:102ED0000023A365236D04F118056BB1284605F0A6
:102EE00013FD084BA360284605F00EFD20465C212B
:102EF00007F06EFF204638BD636D002BEED1F0E782
:102F00005CB50100E8B4010030B4029C11469C4657
:102F100034B1012C1CD0022C0ED0002030BC7047E4
:102F2000056DF5B14FF0FF33934274EB0C04F4D30D
:102F3000284630BC03F06EBF026D0AB3D36959183E
:102F40004CF10003002BE8D130BC104603F062BF07
:102F5000026D62B1536959184CF10003002BDCD1AA
:102F6000F2E7406D0028D8D030BC01F01DBC406DA8
:102F70000028D2D0D0E900238A184CEB0303F3E7F2
:102F8000406D0028C9D0D0E904238A1830BC4CEB2E
:102F9000030301F009BC00BF70B50569234B036052
:102FA0000446002D32D06E68013E6E6076BB2B6801
:102FB0001F4ADB6A93422FD1A86D10B10CF01CFAA6
:102FC000AE652B6D23B305F1180005F09DFC256956
:102FD000E5B12B68174A5B68934224D1A86D164B64
:102FE0002B6018B10CF008FA0023AB652B6D05F1CE
:102FF0001806A3B1304605F087FC104BAB60304695
:1030000005F082FC5C21284607F0E2FE204670BDF8
:103010006B6D002BD7D1DAE728469847D7E76B6D61
:10302000002BE7D1E9E728469847EFE730B50100E4
:10303000C5270000C12E00005CB50100E8B4010006
:1030400070B50569254B03600446002D32D06E68CB
:10305000013E6E6076BB2B68214ADB6A934233D116
:10306000A86D10B10CF0C8F9AE652B6D43B305F136
:10307000180005F049FC2569E5B12B68194A5B6821
:10308000934228D1A86D184B2B6018B10CF0B4F9FD
:103090000023AB652B6D05F11806C3B1304605F072
:1030A00033FC124BAB60304605F02EFC5C21284609
:1030B00007F08EFE2046142107F08AFE204670BDE0
:1030C0006B6D002BD3D1D6E728469847D3E76B6DBD
:1030D000002BE3D1E5E728469847EBE730B5010040
:1030E000C5270000C12E00005CB50100E8B4010056
:1030F0002DE9F041044606F0B3FF002800F0A2805D
:10310000237E054605F5827C04301BBBE269C2EADA
:10311000224205F1240305F5927143F8202C43F86F
:103120001C2C43F8182C43F8142C43F8102C43F8AB
:103130000C2C43F8082C43F8042C20338B42ECD1A0
:1031400020462946002207F00BF82846BDE8F0414A
:1031500006F0DCBF216AE369626A83FAA1F6EFF345
:1031600000873F0170D5002A5CD0571C022F04D97C
:1031700091FBF2F693FBF2F7F61B7F2E28DD05F1AB
:10318000140105F58A7C01E0E369626A9F1803EB8C
:103190004203C3EA274703EB020E03EB4203C3EAF1
:1031A0002E4E9E1803EB4203C3EA264603EB420071
:1031B000E0611344C0EA234041F8107C41F80CEC74
:1031C00041F8086C41F8040C10316145DCD1B7E7D7
:1031D000012E3CDDB71E4FEA570808F1020E05EB41
:1031E0008E0E064601E0E369626A03EB4201E1618B
:1031F0001344C1EA234146F8041B7645F3D1C8EBDA
:10320000C873216A08F1010807EB430600EB880840
:10321000FEB1E369626A1344C1EA2343404640F8C1
:10322000043B216AE16100232376C1EA2141604524
:1032300086D240F8041B844582D940F8041B84459B
:10324000F7D87DE7BDE8F08196FBF2F695E780467A
:10325000DEE74046E6E700BFB1F5803F4FEA2123B5
:103260005FFA81FC11DA0F495A1C023331F912203E
:1032700031F91300CCF580730CFB00F002FB030066
:103280008030001200F5C0407047C3F5FF7105485B
:10329000C3F50073013130F9132030F911005242A7
:1032A0004042E7E760B00100B1F5704F2DE9F04111
:1032B0000F46064690462BDC1D460C4606E004F5FC
:1032C0008054B4F5704F05F1010518DC002CF6DBD5
:1032D00021463046B8F1000F28D0FFF7BDFF05F0BA
:1032E0000F0306EB830304F58054D3F81021B4F5E3
:1032F000704F1044C3F8100105F10105E6DDC7F574
:10330000704323F47F6307F5805723F00F031F44B6
:10331000D6F8083106EBC302013303F01F039760B0
:1033200082F80C80C6F80831BDE8F081FFF794FF01
:103330004042D4E72DE9F04FD0F80841D0F80C71A5
:10334000D0F804B083B0E31BDB0601943DD0DFF876
:1033500084800646013C04F01F0406EBC409304695
:10336000D9F8085099F80CA0294605F58055FFF7C3
:1033700073FFB5F5003FC9F8085008DB7368BAF170
:10338000000F14BF4FF44042424613447360BAF139
:10339000000F00D14042A7428344DBD1013756F8E9
:1033A0003730B3F5003F10DB019B07F01F07BB422E
:1033B000C6F80C7109D0013756F83730B3F5003F25
:1033C000A4BF07F01F07C6F80C71584603B0BDE84C
:1033D000F08F00BF0040FFFF002938B504461546B6
:1033E00003DB0268002A20DB38BD0368002BFBDB0F
:1033F000D0F85401CA1AC11A08030023090D0BF0B2
:1034000075FE94F8503140F6FF71B0F5805F18BF3B
:103410000146002BE8D02B46002249422046FFF708
:1034200043FF002384F8503138BDC2F1000C002363
:103430008A1A4FEA0C304FEA1C510BF057FE94F8F1
:10344000503140F6FF71B0F5805F18BF0146002B88
:10345000CAD12B46012249422046FFF725FF01230E
:1034600084F8503138BD00BF2DE9F843044690F888
:1034700050010D4617461E46D8B12268D4F85411A3
:103480008A424ED2A9424ED8891A0023AA1A0803AA
:10349000090D0BF02BFEB0F5805F18BF414233469B
:1034A00008BF224900222046FFF7FEFE002384F8D1
:1034B0005031D4F80080B8F1000F32DA002D30DB43
:1034C000C8F10001A5EB08094A4600230803C4F827
:1034D0005471090D0BF00AFEB0F5805F14BF414234
:1034E0001249334601222046FFF7DEFE0123BD428A
:1034F00084F8503115D3A7EB08014A46002308038E
:10350000090D0BF0F3FDB0F5805F18BF4142334663
:1035100008BF064900222046FFF7C6FE002384F8B4
:103520005031BDE8F883AA42FBD9ADE701F0FFFFB7
:1035300070B50E1E054614461BDBFFF7FBFE2A681E
:103540004FF44043A2FB0313A3F5C043002A00FA43
:1035500083F309DB04F00F0405EB8404B4F91001D4
:10356000C4F810312E6070BD6A6802F540426A608E
:10357000F0E70268002A11DBC2F100410023B21A11
:103580000803090D0BF0B2FDB0F5805F14BF414296
:103590000949234600222846FFF786FE3146284681
:1035A000FFF7C8FE2A684FF44043A2FB0323A3F5AC
:1035B000C04300FA83F3CDE701F0FFFF2DE9F04FA0
:1035C000436A00F11804D0CC85B005462BB904EB52
:1035D000C614846105B0BDE8F08F06F041FD00908F
:1035E000002857D0E3190193009B1C1DB5F9323018
:1035F0000C2B29D8DFE813F0870079000D00A50017
:10360000BF00E600FF000E012701530053006901CF
:103610008E01686A20F34F00009AC0F1000C931DE0
:1036200002F5837E019A00B20FFA8CFC002AACBF2F
:103630000146614623F8021C02339E453244F5D10F
:10364000019B03EBC61301932B6A019AD21AB5F9B9
:103650003430AA617BB1009A02F582711A4601E00A
:10366000B5F93420B4F90030134403F30F0324F800
:10367000023BA142F4D1009C28460022214606F0DC
:103680006FFD204605B0BDE8F04F06F03FBD009845
:1036900006F03CFDAB6903EBC613AB619AE7009BF8
:1036A000DDF804B005F1380903F1060A4FF000080F
:1036B0000BE002FB00F0031408F10108B8F1800FE1
:1036C0002AF8023C0AF1020ABAD0B34442465946EB
:1036D0004846FFF72DFFB5F932306A6A0A2BE8D168
:1036E000524200FB02F21314E6E7009B6F6A019A54
:1036F00003F58270234637FB12F123F8021B984230
:103700003244F8D19CE7009B6F6AA648019A03F502
:10371000827C2146130E03F1010E30F9139030F92B
:103720001E80C2F30F2ECEF5803309FB03F30EFB90
:10373000083353FB07F321F8023B8C453244E9D1AF
:103740007EE7009B686A019A991D03F5837E4FF618
:10375000FF7C970F013F012FACEBD23300FB03F34B
:1037600084BFD31343431B1421F8023C02318E451E
:103770003244EED164E7E86A002888D0009B6F6A83
:10378000019A03F5827C21464FEA126E0EF1010385
:10379000BEF1FF0F14BF00EB43030346C2F30F2833
:1037A000B3F9003030F91EE0C8F5803908FB03F3A7
:1037B00009FB0E3353FB07F321F8023B8C453244DF
:1037C000E2D13DE7686A20F34F00009AAF6AC0F18A
:1037D000000C931D02F5837E019A00B20FFA8CFC57
:1037E000974294BF6146014623F8021C02339E456E
:1037F0003244F5D124E7009B686A019A03F5827C84
:10380000C043234630FB12F123F8021B9C4532448F
:10381000F8D115E7009BDDF8048003F5827AA14614
:1038200002E0CA453FF40CAFB5F9303029F8023B4D
:1038300018EB0608F5D3686A06F0FAFF6B6AA0EB8E
:1038400063002886EDE7AB6A03946FEA53020292A5
:10385000019A686A029C4FEA13484FEA5309A2EBA7
:10386000530E009BC8F57F41FF3103F1060C03F5B1
:10387000837A6FF000474FF0FF33B3FBF8F8B3FBE8
:10388000F1FB18E04FEA1E4109EB02030BFB11713B
:103890001B0C091408FB03F3944200FB01F103F134
:1038A000004374D90B142CF8023C0CF1020CD445E3
:1038B0003244B64470D0130C08FB03F31B0C914543
:1038C00000FB03F3DED91B14EDE7019F05F1380A75
:1038D000A3464FF000083744424639465046FFF7AA
:1038E0007BFD39465046FFF725FD08F00F0205EB3A
:1038F000820208F10108B2F94831C2F84801696A48
:10390000AF6301FB03F31B14B8F1800F2BF8023BEC
:10391000E1D195E6019F029405F13809A0464FF0E8
:10392000000BAC6A37445B46224639464846FFF7EF
:103930009BFD39464846FFF7FDFC1B4BA3FB043CAF
:10394000A4EB0C0A0BF00F0305EB83030CEB5A0CF2
:103950004FEA1C4CD3F84821CCF5405C6044C3F8D6
:1039600048015311C3EB62036A6AAF631BB20BF1E8
:10397000010B02FB03F31B14BBF1800F28F8023B81
:10398000CFD1019B029C03EBC61301935CE61B1491
:1039900000FB03F31B1486E7019B039C03EBC61398
:1039A000019351E664B20100016000802DE9F04707
:1039B000C1EBC1684FEA4813002B2C4ADFF8B0A0D6
:1039C00003604FF00006A8BF4FF4C0420F46054603
:1039D0004260C0F80861C0F80C61CC18C3F100481F
:1039E0004FF440491DE021462846FFF7A3FC2A6812
:1039F000A2FB0913A3F5C043002A00FA83F003DAFF
:103A00006B6803F540436B6006F00F0344330136E7
:103A100000B2202E45F82300A8EB07082C603C4498
:103A200022D0002CDFDAE31B002B11DB3A46002307
:103A30004FEA08304FEA18510BF058FBB0F5805FA1
:103A400014BF41425146334600222846FFF72CFC62
:103A500021462846FFF76EFC2B68A3FB0923A3F53C
:103A6000C04300FA83F0CFE7BDE8F08700A0FFFF76
:103A700001F0FFFF2DE9F843C1EBC1646401A242EC
:103A80001C4BC0F8542188BF4FF4C04343601A4B0D
:103A900004609146A3FB0923A9EB03024FF0000544
:103AA00003EB52074FEA17478CBF01232B4688468A
:103AB0000646C0F80851C0F80C510C44C7F54057F1
:103AC00080F850312B4621464A463046FFF7CCFC61
:103AD00021463046FFF72EFC05F00F0344333844EF
:103AE000013500B2202D46F8230034604444E9D16A
:103AF000BDE8F88300A0FFFF016000804FF00042A6
:103B0000FFF7B8BF00224FF4C041C0F80821C0F849
:103B10000C2141600260704790F81CC04160BCF10C
:103B2000020FC26001D18368184706F01FBD00BFB5
:103B3000844600682DE9F0410C4611461A46C368D8
:103B400013F0807F7A4B03604BD1D30700F1D18013
:103B50009CF82460174646EA0626002F00F0B7803E
:103B600034B12678637846EA032676BA0234B6B2D0
:103B7000DCF8043093F808E0022F0EF1FF3E4FEA24
:103B80000E3E0CBF46F0805346F010431FFA8EFEE7
:103B90004363023F0AE011B105F8010B2946013ADF
:103BA00003F47043734517D9DCF80000C36A13F0BF
:103BB000F00FF5D012F0010F806B0D46EBD1C0F382
:103BC000072819B105F8028B4870294603F47043A1
:103BD0007345A2F10202E7D8002F78D0DCF800008C
:103BE000BEE7D3075FD49CF824701646BFB2002E00
:103BF00045D024B1637814F8027B47EA0327DCF848
:103C0000043093F808E0022E0EF1FF3E4FEA0E3E1C
:103C10000CBF47F0805347F010431FFA8EFE4363FA
:103C2000023E0AE011B105F8010B2946013A03F4FE
:103C30007043734517D9DCF80000C36A13F0F00F26
:103C4000F5D012F0010F806B0D46EBD129B105F8CC
:103C5000020BC0F307204870294603F470437345F4
:103C6000A2F10202E7D856B1DCF80000C1E729B1A1
:103C700000F8023BC3F307234B700146023A82B1BE
:103C8000DCF80030D86A10F0F00FF8D0D4079B6B46
:103C90000846ECD511B100F8013B0146013A002A73
:103CA000EED1BDE8F08184B314F8013B012A18BFBE
:103CB00043F0004343639CF82470561E96E7C3F319
:103CC000072419B100F8024B4B700146023A002A52
:103CD000E7D0DCF80030D86A10F0F00FF7D0D40746
:103CE0009B6B0846EBD511B100F8013B0146013A48
:103CF000EDE79CB114F8013B012A18BF43F00043E3
:103D000043639CF82460571E25E79CF82470012A21
:103D10001ABF47F0004343634763CEE79CF8246033
:103D2000012A1ABF46F0004343634663EBE700BF36
:103D300000041F80436810B41C685A68216811434E
:103D400002682160154C16491460D160154C164963
:103D500014611160417A154A5C180A3194F824C044
:103D600053F8214002EBCC0149680C60017A5C18E1
:103D700003EB810194F818C0CC6902EBCC014968CF
:103D80000C60817A10BC581803EB810390F8300066
:103D9000596B02EBC00253681960704701401F0065
:103DA000011000380110007800001F80C4BA010023
:103DB00010B4426890F809C0104B944400219CF85C
:103DC00024C003EBCC0CDCF80440216090F808C060
:103DD00094449CF818C003EBCC0CDCF80440216040
:103DE000847A00682244064C92F8302003EBC20328
:103DF0005B681960046010BC704700BFC4BA010062
:103E000001401F000BB1FFF793BE704770B4016B08
:103E10004A4A0979D177C16A09791177016B097921
:103E20001177826A03462AB34168C9688A4243D936
:103E3000C46A006B521A21689A620D6803F1240467
:103E4000A5424FF0010259D01C68E56815F0804F7B
:103E50000D6829D12D780E6845F0004501360E60B9
:103E6000656336490079C87612B1DB6A1B79CB7677
:103E700070BC70470168324C406B0A63CC62CC68FE
:103E800024F08044CC6004682E4924684FF0030C71
:103E90008C4283F825C039D1037F4260022BC26077
:103EA00038D170BC836818472D880E6845F00045EE
:103EB00002360E606563D4E7C16A0968CC8B2604BC
:103EC00002F1FF3031D4C0F30E00C883CC8B186BE5
:103ED000A4B2CC820468E58B2D041ED4C2F30E0577
:103EE000E583E58BADB2E5820D680024013A9C6262
:103EF00003F1240418BF0122A542A5D11968CC689A
:103F000093F8244044F000444C63AAE7234611464A
:103F100070BC184770BC06F029BBE58BC2F30806DD
:103F200005F47E453543E583DBE7CC8BC0F3080021
:103F300004F47E442043C883C8E700BF00800040EB
:103F400000000FFF193B000008B50248FFF75EFFB5
:103F500008BD00BFC4F1FF1F704700BFF0B5012BC3
:103F600095B0054638D0022B40F202200CBF034624
:103F700000230431684604F0E3FD129B002B34D08B
:103F80005C2006F021FF1F4B0026C0E90036019B94
:103F9000C3601D4B8360029B036104AF9DF80C302E
:103FA000037504463946183004F080FC174BA360B3
:103FB0004FF47A73AB606368154AA66501336E608F
:103FC0002A602E732C616360124B0093384604F014
:103FD0009BFC284615B0F0BD44F20223043168462C
:103FE00004F0AEFD129B002BCAD1139B002BC7D14E
:103FF000074A6B604FF47A71A9602B732A602B61BA
:1040000004AFE1E75CB50100C4B401000CB50100E8
:1040100030B50100E8B4010010B5D0F884448EB08A
:104020000A4644B1002321466846009302F098FCFA
:1040300080B90EB010BDD0F8881441B1234668464F
:104040000C9400F053FE50B900200EB010BD08468D
:104050000EB010BD684602F095FE0EB010BD684669
:1040600000F002FF0028EFD0E3E700BF70B5D0F802
:1040700084548EB016465DB105F5896500230A4665
:1040800068462946009302F0EDFB90B90EB070BD72
:10409000D0F888040028F9D000F589640A462B4638
:1040A000214668460C9500F0B9FD48B900200EB0D5
:1040B00070BD32462946684602F0A8FD0EB070BDBC
:1040C00032462146684601F021F80028EED0DDE7AF
:1040D00010B5D0F884448EB00A464CB10020009050
:1040E00001232146684602F03BFC80B90EB010BDAA
:1040F000D0F8881441B1012368460C9400F0F6FD15
:1041000050B900200EB010BD08460EB010BD684674
:1041100003F0CEFC0EB010BD684600F04BFE002848
:10412000EFD0E3E730B5D0F884448FB00A464CB105
:104130000025012304F589616846009502F01EFB05
:104140000FB030BDD0F888040028F9D000F589619F
:10415000012368460C9401F047F80FB030BD00BF52
:1041600010B5D0F884448EB00A463CB100232146F5
:104170006846009302F0F4FB0EB010BDD0F888142E
:1041800031B1234668460C9400F0B0FD0EB010BD6E
:1041900008460EB010BD00BF70B5054690F8C004CB
:1041A00008B9014670BDD5F88404002838D0C46928
:1041B000D5F89034013C1BB31A7E0ABB0121184686
:1041C00005F0DAFA88B1D5F8840400283ED1D5F894
:1041D000880408B102F098F80646D5F8900420B19A
:1041E000002105F0C9FA00B1A41BD5F8843473B1DD
:1041F0009B794FF40071994089B2A1FB040170BD15
:1042000004F006FAD5F88434241A002BF0D1D5F83E
:1042100088040028C5D0D0F83C14A4FB010170BD6F
:10422000D5F88804D5F8903450B1D0F8304423B193
:104230001A7E002AC2D00028B3D002F065F8E1E768
:104240000BB10446F4E718460146ABE704F0E0F989
:104250000646C2E72DE9F043D0F890548DB04DB139
:1042600098462B680446DB6928469847B0F5405FBE
:10427000064604D8002630460DB0BDE8F0834FF462
:1042800000700BF0B1F807460028F3D00DF10409D7
:10429000B6F1806F024643462946484616D901F0DA
:1042A00017FB064638460BF0A7F8002EE2D02B6825
:1042B00028461B6A984794F8B034FF2B0AD1002394
:1042C0003046C4F890340DB0BDE8F08303F004FF2D
:1042D0000646E7E7D4F8B434B4F8B0240293D4F82F
:1042E000B834ADF80420039304F2944599E80E0025
:1042F000284605F02DFA94F8A134C4F89054002B08
:10430000B9D101231A462946201D04F0A5FBB2E7C6
:1043100090F8C03463B1D0F8843463B19A79D96924
:104320004FF40070904080B20139A0FB010170474A
:10433000184601467047D0F888040028F9D0D0F814
:104340003C14D0F83004A1FB0001704770B5D0F8E0
:10435000903484B00446ABB190F8C05490F8C204D5
:104360005DB1212820D806F0D5FF051E18BF012514
:10437000284684F8C05404B070BD212808D806F03F
:10438000C9FF28B90025284684F8C05404B070BD80
:1043900094F8B034FF2B12D100232846C4F890348F
:1043A00084F8C05404B070BD6A460A21184604F06F
:1043B00071FE0546284684F8C05404B070BDD4F898
:1043C000B424D4F8B834B4F8B0140293ADF80010A3
:1043D000019204F294466B460ECB304605F0B8F9D4
:1043E00094F8A134C4F89064002BCCD101231A4670
:1043F0003146201D04F030FB0546C4E710B51448D3
:10440000144C1549154A04604FF0290C002380F81C
:10441000A1C44FF47F4E4FF0FF0C80F8A53480F814
:10442000BC34A0F8C0E480F8C2C4C0F89C14C0F842
:104430009424BDE810400A4A0A49C0F88434C0F800
:104440008834C0F8903480F8AC3409F0B1BE00BFB5
:104450004C0A0020D4B6010001100138CCB701008D
:1044600024F0FF1F593F000070B500F124038C4673
:104470000546164693E8070084B001AC84E80700BF
:10448000286A4FEA4C12214601F05EFE012806D14F
:10449000286A3246214601F03BFE04B070BD002080
:1044A00004B070BD10B5044600F0A8FD002384F8E8
:1044B000313084F8333010BD38B513460D46002234
:1044C00000F12401006A1C4601F022FE20B143895C
:1044D0002B8003892380012038BD00BF38B51346E7
:1044E0000D46002200F12401006A1C4601F010FE76
:1044F00020B1C3892B8083892380012038BD00BF70
:1045000038B590F831300BB1002038BD04460D4667
:10451000382219460BF066FA0120402384F8313026
:1045200084F83300256238BD70B40C78202C0D4619
:10453000114603D115F8014F202CFBD00D608D6082
:104540002C783CB3214E0CE0A4F1220C5FFA8CFCD9
:1045500026FA0CFC1CF0010F10D12E2C16D12C7851
:10456000C4B12F2C24D03C2C05F1010509D8212CF5
:10457000EAD804F1FF3CBCF11E0F15D8002070BC36
:1045800070475C2CFAD009D97C2CF7D08D602C7840
:10459000002CE6D11D6070BC01F0A4BC3E3C012C97
:1045A000F4D8002070BC7047202CD8D08D60EEE786
:1045B0002C46254614F801CBBCF1200FF9D0BCF1F4
:1045C0002F0FF6D01D6070BC01F08CBC01210005DE
:1045D0002DE9F04790F83330DC0782B005466DD501
:1045E00058060F46904640F1B580D5E90023D5E93D
:1045F000041018EB020443F10003A14270EB030323
:10460000C0F0AE80B8F1000F54D0D5E90032464674
:10461000D5F82090D9F838441C40C4F3080A002C7F
:1046200057D1134377D195F831305A064CBFD9F89A
:104630003414E969A96199F84534D9F82C24023970
:1046400099401144B6F5007F50D3D9F81C228A4214
:104650004CD0B6F5806F65D34FF0010A0AFA03FA21
:10466000AAEB040A730A9A4528BF9A468A424FEA7F
:104670004A240AD30AEB01039A4206D209F50470D0
:10468000019105F05DF90199C0B1D9F81402D0F893
:1046900000C05346DCF814903A46C84770B1234630
:1046A000D5E900125B1842F10002361BC5E9003261
:1046B0002744ADD1404602B0BDE8F08795F83230CE
:1046C0004FF0FF3043F0020385F8323002B0BDE80E
:1046D000F087AA6999F84534D9F82C04911E9940BD
:1046E000640A01442144BAF1000FABD0CAF500744A
:1046F000B4424FF0000209F5047028BF344605F0BB
:1047000047F90028DAD000EB0A012246384606F0C5
:1047100041FA2346C4E795F83330A9695B060DD505
:10472000013187E7D9F8140203683A461B699847B4
:104730000028C3D04FF400731C46B1E705F11802FE
:10474000484601F043FD0028B8DB0CD0A969D5F834
:10475000209070E795F8313019077FF553AF44E7A3
:10476000A1EB02084EE795F8313013F0500FA5D0B9
:10477000A8EB060840469EE7F0B583B001220DF194
:1047800007010446D0E900678569FFF721FF01288A
:1047900008BF9DF80700A56118BF4FF0FF30C4E9BE
:1047A000006703B0F0BD00BF2DE9F84F90F831105D
:1047B000D0F818800446002950D01646D0E9002CC5
:1047C0009C4508BFB2421F4658D056EA07034AD05C
:1047D000080704D5D4E90403B042BB413ED3D4F862
:1047E000209099F845340933751EDBB247F1FF3A42
:1047F000C3F120000AFA00FBDD40A3F1200E2AFAE3
:104800000EFA45EA0B0545EA0A0594F833A01AF0BA
:10481000400F2FD112F1FF3A2AFA03F34CF1FF3A7D
:104820000AFA00F003432AFA0EFA43EA0A039D4209
:1048300002D352EA0C0C24D14B064CBFD9F83434C5
:10484000E369A36104F118094A4675B1A169206AB8
:1048500001F0BCFC002805F1FF35F5DCC4F8188038
:104860000020BDE8F88F00238361C4E900670120C0
:10487000BDE8F88FE3692B44A361F6E70120BDE8AA
:10488000F88FED1ADEE700BF2DE9F04F064690F8ED
:1048900031008FB0002840F0D880174691F83120C1
:1048A00012F0500F8B4600F0D08003F00302032A71
:1048B0009A4600F0CA80013203F0080142EA01037F
:1048C0000293002F00F0CA803A6902F10E08A84A4C
:1048D000A2FB0828DBE900214FEAD80808F102080A
:1048E0000A435FFA88F805D0CBF8180000210020B1
:1048F000CBE90001029B002443F0400325460393CB
:10490000202206A95846FFF763FE00B3202840F096
:104910009C809DF918209DF81830002AC0F2A180D3
:1049200034B9DBF80020A2F12009DBF8182001924D
:1049300044453CBF0134E4B2002B00F01281202238
:1049400006A958460025FFF743FE0028DED11AF4D9
:10495000007F7AD0029B9B0777D5002F75D0444506
:1049600017D2DDF804A0202206A95846FFF730FE32
:10497000631C002861D0202867D12CB9DBF8002007
:10498000DBF818A0A2F12009DCB2A045EBD8CDF8E5
:1049900004A03822002130469BF833400BF022F867
:1049A000DBF820303362019B7362082386F83130D4
:1049B0003B68C6F82890C4F38014002586F82C4084
:1049C0007B60BD81B8F1000F32D008F1FF39DFF80C
:1049D000A4A15FFA89F9AB46012259463046FFF798
:1049E00043FD044688B390F90020002A2DDB2022E5
:1049F00000210AF0F7FF002D00F0BE80BBF1010F8F
:104A000000F0D480C1232370A3461E34BB893846EE
:104A10001BB97A68BB689A4205D004F0E1FF2BF815
:104A2000020FA345F2D101355FFA85FBD845D3D8F3
:104A3000304600F0E3FA05460CE05846DBF8185023
:104A400000F00CFB002840F09080002586F83150E3
:104A500086F8335028460FB0BDE8F08F4FF00308BA
:104A600048E755BB444538BF0024852B7FF448AF49
:104A70002946382230460AF0B5FF9DF81C209DF8E3
:104A8000193086F8303002F03703D20658BF43F0B1
:104A9000080386F83130DBF80030DBF82020326282
:104AA000203BDBF818207262B3629BF83330C3F30B
:104AB000801386F82C30012522E7C02B28D0C12B8B
:104AC0007FF43DAF3A4606A9304601F081F9E8B1DE
:104AD000BB89DBB9BA687B689A4217D11AF4006FB8
:104AE000B3D11AF4884F6FD196F833309C076BD44A
:104AF0001AF4806FA9D11AF4804FABD0D6E9042301
:104B00003046FFF751FE0028A4D19EE70546F7E6A0
:104B1000029B86F833309DF819309B0744BF039BF6
:104B200086F833300B9BF361DDE90823C6E90423E3
:104B3000DDE90C23C6E90223002FCFD04FF000039C
:104B40003A69BB819DF81B30396879609A427FF4DD
:104B5000F6AEBD8ABDF81C30ED1AB5FA85F56D09C3
:104B6000CEE6002F7FF4F3AE6FE7CBF818500CE7DA
:104B7000898888881C0F00208523237086F8309050
:104B800084F80190DAF80030002B41D00DF11302C7
:104B90000DF1160105A89847BDF814306381BDF8E2
:104BA000163023819DF8133023753CE7C023237012
:104BB000029B84F801B063F07F0386F833303B69D1
:104BC000E370BB8AA3802EE796F83130D8063FF514
:104BD0003CAF13F001027FF438AF1AF4806F8AD033
:104BE00096F8331089077FF530AF002B3FF42DAFD7
:104BF000D6E900310B4304D000200021C6E90001B2
:104C0000B261304600F0F2FB00283FF41EAF21E70E
:104C100045F621436381E381638204E72DE9F04394
:104C2000044697B0994694F83130019200201490D0
:104C3000ADF814006BBB91F8313013F0500F0E46F5
:104C400027D013782F2B154627D04FF0000813E0FC
:104C5000019D2F78A7B3FFF717FE064634222146A1
:104C600008A8B6B105F096FF204600F0C7F908AED7
:104C700084F8318084F83380294601AB02AA2046AB
:104C8000FFF752FC0546002302AA31462046002DBC
:104C9000DED1002017B0BDE8F08315F8011F2F29E1
:104CA000FBD0019599B938222046356A0AF09AFE60
:104CB0000120402384F83130256284F83300E9E78D
:104CC0004B4602AAFFF7E0FD17B0BDE8F08338229B
:104CD000002108A8366A0AF085FE01238DF85330BA
:104CE000402310968DF8513008AEAEE719B101F5AA
:104CF0008961FFF793BF0846704700BF90F83130D5
:104D000063B991F8313013F0500F07D00B6813F0EE
:104D10001F0C03D113466246FFF7B6BD0020704753
:104D20008169F8B50446006A01B10131012201F040
:104D30000FF90128054632D9012301461A46206A97
:104D400001F066F9064650B3A3695BB394F83320CB
:104D5000510612D5591CA94218D022F04002E1692F
:104D600084F8332005E0206A01F050FAB8B1A36955
:104D700039464F1C99423A46F5D3206A4FF0FF322C
:104D8000294601F043FA50B1A16911B9A561304635
:104D9000F8BD206A2A4601F039FA0028F6D100262B
:104DA0003046F8BD94F8333043F0400384F8333094
:104DB000ECE700BF90F833309A0736D5C16970B57B
:104DC0000546A1B90024214607E0037803F07F03DC
:104DD000037095F830308B4229D301222846FFF723
:104DE00043FB0134E1B20028EFD1002070BD5B0627
:104DF000006A34D5D5E9022490F845340933013AE4
:104E0000DBB244F1FF34C3F1200CDA4004FA0CFCAD
:104E1000203B24FA03F342EA0C021A430132002336
:104E200001F0F6F80028CDD1DFE7002070472C6AAA
:104E3000002385F8313085F83330204604F080FDBA
:104E40000028D2D004F5047004F07AFD0028CCD0FC
:104E5000D4F840040368BDE870401B6A184701F0AD
:104E6000F5F90028AED1C0E790F83130DB0601D467
:104E70000020704710B5002288B000230446FFF7D9
:104E800093FC08E020281BD19DF900309DF80020FC
:104E9000002B15DB32B1202269462046FFF798FB34
:104EA0000028EFD194F83330082243F0020384F84D
:104EB000312084F833302046FFF77CFF08B010BD66
:104EC000002008B010BD00BF2DE9F0414FF00008F0
:104ED000494F82B006464446414600223046FFF71D
:104EE000C3FA054630B10078C02867D0C1282BD05E
:104EF000852809D096F8323043F00103002086F867
:104F0000323002B0BDE8F08196F8313003F037035B
:104F1000AB803B6883B10DF103020DF1060101A8DE
:104F20009847BDF80630AB812B82BDF80430EB8189
:104F30006B829DF803306B75326A92F8103243F041
:104F4000010382F8103228780146002202E01F2A6D
:104F50000FD8A95CE30343EA540311FA83F3012A4F
:104F60009CB202F10102F2D1852814BF0222042270
:104F7000EFE796F8303008F101085FFA88F18B42CC
:104F8000ABD2306A012206F1240101F0C1F80028F9
:104F9000B0D0356A4480284604F0D2FC0028A9D05D
:104FA00005F5047004F0CCFC0028A3D0D5F840042B
:104FB00003681B6A98470028A3D19BE796F8333013
:104FC00013F0400F6B7814BF43F0020303F0FD03AE
:104FD0006B70D6E90423F069316A6861C5E9022380
:104FE000D6E90223C5E9062391F8103243F0010304
:104FF00081F810322878A7E71C0F002038B590F808
:10500000313043B390F9332090F83330002A04460E
:105010000CDB056A284604F093FC78B994F832302A
:1050200043F0010384F83230002038BD03F07F03E1
:1050300080F83330BDE83840FFF746BF05F504700F
:1050400004F07EFC0028E9D0D5F8400403681B6A10
:1050500098470028E2D0012038BD00BF70B590F815
:1050600031305A0605464CD480682B6AD3F83C345C
:105070001844B0F1806F01D3002070BD2846FFF7BF
:105080004FFE0028F8D0286AAE6990F84524D0F881
:105090002C34023E96401E4400243119052200F5AE
:1050A000047004F075FC01344FF4007200210028F4
:1050B000E2D00AF097FC286A90F845240123934037
:1050C0009C42EAD395F831305B0615D495F833301D
:1050D000AA6863F07F0385F83330D0F83C142B695D
:1050E000E8685218AA606A6940F100005B1842F152
:1050F0000002C5E90432E8602846BDE87040FFF7C9
:105100007DBF006A01F0A6F9AFE700BF30B50446E5
:1051100090F831009DB0002510F0180F0C951A95ED
:1051200003D00B6A206A984202D000201DB030BD27
:1051300040F601236846FFF771FD0028F5D03422C0
:1051400021460EA805F026FD09AA07CA04F124038A
:1051500083E8070094F833309DF830C084F830C0FD
:1051600063F07F03204684F83330FFF747FF0028C1
:10517000DBD0022208230EA815958DF86B208DF840
:105180006930FFF717FED1E738B591F8313013F0E9
:10519000500F02D10025284638BD40F602230446B0
:1051A000FFF772FB0028F5D0102384F83130204639
:1051B000FFF754FF05460028ECD0A369E361002205
:1051C00000232046FFF7F0FA94F83130C12284F82A
:1051D0003320002BDFD0412384F833302046BDE854
:1051E0003840FFF771BE00BFF0B5044697B01F46C8
:1051F00094F8313001920020ADF8140014907BBB7C
:1052000091F8313013F0500F0D4629D013782F2B21
:10521000114619D127E0019E3678002E31D0FFF7D4
:1052200033FB034602AA294620461BB9C7B1FFF744
:10523000ABFFA8B12146342208A805F0ABFC2046FC
:10524000FFF730F9019908AD01AB02AA2046FFF73C
:105250006BF90646002302AA29462046002EDAD121
:10526000002017B0F0BD013101910B782F2BFAD03F
:10527000296A08A8FFF744F90028F1D0019908AD80
:10528000E2E702AAFFF780FF17B0F0BD2DE9F04F6B
:1052900090F8314083B024079DF830709DF8349029
:1052A0009DF838A09DF83C8057D5A2F2BC7294B20C
:1052B0007F2C52D85A1E0B2A01934ED87A1E1E2AD2
:1052C0004BD8B9F1170F48D8BAF13B0F45D8B8F110
:1052D0003B0F42D805460E46FFF790FE00283CD013
:1052E000019B47EA431747EA44244FEA580747EA35
:1052F0004A1747EAC9274FF0000A18F00108A4B27C
:10530000BFB218BF4FF06408D346514606F00109FA
:1053100000222846FFF7A8F8F8B10178852946D081
:1053200001F14003DBB2012B17D88C46002203E0C9
:105330001F2A16D810F802C04FEACB3343EA5B03AA
:105340001CFA83F3012A1FFA83FB02F10102EFD159
:10535000852914BF02220422ECE7002003B0BDE837
:10536000F08F95F830300AF1010A5FFA8AF18B422A
:10537000CED2286A012205F1240100F0C9FE0028DE
:10538000EBD02C6AA0F802B0204604F0D9FA00282D
:10539000E3D004F5047004F0D3FA0028DDD0D4F88B
:1053A000400403681B6A03B0BDE8F04F184795F846
:1053B00031302A6A03F03703838092F8103243F0C9
:1053C000010382F81032B9F1000F01D00782448244
:1053D000B20703D580F814800781448173070178F0
:1053E00042BF80F815808781C4819EE790F83330F2
:1053F0009A0764D570B5C56982B00446002D35D0D2
:1054000013F0400635D0006AA26890F845C4E16800
:105410000CF1090C5FFA8CFC013A41F1FF31CCF13F
:10542000200E22FA0CF201FA0EFEACF1200C21FA49
:105430000CFC42EA0E02A16942EA0C02013221B3DD
:10544000013D6D1A01312A440191002A2ED1D4E97F
:10545000000163F07F03C4E90201C4E9040184F898
:1054600033302046FFF7CAFD02B070BD012002B004
:1054700070BD816961B90195C161206A294600F05A
:10548000E5FEC8B194F83330E1E70195E161DCE76E
:10549000006A019601AA00F099FE00280CDB10D1E9
:1054A000019D002DE9D194F83330D0E70199002314
:1054B00000F0AEFD0028E5D1002002B070BD002054
:1054C0007047A169206A4FF0FF3200F09FFE00286C
:1054D000E6D1F1E72DE9F84390F833309D07044613
:1054E00040F1A28017461A070E4600F19680002F61
:1054F00000F0288123683D46206AA169D0F838244D
:1055000002EA0309C9F30808B9F1000F40F09580D9
:10551000002900F0D58094F833305B0640F1ED802F
:10552000D4E9023290F845C40CF1090C013B5FFA52
:105530008CFC42F1FF32CCF1200E23FA0CF302FA7C
:105540000EFEACF1200C22FA0CFC43EA0E03E269D9
:1055500043EA0C031344994280F0D6800131A161E3
:1055600090F84524D0F82C34023991401944B5F50F
:10557000007FC0F08D80B5F5806FC0F0A78001235B
:105580009340A3EB09036A0A934228BF1346D0F85D
:105590001C228A424FEA43290AD303EB010C6245DD
:1055A00006D2002280F810224FF0FF32C0F81C22F1
:1055B000D0F814020268D2F828803246C04798B367
:1055C0004B46D4E900125B182169606942F1000280
:1055D00099429041C4E900324E44A5EB090507D237
:1055E00094F83310236161F07F0184F83310626115
:1055F000002D81D1D4E9020198429141C0F09580FB
:10560000524B1B68002B00F09B8094F8333063F002
:105610007F03384684F833300DE0D0E90423FFF7E8
:10562000C3F800287FF463AF94F8323043F00103ED
:10563000002084F83230BDE8F88390F84524D0F893
:105640002C3402394FEA5929914049441944B8F1A0
:10565000000F8CD0C8F50079A9454FF0010200F584
:10566000047028BFA94604F093F90028DCD0404418
:105670004A463146C84405F08DFAB8F5007F206AE5
:105680009ED100F5047004F05BF9002898D1CBE7B7
:105690002268D4F810C063696245626872EB030344
:1056A00012D2012200F5047004F072F90028BBD078
:1056B0002A463146404405F06DFAA9462B4680E75C
:1056C000E16949B3A1614BE70522EBE7D0F81C3251
:1056D0008B4206D1002380F810324FF0FF33C0F820
:1056E0001C32D0F81402036832465B6A98470028DF
:1056F0009AD04FF40073994663E704F1180200F062
:1057000065FD002890DB04D12046FFF709FB002847
:105710008AD0A169206A23E72046FFF701FB002811
:1057200082D0A169206AE1611AE794F83310A3607E
:1057300061F07F0384F83330E2603846BDE8F883D7
:10574000384678E7D4E9003254E700BF1C0F002048
:1057500069B170B5054608460C460AF031FA2B6867
:105760000246214628465B68BDE8704018477047EE
:105770008368C3F30803014663B100200A69D0546B
:105780000133B3F5007FF9D1C8680A690368096875
:105790005B6A18470120704782680346C2F308021B
:1057A00000698154586801EB70019868596040F2B3
:1057B000FF1C01306245986001D001207047D86815
:1057C000196810B40468646A4A1C1A601A6923468E
:1057D00010BC184738B583680446C3F30803006952
:1057E000CAB2C2540D46616802EB7102A1686260E0
:1057F00040F2FF1201319342A16005D0290A2046F0
:10580000BDE83840FFF7C8BFE068216803684A1C5C
:105810005B6A2260226998470028EFD138BD00BF3B
:10582000F8B50025C0E9001506468560A8B204F069
:10583000E1F9A842044607D0C1B23046FFF7ACFFF9
:1058400000283BD10020F8BD6C1CB4F5803F04D18A
:105850002AE00134B4F5803F04D0A0B204F0CAF9C4
:10586000A042F6D0671BB7F5007F1DD34FF6FF713E
:105870003046FFF7AFFF0028E4D0B9B23046FFF75B
:10588000A9FF0028DED02546B5F5803FCED13046B1
:10589000BDE8F840FFF76CBFC5F307213046FFF7BE
:1058A0007BFF01350028CDD0A542E9B23046EBD2CE
:1058B000FFF772FF0028EFD10020F8BDC4F30721E5
:1058C0003046FFF769FF0028BCD00135DCE700BF98
:1058D0002DE9F04F0F4689B0096804901546CA6952
:1058E000C7600561384698469047B0F5801FC0F004
:1058F000C0800646002301220133DBB2202B4FEA91
:10590000420200F0C1809642F6D81C2B00F2BC8007
:105910001A2B4FF0080A00F237824FF480430193AC
:105920004FF4004303934FF4807307934FF40053F5
:10593000CDF808A00693039B0298019CF31AC3407C
:1059400003FA00F94FF400720021284605930AF08B
:1059500049F8FF2385F8C43185F8C531072385F858
:10596000C231A144FE230194C5F8C641012485F843
:10597000BF4185F8C04185F8C3313B68C5F8CA917D
:105980004AF6552B5B6AA5F8FEB12A460021384637
:10599000984700285ED04FF40072002128460AF094
:1059A00021F8019B2B64AB65059BEB6520232B72D3
:1059B0006B72AB72EB232B7076236B709023AB7002
:1059C0004523EB7058232B7146236B714123AB7138
:1059D0005423EB7104232B664FF48073A5F86830D1
:1059E0000923069A85F86C3080236E662A656A65FD
:1059F000C5F848904FF4C37285F86DA085F86E40E5
:105A000085F86F30F42105F1780009F0EBFF0026EE
:105A1000A5F8FEB16A1E00E00134A4F16B03012B6E
:105A2000FAD9712CF8D0135DB4F5007F03EB76063C
:105A3000F2D13B68DDF804905B6A2A464946384655
:105A4000984738B13B682A465B6A09F10C01384631
:105A5000984780BBB8F1000F06D0D8F80030B6499F
:105A60005B680F22404698470024204609B0BDE8F5
:105A7000F08FB8F1000FF7D0D8F80030AF495B686D
:105A8000152240469847E8E7A3F10B0A4FEA6A015E
:105A900001228A400291CAF3470A079201335B1040
:105AA00001229A40069204229A400392022202FAAC
:105AB00003F301933FE722460021284609F092FFB5
:105AC0004AF65523A5F8FE3109F1010A09F1090B3F
:105AD000002305F2FF192C4601E014F8013FA1450F
