:1000000000800020BD010000E53500009D350000A6
:100010009D3500009D3500009D3500009D35000098
:100020009D3500009D3500009D350000E535000040
:10003000E53500009D350000E53500008D350000F8
:10004000E5350000E5350000E5350000E535000048
:10005000E5350000E5350000E5350000E535000038
:10006000E5350000E5350000E5350000E535000028
:10007000E5350000E5350000E5350000E535000018
:10008000E5350000E5350000E5350000E535000008
:10009000E5350000E5350000E5350000E5350000F8
:1000A0003530000041300000E5350000E535000046
:1000B000E5350000E5350000E5350000E5350000D8
:1000C000E5350000E5350000E5350000E5350000C8
:1000D000E5350000E5350000E5350000E5350000B8
:1000E000E5350000E5350000E5350000E5350000A8
:1000F000E5350000B5550000E5350000F95C00006D
:10010000E535000069620000E5350000E5350000D6
:10011000E5350000E5350000E5350000E535000077
:10012000E5350000E5350000E5350000E535000067
:10013000E5350000E5350000E5350000E535000057
:10014000E5350000E5350000E5350000E535000047
:10015000E5350000E5350000E5350000E535000037
:10016000E5350000E93D0000E5350000E53500001B
:10017000E5350000E5350000E5350000E535000017
:10018000E5350000E5350000E5350000E535000007
:10019000E5350000E5350000E5350000E5350000F7
:1001A000E5350000E5350000E5350000E5350000E7
:1001B000E5350000E5350000354C0000564B4CF2AB
:1001C000205210B51A804DF628121A8000BF00BFC9
:1001D00003F00CFA514B4FF010621A60504A9A60CB
:1001E000504ADA60504A136813F4807304D14F49BF
:1001F0000B604FF4A85313604D4B1A78110703D5C9
:100200001A7842F008021A704A4B4B492A221A7097
:100210004A4A4B4B8B4204D252F8040F43F8040B6A
:10022000F8E7484B484900228B4202D243F8042B9E
:10023000FAE74649464A002352F8230041F82300D2
:1002400001336F2BF8D1434B434A802103F8011B44
:100250009342FBD1414B3D4A1A60414B8A221A70AE
:10026000A3F5805324225A70A0221A709A7992071B
:10027000FCD59A79D406FCD43A4A937903F00C035E
:10028000082B384BF9D103221A7140225A719A79FE
:100290009006FCD5334A9179324B4906FBD5324A58
:1002A000324911600221516020221A709A7902F0BD
:1002B0000C020C2AFAD12E4B2E4A1A602E4B2F4AD2
:1002C0001A6000225A60072243F8042C2C4AC3F813
:1002D0000C2D62B603F060FC144B1B68DA0705D5E1
:1002E000284803F0E1FA284B284A1A60284B1B786B
:1002F0005B0609D5244C254B22689A4204D121483B
:1003000003F0D2FA0023236008F0ECFA03F074F94A
:1003100004F0ACFDFEE700BF0E2005403080044035
:10032000823F04000100002B10D0034014D0034092
:1003300002D0074000E007406CFBFF1F784D010032
:1003400020EFFF1F70FBFF1F4008002000EAFF1F87
:100350000000000000E400E05FE400E008ED00E0E1
:100360000050064000400640448004400000030165
:1003700004800440C010050014E000E0FF76010096
:10038000000020206DFD3D5B1CE00340A5C3945A96
:1003900000F00740FFFFFFFFFFFFFFFFFFFFFFFF32
:1003A000FFFFFFFFFFFFFFFFFFFFFFFFFFFFFFFF5D
:1003B000FFFFFFFFFFFFFFFFFFFFFFFFFFFFFFFF4D
:1003C000FFFFFFFFFFFFFFFFFFFFFFFFFFFFFFFF3D
:1003D000FFFFFFFFFFFFFFFFFFFFFFFFFFFFFFFF2D
:1003E000FFFFFFFFFFFFFFFFFFFFFFFFFFFFFFFF1D
:1003F000FFFFFFFFFFFFFFFFFFFFFFFFFFFFFFFF0D
:10040000FFFFFFFFFFFFFFFFFFFFFFFFDEF9FFFF23
:1004100010B5054C237833B9044B13B10448AFF33E
:1004200000800123237010BD70FBFF1F000000003F
:10043000744D0100084B10B51BB108490848AFF3D3
:1004400000800848036803B910BD074B002BFBD0A0
:10045000BDE81040184700BF0000000074FBFF1FFC
:10046000744D01006CFBFF1F00000000002310B45E
:10047000104C4172026104600372C36041B11946BD
:1004800000E0026942F82310427A01339A42F8DC14
:10049000094B1A680AB90AE01A465369002BFBD1C6
:1004A0005061002343618380C38010BC7047186093
:1004B000F7E700BF3C930000F005002038B5144B6F
:1004C000144D1548042200245A861C6264216A8651
:1004D0002C6204F09BFA2146104801F0DFFC204614
:1004E00002F090FF2146022003F002FB01210D20C3
:1004F00003F0FEFA0121032003F0FAFA01210D2096
:1005000003F0E2FA01210320BDE8384003F0DCBA31
:10051000A4FEFF1F6CFEFF1F0082FF1F94FFFF1F42
:100520002DE9F0410E2082B002F092FF6B4C6C4B33
:100530002568186007F08AFD294607F0D1FC694B51
:100540006949186007F0D6FD294607F0CBFC20600A
:1005500007F0ACFF4FF4007340F2FF32012100932B
:10056000A3F5806304F076FC604E614C30604CF67D
:10057000CC4363620F2002F06BFF5E4D5E4BD5F8FB
:100580000080186007F062FD414607F0A9FC5B4B54
:100590005B49186007F0AEFD414607F0A3FC5949DE
:1005A000286007F0A7FD5849584F07F057FE4FF055
:1005B0007E5107F097FC00213860054607F038FFB0
:1005C000002840F0F8835249284607F04FFF0028E2
:1005D00000F09B834F4BE361112002F039FF4E4D39
:1005E0004E4BD5F80080186007F030FD414607F00B
:1005F00077FC4B4B4B49186007F07CFD414607F0F8
:1006000071FC286007F052FF00235822194600921F
:1006100040F2FF3204F01EFC434B444A444D53F871
:100620002030E362EB621060022003F053FA414C89
:10063000DFF8FC8001280CBF4FF07E534FF0804361
:100640001020236002F004FF07F000FD3A4907F094
:1006500051FD2D4907F002FE384907F041FC396889
:1006600007F040FC364B216818604CF6CC436B62B7
:1006700007F0F4FD0021044607F0DAFE002840F000
:100680009F832349204607F0F1FE002800F03083C5
:10069000204BEB61122002F0DBFE07F0D7FC4FF09D
:1006A0007C5107F027FD1849264C07F0D7FD0021A3
:1006B00007F018FC244B254918604FF40043A36150
:1006C000054607F0D3FE002846D12149284607F009
:1006D000AFFE002800F025831E483EE0FCFFFF1F10
:1006E000C8FFFF1F58FEFF1F0AD7A33BD0FFFF1F05
:1006F0006CFEFF1F04000020C0000020CCFFFF1F85
:100700000AD7233C0080F94300C07F4444FEFF1F0A
:10071000A655AC460000FE7F4CFEFF1F84FFFF1F66
:100720002CFDFF1FA69BC43B24F0FF1FD4FFFF1F1F
:10073000A4FEFF1F88FFFF1F000020410000A04013
:1007400048FEFF1F1000002090FFFF1F00FEFF4625
:1007500000FEFFC600000180BC48E06100231320BA
:100760002362636202F074FE07F070FCB849B94C72
:1007700007F0C0FCB84907F071FDB84907F0B2FBBB
:100780002060142002F064FE07F060FCB44907F01A
:10079000B1FCB14907F062FD4FF07F5107F0A2FBB9
:1007A0002468B04BB04918600546204607F040FE6B
:1007B000002840F0E782AD49204607F057FE0028A8
:1007C00000F0B782AA4BAB4FAB4CAC49A7612846AF
:1007D000E36107F02DFE002840F0C882A8492846B2
:1007E00007F044FE002840F0EF8229464FF07E508B
:1007F00007F034FD4FF09D4107F07CFC07F056FEFA
:100800006062172002F024FE0023052219460092A0
:1008100040F2FF3204F01EFB9A4B9B499B4C33F98C
:100820001020E3620027628608602762222002F01F
:100830000FFE07F00BFC964907F05CFC864907F0B9
:100840000DFD944907F04EFB934B002118600546BF
:1008500007F0EEFD002840F0A7829049284607F0F7
:1008600005FE002840F07F828D49284607F042FCB3
:1008700007F042FE8B4BE061984200F27482232025
:1008800002F0E6FD07F0E2FB734907F0E7FC002108
:1008900007F028FB844B00211860054607F0C8FDCF
:1008A000002840F08B824FF07E51284607F0DEFD95
:1008B000002800F0E4824FF48033636201251E209B
:1008C00002F0C6FD44F2506340F2FF320021009571
:1008D00004F0C0FA754F38601F2002F0B9FD40F2F5
:1008E000FF3200210B23009504F0B4FA704B04464C
:1008F0001C60386807F0AAFB01466E4807F0AEFCA2
:100900004FF07C5107F0EEFA07F0D0FD002803DD30
:100910004028A8BF4020C5B2674AE3B2102B5576E5
:1009200000F22B82002B08BF01231376152002F062
:100930008FFD07F08BFB6149614C07F0DBFB4649FB
:1009400007F08CFC454907F0CDFA2060162002F034
:100950007FFD07F07BFB424907F0CCFB3E4907F0E7
:100960007DFC4FF07F5107F0BDFA2468554B3E499E
:1009700018600546204607F05BFD002840F0FF8127
:100980003A49204607F072FD002800F06182384B9A
:10099000384F4D4C3949A7612846E36107F048FDBF
:1009A000002840F0E8813649284607F05FFD00281E
:1009B00040F00C8229464FF07E5007F04FFC4FF07C
:1009C0009D4107F097FB07F071FD6062242002F063
:1009D0003FFD002305221946009240F2FF3204F049
:1009E00039FA3A4B3A4A3B4C33F910303A4F1060DF
:1009F0004FF0000863862520C4F82080E76202F0EB
:100A000027FD07F023FB354907F074FB124907F077
:100A100025FC334907F066FA324B00211860054681
:100A200007F006FD002840F0C3811C49284607F066
:100A30001DFD002840F09C811949284607F05AFB0B
:100A400007F05AFD174BE0614EE000BF0000FF7F4A
:100A500000C09945B0FFFF1F00C07F440000A042C6
:100A600000006040C40000200000A0411EDE894656
:100A7000008C3C4B00BE6C50F0FBFF1F3333333F08
:100A80000000A04000F0FF1F40FEFF1FDCFEFF1F24
:100A9000C3F547420AD7233C00000020A655AC46C8
:100AA0004B24BE470000FE7F68FCFF1F8CFFFF1F2A
:100AB000D8FCFF1FA6552C47DCFCFF1F0020694611
:100AC000B4FFFF1FC80000202CFCFF1F0CF0FF1F0D
:100AD0000800002014FFFF1F18F0FF1F66E6C74242
:100AE000CDCC4C3D8CFBFF1F984200F241811A2077
:100AF00002F0AEFC07F0AAFAB54907F0AFFB0021FF
:100B000007F0F0F9B34B00211860054607F090FCA0
:100B1000002840F04B814FF07E51284607F0A6FC9C
:100B2000002800F0B5814FF48030606272B6AA4BA5
:100B3000AA4ADA6100241C7662B6A94BA94D1C6250
:100B40004FF480321B209A61DA615C6202F080FC13
:100B500005232146009340F2FF32234604F07AF940
:100B6000A14A37F9103010606B86EF621C202C62AE
:100B700002F06EFC07F06AFA9C4907F0BBFA944950
:100B800007F06CFB9A4907F0ADF99A4B0021186009
:100B9000074607F04DFC002840F00481964938468E
:100BA00007F064FC002840F0DB809449384607F0E9
:100BB000A1FA07F0A1FC924BE861984200F2D080C4
:100BC0001D2002F045FC33688E4F184407F03EFAB2
:100BD00000213860064607F02BFC002840F0DE803C
:100BE0007B49304607F042FC0446002840F0CD80A7
:100BF0003046774907F032FB002107F073F9824B4A
:100C000000211860064607F013FC002840F04881D8
:100C10004FF07E51304607F029FC4FF48032002817
:100C200000F04081794B6A62002479497948DC619F
:100C300043F2333502229D611C625C6200F0B2FD1A
:100C400002227349744800F0ADFD022270497348D6
:100C500000F0A8FD724800F085FC4FF07C5107F0D1
:100C60003FF9704907F046FA014607F03BF90021C9
:100C700007F038F907F01AFC6B4A034601460420D6
:100C8000136002F023FE694800F06CFC4FF07C51C9
:100C900007F026F9634907F02DFA014607F022F91B
:100CA000002107F01FF907F001FC614A03460146E5
:100CB0000520136002F00AFE5E4800F053FC4FF07E
:100CC0007C5107F00DF9574907F014FA014607F077
:100CD00009F9002107F006F907F0E8FB564A034638
:100CE00001460620136002B0BDE8F04102F0EEBDFF
:100CF0004249204607F0FEF907F0FEFB404BC8F8DA
:100D00001C0098427FF6C6ACC2E43C49284607F076
:100D1000F1F907F0F1FB3A4BE06198427FF65CACE9
:100D200058E44FF08F41284607F0E4F907F0BEFB86
:100D300013E52046414907F0DDF94FF09E41044696
:100D400007F0D8F907F0B2FB0746204605F026FD6C
:100D50004FF09E4107F0CEF907F0A8FB034633E5BC
:100D6000274BEB612CE7264BE36188E5344847E5E8
:100D7000234BE361BBE6324827E61023D5E5314B30
:100D8000314F06E62F4B304F1EE511484FF07E5392
:100D90004FF480321C4938600B6043E70023002287
:100DA0001846F7E7EC610BE7E76168E50020BCE671
:100DB000C4F81C809BE60023E3610DE400237CE57E
:100DC0000023C8F81C3065E4204819E51F48FCE5FD
:100DD00000C07F4450FEFF1F04FDFF1F0000FF7F87
:100DE000800000204CFFFF1F0C00002066E6C74279
:100DF000CDCC4C3D54FEFF1FA655AC464B24BE4700
:100E00000000FE7F00FDFF1FD8FFFF1F48000020ED
:100E100088F1FF1F6CFCFF1F90FCFF1FB4FCFF1F3D
:100E200090FBFF1F00007F43B8000020C0FBFF1FA6
:100E3000BC000020D0000020FCFCFF1F46561538E7
:100E400000B76D5B7A5517007B551700D0CCCC0CE2
:100E50002046194907F04EF94FF09E41044607F02D
:100E600049F907F023FB0746204605F097FC4FF0B1
:100E70009E4107F03FF907F019FB034689E54FF063
:100E80008F41284607F036F907F010FB034614E5BA
:100E90004FF08F41284607F02DF907F007FB44E695
:100EA0002246BFE64FF08F41304607F023F907F0A6
:100EB000FDFA0246B6E600BF465615382DE9F04F5A
:100EC000DFF84CA3B74BDFF84C83DFF84CB3B64FD9
:100ED000DFF8489383B00022114650461446019330
:100EE000FFF7C4FA019BCAF800B022462146184613
:100EF0004FF08043CAF82830CAF81840CAF81C409E
:100F0000CAF82040CAF82440CAF82C40AAF8304059
:100F1000AAF83240AAF83440FFF7A8FA019B4FF034
:100F20008045224621464046C3F800B09D629C6140
:100F3000DC611C625C62DC621C865C869C86FFF75E
:100F400095FA9A4BC8F800B003F12802184604211C
:100F5000C8F82850C8F81840C8F81C40C8F8204005
:100F6000C8F82440C8F82C40A8F83040A8F832400F
:100F7000A8F83440FFF77AFA8D4B8E4D03F1180232
:100F800018468A4B01211D604FF480359D61DD615B
:100F90001D625D62FFF76AFA8548874A8749884D76
:100FA000056007F08DFC07F1340202213846FFF797
:100FB0005DFA844B3B60844BBB61A3F57C53183BCB
:100FC000FB614FF480533B62804B7B62224621469B
:100FD0007F48BC62FC623C63FFF748FA7C4BDFF859
:100FE00040E2C3F800E02246214648461C76DC6118
:100FF000FFF73CFA774BC9F800B003F11802184626
:1010000001214FF08043C9F82830C9F81840C9F8C9
:101010001C40C9F82040C9F82440C9F82C40A9F860
:101020003040A9F83240A9F83440FFF71FFA694B65
:10103000694D1D60224621460025002667489C62B6
:10104000C3E90856FFF712FA654B634E03F11C0221
:101050001846624B01214FF08045C3F800B09D62F5
:101060009C61DC611C625C62DC621C865C869C8626
:10107000FFF7FCF95A4B5B4A1A605B4B4D4D03F18D
:10108000180218460121FFF7F1F9574B4C48186038
:10109000494A4A49184607F013FC544B042103F10E
:1010A00028021846FFF7E2F9514B03F118021846DF
:1010B0004E4B01211D604FF480359D61DD611D6245
:1010C0005D62FFF7D3F94A483B4A3C493C4D056015
:1010D00007F0F6FB474B474D03F134021846022157
:1010E000FFF7C4F9434A374B1360434B4149AC62A5
:1010F00003F118021846344B8B61A3F57C53183B5F
:10110000EB614FF480532B62304B6B620121EC6238
:101110002C63FFF7ABF9394B394D03F11802184630
:10112000354B4FF0000C01214FF0000BC3E908BC18
:101130001E609C62FFF79AF9324B03F118021846C1
:101140002E4B4FF0000C02214FF0000BC3E908BCFE
:101150001E609C62FFF78AF92A4B2B4A1A602B4BC0
:10116000042103F128021846FFF780F9274B1149A3
:1011700019604FF480304FF0010EDFF8A8C098617D
:1011800005F11801D8611862586285F809E0224615
:1011900020462C72EC60C5F800C02961AE46019B68
:1011A00044E000BF6CFEFF1FF0FBFF1F100000209B
:1011B0006CFCFF1FB8450100FCEFFF1F8D170000FE
:1011C000A0450100AC45010000B28E0480F9855AAB
:1011D00004FDFF1F90FBFF1F7C45010014FFFF1F54
:1011E000DCFCFF1F8845010090FCFF1F80000020F1
:1011F000B4FCFF1F2CFCFF1FD0000020C0FBFF1F12
:1012000094FFFF1FDCFFFF1F9445010048000020F2
:10121000A4FEFF1FDCFEFF1FDC4501004CFFFF1F8B
:10122000D04501003C930000DEF8101041F8220088
:10123000697A914C01329142F6DC904A116809B901
:1012400017E111464A69002AFBD14D614FF0000BAE
:101250008B4A8948C5F814B0A5F804B0A5F806B0C3
:1012600001932A6000F056FD864A874B82F808B049
:1012700001241046C2F800A05360C2F80CB05472AA
:1012800003F0A8FC814A019B136010467E4B53601B
:1012900082F808B082F809B0C2F80CB003F09AFCEA
:1012A0007B4A104682F808B0C2F80080576054723A
:1012B000C2F80CB003F08EFC764A774B82F808B087
:1012C0001046C2F80080536082F809B0C2F80CB032
:1012D00003F080FC714A6C4B82F808B0104682E83B
:1012E000880082F809B0C2F80CB003F073FC6C4AB5
:1012F000694B136010466B4B82F808B0536082F85C
:1013000009B0C2F80CB003F065FC674A674B82F87D
:1013100008B010461760536082F809B0C2F80CB0EC
:1013200003F058FC624A634B13601046624B82F82C
:1013300008B053605472C2F80CB003F04BFC5F4A23
:101340005D4B82F808B01046C2F80090536082F8F6
:1013500009B0C2F80CB003F03DFC594A594B82F871
:1013600008B01046C2F80090536082F809B0C2F885
:101370000CB003F02FFC544A544B13601046544BEE
:1013800082F808B053605472C2F80CB003F022FC2B
:10139000504A4E4B136010464F4B82F808B05360D2
:1013A00082F809B0C2F80CB003F014FC4B4A3F4B72
:1013B00013601046464B82F808B0536082F809B0BB
:1013C000C2F80CB003F006FC454A3E4B13601046D1
:1013D000444B82F808B0536082F809B0C2F80CB0F0
:1013E00003F0F8FB404A344B136010463F4B82F841
:1013F00008B0536082F809B0C2F80CB003F0EAFB01
:101400003B4A354B136010463A4B82F808B05360A4
:1014100082F809B0C2F80CB003F0DCFB364A2C4B62
:1014200013601046314B5472536082F808B0C2F812
:101430000CB003F0CFFB314A2C4B13601046304BFD
:1014400082F808B0536082F809B0C2F80CB003F01B
:10145000C1FB2C4A2A4B82F808B0104682E82800CB
:1014600082F809B0C2F80CB003B0BDE8F04F03F049
:10147000B1BB1460EAE600BF94FFFF1FF005002037
:10148000C445010030FDFF1F1000002040FDFF1F7C
:1014900050FDFF1F60FDFF1F6CFCFF1F70FDFF1F55
:1014A00080FDFF1F90FBFF1F90FDFF1FDCFCFF1F57
:1014B000B8FFFF1F04FDFF1F800000205CFEFF1F20
:1014C000A0FDFF1F90FCFF1FB0FDFF1F14FFFF1FBB
:1014D0002CFCFF1FC0FDFF1FB4FCFF1FD0FDFF1F32
:1014E000E0FDFF1FD0000020F0FDFF1FDCFFFF1F0D
:1014F00000FEFF1FC0FBFF1F10FEFF1F20FEFF1F8F
:101500004800002030FEFF1F2DE9F04100218046F9
:1015100003F032FBF8B1D8E90823011D00F5827E03
:101520000F684E688D68103151F8044CC7FBC72313
:10153000C6FBC623C5FBC523C4FBC4238E45EFD819
:10154000D8F828100131C8E90823C8F82810BDE8E8
:10155000F04103F0D3BAD8F828300133C8F8283066
:10156000BDE8F081F8B572B6002600270023D0E967
:101570000845826A8362C0E9086762B6D2012046E4
:10158000294606F0D9FF06F077FD05F045F9024936
:1015900006F064FEF8BD00BF00FEFF46F8B5037E0E
:1015A000102B04464FF000014FD0204603F0F0FA14
:1015B0000546002868D0637E012B57D9227E102A69
:1015C0004FF000062AD005EB4602B2F90470FBB1D9
:1015D000802E41D005EB46000230324601E0802AE1
:1015E0003AD0237EC3F1100327FA03F101FA03F383
:1015F00020F8023F0132637E911B9942EFDB802A83
:101600002AD0164605EB4602B2F90470002BDFD152
:101610003246F4E73246802A1ED0164605EB4602D3
:10162000B2F90470002BF5D0802E15D005EB4601E1
:101630000231324601E0802A0ED021F8027F0132C9
:10164000637E901B9842F6DBE5E7437E012BACD826
:1016500003F092FA0546B8B120462946002203F06D
:1016600071FA2846BDE8F84003F048BA811C00F53D
:101670008170227E31F9023FC2F110021341934082
:1016800088420B80F5D1E7E7F8BD00BF2DE9F843AC
:101690000021054603F07CFA01210446284603F0A8
:1016A0006BFA0646BCB3D0B304F5827E231D9E457B
:1016B00024D90C3004F10C0111E90C0050F8089CFD
:1016C00050F8048C12FB39FC2CF3CF3C12FB09F2CE
:1016D00022F3CF32C2EA0C4213FB38FC2CF3CF3C8E
:1016E00013FB08F323F3CF33C3EA0C438E4501E920
:1016F0000C0000F1080001F10801DDD828460022A5
:10170000214603F01FFA204603F0F8F93046BDE801
:10171000F84303F0F3B90028F9D1BDE8F883204677
:10172000BDE8F84303F0EAB9F8B5C3696BB300212B
:10173000054603F02DFA044638B3B5F92000EE69EA
:10174000A11C04F5817731F8023F83F4004343FA8A
:1017500000F292B206EB420C36F912E0BCF902C07C
:1017600082409B1ACEEB0C0203FB02F3034173444D
:101770008F420B80E7D128462146002203F0E2F990
:101780002046BDE8F84003F0B9B9F8BD10B50446ED
:10179000C069034B236008B103F072FB204610BD03
:1017A000A045010079B3931EB3F5004F2BD22DE96C
:1017B000F041551E2B4224D10746C0690C46904685
:1017C00008B103F05DFB4FEA480003F057FB04EB60
:1017D0008808F861861E0C4954F8040B06F08AFC50
:1017E00006F064FE444526F8020FF4D110233B8432
:1017F0006B1006D00F22511E5B1010B28AB2FAD1C4
:101800003884BDE8F081704700FEFF462DE9F04FB7
:1018100083B08846846A0190D0F81CC0D0F824A018
:10182000C16A076BDDF8309008F580702646834664
:1018300038F902EB4FEA0E3E5CFB17F401EB84042F
:101840005AFB17F57644C4EB6606A6EB85065CFBEF
:1018500016F007EB80005CFB10F104EB81015AFBF2
:1018600010F5C1EB0E07A7EB85055CFB15F700EB48
:1018700087070C4424F34F34384420F34F30354469
:1018800025F34F35C34522F8024B764623F8020B69
:1018900029F8025BCCD1019A1346C3F828E0D16243
:1018A000176303B0BDE8F08F2DE9F04F85B088468F
:1018B0008169019101460C460390006A0290D1F8BB
:1018C00024B08F6A206BC96ADDF838A0DDF83C903F
:1018D00008F58074009432F9026B029C06FB04F652
:1018E00026F0784505F10065ED0055FB15F5284C0F
:1018F00055FB14F5ED00013CF616C6F106062C4426
:101900003441019D55FB14F4224D38F902CBAC4211
:10191000A8BF2C4624024FEA0C3C54FB10F601EB06
:1019200086065BFB10F107EB0C0EC6EB6E0EAEEB02
:10193000810E54FB1EF500EB850554FB15F106EBFB
:1019400081015BFB15F0C1EB0C07A7EB800754FB93
:1019500017F405EB84000E4426F34F36054425F3B7
:101960004F35BE442EF34F3E009C23F8026B444596
:101970002AF8025B674629F802EBACD1039A1346BA
:10198000C3F828C0D162106305B0BDE8F08F00BF76
:10199000ABAAAA2AE71052002DE9F043002183B038
:1019A000044603F0E9F801210546204603F0E4F877
:1019B0000646002D3CD003F055F8074600283CD0E1
:1019C00003F050F88046002842D003F04BF88146DF
:1019D000002851D0002E45D0021D08F104030192C9
:1019E000009320463B1D321D291DFFF75DFF304649
:1019F00003F084F8284603F081F800223946204697
:101A000003F0A0F8384603F079F801224146204659
:101A100003F098F8404603F071F820460222494648
:101A200003F090F8484603B0BDE8F04303F066B811
:101A30000028F8D103B0BDE8F083284603F05EF833
:101A4000002EF7D0304603B0BDE8F04303F056B89F
:101A5000284603F053F8384603F050F8002EE9D03A
:101A60003046F0E7031D00933A1D08F10403291DD9
:101A70002046FFF7CBFEBDE7284603F03FF8384687
:101A800003F03CF8404603F039F8002ED2D030463F
:101A9000D9E700BF10B5044603F072F9204610BD27
:101AA000024A0349034806F00BBF00BFFCEFFF1FCB
:101AB000951A00000001002038B5074D074C084872
:101AC0002A46214606F0FCFE2A4621460548BDE886
:101AD000384006F0F5BE00BFFCEFFF1F951A00006E
:101AE0000801002010010020024A0349034806F0C3
:101AF000E7BE00BFFCEFFF1F951A00001801002091
:101B0000024A0349034806F0DBBE00BFFCEFFF1F9B
:101B1000951A000020010020024A0349034806F0FC
:101B2000CFBE00BFFCEFFF1F951A00002801002068
:101B3000024A0349034806F0C3BE00BFFCEFFF1F83
:101B4000951A0000300100202DE9F8434FF00008FD
:101B5000064600F11805474641463046002F4FD053
:101B600003F00AF8F0B12C68B4F5803F07F10401E6
:101B700000F1040E07F5827C27D05EF8042B34FBBD
:101B800002F334FB12F903F30F0209F30F03C2EA65
:101B900003430A6893FA12F341F8043B8C45ECD8EE
:101BA00002F0ACFF08F10108B8F1040F05F10405DB
:101BB000D2D1002F40D030463946002202F0C2FF79
:101BC0003846BDE8F84302F099BF07F10C0100F177
:101BD0000C0451F8083C54F8082C93FA12F341F81D
:101BE000083C54F8042C51F8043C93FA12F38C4549
:101BF00041F8043C04F1080401F10801E9D8CFE7F9
:101C000002F0C6FF07460028CCD02868B0F5803F18
:101C1000C8D0391D07F582740B6830FB03F230FB26
:101C200013F302F30F0203F30F03C2EA034341F875
:101C3000043B8C42F0D8B5E7BDE8F883024A03497B
:101C4000034806F03DBE00BFFCEFFF1F951A0000E1
:101C50003801002010B5002102F08EFF70B172B67D
:101C60000A4B1A6872B10A490C6844B11C600860DA
:101C700062B61046BDE8104002F040BF10BD0860DB
:101C800062B610BD186062B610BD00BF50010020E2
:101C90004001002038B5184B18491A68184C1268D2
:101CA0001B79184D0B70A242286836BF2246A4F556
:101CB000807202F58074C0B1011D31F9023B03F559
:101CC00000431B1122F8023B9442F6D802F016FFA3
:101CD0000D4B0022196829601A600C4B1B781BB150
:101CE0000B4B4FF080421A6038BD4FF4006322F86E
:101CF000023B9442FBD8F0E7440100201F800040E3
:101D000090E8FF1F50010020400100204C010020FE
:101D100008E200E0F8B501215148524E02F0CCFF34
:101D2000514A52491368802043F4805313600024C1
:101D3000087040F6080534800120083401F0DEFE0A
:101D4000A3B2AB421CB2F6D1494B1B685B0208D56B
:101D5000484B1A6848F6A273134048F6A2729342A1
:101D60006DD04349434A0B68434F444D4448454C6A
:101D700043F480030B604FF0010E40F23F4648F6FB
:101D8000A37140F20113C7F800E02E6011601460E7
:101D90000360334D3C492B6800221960197C1A748A
:101DA0006FF03F01587C59740C21987C9974402144
:101DB000D87CD974997D9A750124D97DDC7502206F
:101DC0004FF0FF316FF001065A715A729A72DA724F
:101DD0001A731A755A751A765A769A76DA765E7387
:101DE0009C71DC71187118729973D973997F297974
:101DF0009A7701F18041D87FDC7701F50431062024
:101E00001E7F1877B0205E7F5A770A70087002F044
:101E1000F9FE2A791D4B1E4E187053119B0003F1D9
:101E2000604302F01F051B49327003F5614302F164
:101E30001000AC40184D41F820501C60F8BD0F4B0D
:101E40001A6840F23F439A428BD10B4B1B68012B1F
:101E500087D10B4B1A6840F201139A4281D198E75F
:101E60004401002000C00C402C80044021C00C40E4
:101E70003C800440006003400C6003400460034069
:101E800010600340A28F010090E7FF1F4C0100206B
:101E90001B80004000EAFF1F951C0000044A1378D5
:101EA00002290CBF03F0BF0343F0400313707047D7
:101EB00021C00C40024A0349034806F001BD00BF9F
:101EC000FCEFFF1F951A000044010020024A03495D
:101ED000034806F0F5BC00BFFCEFFF1F951A000099
:101EE00054010020024A0349034806F0E9BC00BF40
:101EF000FCEFFF1F951A00005C010020024A034915
:101F0000034806F0DDBC00BFFCEFFF1F951A000080
:101F100064010020024A0349034806F0D1BC00BF17
:101F2000FCEFFF1F951A00006C010020024A0349D4
:101F3000034806F0C5BC00BFFCEFFF1F951A000068
:101F400074010020024A0349034806F0B9BC00BFEF
:101F5000FCEFFF1F951A00007C010020F8B5054634
:101F600002F080FD002800F092802A7E0446031DC6
:101F700000F58276002A39D0286AE9696A6A81FA0E
:101F8000A0FEEFF300873F0140D49EFBF2FEBEF1BE
:101F90007F0F54DD04F1140702E0E9696A6A103723
:101FA00011448818C0EA214110448318C3EA204034
:101FB000134403EB020ECEEA234396447244EA61D3
:101FC000C2EA2E42BE4247F8101C47F80C0C47F8F4
:101FD000083C47F8042CE0D828462146002202F0AD
:101FE000B1FD2046BDE8F84002F088BDEA69C2EACA
:101FF00022421A605A609A60DA601A615A619A61E4
:102000002033B34243F8042CF3D3E5E75AB9002256
:10201000E8612A76C0EA2042B342DDD243F8042BBD
:102020009E42FBD8D8E7571C022FB0D990FBF2FE96
:1020300091FBF2F7C7EB0E0EBEF17F0FAADCBEF1EB
:10204000010F18DD70461F4601E0E9696A6A114414
:102050000A44EA610238C2EA2142012847F8042B07
:10206000F3DCAEF1020E4FEA5E014A1C286AAEEBC9
:10207000410E03EB8203BEF1000FC8D0E9696A6A22
:102080000A44C0EA22421A60286A0433BFE7F8BD56
:102090002DE9F04F436AC469866985B02BB906EB18
:1020A000C414846105B0BDE8F08F0546D0F82080E7
:1020B00002F0D8FC0746002800F04781B5F932301D
:1020C00006EB0802009200F10408082B31D8DFE883
:1020D00013F09B00B800000114010900C500DB00EB
:1020E000E9005000EE6A002E00F02D81D5F824C0E2
:1020F000009900F5827E40460A0E531CB3F5807F9E
:1021000014BF5B000023C1F30F29F35E36F91220E0
:1021100009FB03F3C9F5803909FB023353FB0CF3C8
:1021200020F8023B70452144E6D1009B03EBC41329
:1021300000932C6A009AB5F93430141BAC616BB172
:1021400007F5827101E0B5F93430B8F90020134485
:1021500003F30F0328F8023B4145F4D82846002238
:10216000394602F0EFFC384605B0BDE8F04F02F00A
:10217000C5BCAB6ACDF808804FEA5309190C6FEA69
:1021800009020192C1F57F434FF0FF3A4646FF3303
:10219000D5F824C0BAFBF3F3063007F5837B009A29
:1021A000BAFBF1FA03979E46DDF8048020E0C9EB04
:1021B00002073F0C0EFB07F76FF0004109EB02032B
:1021C000C91B1B0C09140AFB03F30CFB01F103F1FF
:1021D000004390454FEA21414FEA234340F2AE804D
:1021E000318002308345224406F1020600F0B280BD
:1021F000130C0AFB03F31B0C0CFB03F391454FEA92
:102200001343D4D93380ECE7D5F824C0554E009958
:1022100000F5827E40460B0E5A1C36F9139036F9B3
:102220001220C1F30F2ACAF5803309FB03F30AFB1E
:10223000023353FB0CF320F8023B86452144EAD1DC
:1022400073E76E6A009A00F58270434636FB12F11E
:1022500023F8021B83422244F8D166E76E6A26F314
:102260004F06A86A009A0FFA86FEBB1D764207F554
:10227000837190428CBF23F802EC23F8026C023386
:102280008B422244F5D150E7686A009A07F58276BE
:10229000C043434630FB12F123F8021BB3422244F1
:1022A000F8D142E700F5827A009BC14603E0D145B0
:1022B00033463FF43AAFB5F9302029F8022BE6183F
:1022C000F5D3686A02F0C2FD6B6AA0EB6300288652
:1022D000EDE76E6A26F34F06009A30B2BB1D7642D8
:1022E00007F58371002AB4BF23F8026C23F8020CAF
:1022F000023399422244F5D117E7811DD5F824C055
:10230000009A00F5837009E00CFB03F31B1421F81D
:10231000023C0231884222443FF407AF930F013B55
:10232000012B4FEAE233EFD8D30BC3F57F43FF33E2
:102330000CFB03F31B0C21F8023CEAE70CFB03F354
:102340001B1433804DE702F0D9FBAB6903EBC413D8
:10235000AB61A7E6009BDDF80880039F03EBC41385
:102360000093E6E670430100064B074ADA62022159
:10237000002259609A7083F8242083F8302083F873
:1023800032207047A0010020E845010008B5012176
:10239000007801F099FB0E4B1A7802B908BD0D4A7E
:1023A000127800211970002AF8D0D00703D50A4905
:1023B0000A4B09681960910703D50749084B49681A
:1023C00019605307EAD5044A064B92681A6008BDA3
:1023D000F80100209C0100209001002000E100E0B5
:1023E00004E100E008E100E0204B1A781AB100781F
:1023F000002101F069BB70B41D491E4A0C781268B7
:1024000001251D7004B372B60B78DC0707D51A4C92
:102410001A49266809681A4D3140296021609907D8
:1024200007D5184C154926684968154D314021607B
:1024300069605B0707D51449104B0D689B68104C09
:102440002B400B60A36062B6104BD968914207D055
:102450000F4C1C600F49DA6042F080441C61196027
:102460000078002170BC01F02FBB00BFF8010020F4
:102470009C010020F401002080E100E084010020A4
:102480009001002084E100E088E100E000C002400B
:1024900001401F0000001F80F0B4134C134A236852
:1024A00082B01746009300984FF0004680B2FF2597
:1024B000136843F480631360D6625563D36A002BBC
:1024C000FCDABB6BDBB2FF2B0AD023680193019BC4
:1024D0009BB21B1A8B42EBDB002002B0F0BC7047B2
:1024E000012002B0F0BC7047F004002000C00240A0
:1024F000F8B50D464FF4967116460446FFF7CCFF2B
:10250000284B1A684FF0004042F4806245F04001C9
:102510001A60D8621A465963D36A002BFCDA214943
:1025200018204FF000470A6826FA00F342F4806250
:10253000DBB20A60CF624B63CB6A002BFCDA08384F
:1025400010F1080FEFD155B3082D0CBF8721FF21E3
:10255000144B1A684FF0004042F480621A60D8624F
:102560001A465963D36A002BFCDA0E4A0027164636
:102570004FF00045FF21136843F480631360D56278
:102580005163D36A002BFCDAB36BD8B21B066070C0
:1025900000D4F8BD0137B7F5807FECD1F8BD9521A7
:1025A000D6E700BF00C00240F0B4164C164A2368BC
:1025B00082B01746009300994FF0004689B2FF257C
:1025C000136843F480631360D6625563D36A002BAB
:1025D000FCDABB6BDBB2FF2B43700BD1236801939A
:1025E000019B9BB25B1AB3F5967FE9DD002002B038
:1025F000F0BC7047A3F1FE00B0FA80F0400902B0D1
:10260000F0BC7047F004002000C00240F8B58378A9
:10261000032B0E46044618BF4E021546FFF7E4FE94
:10262000324611212046FFF763FF18B92046FFF715
:10263000BBFF20B92046FFF7A9FE0020F8BD204BC4
:102640002049214A1A608E4659631A4659631E462C
:10265000596305F5FD70A91C05F5FE77D36A13F0E3
:10266000F00FFBD0C6F834E0B36B01F8013C1B124D
:1026700001F8023C02318F42F0D105F50075A84205
:102680000DD20F4A1646D36A13F0F00FFBD0B36B8E
:10269000191200F8021BA84200F8013CF3D3084BC2
:1026A0000949084A196019465A63CB6A044A13F06B
:1026B000F00FFAD02046936BFFF768FE0120F8BDBB
:1026C00000C00240FFFF009000041F80F0B4314EB4
:1026D00033684FF0004743F4806333603D46F76250
:1026E000344671633346511C02F20127E26A002A24
:1026F000FCDA1A6811F8016C42F480621A60DD623B
:102700005E63E26A002AFCDA1A6811F8026B42F48E
:1027100080628F421A60DD625E63E7D11D49CA6A3A
:102720001C4B002AFBDA1A684FF0004542F4806225
:10273000FF241A601946DD625C63CB6A154A002BE0
:10274000FBDA13684FF0004543F48063FF24136005
:102750001146D5625463CB6A0E4A002BFBDA13682C
:102760004FF0004543F48063FF2413601146D562A7
:102770005463CB6A074A002BFBDA936BDBB203F09E
:102780001F024370A2F10500B0FA80F04009F0BCCE
:10279000704700BF00C0024070B5044671B1837835
:1027A000032B0D4618BF4D021646FFF71DFE2A46A5
:1027B00018212046FFF79CFE054620B12046FFF772
:1027C000E5FD002070BD3246FE212046FFF77EFF6A
:1027D0000028F3D04FF416712046FFF75DFE002865
:1027E000ECD02A460D212046FFF782FE0028E5D1D5
:1027F0000B4B1A684FF0004542F48062FF201A60CC
:102800001946DD625863CB6A054A002BFBDA936BED
:1028100013F0FF0FD2D12046FFF7B8FD012070BDA5
:1028200000C00240014B024A1A607047F4010020C8
:102830000110013838B590F90530002B03DBBDE8F5
:10284000384000F091B904460121006900F0B6F962
:10285000F8B1257D104B13EB45151AD0A3790F4A1B
:10286000012B9CBFA369EB61E36912686B831B0CAE
:10287000AB8232B105F1160105F1180090472B8BA0
:102880006B82637903F07F036371BDE8384000F029
:102890006BB9002038BD00BF08020020FC010020F9
:1028A00010B500F1080204460121006A00F024FA84
:1028B00050B1E3693BB96379A268E26163F07F03D9
:1028C0006371012010BD012010BD00BFF8B58379F0
:1028D00013B182698A4201D20020F8BD022B0F4653
:1028E00005461AD007B32B6AE9681C7C4A1E04F11E
:1028F00009037C1EDA40DC40A24211D9EB69AB60CF
:1029000005F1080606E0A968286A00F0BDF9013C57
:102910000028E1D03246002CF5D1EF600120F8BD4F
:102920000029EBD0A41AEBE7AF60EF600120F8BDFF
:102930002DE9F04F8B46817985B0012980460192BF
:1029400006D0012388F80430002005B0BDE8F08FE0
:1029500042799107F5D553070AD5D8F80C40D8F835
:1029600018108C4200F0C680FFF7B0FF0028E8D0B6
:10297000019BD8F80C40002B00F0AF80DFF8C89125
:10298000DFF8C8A1019F3AE0002C43D1D8F8081025
:10299000002940F08380D8F81C20002A00F09280A3
:1029A000C8F80820C4F50076B6B2BE4239D890F80F
:1029B00010E04169023A02FA0EF20D44B6F5007FCA
:1029C000154435D1DAF80020954204BF4FF0FF32AC
:1029D000CAF80020584A294610685A46FFF7DCFE1C
:1029E0000028AED00BF5007B4FF40074D8F80C2013
:1029F000BF1B1444BFB2C8F80C40002F6DD0D8F8EC
:102A000020000579013D05EA542515F0FF05C4F3C2
:102A10000804B9D0C4F50076B6B2BE42D8F8082092
:102A2000C5D9067C4169023AB2400D4415443E4680
:102A30002CB9D8F80C10D8F8182091421BD228468F
:102A4000012100F0BBF800283FF47BAF4C4404EBBD
:102A5000060E744520D00BF1FF31621E0EF1FF35DA
:102A600011F8010F02F8010F9542F9D1C4EB0E0ED7
:102A7000F3443446BAE700F077F800283FF461AF3A
:102A80002E49CAF800500A784C4404EB060E42F076
:102A9000010274450A70DED13446A7E703AA00F0AC
:102AA000F3F800283FF451AFD8F82000244B90F8F9
:102AB0002060039A4FF6F871102E18BF19468A420B
:102AC000FFF46EAF4046FFF7EBFE00283FF439AF4E
:102AD000D8F82000D8F8082064E7D8F81830A342C6
:102AE0000DD298F80520C8F8184042F0800288F806
:102AF00005200FE0019B002B7FF440AF0AE0114B53
:102B000098F805201B682BB1019B1BB142F0800295
:102B100088F8052012070AD598F80630002B3FF4F4
:102B200010AF4046FFF786FE00283FF40AAF019839
:102B300005B0BDE8F08F00BF0402002008040020AB
:102B4000F8FFFF0FFC0100200802002090F1FF1F9A
:102B500000B583B002AB012203F8011D1946FFF74F
:102B6000E7FE03B05DF804FB70B50F4C23780BB99A
:102B7000012070BD0D4B0E4D196828680D4AFFF7F6
:102B80000BFE70B10C4E316819B90023237001207F
:102B900070BD2868074AFFF7FFFD10B100233360BE
:102BA000F3E7002070BD00BF0804002090F1FF1F74
:102BB00004020020080200200002002070B50D4D24
:102BC0002B6883420E460ED00446FFF7CDFF08B9AE
:102BD000002070BD084B094A18682146FFF716FD12
:102BE0000028F5D02C60064B19783143197001206C
:102BF00070BD00BF90F1FF1F0402002008020020FA
:102C000008040020F8B590F82030C469102B1A4B46
:102C100005460E4617461B6816D004EBD1149C429D
:102C200016D106F07F06154A42F826701449287E10
:102C30000A78012842F001020A7018D9A968114ADD
:102C40000B4413600120F8BD04EB11249C4208D012
:102C500000212046FFF7B2FF50B195F82030102B2D
:102C600007D1F6B2054A234622F81670DEE70120A6
:102C7000F8BD2346D5E700BF90F1FF1F08020020F2
:102C80000804002000020020C36801338B4218D3DF
:102C900070B590F82030102B154B044616460D46A3
:102CA000C0691B680FD000EBD11098420FD105F01E
:102CB0007F01104B53F8213023F070433360012023
:102CC00070BD0020704700EB1120984207D0002112
:102CD000FFF774FF50B194F82030102BE7D1E9B220
:102CE000044B33F811303360012070BD002070BDFB
:102CF00090F1FF1F080200202DE9F04F176883B004
:102D00006FB301374FF0000AC36803F1010813B332
:102D10008B46064691463C46002505E01C461F466C
:102D2000F3680135AB4216D9A04538BF02242146CD
:102D300001AA304638BF2746FFF7A6FF631CD91B00
:102D400048B1019A002AE9D18B4510D01C46F3689E
:102D50000135AB42E8D8002003B0BDE8F08FA1F107
:102D6000010ABAFA8AFA07684FEA5A1ACCE7012C24
:102D7000F1D9F36801339C42EDD86FF070422146DF
:102D80003046FFF73FFF0028E5D0A74214D2013CB0
:102D9000012CE0D9F36801339C42DCD8621C214647
:102DA0003046FFF72FFF0028D5D0A74204F1FF34AB
:102DB00002D0012CEED1CEE7D9F8001059B101298B
:102DC000C9D9F36801339942C5D83A463046FFF76E
:102DD00019FF0028BFD0C9F80070BAF1000F01D068
:102DE000013737600120B7E790F8392090F83800B4
:102DF000101A704790F8383090F839209A4205D967
:102E00005A1C034480F83820187E70474FF0FF307A
:102E1000704700BF90F8383090F839209A4286BF4A
:102E20001B18187E4FF0FF30704700BF704700BF7F
:102E3000B0F85E306BB190F85D30202B07D8C21827
:102E4000013380F85D30012082F83B107047012388
:102E500003710020704700BF38B50546B0F85E002A
:102E600090B195F85D301446C3F1210294420CD81C
:102E700005F13B001844224600F018F995F85D3042
:102E8000234485F85D30204638BD01201446287162
:102E9000EEE700BF10B50269D378DBB2D90604466D
:102EA0003DD510215806D17038D503F0040303F046
:102EB000FF02002B51D03D49626E00230B7084F855
:102EC0005D30002A5BD0904794F85D30002B56D0DF
:102ED0002369D0229A70236994F83B201A712369E0
:102EE000012284F85C200222DA7010BD304B84F895
:102EF00060009C424AD02F4B9C4252D094F839102B
:102F000013791F29DBB207D82848007820B1601850
:102F1000013184F8391003760223D37010BD5906AD
:102F2000C3D4917801F0100101F0FF000029DDD039
:102F300013F001031ED194F85C1094F85D008842F0
:102F400081BF4B1C091984F85C3091F83B30137138
:102F50002369D0229A702269DEE7236984F8392038
:102F6000C0229A702369114A197901211170022235
:102F7000DA7010BDC023937022691379CCE7012267
:102F8000002384F85D2084F83B30A1E7626994F85F
:102F90006130094913440322187A00F0C5FB226905
:102FA000ACE7626994F861300449F3E778040020E3
:102FB0007C0400200C0400201D300000293000009B
:102FC0000369DB7803F0200373B190F860300133BC
:102FD000DBB2012B80F860301AD9426990F8613079
:102FE0001344187A00F01CBC70B5426903F0FF0569
:102FF00090F8613013440446187A00F011FCA36E77
:103000005BB184F8385094F83900BDE87040184737
:1030100090F85F30002BE0D0704770BD0148FFF79B
:10302000CFBF00BF7C0400200148FFF7C9BF00BF2D
:103030000C0400200148FFF72DBF00BF7C040020D6
:103040000148FFF727BF00BF0C040020F0B410496F
:10305000104B114A0A6100224FF47A740F4F104846
:10306000104E114D0A710A7381F8612081F86220B7
:103070001A711A7383F8612083F862204F618C60A3
:103080009C601E615D6108601860F0BC704700BF05
:103090007C0400200C04002000600640F045010084
:1030A000384601000070064010460100844641EA9F
:1030B000000313F003036DD1403A41D351F8043BB0
:1030C00040F8043B51F8043B40F8043B51F8043B02
:1030D00040F8043B51F8043B40F8043B51F8043BF2
:1030E00040F8043B51F8043B40F8043B51F8043BE2
:1030F00040F8043B51F8043B40F8043B51F8043BD2
:1031000040F8043B51F8043B40F8043B51F8043BC1
:1031100040F8043B51F8043B40F8043B51F8043BB1
:1031200040F8043B51F8043B40F8043B51F8043BA1
:1031300040F8043B51F8043B40F8043B403ABDD210
:10314000303211D351F8043B40F8043B51F8043BB2
:1031500040F8043B51F8043B40F8043B51F8043B71
:1031600040F8043B103AEDD20C3205D351F8043B41
:1031700040F8043B043AF9D2043208D0D2071CBF0D
:1031800011F8013B00F8013B01D30B880380604636
:10319000704700BF082A13D38B078DD010F00303AC
:1031A0008AD0C3F10403D21ADB071CBF11F8013B1C
:1031B00000F8013B80D331F8023B20F8023B7BE76B
:1031C000043AD9D3013A11F8013B00F8013BF9D296
:1031D0000B7803704B7843708B7883706046704730
:1031E000374A384913681B06FCD40B6813F0800378
:1031F000F8D172B634490A78002A5FD0334A34488D
:10320000F0B4344C176806682568D4680C303E4426
:10321000143200681268304F35442C442044024474
:10322000C2F34E022D4E2E482E4D2F4C42F400423A
:103230003A60376806682D682C4A24680C303E4492
:10324000006812682A4F35442C4420440244C2F3DB
:103250004E02284E2848294D294C42F400423A603B
:10326000376806682D68274A24680C303E44006899
:103270001268254F35442C4420440244C2F34E02C8
:10328000224E2348234D244C42F400423A603768D2
:1032900006682D68214A24680C303E440068126894
:1032A00035442C4420440244C2F34E021C4842F4EC
:1032B000004202600B7062B6F0BC704762B67047A5
:1032C00024B0034024B00B40E904002038B0034090
:1032D0003CB0034040B003402CB0034058B0034022
:1032E0005CB0034060B0034064B003406CB0034086
:1032F00030B0034038B00B403CB00B4040B00B4006
:1033000044B00B404CB00B402CB00B4058B00B40BD
:103310005CB00B4060B00B4064B00B406CB00B4035
:1033200030B00B4030B42948294A2A4B2A4D60243A
:10333000E121047011701B78284C082B30D00A2B27
:103340002748284937D00C2B0CBF35223D221223A9
:103350002A60236002600B60234B24491B78244AB7
:10336000BBB101230B601360224B23491B78234A16
:10337000012B26D9042B0FD9082B1ED9102B94BF53
:10338000862387230B6013601D4B01221A7030BC0B
:1033900070470B601360E7E784230B601360F3E76B
:1033A00000F58E200F490830012213232A60236084
:1033B00002600B60D0E73922F7E785230B601360CA
:1033C000E2E780230B601360DEE700BF00400740A8
:1033D0000140074094F1FF1F08B003400CB00340C8
:1033E00008B00B400CB00B40EC04002020B00340B0
:1033F00020B00B4095F1FF1F24B0034024B00B40D8
:10340000E904002068B10E4A1378C3B90D49097860
:103410000120107019B10C490C4A0B601360FFF7C2
:1034200081BF074B1A7852B1064A18701378002BE7
:10343000F5D0054A054B10601860FFF773BF704761
:10344000EC040020E904002024B0034024B00B4029
:1034500028282FD8334B2DE9F0411E5CFF2E2BD0AE
:10346000314B1B78002B2AD132062CD472B62F4D4B
:103470002F4C2F46012326602B7062B672B623684C
:103480001B060CD43B781BB9F4E72B78002BF1D04A
:1034900062B601F019FD72B623681806F5D5254B02
:1034A0001B6800222A7062B6234A107843FA00F0A3
:1034B000BDE8F081002070470020BDE8F081FFF7F3
:1034C0008FFE3206D2D572B61C4DDFF87C801C4CC4
:1034D00006F04007FFB206F03F06D8F80030DFB133
:1034E00023F01003C8F8003001232660134A2B7024
:1034F00062B672B6236819060CD413781BB9ECE7D0
:103500002B78002BE9D062B601F0DEFC72B623689E
:103510001B06F5D50B4BC3E743F01003C8F800308A
:10352000E2E700BF50460100E9040020EB04002060
:1035300000B0034010B00340E8040020EA0400207B
:1035400000B00B4010B00B400CB00B400B4A0C49C4
:10355000136843F4805313600B783BB1094B80220E
:103560001A70094B80F30C0018807047054BC0227D
:103570001A70054B80F30C00188070472C800440B3
:10358000EC04002021C00C4000C00C40024A13682B
:1035900001331360704700BFF004002008B5104CE1
:1035A00008E0236859050DD423681A050FD4236851
:1035B000DB0411D423685803F3D500F015FC23680D
:1035C0005905F1D501F0F6FF23681A05EFD502F091
:1035D00093FB2368DB04EDD502F046FEEAE700BF6B
:1035E0003480044008B5FFF7D9FF00BF014B10221B
:1035F0001A80704700200540704700BF094908B590
:103600000B6830B16A461844A2F58052904202D24B
:103610000860184608BD05F05FF90C2303604FF001
:10362000FF3008BD98F1FF1FFEE700BFEFF31380E6
:1036300070B9EFF310836BB9EFF305825AB94FF409
:103640008070EFF311832BB1984228BF1846704762
:103650004FF0FF3070470F2A01D81846F1E7014BB1
:10366000D05CEEE7F0E300E0704700BF10B40F4B12
:1036700053F8302092F880422CB1012369B182F8CE
:10368000803010BC704703EBC0035B681A6841B917
:1036900022F002021A6010BC704782F8003110BCA0
:1036A000704742F003021A6010BC70477C4601006C
:1036B0001C4A02EBC00301295B6811D004291BD00E
:1036C00052F83000002280F8802229B1022920D04F
:1036D000032922D01A6070474FF480721A60704735
:1036E00052F830004FF4A27280F880121A601A6803
:1036F00022F020021A60704752F830104FF4A27284
:10370000012081F880021A601A6842F020021A60D3
:10371000704740F203121A6070474FF481721A60CA
:10372000704700BF7C460100212817D8F8B5042A4D
:1037300013D8DFE802F0494C4F1446002C4872B60B
:10374000236823F4702343F08072C4F3840116438A
:10375000236040F82150266062B6F8BD70474FF4F0
:103760001026244B03EBC0030D465C68216811F45E
:10377000E06134D0204B214A2149C3F89C2104F157
:1037800040422048C3F8A411A2F592211E4FC3F86D
:10379000A0017C291D48C3F8A871C3F8AC01CDD99C
:1037A000A2F594237C2B18D9A2F596237C2B19D94A
:1037B000A2F598237C2B17D9A2F59A227C2A15D939
:1037C000F8BD4FF43026CCE74FF40026C9E74FF49C
:1037D0004026C6E74FF42026C3E70D48AFE7FFF7C2
:1037E00067FFC7E70B48AAE70B48A8E70B48A6E71F
:1037F0009CF1FF1F7C46010000EAFF1FD1EFFF1F75
:1038000079EFFF1FA5EFFF1F4DEFFF1F21EFFF1FF8
:10381000D4F1FF1F24F2FF1F54F2FF1F74F2FF1FA9
:103820001A4B03EBC00010B4426802F14043A3F509
:1038300092217C2905D9A3F594217C2913D8144918
:1038400000E0144972B61368134C23F08773C2F377
:10385000840023F4803343F08073136041F82040E8
:1038600062B610BC7047A3F596217C2909D9A3F54F
:1038700098217C2907D9A3F59A237C2BF1D80749F5
:10388000E0E70749DEE70749DCE700BF7C460100C7
:10389000D4F1FF1F9CF1FF1F6936000074F2FF1F77
:1038A00024F2FF1F54F2FF1F30B4054B054D064CA8
:1038B000002210211A602A602060196030BC704715
:1038C00014D0034004D0034000D00340282838B56A
:1038D0002ED0002904464FDD5F4B1B78012505FAE9
:1038E00003F28A4202D8212837D938BD0338C2B240
:1038F000012A3AD9202C4AD0192C48D0574A1268AC
:1039000002FB011222FA03F31D2800F29B80DFE87C
:1039100000F0928B847D9999766F999999999999EC
:1039200099999968615A53994C9999999999994596
:10393000494B1B780B2B08D90C2B1CBF0C3B194196
:103940000846BDE83840FFF701BEC3F10C039940BB
:103950000846BDE83840FFF7F9BD2946FFF786FE67
:103960002946BDE83840FFF7A3BE3D4A126802FB76
:10397000011222FA03F3C7E72128B6D80021FFF786
:1039800075FE20460121BDE83840FFF791BE354A5B
:10399000126802FB011222FA03F3B5E73249334AF7
:1039A0000B604FF45173136038BD3149314A0B60DD
:1039B0004FF45173136038BD2F49304A0B6040F209
:1039C0004443136038BD2E492E4A0B6040F24443F5
:1039D000136038BD2C492D4A0B6040F244431360FC
:1039E00038BD2B492B4A0B6040F24443136038BD6D
:1039F00029492A4A0B6040F24443136038BD2849E4
:103A0000284A0B6040F24443136038BD2649274AD8
:103A10000B6040F24443136038BD2549254A0B60D2
:103A200040F24443136038BD2349244A0B604FF4ED
:103A30005173136038BD2249224A0B604FF4517311
:103A4000136038BD212C3FF650AF7F29D4BF002131
:103A50000121204693E700BF7CF2FF1F088003404E
:103A60000890034008800B4010800B4048A00440A1
:103A700018800B404CA004401880034008B004405C
:103A80001080034004B004404080034018C004404C
:103A90003880034014C004402880034010B0044024
:103AA000208003400CB004403080034010C004402C
:103AB000488003401CC004401890034034900440E8
:103AC0001090034030900440212801D8FFF7CEBD6C
:103AD000704700BF212806D8044B53F8303093F8C4
:103AE0000002C0B270470020704700BF7C46010052
:103AF000212801D8FFF7DCBD704700BF2DE9F8434E
:103B0000054672B6204F214B214A1B683C6812685B
:103B100062B6520102D5322B88BF013495B3C3F58A
:103B2000BB331C4EDFF86490DFF86480FF334FF442
:103B30007A72A6FB031302FB04F404EB931472B62F
:103B4000D9F800103A68D8F800E062B6C1F5BB3386
:103B5000FF33A6FB03031EF0806FC4EB93134FF4F7
:103B60007A7002D0322988BF013200FB0233B3F5EC
:103B70007A7F04D3013D05D004F57A74DFE701F0C4
:103B8000A3F9DCE7BDE8F883F004002018E000E0CA
:103B900004ED00E0ABAAAAAAF8B52D4B2D49DFF839
:103BA000D0E0DFF8D0C02C4E2C4D2D4C2D4A2E4F9E
:103BB0004FF4000018604FF0807018604FF00070F4
:103BC00018604FF0806018604FF0006018600020AF
:103BD000086028234BF6FF71CCF80010CEF80030B7
:103BE000336013602B6023603B60B36293620922F1
:103BF00045F8242CC4F8D80F05F57F65C7F8D41F05
:103C000007F5FF2707F5FA67C6F8F83F2B6006F5BA
:103C1000FF26C4F8D42F05F5FD2504F5FF243860F0
:103C200006F2F4761148316005F5FF6504F5FD6490
:103C30002B6023600260FFF775FB3220FFF75EFF09
:103C400000F0FCFC4FF4AF70BDE8F840FFF756BF42
:103C500008E100E004800340148003402480034016
:103C60002C8003401C8003403480034000800B40C4
:103C70000C80034008800340431E032B14D872B607
:103C80000A4951F8230068B170B4094C058834F82A
:103C90001320466841F82360521B24F8132062B6B3
:103CA00070BC704762B67047002070474C0500201A
:103CB00028080020013803280BD872B6074B53F8A8
:103CC000203043B100205B680130002BFBD162B68D
:103CD0007047002070471846F9E700BFA005002094
:103CE000F0B472B61A491B4E012311F8014B194F5B
:103CF0009A00240742F0010505D556F8324064B118
:103D000056F83520BAB10133052BEED162B6124B0D
:103D100000221A70F0BC00F00DBD0F4C0F4D217841
:103D200047F8325007EB431308304A1E58602270A0
:103D300062B6F0BC70470849094B0A7847F835303D
:103D400007EBC5030830013A58600A7062B6F0E725
:103D5000B04701000080FF1FC90500208800400017
:103D6000C8004000431E032B1DD81B4A400140F0F1
:103D7000100030B4104472B6184CE25C032A1BD811
:103D8000DFE802F00212151703220D88E25410F04A
:103D9000080F14BFC823882343EA05430831036092
:103DA000416062B630BC704708300222EDE7052260
:103DB000EBE708300422E8E7094A52F8230038B15B
:103DC000084A52F82300416042F8231062B6E9E73E
:103DD00042F82310034AF7E70080FF1FD8050020B0
:103DE000A0050020B00500202DE9F04FDFF800A36A
:103DF000DFF800B387B044E0A84F4FEA930807EB21
:103E0000C809013ED9F8042003F00803F6B2A2F174
:103E1000080003F0FF04002B40F0FC8057F8383016
:103E20001B0C99B222F8081C002B00F0EA809C4B76
:103E300022F8064C42F8044C53F82620002A00F0E1
:103E40002982984D55F826305860974C45F8260041
:103E500034F81630194424F8161000F04BFC0028F2
:103E600000F01182914A924B19F0080F00F10800FE
:103E700018BF1346C9F8040047F8383008238AF8F9
:103E800000309AF80040E4B260071AD5894B1B78DD
:103E9000A3B189490A7802F0FF0322B1013BDBB2EA
:103EA0000B7003B900BE85490A7802F0FF032AB1FE
:103EB000013BDBB20B70002B00F0BB8104238AF8BE
:103EC000003004F0080303F0FF02002B00F0C6806E
:103ED0009BF80030DBB21E098ED19C086F4F57F85B
:103EE000342007EBC401C2F38302013A49680C2A6B
:103EF00000F28380DFE802F0777781818181818120
:103F000040818181070008686D4B6E4D0193674BBE
:103F10004A686D4E47F8343081B240F28164684B94
:103F20006A60286000220120A1421A603A61BA61E9
:103F3000307000F2E180B1F5D06F80F02582B1F5EC
:103F4000817F00F0DE8100F2C181802900F034829F
:103F5000822940F0DC81A9885C4B042900F2D881D9
:103F60005B4C89000B44227062701A78930740F111
:103F700022832070022023E2514B01931A683AB346
:103F8000544B514E5449188834780D784028864651
:103F900045F0020828BF4FF0400E002C84F00104C9
:103FA0003470CEEB00000CBF8824C82407EBC80691
:103FB00080B285F0010544EA0E447260188047F82B
:103FC000384072440D70002800F0B780019B1A60E1
:103FD0003C4B1A88B2F5A06F0FD100219A78597026
:103FE0003E4B1A7009E0374A108842F22102904293
:103FF00000F0A8802D4A47F83420394A0123137075
:104000003CE72A4A2A4B19F0080F18BF134647F815
:10401000383033E700F08EFB324A334952F826300D
:10402000002B00F03B8158688C5D42F8260003F1BC
:104030000802C9F80420032C05D8DFE804F02C029C
:10404000292602228A551A8819F0080F0CBF8823E6
:10405000C82343EA024347F838300FE7E00700F18E
:10406000EB80210600F12881A20706D51F4A2049CE
:1040700013780220DBB213700870E30602D51C4BE4
:1040800010221A7007B0BDE8F08F04228A55DAE7D3
:1040900005228A55D7E703228A55D4E70080FF1FFF
:1040A0004C050020F804002028080020C80040002B
:1040B00088004000D40500205D050020DC050020BC
:1040C000F4040020C00500205C050020C02007404B
:1040D000CC05002008050020C805002098200740D6
:1040E00094200740A0050020D80500208820074024
:1040F000802007409020074042F22104A14200F0B6
:10410000948043D8B1F5086F00F0A881B1F5106F25
:1041100040F0FD80B84AB94CA978117004F18005CF
:1041200003E00834AC4200F09E81236A1906F8D5FA
:10413000606A083800F0FEFAF3E7BEF1400F18BFDE
:10414000002243E7AE4ACD1D11F8013B02F8013FC2
:10415000A942F9D1AB4A1268862A00F01181AA4916
:10416000AA4E0A78307882F00105002842F0020257
:104170000D700CBF8821C82147F8321007EBC2022E
:1041800080F0010000213070516033E742F22124B9
:10419000A14240F0FE81DFF8BCC29D4B9D49AC7846
:1041A000DCF800501D6081460C70002002908046B3
:1041B0008446044694490D7845F0020E07EBCE0381
:1041C000B9F1000F5C600CBF8824C82444EA0803DE
:1041D00085F0010447F83E3032700C70DFF81CE2C5
:1041E0008A4BDFF82482002840F09880BCF1400F11
:1041F0001BD144F0020407EBC403029FDFF8FCE18B
:104200005F60002A40F09F80020442F08802074469
:104210004EF8342086F800900D703B46402804D1BB
:1042200000207D4A019910800B607C4A01231370A5
:10423000E3E600F0C7FB41E6704B784872491A612B
:104240004FF0020E80F800E0754F0A707549196052
:104250009960754E754D764C9A610D213970FF212C
:104260003170DFF8F4E129702270724D724A8EF8D5
:1042700000109F27012406F8047C5D600470DA605A
:1042800007B0BDE8F08F6D4A47F838001378013366
:104290001370F3E543F82600694DD6E58B5D032BDB
:1042A00067D801A252F823F07D3E00007D3E000059
:1042B000FD420000F742000059495C4B80220D206E
:1042C00008701A70A2077FF5D8AECFE640F202322E
:1042D000914240F05681A98801F07F01042916D847
:1042E0006A88A2B94E4C89000C448146217841F07D
:1042F0000201217059E701238B55BFE500238B553F
:10430000BCE5A98801F07F01042940F24781444BB4
:104310000F221A70414A012313706EE640287FF67F
:1043200068AF44F002040EEBC401029E4E60AAB1D5
:10433000444A83F800903346403888F800504033B0
:104340004EF834206DE70204029B86F8009042F09C
:10435000C8020D7003444EF834205FE783F80090E4
:10436000029B304A88F80050403840334EF83420E1
:1043700057E719F0080F0CBF022303238B557DE587
:10438000314A0F211170EAE6304A5468002CBED041
:104390006888B5F804E003E00C325468002CB6D00D
:1043A00013888342F8D153887345F5D1000A032856
:1043B0000CBF2078108903E0254C02202270627027
:1043C000EA88824280F00C810F490D78402A45F03E
:1043D000020E944607EBCE0028BF4FF0400C04EBD2
:1043E0000C0344600293CCEB02004FEA0C484FF000
:1043F00001090022C824E9E6D40500200080FF1F3F
:104400002F08002030080020C80500205C0500208F
:1044100038080020EC050020080500209420074003
:10442000C0200740880040008820074080200740C7
:10443000982007400C05002060050020C9050020D9
:10444000F8040020C80040005D050020B4470100CA
:10445000CC050020F00400208C200740684A694CFD
:1044600012782270ACE76849684B694A0291694941
:10447000694C6A4D039405964FF0000988461C4626
:1044800016460495206828B1456800F053F928467F
:10449000002DF9D100232360049B30681A460023C5
:1044A00042F8293028B1456800F044F92846002D2B
:1044B000F9D100223260029A98F8003011460022A9
:1044C00041F8042B039A0291023B4FF0000122F8BD
:1044D0001910032B07D8DFE803F0340234024FF041
:1044E000010388F8003009F10109B9F1040F04F162
:1044F000040406F1040608F10108C3D1484B059EE7
:10450000DFF83091DFF8308100211970012518F8AB
:10451000013B09F8043B1A0718D4AC0044F002022E
:1045200044F00304002347F8323047F834303D4B61
:10453000994505F10105EAD196F8009089F001024C
:1045400033E64FF0000388F80030CCE700F0D2F8F3
:10455000AC0007EB451300F10802002837D05A6081
:10456000314B47F8343000F0C5F844F0010307EB55
:10457000C30200F1080100B351602C4A47F8332010
:10458000CCE7B1F5A06F7FF4C2AE00224FF0010975
:104590000BE642F221329142F7D0B8E66A88002A4F
:1045A0007FF4B5AE224C89000C448146217821F07D
:1045B00002012170F9E5022002E7194B44F00102E3
:1045C0001B7847F83200164A01331370A6E7144BE4
:1045D000134A1B78AC00013347F834001370C2E76C
:1045E0004028844628BF4FF0400C04EB0C03CCEB72
:1045F00000004FEA0C48029300224FF00109D9E570
:10460000D4050020CC050020B00500204C0500207A
:10461000A0050020D805002028080020F80400206C
:10462000C9050020D420074088004000C800400091
:10463000C0200740C4200740B04701002DE9F843DF
:10464000204C01F07DFE002204F1880023461A6010
:104650005A60083383424FF00001F8D11A4A1B4FC9
:1046600013681B4D1B481C4EDFF87880DFF878C0BC
:10467000DFF87890DFF878E043F480231360C4F328
:1046800007233B70C4F307432B70240EFF2302F56E
:1046900028320470114D88F8003011488CF8003031
:1046A000D4323370012389F8003070268EF8001060
:1046B0004FF40074102107F8183C2E70046011703C
:1046C000BDE8F8830080FF1F348004409C20074031
:1046D000B0200740B42007401020074049E400E024
:1046E00008E100E080200740882007409420074030
:1046F0000021074072B60D480268B2FA82F30B2B14
:1047000010DC4FF00041D94022EA0102026062B69B
:10471000074803EBC303DB00C2180021C150104659
:104720005160704762B60020704700BF80F2FF1FE3
:10473000BCEBFF1F0D4B0E4AC31AA2FB03231B0940
:104740000B2B0CD80B4A127852B972B60A484FF0AC
:104750000041026821FA03F31A43026062B670470F
:10476000064A1278002AF0D0FFF7BABABCEBFF1F56
:10477000398EE338C905002080F2FF1FD4050020E0
:1047800038B50F4D286878B143880288C1180133C5
:1047900093420C7A02D24380204638BDFFF7CAFF0D
:1047A000002320462B6038BD064B1B782BB103201D
:1047B000FFF762FA28600028E6D14FF0FF3038BDDD
:1047C000E8050020D405002010B5094C206818B178
:1047D00043881844007A10BD064B1B782BB1032088
:1047E000FFF74AFA20600028F2D14FF0FF3010BDE9
:1047F000E8050020D4050020044B054A1B6890887A
:104800001BB11A885B88D31A18447047E80500204A
:10481000280800200B4B1B789BB110B50A4C206870
:1048200048B1FFF787FF002303202360FFF724FA36
:1048300030B1FFF77FFF0320FFF71EFA0028F8D101
:1048400010BD7047D4050020E80500202DE9F04F89
:10485000DFF8F89083B0012289F80020019169B354
:10486000DFF8EC80364F019E8346D8F80000B0B3E5
:10487000344D4488C4F14001B14228BF314604EBB5
:10488000010E00221FFA8EFE2A70761AA0F802E0AE
:1048900000F1080251B1013C224459441BF8014B7C
:1048A00002F8014F8B45F9D1B0F802E0BEF13F0F9D
:1048B0000BD8254A05211170002ED6D1019800236E
:1048C00089F8003003B0BDE8F08F40220280014635
:1048D0000420FFF747FA0022C8F80020E9E73A78F9
:1048E0002AB3184D4AF2F9244FF0010A07E0013CBF
:1048F00016D02A78A2B900F0E7FA3A78BAB10420C3
:10490000FFF7D8F90728F2D889F800A0FFF7F2FEE0
:10491000C8F800000028ACD10C4B013C1870E8D15D
:1049200001234FF0FF302B7003B0BDE8F08F002360
:104930004FF0FF3089F8003003B0BDE8F08F00BFC2
:10494000D4050020E4050020DC050020DD05002062
:10495000E005002000B583B002AB012103F8010D92
:104960001846FFF773FF03B05DF804FBF8B5114B71
:104970001B788BB1104E114D346801272F7064B134
:104980000F4A638800271770214623800420FFF711
:10499000E9F9376000232B70F8BDFFF7ABFE084B39
:1049A00028B1014604201C70FFF7DCF9F2E71F7004
:1049B000F0E700BFD4050020E0050020DD05002061
:1049C000DC05002038B50E4B1B7873B90D4C2168FF
:1049D00061B103F0FF054B880B800420FFF7C2F99B
:1049E000256038BD084B01221A7038BDFFF782FEE2
:1049F0000028F7D00146BDE838400420FFF7B2B9DF
:104A0000DD050020E0050020DC050020C029F0B411
:104A100028BFC02172B6114B114E186000233360BD
:104A20007360B360F36033617361012799B15D090D
:104A300003F01F0456F8252007FA04F4013322433B
:104A40008B4246F82520F2D10023437001338B427C
:104A500000F58270F9D162B6F0BC7047F80500200D
:104A60000006002070B472B6204B196821B959684D
:104A700021B30433202200E000221D4E3478B1FA25
:104A800081F54FF00040E8400134E4B221EA000033
:104A90003470186062B6531B03EB83139A00154BF6
:104AA0001549186802F5FB531C330122C2540A78D9
:104AB000A242184438BF0C7070BC7047996821B985
:104AC000D96829B10C336022D7E708334022D4E7F4
:104AD000196921B9596929B11433A022CDE71033DE
:104AE0008022CAE762B60846E6E700BF000600205B
:104AF000FD050020F8050020F4050020427872B67C
:104B00000378012B03D9013B037062B6704770B480
:104B100056110A4D0A4C55F826102378D2434FF00F
:104B2000004002F01F0220FA02F21143013B45F857
:104B30002610237062B670BC704700BF00060020CC
:104B4000FD050020C368B3B130B401E0DB688BB170
:104B5000187A9042FAD158685C7A006950F824506B
:104B6000002DF3D140F82410087801300870DB687C
:104B7000002BEDD130BC7047437A8B4206D90369D4
:104B8000002253F8210043F821207047002070478D
:104B900038B5437A8B421AD9036953F82140002271
:104BA00043F821209CB12378012B0ED9FFF75AFF3F
:104BB000054628B14FF48072211D0430FEF776FAC5
:104BC0002378013B2370284638BD204638BD00209D
:104BD00038BD00BF4368427A5B7A9A420ED872B6FB
:104BE0000168CA680AB90AE01A46D368002BFBD1EB
:104BF000D060426801230B72137262B67047C860BE
:104C0000F7E700BF084B1A7862B930B40748084983
:104C1000D02505704FF0804401220C6010461A70B8
:104C200030BC704700207047FC0500205EE400E0C7
:104C300008E100E01A491B4A1B48F8B50B681B4DF8
:104C4000046843F080730B60136843F00103136042
:104C50002E6814B915E064699CB1237A002BFAD050
:104C600023682F681B68204698472B68E188DB1B68
:104C70001B099AB28B42A28088BFE2806469002C33
:104C8000EBD10A4B0A4A1B6810880A4C9B1B1B0974
:104C900099B28342218001D91180F8BDF8BD00BFCF
:104CA000FCED00E0001000E0F0050020041000E042
:104CB000FE05002018060020F0B572B699B902680A
:104CC0008AB103790F2B0ED8274C218841FA03F5BE
:104CD000ED070AD503F1007303F59063B2EB431FB0
:104CE00003D162B6F0BD204C2188002341FA03F2C3
:104CF00012F0010207D00133102BF7D162B6002267
:104D000003710260F0BD01259D402943218062B6F8
:104D1000164E174D174FDFF864E0D9B201713468B1
:104D200044F0020434602C6844F002042C60A6F5C0
:104D300080268224A5F5802503F100733C6003F5ED
:104D40009063223E243D0C4C8EF800105B013170C4
:104D50002970217003601A605A609A60DA601A61E3
:104D60005A619A61DA61F0BD1A0600204080044061
:104D70003C800440008000401F8000401A800040BA
:104D800003790F2B11D8094A10B4137072B6084971
:104D900004790A880123A34022EA03030B8062B648
:104DA0001022002310BC0271036070471A8000407B
:104DB0001A060020F8B572B106460F4614460025C3
:104DC000336817F8011B1B6830469847013C0544BF
:104DD000F6D12846F8BD1546FBE700BFF0B5164DE5
:104DE0002A680AB31549164BDFF85CE082FB0167BD
:104DF00081FB0214D617D1191444C6EB2141C6EB2E
:104E0000244403FB04F40EFB112244F2A71303FB1A
:104E10000243002B02DA03F10043013BB3FBF0F243
:104E20002B6000FB1230F0BD064B2B60B3FBF0F2A1
:104E300000FB1230F0BD00BF1C0600205F0B4E834C
:104E4000ECF4FFFF42CE0C1F1DF3010008B1FFF789
:104E5000C5BF704710B4019C401AE41A04FB00F46B
:104E6000521A94FBF2F010BC1844704708B5FBF7D7
:104E700025FBFBF755FB00F027F8FAE703F05ABDD6
:104E800003F060BDFFF7C6BCFFF770BDFFF79CBC29
:104E9000FFF776BCFFF7B0BC08461146FFF7D6BC5B
:104EA0000846FFF757BD00BF704700BF044B054AD7
:104EB0001A604FF47A71002299601A711A73704760
:104EC000200600209447010010B5154C237803B14B
:104ED00010BD01232370FFF78FFC58B900F0E8FAEA
:104EE00070B900F087FE88B901F050F9A0B900232D
:104EF000237010BDFFF7D8FF00F0DAFA0028F0D0D9
:104F000001F0D4FA00F076FE0028EDD001F082FB2B
:104F100001F03CF90028EAD001F030FCE7E700BFDF
:104F200030060020F0B44D1E2E46002400E001346F
:104F3000B0FBF2F302FB1300092800F130078ABF2F
:104F40003730F8B2C0B206F8010F1846002BEED188
:104F50000A1953704CB1107815F8016F287001339D
:104F6000E01A834202F80169F5DB0846F0BC70479D
:104F70002DE9F84F214B1B6807460BB101221A702F
:104F8000DFF888901E4D99F80040DFF884801D4EB0
:104F900001343F2C8ABF4FF0000A5FFA84FA54466E
:104FA000AB462B78A34216D1FEF740FB40281FDC0E
:104FB00033791B06F5D59BF8003001333F2B86BFB4
:104FC00000221346DAB218F80330DBB2F3712A700C
:104FD0002B78A342E8D00C490A4BFFB208F80470C2
:104FE0000120BC22087089F800A0DA70BDE8F88FB3
:104FF000FF28D6DDFFF768FFD3E700BFC406002017
:10500000C106002000A00640C0060020C8060020FF
:105010003C060020274A28491368F0B543F4806312
:1050200013600A78254F264E264D274C274900232A
:105030003B7033702B7023700B70002A35D0152A0B
:1050400026D0234B1B78012B2AD0052B03D1214BD3
:105050004FF451721A60204B204C2149C0F3443662
:10506000C0F347151E7000F01F005D7004224FF062
:10507000020E88273C26402598729A704FF4005003
:1050800083F813E05A751F74DE7025700860F0BD58
:10509000144B40F213321A600D4B1B78012BD4D104
:1050A000114B4FF451721A60D5E7104B40F2133296
:1050B0001A60C6E7348004407C06002038060020D1
:1050C00039060020C8060020C1060020C0060020C6
:1050D00084F2FF1F1CC0044000A006402DE400E045
:1050E00004E100E018C0044044A0044040A0044093
:1050F000144B14499B7803F0EC0200F003031343B4
:10510000420700F00F0248BF43F01003042A8B70DF
:1051100013D00C4B0B4A5B79C10603F0EF0348BF79
:1051200043F0100353719379820603F0EF03054AAD
:1051300048BF43F01003937170478B7943F04003ED
:105140008B71E6E700A00640214B1B685B053ED54E
:1051500010B5204C237823B1FFF7B6FE2378002B3F
:10516000FAD11D481D4A1E4B4FF400540021046023
:10517000D1701B78E3B1152B03D11A4B40F2031207
:105180001A60194B1B7803F07F03012B1AD0052BF3
:1051900003D1164B40F203121A60154B15481649FD
:1051A0001A68002303700B700AB10123137010BD3D
:1051B000124B40F203121A600B4B1B7803F07F0373
:1051C000012BE4D10E4B40F203121A60E5E7704761
:1051D00034800440C006002084E100E000A00640C6
:1051E0007C06002018C0044084F2FF1F1CC004404D
:1051F00034060020380600203906002040A0044074
:1052000044A004400A4A38B50546137803F0FF0469
:10521000002BFAD101212846FEF76AFC21462846D8
:10522000FEF752FC034A044B52F835201A6038BD91
:10523000C00600207C460100C406002009B140F0F1
:105240008000174A1378984216D010B4154C246881
:1052500064050FD503F07F03012B1CD0052B11D063
:10526000002900F07F0114BF6023442301290DD0E1
:10527000052902D0107010BC70470B4943F44073ED
:105280000B60F7E7084B00241C60E9E7074943F48B
:1052900040730B60EEE7054B00241C60E0E700BFA5
:1052A00084F2FF1F348004401CC0044044A004402A
:1052B000104B1A7882420AD00F490968490505D572
:1052C000AAB1152A09D068B1152801D01870704705
:1052D0000A4A40F213311160F8E7084A00211160D0
:1052E0000028F1D1064A40F213311160EEE704497B
:1052F0000A60E8E77C0600203480044018C00440BF
:1053000040A004400D4B1B6813F4806305D0212896
:1053100005D90B4B00201860704718467047094BA1
:1053200010B5074C53F8303023600121FEF7E0FB45
:10533000236800221A70012010BD00BF3480044091
:10534000340600207C4601000F4B1B6813F4806379
:1053500008D0122808D0142811D00C4A537B03F02F
:10536000FE03537300207047094B40F202321A606B
:10537000064A537B43F00103537301207047054BEA
:1053800040F202321A60F3E73480044000A0064085
:105390000CA0044014C00440034B1B685B0501D5FE
:1053A000FFF7E6BD704700BF348004402DE9F84F99
:1053B000294B1B685A0548D5284B1B6805460BB17D
:1053C00001221A7005EB010A554540D2DFF89C8096
:1053D000234CDFF89C90234F0AE015F8012B09F8C5
:1053E0000B20214A0123AA45137088F800602ED0B3
:1053F00098F80030227803F1010BBBF13F0F86BF14
:105400000026B3465FFA8BF69345E6D1BC22FA70CC
:1054100005E03A7913060BD422789345DDD1FEF7E7
:1054200005F94028F5DDFF28F6DDFFF74DFDF3E730
:10543000227801323F2A86BF00210A46D1B219F8EC
:105440000220D2B2FA712170E6E7BDE8F88F054B71
:10545000BC22DA70BDE8F88F34800440C406002016
:10546000C106002000A00640C0060020C80600209B
:105470003C06002010B5044C237823B1FFF724FD2F
:105480002378002BFAD110BDC0060020064A074B36
:105490001B781078DBB2C0B283422CBF3F3000F1E2
:1054A000FF30C01A704700BFC1060020C8060020A8
:1054B000054A064B10781B78C0B2DBB2984238BF61
:1054C0004030C01A704700BF38060020390600205F
:1054D00030B4154B154C1A782378D2B2DBB29A420D
:1054E0001ED001333F2B0ED91149124B0878196891
:1054F0000023C0B2237021B1D31A1A2B01DC002380
:105500000B7030BC70470A480A49C05C0968DDB2BC
:10551000C0B225700029F4D09A4238BF4032EBE780
:105520004FF0FF30EDE700BF3806002039060020BD
:105530008006002034060020084A094B12781B78A8
:10554000DBB29A4207D00133402B28BF0023054A23
:10555000D05CC0B270474FF0FF3070473806002073
:1055600039060020800600200D4B1B685B0516D510
:1055700030B40C4B0C4CDA780C480D4902F0CB02DD
:105580004025DA705D74DA7842F03402DA702378FC
:105590000268DBB20B700AB10023137030BC704795
:1055A0003480044000A00640390600203406002064
:1055B00038060020F0B4384B1A7912F0300F2CD096
:1055C00072B6997D01F0FF0200293DD062B6334FDB
:1055D000334938780D78334E1C46C0B2EDB2431CC7
:1055E000402BE17928BF0023AB4202F1FF32C9B260
:1055F0001CBFF154184612F0FF02F0D12A4B1B6871
:10560000C2B23A704BB1A84236BFC5F14005401B4B
:1056100040192728C4BF01221A701F49CA78D2B284
:10562000150616D452060DD51B4B1B795B0609D502
:105630001E4B1F491B6800220A7003B11A70164BDB
:105640003C22DA70F0BC70474022D9795A7462B6B5
:10565000E3E70B791C06E5D5164B174E1C7833781B
:10566000E4B2DBB29C420ED0144D01E0A3420AD05A
:105670000133402B28BF00230879E85CC0B2C87111
:10568000087D0728F2D9DBB2034933700B7918067D
:1056900044BF7C23CB70C5E700A00640380600203D
:1056A000390600208006002034060020C4060020B1
:1056B000C0060020C8060020C10600203C060020CD
:1056C000274A28491368F0B543F4006313600A7849
:1056D000254F264E264D274C27490023092A3B708B
:1056E00033702B7023700B7035D01A2A26D0234BC1
:1056F0001B780A2B2AD01F2B03D1214B4FF4517258
:105700001A60204B204C2149C0F34436C0F34715A2
:105710001E7000F01F005D7004224FF0020E8827FB
:105720003C26402598729A704FF4004083F813E0AD
:105730005A751F74DE7025700860F0BD144B40F27E
:1057400013321A600D4B1B780A2BD4D1114B4FF436
:1057500051721A60D5E7104B40F213321A60C6E757
:105760003480044085F2FF1F3C070020D106002052
:10577000440700203D070020D006002086F2FF1FCE
:1057800000D0044000B006402FE400E004E100E057
:1057900004D0044010B004400CB00440144B144931
:1057A0009B7803F0EC0200F003031343420700F080
:1057B0000F0248BF43F01003042A8B7013D00C4B28
:1057C0000B4A5B79C10603F0EF0348BF43F01003B7
:1057D00053719379820603F0EF03054A48BF43F003
:1057E0001003937170478B7943F040038B71E6E7A8
:1057F00000B00640224B1B681B053FD510B5214C5D
:10580000237823B1FFF760FB2378002BFAD11E48E1
:105810001E4A1F4B4FF4004400210460D1701B78D6
:10582000092B1CD01A2B03D11A4B40F203121A6019
:10583000194B1B7803F07F030A2B1AD01F2B03D1BF
:10584000164B40F203121A60154B164816491A6897
:10585000002303700B700AB10123137010BD134BAA
:1058600040F203121A600C4B1B7803F07F030A2BE3
:10587000E4D10F4B40F203121A60E5E7704700BF16
:1058800034800440D006002084E100E000B00640EF
:1058900085F2FF1F04D0044086F2FF1F00D00440B1
:1058A000CC0600203C070020D10600200CB00440AC
:1058B00010B004400A4A38B50546137803F0FF04D7
:1058C000002BFAD101212846FEF712F9214628467D
:1058D000FEF7FAF8034A044B52F835201A6038BD37
:1058E000D00600207C4601004007002009B140F0AE
:1058F0008000174A1378984216D010B4154C2468CB
:1059000024050FD503F07F030A2B1CD01F2B11D0C9
:10591000002900F07F0114BF602344230A290DD021
:105920001F2902D0107010BC70470B4943F440731C
:105930000B60F7E7084B00241C60E9E7074943F4D4
:1059400040730B60EEE7054B00241C60E0E700BFEE
:1059500086F2FF1F3480044000D0044010B00440A1
:10596000124B1A7882420CD011490968090507D5F3
:10597000092A16D01A2A0AD009280DD01A2801D0CF
:10598000187070470B4A40F213311160F8E7094A6A
:10599000002109281160F1D1074A40F2133111604A
:1059A000EEE7054A00211160E6E700BF85F2FF1F20
:1059B0003480044004D004400CB004400D4B1B68FC
:1059C00013F4006305D0212805D90B4B0020186083
:1059D000704718467047094B10B5074C53F83030E4
:1059E00023600121FEF784F8236800221A70012049
:1059F00010BD00BF34800440CC0600207C4601006E
:105A00000C4B1B6813F4006306D0172806D00A4A13
:105A1000537B03F0FE03537300207047074B064A85
:105A200040F202311960537B43F0010353730120AC
:105A3000704700BF3480044000B0064008B0044006
:105A40002DE9F84F234B1B681A053BD5224B1B68E9
:105A50000BB101221A70DFF89090204D99F80040A8
:105A6000DFF888801E4E0134272C8ABF4FF0000AD1
:105A70005FFA84FA54460746AB462B789C4216D10F
:105A8000FDF7D4FD40281FDC33791B06F5D59BF8C4
:105A900000300133272B86BF00221346DAB218F8F4
:105AA0000330DBB2F3712A702B789C42E8D00D49A9
:105AB0000B4BFFB20120BC2208F80470087089F873
:105AC00000A0DA70BDE8F88FFF28D6DDFFF7FCF9FB
:105AD000D3E700BF34800440400700203D0700208A
