:1000000000800020BD010000D13E0000893E0000BC
:10001000893E0000893E0000893E0000893E0000C4
:10002000893E0000893E0000893E0000D13E00006C
:10003000D13E0000893E0000E5370000E9380000AD
:10004000D13E0000D13E0000D13E0000D13E000074
:10005000D13E0000D13E0000D13E0000D13E000064
:10006000D13E0000D13E0000D13E0000D13E000054
:10007000D13E0000D13E0000D13E0000D13E000044
:10008000D13E0000D13E0000D13E0000D13E000034
:10009000D13E0000D13E0000D13E0000D13E000024
:1000A0008932000095320000D13E0000D13E0000B0
:1000B000D13E0000D13E0000D13E0000D13E000004
:1000C000D13E0000D13E0000D13E0000D13E0000F4
:1000D000D13E0000D13E0000D13E0000D13E0000E4
:1000E000D13E0000D13E0000D13E0000D13E0000D4
:1000F000D13E00002D540000D13E000059550000B3
:10010000D13E000085560000D13E0000D13E0000E7
:10011000D13E0000D13E0000D13E0000D13E0000A3
:10012000D13E0000D13E0000D13E0000D13E000093
:10013000D13E0000D13E0000D13E0000D13E000083
:10014000D13E0000D13E0000D13E0000D13E000073
:10015000D13E0000D13E0000D13E0000D13E000063
:10016000D13E0000C9460000D13E0000D13E000053
:10017000D13E0000D13E0000D13E0000D13E000043
:10018000D13E0000D13E0000D13E0000D13E000033
:10019000D13E0000D13E0000D13E0000D13E000023
:1001A000D13E0000D13E0000D13E0000D13E000013
:1001B000D13E0000D13E0000A1350000564B4CF26C
:1001C000205210B51A804DF628121A8000BF00BFC9
:1001D00003F082FE514B4FF010621A60504A9A6051
:1001E000504ADA60504A136813F4807304D14F49BF
:1001F0000B604FF4A85313604D4B1A78110703D5C9
:100200001A7842F008021A704A4B4B492A221A7097
:100210004A4A4B4B8B4204D252F8040F43F8040B6A
:10022000F8E7484B484900228B4202D243F8042B9E
:10023000FAE74649464A002352F8230041F82300D2
:1002400001336F2BF8D1434B434A802103F8011B44
:100250009342FBD1414B3D4A1A60414B8A221A70AE
:10026000A3F5805324225A70A0221A709A7992071B
:10027000FCD59A79D406FCD43A4A937903F00C035E
:10028000082B384BF9D103221A7140225A719A79FE
:100290009006FCD5334A9179324B4906FBD5324A58
:1002A000324911600221516020221A709A7902F0BD
:1002B0000C020C2AFAD12E4B2E4A1A602E4B2F4AD2
:1002C0001A6000225A60072243F8042C2C4AC3F813
:1002D0000C2D62B604F0E2F8144B1B68DA0705D562
:1002E000284803F063FF284B284A1A60284B1B78E4
:1002F0005B0609D5244C254B22689A4204D121483B
:1003000003F054FF0023236007F00EFB03F0EAFD27
:1003100003F018FDFEE700BF0E20054030800440CA
:10032000823F04000100002B10D0034014D0034092
:1003300002D0074000E00740DCFDFF1F2C3D01001C
:1003400020EFFF1FE0FDFF1F000A002000EAFF1F53
:100350000000000000E400E05FE400E008ED00E0E1
:100360000050064000400640448004400000030165
:1003700004800440C010050014E000E0FF76010096
:1003800000002020E10F695D1CE00340A5C3945AE2
:1003900000F00740FFFFFFFFFFFFFFFFFFFFFFFF32
:1003A000FFFFFFFFFFFFFFFFFFFFFFFFFFFFFFFF5D
:1003B000FFFFFFFFFFFFFFFFFFFFFFFFFFFFFFFF4D
:1003C000FFFFFFFFFFFFFFFFFFFFFFFFFFFFFFFF3D
:1003D000FFFFFFFFFFFFFFFFFFFFFFFFFFFFFFFF2D
:1003E000FFFFFFFFFFFFFFFFFFFFFFFFFFFFFFFF1D
:1003F000FFFFFFFFFFFFFFFFFFFFFFFFFFFFFFFF0D
:10040000FFFFFFFFFFFFFFFFFFFFFFFFDEF9FFFF23
:1004100010B5054C237833B9044B13B10448AFF33E
:1004200000800123237010BDE0FDFF1F00000000CD
:10043000283D0100084B10B51BB108490848AFF32F
:1004400000800848036803B910BD074B002BFBD0A0
:10045000BDE81040184700BF00000000E4FDFF1F8A
:10046000283D0100DCFDFF1F0000000010B5044620
:1004700003F040F8204610BD002310B4104C417228
:10048000026104600372C36041B1194600E0026971
:1004900042F82310427A01339A42F8DC094B1A6879
:1004A0000AB90BE01A465369002BFBD150610023B7
:1004B00043618380C380837210BC70471860F6E785
:1004C00094820000D006002013490A68002310B46B
:1004D000124C0460437203610372C3600AB919E0ED
:1004E0001A465369002BFBD1506100230C4943612C
:1004F0004FF080428380C38083728361C361036253
:100500004362C36203630387438783870160826218
:1005100010BC70470860E8E7D00600209482000015
:100520006436010038B5144B144D154804220024DC
:100530005A871C6264216A872C6202F0B1FE214650
:10054000104801F01FFD204603F03AFB214602202F
:1005500003F050FF01210D2003F04CFF0121032087
:1005600003F048FF01210D2003F030FF012103209B
:10057000BDE8384003F02ABF28010020E800002031
:100580000082FF1F380200202DE9F8430E2003F0FF
:100590003DFB7C4C7C4B2568186006F079FD2946B4
:1005A00006F0C0FC794B7A49186006F0C5FD294673
:1005B00006F0BAFC4FF07E51206006F0B3FC75499E
:1005C000754E764D764C774F06F0B6FD764906F0BF
:1005D00067FE002106F0A8FC06F08AFF4CF6CC432B
:1005E00030606B620F2003F011FB704BD4F8008079
:1005F000186006F04DFD414606F094FC6C4B6D49C9
:10060000186006F099FD414606F08EFC6A492060AC
:1006100006F092FD5F4906F043FE4FF07E5106F072
:1006200083FC00213860044606F024FF002840F0D7
:10063000FF836249204606F03BFF002800F0AF83AD
:100640005F4BEB61112003F0E1FA3468041900F10B
:10065000B88340F2FE339C4240F357844D4840F249
:10066000FF34584E584BD6F800801C60414606F0C7
:1006700059FC564B4F49186006F05EFD414606F0A6
:1006800053FC5349306006F057FD4249514E524CDD
:1006900006F006FE002106F047FC504B186081462C
:1006A00006F026FF4E494F4A0860411C56F820606C
:1006B00052F8218006F0ECFC0146484606F032FC78
:1006C000034602206B636363EE62C5F83080E66226
:1006D000C4F8308003F080FE434D3F4E01280CBF2C
:1006E0004FF07E534FF0804310202B6003F08EFAC2
:1006F00006F0CEFC3D4906F01FFD264906F0D0FD70
:100700003B4906F00FFC396806F00EFC394B2968AE
:1007100018604CF6CC43636206F0C2FD002105462A
:1007200006F0A8FE002840F08E832449284606F0F3
:10073000BFFE002800F02783214BE361122003F065
:1007400065FA06F0A5FC4FF07C5106F0F5FC114966
:10075000294C06F0A5FD002106F0E6FB274B2849B1
:1007600018604FF40043A361054606F0A1FE00287F
:100770004CD12449284606F07DFE002800F0248351
:10078000214844E0A402002070020020D000002094
:100790000AD7A33B00C07F4478020020E800002075
:1007A000AC020020BC00002000807F44A403002095
:1007B000740200200AD7233C0080F943A655AC46BA
:1007C0000000FE7FC40000202802002060FFFF1F01
:1007D0000000AE4224F0FF1F2801002010FFFF1F81
:1007E0007C02002088F1FF1F2C0200200000204125
:1007F0000000A040C0000020F402002034020020CD
:1008000000FEFF4600FEFFC600000180BB48E0611D
:10081000002313202362636203F0F8F906F038FC2A
:10082000B749B84C06F088FCB74906F039FDB7491E
:1008300006F07AFB2060142003F0E8F906F028FCAB
:10084000B34906F079FCB04906F02AFD4FF07F511C
:1008500006F06AFB2468AF4BAF4918600546204696
:1008600006F008FE002840F0E082AC49204606F081
:100870001FFE002800F0B082A94BAA4EAA4CAB493B
:10088000A6612846E36106F0F5FD002840F0C88225
:10089000A749284606F00CFE002840F0DD822946D4
:1008A0004FF07E5006F0FCFC4FF09D4106F044FCFA
:1008B00006F01EFE6062172003F0A8F900EB40006E
:1008C000400048BF00F2FF309A4B9B4C9B49E362CB
:1008D0008012002733F9102062870860002622204A
:1008E00027622363666303F091F906F0D1FB944914
:1008F00006F022FC844906F0D3FC924906F014FB72
:10090000914B31461860054606F0B4FD002840F0D2
:1009100098828E49284606F0CBFD002840F07D8263
:100920008B49284606F008FC06F008FE894BE0617A
:10093000984200F27282232003F068F906F0A8FBC7
:10094000714906F0ADFC002106F0EEFA824B002161
:100950001860054606F08EFD002840F070824FF0CA
:100960007E51284606F0A4FD002800F0D3824FF403
:10097000803363621E2003F049F9784B784D03FB06
:1009800000F00028B8BF00F2FF30801200F58C4361
:1009900050331F202B6003F039F9C0EB4074D0EBCB
:1009A000C40048BF00F2FF3083126E4A286803F18A
:1009B0000B04146006F06CFB01466B4806F070FCFB
:1009C0004FF07C5106F0B0FA06F092FD002840F39B
:1009D00034824028A8BF4020C0B2644AE3B2102B42
:1009E000507600F21882002B08BF012313761520E1
:1009F00003F00CF906F04CFB5D495E4C06F09CFBE5
:100A0000414906F04DFC414906F08EFA206016205F
:100A100003F0FCF806F03CFB3D4906F08DFB3A493B
:100A200006F03EFC4FF07F5106F07EFA2468524BF0
:100A3000394918600546204606F01CFD002840F0A4
:100A4000F1813649204606F033FD002800F0468249
:100A5000334B344E494C3549A6612846E36106F0D4
:100A600009FD002840F0D5813149284606F020FDD7
:100A7000002840F0EF8129464FF07E5006F010FC30
:100A80004FF09D4106F058FB06F032FD60622420D5
:100A900003F0BCF800EB4000400048BF00F2FF301C
:100AA000374B384C3849E3628012002733F9102065
:100AB000628708600026252027622363666303F0AF
:100AC000A5F806F0E5FA1E4906F036FB0E4906F0D9
:100AD000E7FB1C4906F028FA2C4B31461860054606
:100AE00006F0C8FC002840F0B3811849284606F0FB
:100AF000DFFC002840F08A814AE000BF0000FF7F51
:100B000000C099455402002000C07F440000A0426C
:100B100000006040A80300200000A0411EDE8946BE
:100B2000008C3C4B00BE6C5060FEFF1F3333333FE4
:100B30000000A04000F0FF1F68010020B800002066
:100B400085EB9F410AD7233CA8020020A655AC465E
:100B50004B24BE470000FE7FA0FEFF1FB2B9FFFF7F
:100B6000300200209CFEFF1FA6552C4714FFFF1FDC
:100B70000020694658020020AC030020B00200208B
:100B80000CF0FF1FA8010020EC020020FCFDFF1F5D
:100B9000B249284606F0D0FA06F0D0FCB04BE0612E
:100BA000984200F233811A2003F030F806F070FA10
:100BB000AC4906F075FB002106F0B6F9AA4B0021FE
:100BC0001860054606F056FC002840F03F814FF0C3
:100BD0007E51284606F06CFC002800F0A4814FF4FA
:100BE0008030606272B6A14BA14ADA6100221A76A7
:100BF00062B6A04BA04C1A624FF480311B205A629F
:100C00009961D96103F002F800EB4000400048BF51
:100C100000F2FF30994B9A49E3628012002733F9C2
:100C200010206287086000261C2027622363666309
:100C300002F0ECFF06F02CFA924906F07DFA8949A1
:100C400006F02EFB904906F06FF9904B3146186084
:100C5000054606F00FFC002840F0ED808C49284640
:100C600006F026FC002840F0CE807C49284606F09D
:100C700063FA06F063FC7A4BE061984200F2C380AD
:100C80001D2002F0C3FF06F003FA764906F008FBC8
:100C9000002106F049F97F4B00211860054606F057
:100CA000E9FB002840F047814FF07E51284606F0CE
:100CB000FFFB002800F041814FF48032764B6262E6
:100CC00076497748002443F2333502229D61DC6186
:100CD0001C625C6200F0F6FD02227049714800F06F
:100CE000F1FD02226D49704800F0ECFD6F4800F004
:100CF000C9FC4FF07C5106F015F96D4906F01CFA5D
:100D0000014606F011F9002106F00EF906F0F0FB9D
:100D1000684A034601460420136003F059FA664806
:100D200000F0B0FC4FF07C5106F0FCF8604906F092
:100D300003FA014606F0F8F8002106F0F5F806F08F
:100D4000D7FB5E4A034601460520136003F040FAD4
:100D50005B4800F097FC4FF07C5106F0E3F85449F3
:100D600006F0EAF9014606F0DFF8002106F0DCF8AB
:100D700006F0BEFB534A0346014613600620BDE859
:100D8000F84303F025BA3549284606F0D5F906F0B0
:100D9000D5FB334BF06198427FF6D0ACCCE42F49C1
:100DA000204606F0C9F906F0C9FB2D4BE8619842D0
:100DB0003FF646AC112002F029FF346804197FF594
:100DC00048AC002000244CE44FF08F41284606F048
:100DD000B3F906F08DFB1AE520463B4906F0ACF965
:100DE0004FF09E41044606F0A7F906F081FB064647
:100DF000204604F0F5FC4FF09E4106F09DF906F008
:100E000077FB03463AE5164BE36139E7144BE361A0
:100E1000C9E62E483AE61023E8E5114BE3618AE57E
:100E20002A4847E52A4B2B4E14E6294B294E25E547
:100E30000023EB6106E4E76122E70120CDE5002312
:100E400097E5E76177E50023F36177E40020C8E6E2
:100E5000E761A8E6204819E61F482BE54B24BE476A
:100E60000000FE7F00C07F44C800002038FFFF1F45
:100E70000000FF7F64030020E801002018F0FF1F3E
:100E8000F002002085EB9F410AD7233CCC000020D4
:100E9000A655AC46800200202C030020ECF2FF1F78
:100EA000A4FEFF1FC8FEFF1FECFEFF1F00FEFF1F7A
:100EB00000007F439C03002030FEFF1FA0030020A2
:100EC000B003002034FFFF1F4656153800B76D5B96
:100ED0007A5517007B551700D0CCCC0C20461B4907
:100EE00006F02AF94FF09E41044606F025F906F077
:100EF000FFFA0646204604F073FC4FF09E4106F0D0
:100F00001BF906F0F5FA0346A4E5204606F0C0F802
:100F1000FFF7A7BB4FF08F41284606F00DF906F00A
:100F2000E7FA034625E54FF08F41284606F004F91D
:100F300006F0DEFA55E60022C0E64FF08F41284663
:100F400006F0FAF806F0D4FA0246B7E64656153827
:100F50002DE9F04F8748884FDFF894A2874E884DDF
:100F6000DFF8908283B0FFF7AFFA8648FFF7ACFA5C
:100F70008548FFF7A9FA07F1280204213846FFF750
:100F80007BFA824BC7F800A04FF4803903F11802B6
:100F900018460121C7F81890C7F81C90C7F8209090
:100FA000C7F82490FFF768FA7848794A79490560CC
:100FB00006F0A8FC06F1340202213046FFF75CFA85
:100FC000754B3360754BB361A3F57C53183BF361EC
:100FD0004FF4805300243362714B736221462246E2
:100FE0007048B462F4623463FFF746FA6D4A6E4BA0
:100FF0006E481476D4611360FFF766FA6C4B0121DA
:1010000003F118021846FFF737FA694B68499C62EA
:101010000022C3F8008067480023C1E90823FFF7D6
:1010200053FA654B012103F11C021846FFF724FA1D
:10103000614A624B1360624B012103F118021846AA
:10104000FFF71AFA5E48524A5249056006F05AFC08
:101050005C4B042103F128021846FFF70DFA5A4BA6
:1010600003F118021846574B0121C3F800A0C3F83A
:101070001890C3F81C90C3F82090C3F82490FFF791
:10108000FBF95148424A4349056006F03BFC4F4B8F
:101090004F4D03F1340218460221FFF7EDF94B4B97
:1010A0003D4A1A604B4B3D4903F118021846474B25
:1010B000DD614FF480551D62394D99615D620121FA
:1010C0009C62DC621C63FFF7D7F9434B434D03F18D
:1010D000180218463F4B4FF0000C01214FF0000B57
:1010E000C3E908BC9C62C3F80080FFF7C5F93C4B1C
:1010F00003F118021846384B4FF0000C02214FF054
:10110000000BC3E908BC9C62C3F80080FFF7B4F988
:10111000334A344B1360344B042103F12802184640
:10112000FFF7AAF9304A3049DFF8CCE0C2F800A056
:10113000012005F118022346C1F81890C1F81C904F
:10114000C1F82090C1F824902C722146EC60C5F8BB
:1011500000E068722A612C4600E0226942F8231000
:101160006A7A1E4801339A42F7DC204B1A68002A3B
:1011700045D151E228010020F402002060FEFF1F4B
:1011800028360100E800002068010020A4FEFF1FAF
:10119000FCEFFF1FAD1800003436010000B28E04D2
:1011A00080F9855A38FFFF1F58360100E8010020FA
:1011B00000FEFF1FA801002014FFFF1F10360100D2
:1011C000C8FEFF1F64030020ECFEFF1FB0020020DA
:1011D000E8728E04B003002030FEFF1F38020020AA
:1011E000840200201C3601002C030020D0060020C1
:1011F0004036010000340100948200001A46536911
:10120000002BFBD155610024DFF8A883D14BD248D5
:101210006C61AC80EC80AC722B6000F00BFECF4BAD
:10122000DFF89493C8F8003040464FF0010388F887
:10123000093088F80840C8F80470C8F80C4088F8ED
:10124000104002F023F9C64AC649DFF870A3DFF860
:1012500070B3404606F056FBDFF86883C24BC9F80E
:101260000030484689F80840C9F8047089F80940F8
:10127000C9F80C4089F8104002F008F9B84AB94999
:10128000484606F03FFBDFF8409388F808404FF0EF
:101290000103404688F80930C8F80460C8F80C40DB
:1012A00088F81040C8F8009002F0F0F8AC4AAD4958
:1012B000404606F027FBDFF81483AC4BCAF8043035
:1012C0005046CAF800908AF808408AF80940CAF8DF
:1012D0000C408AF8104002F0D9F8A14AA149DFF881
:1012E000F092504606F00EFB404688F80840C8F8D9
:1012F0000070C8F8046088F80940C8F80C4088F805
:10130000104002F0C3F8964A9649994FDFF8C4A2FC
:10131000404606F0F7FA954BDFF8BC82C9F800307A
:101320004846944BC9F8043089F8084089F80940C8
:10133000C9F80C4089F8104002F0A8F8884A894999
:10134000484606F0DFFA8C4BC8F80430404688F86F
:101350000840C8F8006088F80940C8F80C4088F8D0
:10136000104002F093F87E4A7E49DFF87092834E77
:10137000404606F0C7FA824B3B60824B7B603846A2
:101380004FF001033C727B72FC603C7402F07EF80B
:10139000734A74497C4B0193384606F0B3FA794B93
:1013A000CBF8043058468BF808408BF80940CBF84E
:1013B0000C408BF81040CBF8009002F067F8684AB8
:1013C0006849DFF81C82714F584606F09BFA704B53
:1013D000CAF804305046CAF800908AF808408AF8E3
:1013E0000940CAF80C408AF8104002F04FF85C4AF5
:1013F0005C49DFF8F0B1DFF8F091504606F082FA70
:10140000644BC8F8043040464FF0010388F80930B7
:1014100088F80840C8F80C4088F81040C8F8006008
:1014200002F034F84E4A4F49DFF8C0A1404606F0BA
:1014300069FA594B7B6038463E603C727C72FC60B6
:101440003C7402F023F84749454ADFF8A481534E23
:10145000384606F057FA019B474A1A6018464D4A2B
:101460001C725A605C72DC601C7402F00FF8019B05
:101470003B4A3C494A4F184606F044FA444BCBF8E5
:1014800000305846474BCBF804308BF808408BF8B7
:101490000940CBF80C408BF8104001F0F7FF304AC0
:1014A0003049584606F02EFA364BCAF800305046FE
:1014B0003D4BCAF804308AF808408AF80940CAF857
:1014C0000C408AF8104001F0E1FF254A25495046BA
:1014D00006F018FA304BC9F800304846334BC9F8CB
:1014E000043089F8084089F80940C9F80C4089F8A7
:1014F000104001F0CBFF1A4A1A49484606F002FA9A
:101500004FF0010388F80930224BC8F800304046FC
:10151000254BC8F8043088F80840C8F80C4088F813
:10152000104001F0B3FF0E4A0E49404606F0EAF9BA
:101530001D4B3B6038461E4B7B603C727C72FC60EE
:101540003C7401F0A3FF064A0649384606F0DAF972
:1015500050E000BF4C360100380200202801002076
:10156000FCEFFF1F6D040000E8000020A4FEFF1F39
:101570005C02002000FEFF1F14FFFF1FA8010020D7
:1015800038FFFF1F640300202C00002018000020FB
:10159000C8FEFF1FB0020020ECFEFF1FA4000020C9
:1015A00090000020B00300208402002030FEFF1FC6
:1015B0002C03002064FFFF1F78FFFF1FA0FFFF1F09
:1015C000D40000208CFFFF1F68010020B4FFFF1F24
:1015D000C8FFFF1FF0FFFF1FDCFFFF1FE801002017
:1015E000040000204000002068000020540000207B
:1015F0007C000020094B3472304686E82800747263
:10160000F460347401F042FF054A0649304603B0E5
:10161000BDE8F04F06F076B91860F4E52C03002021
:10162000FCEFFF1F6D0400002DE9F0410021804612
:1016300001F0FEFEF8B1D8E90823011D00F5827E15
:101640000F684E688D68103151F8044CC7FBC723F2
:10165000C6FBC623C5FBC523C4FBC4238E45EFD8F8
:10166000D8F828100131C8E90823C8F82810BDE8C7
:10167000F04101F099BED8F828300133C8F828307D
:10168000BDE8F081F8B572B6002600270023D0E946
:101690000845826A8362C0E9086762B6D2012046C3
:1016A000294605F06BFF05F009FD04F0D7F8024963
:1016B00005F0F6FDF8BD00BF00FEFF46F8B5037E5D
:1016C000102B04464FF000014FD0204601F0BCFE25
:1016D0000546002868D0637E012B57D9227E102A48
:1016E0004FF000062AD005EB4602B2F90470FBB1B8
:1016F000802E41D005EB46000230324601E0802AC0
:101700003AD0237EC3F1100327FA03F101FA03F361
:1017100020F8023F0132637E911B9942EFDB802A61
:101720002AD0164605EB4602B2F90470002BDFD131
:101730003246F4E73246802A1ED0164605EB4602B2
:10174000B2F90470002BF5D0802E15D005EB4601C0
:101750000231324601E0802A0ED021F8027F0132A8
:10176000637E901B9842F6DBE5E7437E012BACD805
:1017700001F05EFE0546B8B120462946002201F080
:101780003DFE2846BDE8F84001F00EBE811C00F584
:101790008170227E31F9023FC2F110021341934061
:1017A00088420B80F5D1E7E7F8BD00BF2DE9F8438B
:1017B0000021054601F048FE01210446284601F0BB
:1017C00037FE0646BCB3D0B304F5827E231D9E458A
:1017D00024D90C3004F10C0111E90C0050F8089CDC
:1017E00050F8048C12FB39FC2CF3CF3C12FB09F2AD
:1017F00022F3CF32C2EA0C4213FB38FC2CF3CF3C6D
:1018000013FB08F323F3CF33C3EA0C438E4501E9FE
:101810000C0000F1080001F10801DDD82846002283
:10182000214601F0EBFD204601F0BEFD3046BDE84B
:10183000F84301F0B9BD0028F9D1BDE8F88320468E
:10184000BDE8F84301F0B0BDF8B5C3696BB3002142
:10185000054601F0F9FD044638B3B5F92000EE69FC
:10186000A11C04F5817731F8023F83F4004343FA69
:1018700000F292B206EB420C36F912E0BCF902C05B
:1018800082409B1ACEEB0C0203FB02F3034173442C
:101890008F420B80E7D128462146002201F0AEFDA1
:1018A0002046BDE8F84001F07FBDF8BD10B5044604
:1018B000C069034B236008B102F030FB204610BD25
:1018C0002836010079B3931EB3F5004F2BD22DE9D2
:1018D000F041551E2B4224D10746C0690C46904664
:1018E00008B102F01BFB4FEA480002F015FB04EBC5
:1018F0008808F861861E0C4954F8040B05F01CFC9E
:1019000005F0F6FD444526F8020FF4D110233B8480
:101910006B1006D00F22511E5B1010B28AB2FAD1A2
:101920003884BDE8F081704700FEFF462DE9F04F96
:1019300083B08846846A0190D0F81CC0D0F824A0F7
:10194000C16A076BDDF8309008F580702646834643
:1019500038F902EB4FEA0E3E5CFB17F401EB84040E
:101960005AFB17F57644C4EB6606A6EB85065CFBCE
:1019700016F007EB80005CFB10F104EB81015AFBD1
:1019800010F5C1EB0E07A7EB85055CFB15F700EB27
:1019900087070C4424F34F34384420F34F30354448
:1019A00025F34F35C34522F8024B764623F8020B48
:1019B00029F8025BCCD1019A1346C3F828E0D16222
:1019C000176303B0BDE8F08F2DE9F04F85B088466E
:1019D0008169019101460C460390006A0290D1F89A
:1019E00024B08F6A206BC96ADDF838A0DDF83C901E
:1019F00008F58074009432F9026B029C06FB04F631
:101A000026F0784505F10065ED0055FB15F5284CED
:101A100055FB14F5ED00013CF616C6F106062C4404
:101A20003441019D55FB14F4224D38F902CBAC42F0
:101A3000A8BF2C4624024FEA0C3C54FB10F601EBE5
:101A400086065BFB10F107EB0C0EC6EB6E0EAEEBE1
:101A5000810E54FB1EF500EB850554FB15F106EBDA
:101A600081015BFB15F0C1EB0C07A7EB800754FB72
:101A700017F405EB84000E4426F34F36054425F396
:101A80004F35BE442EF34F3E009C23F8026B444575
:101A90002AF8025B674629F802EBACD1039A134699
:101AA000C3F828C0D162106305B0BDE8F08F00BF55
:101AB000ABAAAA2AE71052002DE9F043002183B017
:101AC000044601F0B5FC01210546204601F0B0FCBA
:101AD0000646002D3CD001F013FC074600283CD000
:101AE00001F00EFC8046002842D001F009FC81463E
:101AF000002851D0002E45D0021D08F104030192A8
:101B0000009320463B1D321D291DFFF75DFF304627
:101B100001F04AFC284601F047FC002239462046E5
:101B200001F06CFC384601F03FFC012241462046A2
:101B300001F064FC404601F037FC20460222494691
:101B400001F05CFC484603B0BDE8F04301F02CBC5A
:101B50000028F8D103B0BDE8F083284601F024FC4A
:101B6000002EF7D0304603B0BDE8F04301F01CBCB6
:101B7000284601F019FC384601F016FC002EE9D089
:101B80003046F0E7031D00933A1D08F10403291DB8
:101B90002046FFF7CBFEBDE7284601F005FC38469E
:101BA00001F002FC404601F0FFFB002ED2D030468F
:101BB000D9E700BF10B5044601F098FD204610BDDE
:101BC000024A0349034805F09DBE00BFFCEFFF1F1A
:101BD000B51B0000E003002038B5074D074C08484E
:101BE0002A46214605F08EFE2A4621460548BDE8D4
:101BF000384005F087BE00BFFCEFFF1FB51B00009B
:101C0000E8030020F0030020024A0349034805F0DE
:101C100079BE00BFFCEFFF1FB51B0000F8030020DA
:101C2000024A0349034805F06DBE00BFFCEFFF1FE9
:101C3000B51B000000040020024A0349034805F0D8
:101C400061BE00BFFCEFFF1FB51B000008040020B1
:101C5000024A0349034805F055BE00BFFCEFFF1FD1
:101C6000B51B0000100400202DE9F8434FF00008D8
:101C7000064600F11805474641463046002F4FD032
:101C800001F0D6FBF0B12C68B4F5803F07F10401F8
:101C900000F1040E07F5827C27D05EF8042B34FB9C
:101CA00002F334FB12F903F30F0209F30F03C2EA44
:101CB00003430A6893FA12F341F8043B8C45ECD8CD
:101CC00001F072FB08F10108B8F1040F05F10405F9
:101CD000D2D1002F40D030463946002201F08EFB91
:101CE0003846BDE8F84301F05FBB07F10C0100F195
:101CF0000C0451F8083C54F8082C93FA12F341F8FC
:101D0000083C54F8042C51F8043C93FA12F38C4527
:101D100041F8043C04F1080401F10801E9D8CFE7D7
:101D200001F092FB07460028CCD02868B0F5803F30
:101D3000C8D0391D07F582740B6830FB03F230FB05
:101D400013F302F30F0203F30F03C2EA034341F854
:101D5000043B8C42F0D8B5E7BDE8F883024A03495A
:101D6000034805F0CFBD00BFFCEFFF1FB51B00000F
:101D70001804002010B5002101F05AFB70B172B6B2
:101D80000A4B1A6872B10A490C6844B11C600860B9
:101D900062B61046BDE8104001F006BB10BD0860F9
:101DA00062B610BD186062B610BD00BF30040020DE
:101DB0002004002038B5184B18491A68184C1268CE
:101DC0001B79184D0B70A242286836BF2246A4F535
:101DD000807202F58074C0B1011D31F9023B03F538
:101DE00000431B1122F8023B9442F6D801F0DCFAC2
:101DF0000D4B0022196829601A600C4B1B781BB12F
:101E00000B4B4FF080421A6038BD4FF4006322F84C
:101E1000023B9442FBD8F0E7240400201F800040DE
:101E200090E8FF1F30040020200400202C04002034
:101E300008E200E0F8B501214248434E01F0F2FB10
:101E4000424A43491368802043F4805313600024BE
:101E5000087040F6080534800120083402F0D0FAFA
:101E6000A3B2AB421CB2F6D13A4B1B685B0208D559
:101E7000394B1A6848F6A273134048F6A27293428F
:101E80004FD03449344A0B68344F354D3548364CC1
:101E900043F480030B604FF0010E40F23F4648F6DA
:101EA000A37140F20113C7F800E02E6011601460C6
:101EB0000360244C2D4A236823491A6002259D8023
:101EC0002279196102F1804202F50432284EDE6067
:101ED00040F20111D9804FF4807000210627B0260E
:101EE000D8829D60D88399829F8399611170167002
:101EF00001F03EFB22791F4B1F4E187053119B00BF
:101F000003F160431D4C327003F5614302F1100090
:101F100002F01F0701211A4D44F82050B940196002
:101F2000F8BD0F4B1A6840F23F439A42A9D10B4BC0
:101F30001B68012BA5D10B4B1A6840F201139A4282
:101F40009FD1B6E72404002000C00C402C80044040
:101F500021C00C403C800440006003400C60034002
:101F60000460034010600340A28F010090E7FF1F50
:101F700000FEFFFF2C0400201B80004000EAFF1F32
:101F8000B51D0000044A137802290CBF03F0BF03FB
:101F900043F040031370704721C00C40024A0349CC
:101FA000034805F0AFBC00BFFCEFFF1FB51B0000EE
:101FB00024040020024A0349034805F0A3BC00BFE3
:101FC000FCEFFF1FB51B000034040020024A034948
:101FD000034805F097BC00BFFCEFFF1FB51B0000D6
:101FE0003C040020024A0349034805F08BBC00BFB3
:101FF000FCEFFF1FB51B000044040020024A034908
:10200000034805F07FBC00BFFCEFFF1FB51B0000BD
:102010004C040020024A0349034805F073BC00BF8A
:10202000FCEFFF1FB51B000054040020024A0349C7
:10203000034805F067BC00BFFCEFFF1FB51B0000A5
:102040005C040020F8B5054601F05AF9002800F0BC
:1020500092802A7E0446031D00F58276002A39D03C
:10206000286AE9696A6A81FAA0FEEFF300873F01F6
:1020700040D49EFBF2FEBEF17F0F54DD04F1140745
:1020800002E0E9696A6A103711448818C0EA214100
:1020900010448318C3EA2040134403EB020ECEEA37
:1020A000234396447244EA61C2EA2E42BE4247F894
:1020B000101C47F80C0C47F8083C47F8042CE0D8F3
:1020C00028462146002201F099F92046BDE8F84053
:1020D00001F06AB9EA69C2EA22421A605A609A605B
:1020E000DA601A615A619A612033B34243F8042CD2
:1020F000F3D3E5E75AB90022E8612A76C0EA204224
:10210000B342DDD243F8042B9E42FBD8D8E7571CDC
:10211000022FB0D990FBF2FE91FBF2F7C7EB0E0E47
:10212000BEF17F0FAADCBEF1010F18DD70461F461D
:1021300001E0E9696A6A11440A44EA610238C2EAC4
:102140002142012847F8042BF3DCAEF1020E4FEADE
:102150005E014A1C286AAEEB410E03EB8203BEF11E
:10216000000FC8D0E9696A6A0A44C0EA22421A60CC
:10217000286A0433BFE7F8BD2DE9F04F436AC4690C
:10218000866989B02BB906EBC414846109B0BDE837
:10219000F08F0546076A01F0B3F80590002800F0BB
:1021A0008981F2190492B5F93A30059A02F10408CE
:1021B000082B23D8DFE813F08E00AC00090054018F
:1021C000BA0016012D013C0144006E6A26F34F0649
:1021D000059A134602F58371049A30B206337642AB
:1021E000002AB4BF23F8026C23F8020C0233994290
:1021F0002244F5D1049B03EBC41304932C6A049A84
:10220000B5F93C30141BAC6173B1059A02F58271CB
:1022100001E0B5F93C30B8F90020134403F30F0393
:1022200028F8023B4145F4D8059C28460022214667
:1022300001F0E4F8204609B0BDE8F04F01F0B4B871
:10224000AA6ACDF804804FEA520C130C6FEA0C0214
:102250001146059AD5F824E0C3F57F4B4FF0FF39BE
:10226000901D464602F5837A0BF1FF0B049AB9FBE9
:10227000FBFB8846B9FBF3F920E0CCEB02073F0CEF
:102280000BFB07F76FF0004102EB0C03C91B1B0CA3
:10229000091409FB03F30EFB01F103F10043904520
:1022A0004FEA21414FEA234340F2FC803180023063
:1022B0005045224406F1020600F00181130C09FB8F
:1022C00003F31B0C0EFB03F362454FEA1343D4D216
:1022D0003380ECE7059BD5F824E07C4E049903F5A8
:1022E000827740460B0E5A1C36F913C036F912207D
:1022F000C1F30F29C9F580330CFB03F309FB02334B
:1023000053FB0EF320F8023BB8422144EAD171E7B7
:10231000059B6E6A049A03F58270434636FB12F100
:1023200023F8021B83422244F8D163E7D5F82CA09E
:10233000BAF1000F00F0BB806B6B029319464FF0AF
:102340007E5004F0EFFD059BD5F824B0D5F8309011
:10235000049ECDF8188003F5827347460390D84653
:102360000193CB460795350E691CB1F5807F14BFEC
:1023700049000021C6F30F2C3AF915003AF9012063
:10238000CCF5803E0EFB00F00CFB020050FB08F089
:102390003BF915203BF901100EFB02FE0CFB01EE90
:1023A0005EFB08F504F074FE039904F0C5FE814657
:1023B00028B204F06DFE029904F0BEFE01464846C4
:1023C00004F0B2FD05F094F8019B27F8020B9F4240
:1023D0002644C8D1049BDDF81880079D03EBC41385
:1023E00004930BE76E6A26F34F06059AA86A134614
:1023F00002F58371049A37B20633764290428CBF5D
:1024000023F8027C23F8026C02338B422244F5D17C
:10241000F0E6059B686A049A03F58276C04343465A
:1024200030FB12F123F8021BB3422244F8D1E1E65B
:10243000059B474603F58279049B03E04F453346ED
:102440003FF4D8AEB5F9382027F8022BE618F5D3BB
:10245000686A01F09FFA6B6AA0EB63002887EDE7DA
:10246000059BD5F824E0049A991D03F5837009E0D3
:102470000EFB03F31B1421F8023C02318842224474
:102480003FF4B8AE930F013B012B4FEAE233EFD894
:10249000D30BC3F57F43FF330EFB03F31B0C21F873
:1024A000023CEAE70EFB03F31B143380FFE60598BA
:1024B00000F07AFFAB6903EBC413AB6166E6049BE3
:1024C000DDF8048003EBC413049397E604340100A1
:1024D00010B4047F4160022CC26002D010BC01F035
:1024E0001FB9836810BC1847F0B4464B464A186BB6
:1024F000DC6A01791170454922790A709A6A00797B
:102500000870002A46D05968C9688A423ED82168B6
:10251000CC8B240402F1FF3065D4C0F30E00C883D5
:10252000C88B80B2C882196B0968C88B000452D46A
:10253000C2F30E00C883C88B002480B212F1FF32B0
:10254000C88218BF01229C62D96A2E4809680D68AA
:1025500000F12404A54236D00068C46814F0804F0E
:102560000C680D6815BF248824780235013544F0C5
:1025700000440D604463196B254B0979197021499A
:1025800012B1CA6A12791A70F0BC7047521A9A6274
:102590000122D9E7586B196805681E4C0A63CC62A2
:1025A000CC682D681C4E24F080440327B542CC60D3
:1025B00083F825701FD1037F4260022BC2601ED0BA
:1025C000F0BC01F0ADB8016890F82400CC6840F090
:1025D00000404863CFE7CC8BC2F3080004F47E448C
:1025E0002043C883A7E7CC8BC0F3080004F47E44E3
:1025F0002043C88394E72B461146F0BC18478368F4
:10260000F0BC1847F4F2FF1F1F8000401C80004000
:102610001B80004000000FFFD12400000020704705
:10262000704700BF064B074ADA6202210022596058
:102630009A7083F8242083F8302083F83220704782
:1026400064040020E836010010B50121007801F093
:10265000BDFE0E4A137893B10D49CB7A002418467B
:10266000147063B1DC0703D50A4A88691060184604
:102670009A0705D4430702D5074B0A6A1A6010BDB2
:10268000064BCA69C87A1A60F4E700BFBC04002090
:10269000F4F2FF1F00E100E008E100E004E100E0E7
:1026A0001E4B1A781AB10078002101F08FBE70B469
:1026B0001B4A1C49D47A096801251D70ECB172B619
:1026C000D37ADE071C4606D5174DD4682E683440F1
:1026D00094612C601C469D0706D5144D13692E6825
:1026E000D47A3340D3612B60630705D5104C53690E
:1026F00025682B401362236062B61368DA688A4249
:1027000007D00C4C1C600C4AD96041F080441C611D
:102710001A600078002170BC01F058BEBC04002093
:10272000F4F2FF1FB804002080E100E084E100E043
:1027300088E100E001403F0000003F80F0B4124813
:10274000124A036882B016460093009F4FF000457E
:10275000FF24136843F480631360D5625463D36A23
:10276000002BFCDAB36BDBB2FF2B09D003680193BB
:10277000019BDB1B8B42ECD3002002B0F0BC704706
:10278000012002B0F0BC70472C07002000C00240BE
:10279000F8B50D464FF4967116460446FFF7CEFF86
:1027A000284B1A684FF0004042F4806245F0400127
:1027B0001A60D8621A465963D36A002BFCDA2149A1
:1027C00018204FF000470A6826FA00F342F48062AE
:1027D000DBB20A60CF624B63CB6A002BFCDA0838AD
:1027E00010F1080FEFD155B3082D0CBF8721FF2141
:1027F000144B1A684FF0004042F480621A60D862AD
:102800001A465963D36A002BFCDA0E4A0027164693
:102810004FF00045FF21136843F480631360D562D5
:102820005163D36A002BFCDAB36BD8B21B0660701D
:1028300000D4F8BD0137B7F5807FECD1F8BD952104
:10284000D6E700BF00C00240F0B41549154A0B6836
:1028500082B016460093009F4FF00045FF24136896
:1028600043F480631360D5625463D36A002BFCDAAF
:10287000B36BDBB2FF2B43700AD10B680193019B52
:10288000DB1BB3F5967FEAD9002002B0F0BC70479D
:10289000A3F1FE00B0FA80F0400902B0F0BC70472E
:1028A0002C07002000C00240F8B58378032B0E46A9
:1028B000044618BF4E021546FFF7F2FE32461121BC
:1028C0002046FFF765FF18B92046FFF7BDFF20B986
:1028D0002046FFF7B9FE0020F8BD204B2049214AD1
:1028E0001A608E4659631A4659631E46596305F5A8
:1028F000FD70A91C05F5FE77D36A13F0F00FFBD02D
:10290000C6F834E0B36B01F8013C1B1201F8023C3D
:1029100002318F42F0D105F50075A8420DD20F4A61
:102920001646D36A13F0F00FFBD0B36B191200F800
:10293000021BA84200F8013CF3D3084B0949084A9E
:10294000196019465A63CB6A044A13F0F00FFAD0A3
:102950002046936BFFF778FE0120F8BD00C00240CF
:10296000FFFF009000041F80F0B4314E33684FF039
:10297000004743F4806333603D46F7623446716339
:102980003346511C02F20127E26A002AFCDA1A6877
:1029900011F8016C42F480621A60DD625E63E26AE3
:1029A000002AFCDA1A6811F8026B42F480628F4246
:1029B0001A60DD625E63E7D11D49CA6A1C4B002ABA
:1029C000FBDA1A684FF0004542F48062FF241A6077
:1029D0001946DD625C63CB6A154A002BFBDA13688B
:1029E0004FF0004543F48063FF2413601146D56225
:1029F0005463CB6A0E4A002BFBDA13684FF0004594
:102A000043F48063FF2413601146D5625463CB6A9C
:102A1000074A002BFBDA936BDBB203F01F02437013
:102A2000A2F10500B0FA80F04009F0BC704700BF89
:102A300000C0024070B5044671B18378032B0D4687
:102A400018BF4D021646FFF72BFE2A4618212046D6
:102A5000FFF79EFE054620B12046FFF7F5FD00205A
:102A600070BD3246FE212046FFF77EFF0028F3D0DE
:102A70004FF416712046FFF761FE0028ECD02A467D
:102A80000D212046FFF784FE0028E5D10B4B1A6884
:102A90004FF0004542F48062FF201A601946DD6263
:102AA0005863CB6A054A002BFBDA936B13F0FF0FD8
:102AB000D2D12046FFF7C8FD012070BD00C0024002
:102AC000014B024A1A607047B80400200110013817
:102AD00038B590F90530002B03DBBDE8384000F035
:102AE0006DB904460121006900F092F9F8B1257D25
:102AF000104B13EB45151AD0A3790F4A012B9CBF3D
:102B0000A369EB61E36912686B831B0CAB8232B182
:102B100005F1160105F1180090472B8B6B82637944
:102B200003F07F036371BDE8384000F047B900202F
:102B300038BD00BFCC040020C004002010B500F157
:102B4000080204460121006A00F000FA50B1E3696E
:102B50003BB96379A268E26163F07F03637101208E
:102B600010BD012010BD00BFF8B5837913B1826993
:102B70008A4201D20020F8BD022B0F4605461AD02A
:102B800007B32B6AE9681C7C4A1E04F109037C1E0A
:102B9000DA40DC40A24211D9EB69AB6005F10806CE
:102BA00006E0A968286A00F099F9013C0028E1D004
:102BB0003246002CF5D1EF600120F8BD0029EBD0A2
:102BC000A41AEBE7AF60EF600120F8BD2DE9F04FEC
:102BD0008B46817985B001290746019205D00123F2
:102BE0003B71002005B0BDE8F08F42799107F6D522
:102BF000530708D5FC68B9698C4200F0A880FFF73C
:102C0000B3FF0028EBD0019BFC68002B49D0DFF814
:102C10008C91DFF88CA1DDF80480386A0679013EDA
:102C200006EA542616F0FF06C4F3080442D1002C2D
:102C300040D1B96800296FD1FA69002A7ED0BA6004
:102C4000C4F50075ADB245453AD9057C4169023AF3
:102C5000AA400E4416441FFA88F51CB9F868BA69F0
:102C600090424CD23046012100F0D2F80028B6D074
:102C70004C4404EB050E74450DD00BF1FF31621E80
:102C80000EF1FF3611F8010F02F8010F9642F9D14B
:102C9000C4EB0E04A344FC68B8EB05082C44FC60AC
:102CA000BBD1BB69A34257D27A79BC6142F08002A2
:102CB0007A715AE0C4F50075ADB24545BA68C4D81A
:102CC000017C4069023A8A400644B5F5007F16440B
:102CD000C3D1DAF80020964204BF4FF0FF32CAF8A1
:102CE00000202A4A314610685A46FFF7A3FE002802
:102CF0003FF475AF0BF5007B4FF40075CBE700F0A8
:102D00005DF800283FF46BAF2149CAF800600A78EB
:102D100042F001020A70ABE703AA00F0DFF80028D6
:102D20003FF460AF386A1B4B90F82050039A4FF67F
:102D3000F871102D18BF19468A4280D33846FFF724
:102D4000FDFE00283FF44BAF386ABA6878E7019B74
:102D5000002B7FF45CAF08E00F4B7A791B6823B13E
:102D6000019B13B142F080027A71120709D5BB7939
:102D7000002B3FF434AF3846FFF7AAFE00283FF49B
:102D80002EAF019805B0BDE8F08F00BFC804002049
:102D9000CC060020F8FFFF0FC0040020CC04002068
:102DA0002CF3FF1F00B583B002AB012203F8011D15
:102DB0001946FFF70BFF03B05DF804FB70B50F4C2D
:102DC00023780BB9012070BD0D4B0E4D1968286892
:102DD0000D4AFFF72FFE70B10C4E316819B9002370
:102DE0002370012070BD2868074AFFF723FE10B149
:102DF00000233360F3E7002070BD00BFCC06002045
:102E00002CF3FF1FC8040020CC040020C4040020C1
:102E100070B50D4D2B6883420E460ED00446FFF769
:102E2000CDFF08B9002070BD084B094A186821463B
:102E3000FFF73AFD0028F5D02C60064B1978314396
:102E40001970012070BD00BF2CF3FF1FC8040020C3
:102E5000CC040020CC060020F8B590F82030C469DE
:102E6000102B1A4B05460E4617461B6816D004EB6E
:102E7000D1149C4216D106F07F06154A42F82670FE
:102E80001449287E0A78012842F001020A7018D9F4
:102E9000A968114A0B4413600120F8BD04EB11240A
:102EA0009C4208D000212046FFF7B2FF50B195F8B0
:102EB0002030102B07D1F6B2054A234622F81670AF
:102EC000DEE70120F8BD2346D5E700BF2CF3FF1F46
:102ED000CC040020CC060020C4040020C3680133C9
:102EE0008B4218D370B590F82030102B154B044648
:102EF00016460D46C0691B680FD000EBD1109842F2
:102F00000FD105F07F01104B53F8213023F07043AF
:102F10003360012070BD0020704700EB1120984203
:102F200007D00021FFF774FF50B194F82030102B28
:102F3000E7D1E9B2044B33F811303360012070BDA2
:102F4000002070BD2CF3FF1FCC0400202DE9F04FB2
:102F5000176883B06FB301374FF0000AC36803F1FD
:102F6000010813B38B46064691463C46002505E012
:102F70001C461F46F3680135AB4216D9A04538BF41
:102F80000224214601AA304638BF2746FFF7A6FF94
:102F9000631CD91B48B1019A002AE9D18B4510D096
:102FA0001C46F3680135AB42E8D8002003B0BDE809
:102FB000F08FA1F1010ABAFA8AFA07684FEA5A1AA1
:102FC000CCE7012CF1D9F36801339C42EDD86FF0C6
:102FD000704221463046FFF73FFF0028E5D0A74268
:102FE00014D2013C012CE0D9F36801339C42DCD8B7
:102FF000621C21463046FFF72FFF0028D5D0A7429C
:1030000004F1FF3402D0012CEED1CEE7D9F8001044
:1030100059B10129C9D9F36801339942C5D83A4653
:103020003046FFF719FF0028BFD0C9F80070BAF189
:10303000000F01D0013737600120B7E790F8392041
:1030400090F83800101A704790F8383090F839200E
:103050009A4205D95A1C034480F83820187E7047DC
:103060004FF0FF30704700BF90F8383090F83920AB
:103070009A4286BF1B18187E4FF0FF30704700BF82
:10308000704700BF38B50546B0F85E0090B195F8BE
:103090005D301446C3F1210294420CD805F13B0087
:1030A0001844224600F056FE95F85D30234485F81A
:1030B0005D30204638BD012014462871EEE700BF80
:1030C000B0F85E306BB190F85D30202B07D8C21895
:1030D000013380F85D30012082F83B1070470123F6
:1030E00003710020704700BF10B50269D378DBB2CE
:1030F000D90604463DD510215806D17038D503F0C5
:10310000040303F0FF02002B51D03D49626E0023FF
:103110000B7084F85D30002A5BD0904794F85D30E6
:10312000002B56D02369D0229A70236994F83B2053
:103130001A712369012284F85C200222DA7010BD22
:10314000304B84F860009C424AD02F4B9C4252D0B6
:1031500094F8391013791F29DBB207D82848007872
:1031600020B16018013184F8391003760223D3703E
:1031700010BD5906C3D4917801F0100101F0FF0091
:103180000029DDD013F001031ED194F85C1094F8EF
:103190005D00884281BF4B1C091984F85C3091F8AE
:1031A0003B3013712369D0229A702269DEE72369CC
:1031B00084F83920C0229A702369114A19790121B3
:1031C00011700222DA7010BDC02393702269137946
:1031D000CCE70122002384F85D2084F83B30A1E78E
:1031E000626994F86130094913440322187A00F0A7
:1031F0001DFF2269ACE7626994F861300449F3E786
:10320000CD06002030F3FF1F9CF3FF1F713200003A
:103210007D3200000369DB7803F0200373B190F87E
:1032200060300133DBB2012B80F860301AD942697B
:1032300090F861301344187A00F074BF70B5426999
:1032400003F0FF0590F8613013440446187A00F04B
:1032500069FFA36E5BB184F8385094F83900BDE87B
:103260007040184790F85F30002BE0D0704770BD79
:103270000148FFF7CFBF00BF30F3FF1F0148FFF742
:10328000C9BF00BF9CF3FF1F0148FFF72DBF00BF60
:1032900030F3FF1F0148FFF727BF00BF9CF3FF1F5C
:1032A000C029F0B428BFC02172B6124B124E134A87
:1032B00018600023138033607360B360F360336180
:1032C0007361012799B15D0903F01F0456F82520A9
:1032D00007FA04F4013322438B4246F82520F2D149
:1032E0000023438001338B4200F58270F9D162B62E
:1032F000F0BC7047D8060020E0060020FA06002047
:10330000F0B472B6234F244E3C8806F1180306EB46
:103310008400984212D256F8241099B9021D06F181
:103320001B05631CAD1A03EB950503E052F8041B63
:1033300041B90133AB421C461046F7D162B60020BA
:10334000F0BC7047B1FA81F34FF00042DA4021EA55
:103350000201016001B9013410493C800A88013240
:1033600094B20C8062B6801B8010C3EB401000EB5F
:10337000801083000A480B49006803F5FB531C3397
:103380000125C5540D88AA42184488BF0C80F0BCA2
:10339000704700BFFA060020E0060020FC0600206F
:1033A000D8060020D4060020428872B60378012B8C
:1033B00003D9013B037062B67047531170B40C4CD3
:1033C0000C4D54F823102E88D2434FF0004002F0E9
:1033D0001F0220FA02F21143074A44F82310B342B5
:1033E00038BF2B801388013B138062B670BC7047D6
:1033F000E0060020FA060020FC060020C368B3B1F6
:1034000030B401E0DB688BB1187A9042FAD1586889
:103410005C7A006950F82450002DF3D140F8241054
:10342000087801300870DB68002BEDD130BC7047A4
:10343000437A8B4206D90369002253F8210043F8EE
:10344000212070470020704738B5437A8B421AD943
:10345000036953F82140002243F821209CB12378CE
:10346000012B0ED9FFF74CFF054628B14FF48072AF
:10347000211D043000F06EFC2378013B23702846A8
:1034800038BD204638BD002038BD00BF037C23BBBB
:103490004368427A5B7A9A421FD830B472B60468A5
:1034A000E3682BB3DA6832B119688C4216D0134640
:1034B000DA68002AF8D1D8600023C360A37A013308
:1034C000A37202684168012313728A7A1A448A72CD
:1034D00042681372037462B630BC70475D6841681D
:1034E0008D42E4D1198903899942F4D01346DFE76C
:1034F000E060E1E7037C10B5002B32D04368427AEC
:103500005B7A9A422DD872B60268D36843B3984268
:1035100002D129E0984202D0DB68002BFAD143683F
:10352000417A1B69044653F8210048B1FFF73CFF7C
:1035300072B66368627A1B69002143F82210226820
:10354000937A013B937223689A7A02B91A7262687D
:10355000937A013B937263689A7A1AB100232374B9
:1035600062B610BD1A72F9E7C368D360D7E700BF2F
:10357000084B1A7862B930B407480849D02505705D
:103580004FF0804401220C6010461A7030BC704726
:1035900000207047DC0600205EE400E008E100E067
:1035A0001A491B4A1B48F8B50B681B4D046843F0C9
:1035B00080730B60136843F0010313602E6814B925
:1035C00015E064699CB1237A002BFAD023682F6838
:1035D0001B68204698472B68E188DB1B1B099AB2C1
:1035E0008B42A28088BFE2806469002CEBD10A4B39
:1035F0000A4A1B6810880A4C9B1B1B0999B283421C
:10360000218001D91180F8BDF8BD00BFFCED00E0BC
:10361000001000E0D0060020041000E0F8060020B2
:10362000FE060020F0B572B699B902688AB1037936
:103630000F2B0ED8274C218841FA03F5ED070AD548
:1036400003F1007303F59063B2EB431F03D162B63D
:10365000F0BD204C2188002341FA03F212F0010250
:1036600007D00133102BF7D162B60022037102603C
:10367000F0BD01259D402943218062B6164E174DAD
:10368000174FDFF864E0D9B20171346844F00204E6
:1036900034602C6844F002042C60A6F58026822455
:1036A000A5F5802503F100733C6003F59063223E8D
:1036B000243D0C4C8EF800105B0131702970217094
:1036C00003601A605A609A60DA601A615A619A61FE
:1036D000DA61F0BD00070020408004403C800440D7
:1036E000008000401F8000401A80004003790F2BAB
:1036F00011D8094A10B4137072B6084904790A88BF
:103700000123A34022EA03030B8062B610220023A8
:1037100010BC0271036070471A800040000700204F
:1037200010B4EFF3108272B6437F33B9017F0129E1
:1037300007D003290FD00123437702B962B610BC2A
:103740007047124C2168A1B1114943610B68836134
:1037500008605861EFE70F4C216881B10E49436161
:103760000B688361086058610C4B4FF08051196001
:10377000E1E7074B4161816120601860DBE7064BA0
:103780004161816120601860EEE700BF14070020EE
:1037900010070020040700200807002004ED00E0C7
:1037A00070B5EFF3108272B60C4C206880B10C4EED
:1037B00000254369236073B19D6102B962B6457704
:1037C00083689847EFF3108272B620680028F0D122
:1037D00002B962B670BD3360EFE700BF0407002096
:1037E00008070020FFF7DCBF184A30B41468002C2B
:1037F00027D0036821688B420ED2CB1A0021846047
:10380000C1602360E06010600223037530BC704724
:1038100011688B42144608D3A2685B1A0360002A21
:10382000F6D18260C460A060EEE7D268C2608460B6
:10383000E060C568CB1A0222A8602360027530BC24
:1038400070478460C4601060DEE700BF0C07002092
:10385000F8B5224E34682CB32368002B3AD1204FA0
:103860001D4604E03468ECB12368002B32D1A36814
:1038700003B1DD6020693360036825751B68BB42B6
:1038800021D1037F4560022BC46020D0FFF748FFA1
:103890006368002BE6D023602046FFF7A5FF34685D
:1038A000002CE1D1EFF3108372B60E4A00211068AC
:1038B000116003B962B628B18468FFF795FF20460E
:1038C0000028F9D1F8BD224600219847E0E7836837
:1038D0009847DDE7013B2360E4E700BF0C070020C9
:1038E000D12400001C070020024A13680133136032
:1038F000FFF7AEBF2C070020F8B50E4671B17AB1C4
:103900000746144600253B6816F8011B1B6838461D
:103910009847013C0544F6D12846F8BD0846F8BD55
:103920001046F8BDF0B5164D2A680AB31549164B76
:10393000DFF85CE082FB016781FB0214D617D11926
:103940001444C6EB2141C6EB244403FB04F40EFBF4
:10395000112244F2A71303FB0243002B02DA03F106
:103960000043013BB3FBF0F22B6000FB1230F0BDD3
:10397000064B2B60B3FBF0F200FB1230F0BD00BF32
:10398000200700205F0B4E83ECF4FFFF42CE0C1F9C
:103990001DF3010008B1FFF7C5BF7047374A38492A
:1039A00013681B06FCD40B6813F08003F8D172B6C1
:1039B00034490A78002A5FD0334A3448F0B4344C92
:1039C000176806682568D4680C303E4414320068D5
:1039D0001268304F35442C4420440244C2F34E0256
:1039E0002D4E2E482E4D2F4C42F400423A6037683F
:1039F00006682D682C4A24680C303E440068126822
:103A00002A4F35442C4420440244C2F34E02284E2F
:103A10002848294D294C42F400423A60376806682C
:103A20002D68274A24680C303E4400681268254FF0
:103A300035442C4420440244C2F34E02224E234813
:103A4000234D244C42F400423A60376806682D68E2
:103A5000214A24680C303E440068126835442C44E6
:103A600020440244C2F34E021C4842F40042026069
:103A70000B7062B6F0BC704762B6704724B003406A
:103A800024B00B402507002038B003403CB0034071
:103A900040B003402CB0034058B003405CB003403A
:103AA00060B0034064B003406CB0034030B00340EA
:103AB00038B00B403CB00B4040B00B4044B00B4022
:103AC0004CB00B402CB00B4058B00B405CB00B40DE
:103AD00060B00B4064B00B406CB00B4030B00B409A
:103AE00030B42948294A2A4B2A4D6024E121047028
:103AF00011701B78284C082B30D00A2B27482849F6
:103B000037D00C2B0CBF35223D2212232A602360B4
:103B100002600B60234B24491B78244ABBB101236C
:103B20000B601360224B23491B78234A012B26D9B3
:103B3000042B0FD9082B1ED9102B94BF8623872363
:103B40000B6013601D4B01221A7030BC70470B6074
:103B50001360E7E784230B601360F3E700F58E2022
:103B60000F490830012213232A60236002600B6092
:103B7000D0E73922F7E785230B601360E2E7802363
:103B80000B601360DEE700BF0040074001400740C4
:103B900008F4FF1F08B003400CB0034008B00B400E
:103BA0000CB00B402807002020B0034020B00B4091
:103BB00009F4FF1F24B0034024B00B402507002068
:103BC00068B10E4A1378C3B90D4909780120107005
:103BD00019B10C490C4A0B601360FFF781BF074B0A
:103BE0001A7852B1064A18701378002BF5D0054A9E
:103BF000054B10601860FFF773BF7047280700205F
:103C00002507002024B0034024B00B4028282FD8DB
:103C1000334B2DE9F0411E5CFF2E2BD0314B1B782E
:103C2000002B2AD132062CD472B62F4D2F4C2F46A2
:103C3000012326602B7062B672B623681B060CD473
:103C40003B781BB9F4E72B78002BF1D062B601F07A
:103C500089FB72B623681806F5D5254B1B68002230
:103C60002A7062B6234A107843FA00F0BDE8F0816A
:103C7000002070470020BDE8F081FFF78FFE32067C
:103C8000D2D572B61C4DDFF87C801C4C06F0400784
:103C9000FFB206F03F06D8F80030DFB123F0100382
:103CA000C8F8003001232660134A2B7062B672B642
:103CB000236819060CD413781BB9ECE72B78002B7A
:103CC000E9D062B601F04EFB72B623681B06F5D54B
:103CD0000B4BC3E743F01003C8F80030E2E700BF26
:103CE0005C370100250700202707002000B00340B3
:103CF00010B00340240700202607002000B00B402E
:103D000010B00B400CB00B400A4A0B49136843F447
:103D1000805313600B7843B9084BC0221A70084BCC
:103D200080F30C0000B218807047044B80221A7098
:103D3000F5E700BF2C8004402807002021C00C407C
:103D400000C00C4008B5FCF7EDFBFCF71DFC01F0D2
:103D500009FBFAE7844641EA000313F003036DD13F
:103D6000403A41D351F8043B40F8043B51F8043B3E
:103D700040F8043B51F8043B40F8043B51F8043B45
:103D800040F8043B51F8043B40F8043B51F8043B35
:103D900040F8043B51F8043B40F8043B51F8043B25
:103DA00040F8043B51F8043B40F8043B51F8043B15
:103DB00040F8043B51F8043B40F8043B51F8043B05
:103DC00040F8043B51F8043B40F8043B51F8043BF5
:103DD00040F8043B51F8043B40F8043B51F8043BE5
:103DE00040F8043B403ABDD2303211D351F8043B85
:103DF00040F8043B51F8043B40F8043B51F8043BC5
:103E000040F8043B51F8043B40F8043B103AEDD233
:103E10000C3205D351F8043B40F8043B043AF9D284
:103E2000043208D0D2071CBF11F8013B00F8013B57
:103E300001D30B8803806046704700BF082A13D364
:103E40008B078DD010F003038AD0C3F10403D21A7C
:103E5000DB071CBF11F8013B00F8013B80D331F8B0
:103E6000023B20F8023B7BE7043AD9D3013A11F830
:103E7000013B00F8013BF9D20B7803704B7843709B
:103E80008B7883706046704708B5104C08E0236853
:103E900059050DD423681A050FD42368DB0411D407
:103EA00023685803F3D500F00FFC23685905F1D5BA
:103EB00001F0BCFA23681A05EFD501F04DFB236829
:103EC000DB04EDD501F0DEFBEAE700BF34800440FF
:103ED00008B5FFF7D9FF00BF014B10221A807047C9
:103EE00000200540704700BF094908B50B6830B194
:103EF0006A461844A2F58052904202D208601846E1
:103F000008BD03F00BFD0C2303604FF0FF3008BD2C
:103F10000CF4FF1FFEE700BF03F02EBD03F034BD1D
:103F2000F0B44D1E2E46002400E00134B0FBF2F345
:103F300002FB1300092800F130078ABF3730F8B2BE
:103F4000C0B206F8010F1846002BEED10A195370C3
:103F50004CB1107815F8016F28700133E01A8342D4
:103F600002F80169F5DB0846F0BC7047704700BFF6
:103F700010B40F4B53F8302092F880422CB101233B
:103F800069B182F8803010BC704703EBC0035B68F6
:103F90001A6841B922F002021A6010BC704782F818
:103FA000003110BC704742F003021A6010BC704729
:103FB000883701001C4A02EBC00301295B6811D05D
:103FC00004291BD052F83000002280F8802229B149
:103FD000022920D0032922D01A6070474FF4807242
:103FE0001A60704752F830004FF4A27280F88012C5
:103FF0001A601A6822F020021A60704752F83010D6
:104000004FF4A272012081F880021A601A6842F00F
:1040100020021A60704740F203121A6070474FF492
:1040200081721A60704700BF88370100212848D884
:10403000F8B5042A44D8DFE802F0484B4E034500A7
:104040004FF410262B4B03EBC0030D465C68216830
:1040500011F4E06148D0284B284A2949C3F89C2133
:1040600004F140422748C3F8A411A2F59221264F3B
:10407000C3F8A0017C292548C3F8A871C3F8AC0196
:104080002CD9A2F594237C2B2AD9A2F596237C2B3C
:1040900028D9A2F598237C2B29D9A2F59A227C2A2B
:1040A00027D81B4872B6236823F4702343F080722C
:1040B000C4F384011643236040F82150266062B6A1
:1040C000F8BD70474FF43026BCE74FF40026B9E73F
:1040D0004FF44026B6E74FF42026B3E70D48E1E75A
:1040E0000D48DFE70D48DDE7FFF764FFB3E70C4855
:1040F000D8E7F8BD8837010000EAFF1FD1EFFF1FA6
:1041000079EFFF1FA5EFFF1F4DEFFF1F21EFFF1FEF
:10411000E8F4FF1F10F4FF1F48F4FF1F98F4FF1F7F
:10412000C8F4FF1F1A4B03EBC00010B4426802F141
:104130004043A3F592217C2923D9A3F594217C291E
:104140000DD9A3F596217C291FD9A3F598217C29A7
:1041500019D9A3F59A237C2B11D80E4C00E00E4CF4
:1041600072B613680D4823F08773C2F3840123F4F9
:10417000803343F08073136044F8210062B610BCB2
:104180007047074CECE7074CEAE7074CE8E700BF4D
:1041900088370100E8F4FF1F48F4FF1F6D3F00005F
:1041A00010F4FF1FC8F4FF1F98F4FF1F30B4054B35
:1041B000054D064C002210211A602A60206019600B
:1041C00030BC704714D0034004D0034000D00340FB
:1041D000282838B52ED0002904464FDD5F4B1B78C8
:1041E000012505FA03F28A4202D8212837D938BDC1
:1041F0000338C2B2012A3AD9202C4AD0192C48D00F
:10420000574A126802FB011222FA03F31D2800F23A
:104210009B80DFE800F0928B847D9999766F999965
:104220009999999999999968615A53994C99999939
:1042300099999945494B1B780B2B08D90C2B1CBF1E
:104240000C3B19410846BDE83840FFF75DBDC3F19E
:104250000C0399400846BDE83840FFF755BD294694
:10426000FFF786FE2946BDE83840FFF7A3BE3D4A6A
:10427000126802FB011222FA03F3C7E72128B6D81D
:104280000021FFF775FE20460121BDE83840FFF709
:1042900091BE354A126802FB011222FA03F3B5E718
:1042A0003249334A0B604FF45173136038BD3149C2
:1042B000314A0B604FF45173136038BD2F49304AB7
:1042C0000B6040F24443136038BD2E492E4A0B6008
:1042D00040F24443136038BD2C492D4A0B6040F234
:1042E0004443136038BD2B492B4A0B6040F24443D2
:1042F000136038BD29492A4A0B6040F244431360D9
:1043000038BD2849284A0B6040F24443136038BD49
:104310002649274A0B6040F24443136038BD2549C3
:10432000254A0B6040F24443136038BD2349244AB8
:104330000B604FF45173136038BD2249224A0B6061
:104340004FF45173136038BD212C3FF650AF7F29D5
:10435000D4BF00210121204693E700BFF0F4FF1FE6
:10436000088003400890034008800B4010800B40F9
:1043700048A0044018800B404CA004401880034023
:1043800008B004401080034004B004404080034063
:1043900018C004403880034014C004402880034003
:1043A00010B00440208003400CB004403080034033
:1043B00010C00440488003401CC0044018900340D3
:1043C000349004401090034030900440212801D8DC
:1043D000FFF7CEBD704700BF212806D8044B53F825
:1043E000303093F80002C0B270470020704700BF21
:1043F00088370100212801D8FFF7DCBD704700BFD6
:104400002DE9F843054672B6204F214B214A1B681F
:104410003C68126862B6520102D5322B88BF013463
:1044200095B3C3F5BB331C4EDFF86490DFF86480AE
:10443000FF334FF47A72A6FB031302FB04F404EB80
:10444000931472B6D9F800103A68D8F800E062B652
:10445000C1F5BB33FF33A6FB03031EF0806FC4EB33
:1044600093134FF47A7002D0322988BF013200FBD7
:104470000233B3F57A7F04D3013D05D004F57A7495
:10448000DFE700F06FFFDCE7BDE8F8832C070020D2
:1044900018E000E004ED00E0ABAAAAAAF8B52D4BA5
:1044A0002D49DFF8D0E0DFF8D0C02C4E2C4D2D4C3C
:1044B0002D4A2E4F4FF4000018604FF080701860A6
:1044C0004FF0007018604FF0806018604FF000608F
:1044D00018600020086028234BF6FF71CCF800100C
:1044E000CEF80030336013602B6023603B60B36212
:1044F0009362092245F8242CC4F8D80F05F57F658E
:10450000C7F8D41F07F5FF2707F5FA67C6F8F83F85
:104510002B6006F5FF26C4F8D42F05F5FD2504F51C
:10452000FF24386006F2F4761148316005F5FF6526
:1045300004F5FD642B6023600260FFF7D1FA1920B7
:10454000FFF75EFF00F028FE40F21310BDE8F840D0
:10455000FFF756BF08E100E00480034014800340E9
:10456000248003402C8003401C800340348003409F
:1045700000800B400C8003400880034030B472B6CA
:104580002B4A13781D0706D52A4B196A002936D005
:10459000996A002941D053781C0706D5254B196C20
:1045A00000293ED0996C002939D09378190705D598
:1045B000204B196E002936D0996E89B1D3781B072C
:1045C00007D51C4BD3F880207AB3D3F8882011216B
:1045D0003AB162B6184B00221A7030BC00F06ABEC5
:1045E0000D21154C154D227843F8315003EBC103D2
:1045F0000830013A5860227062B630BC704704221D
:104600000D4C0F4D217843F8325003EBC2030830B4
:104610004A1E5860227062B6EFE70521E1E70921E2
:10462000DFE70822ECE70C22EAE71022E8E700BF08
:10463000983801000080FF1F05080020C8004000D6
:1046400088004000431E032B1DD81B4A400140F048
:10465000100030B4104472B6184CE25C032A1BD828
:10466000DFE802F00212151703220D88E25410F061
:10467000080F14BFC823882343EA054308310360A9
:10468000416062B630BC704708300222EDE7052277
:10469000EBE708300422E8E7094A52F8230038B172
:1046A000084A52F82300416042F8231062B6E9E755
:1046B00042F82310034AF7E70080FF1F1408002088
:1046C000DC070020EC0700202DE9F04FDFF80CB3E9
:1046D000DFF80CA387B044E0AB4F4FEA930807EB39
:1046E000C809013ED9F8042003F00803F6B2A2F18C
:1046F000080003F0FF04002B40F0028157F8383027
:104700001B0C99B222F8081C002B00F0F0809F4B84
:1047100022F8064C42F8044C53F82620002A00F0F8
:10472000C5829B4D55F8263058609A4C45F82600B6
:1047300034F81630194424F8161000F09BFD0028B8
:1047400000F0AD82944A954B19F0080F00F1080073
:1047500018BF1346C9F8040047F8383008238BF80F
:1047600000309BF80040E4B261071AD58C4B1B78EF
:10477000A3B18C490A7802F0FF0322B1013BDBB2FE
:104780000B7003B900BE88490A7802F0FF032AB112
:10479000013BDBB20B70002B00F0578204238BF837
:1047A000003004F0080303F0FF02002B00F0CC807F
:1047B0009AF80030DBB21E098ED19C08DFF8C89150
:1047C00059F8342009EBC401C2F38302013A496865
:1047D0000C2A00F28880DFE802F07C7C86868686E0
:1047E00086864786868607000868704D4A68704F3F
:1047F000704E286081B240F28160674B6A604FF072
:10480000010E0022814249F834303A60C9F8102084
:10481000C9F8182086F800E05B4C00F2E380B1F59F
:10482000D06F80F04683B1F5817F00F0FC8200F20A
:104830008D82802900F07783822940F0FA82A9884E
:1048400001F07F01042900F2F4825B485B4C89008F
:104850000844227062700278930740F1588484F80B
:1048600000E04FF0020E42E3514F3A6832B3544B2E
:10487000504E5449188834780D784028864645F0C3
:10488000020828BF4FF0400E002C84F00104347061
:10489000CEEB00000CBF8824C82409EBC80680B208
:1048A00085F0010544EA0E447260188049F83840EA
:1048B00072440D70002800F045813A603B4B1A8825
:1048C000B2F5A06F0FD100219A7859703E4B1A7043
:1048D00009E0364A108842F22102904200F0378106
:1048E0002D4A49F83420394A0123137036E72A4A01
:1048F0002A4B19F0080F18BF134647F838302DE738
:1049000000F0D8FC324A334952F82630002B00F030
:10491000D18158688C5D42F8260003F10802C9F87D
:104920000420032C05D8DFE804F02C0229260222FB
:104930008A551A8819F0080F0CBF8823C82343EA48
:10494000024347F8383009E7E00700F1818121068A
:1049500000F1F281A20706D51F4A204913780220F0
:10496000DBB213700870E30602D51C4B10221A70DC
:1049700007B0BDE8F08F04228A55DAE705228A5590
:10498000D7E703228A55D4E70080FF1F880700205D
:1049900034070020E8090020C800400088004000DB
:1049A000100800209907002018080020FC070020AC
:1049B0003007002098070020C0200740080800208A
:1049C0004407002004080020982007409420074056
:1049D000DC070020140800208820074080200740C2
:1049E0009020074042F22100814200F02A8100F22B
:1049F000D880B1F5086F00F07682B1F5106F40F005
:104A00001882226AB349A8780870120600F13A8326
:104A1000D9F82820B049130600F10C83D9F83020CA
:104A2000AD49150600F10183D9F83820AA491406CA
:104A300000F1F682D9F84020A749100600F14A8318
:104A4000D9F84820A449120600F13F83D9F8502034
:104A5000A149130600F13483D9F858209E49150660
:104A600000F12983D9F860209B49140600F11E83C8
:104A7000D9F868209849100600F11383D9F87020FE
:104A80009549120600F10883D9F878209249130657
:104A900000F1FD82D9F880208F49150600F131839D
:104AA000D9F888208C49140600F12583D9F8902084
:104AB0008949100600F11983D9F898208649120611
:104AC00000F10D838548864A864901908648874DC6
:104AD000874C049700230596029580460F4616469C
:104AE0001D460394306828B1446800F0E3FB20467B
:104AF000002CF9D100233360029B38681A4600234A
:104B000042F8253028B1446800F0D4FB2046002C40
:104B1000F9D100223A60019A98F80030114600223B
:104B200041F8042B039A0191023B4FF0000122F857
:104B30001510032B00F22B81DFE813F07001250123
:104B400070012501BEF1400F18BF0022B5E6694A89
:104B50000D784878157050708D78C8789570D07041
:104B600010680D79157186284D7989795571917183
:104B700000F09B816049614E0A78307882F001052F
:104B8000002842F002020D700CBF8821C82149F8AC
:104B9000321009EBC20280F0010000213070516038
:104BA0009EE642F22120814240F0CB81544B554C8D
:104BB0005549A8781D682560CDF804E008700020EC
:104BC00002908046844604464B490D7845F0020E1B
:104BD00009EBCE030393019B002B039B5C600CBF8E
:104BE0008824C82444EA080385F0010449F83E30CB
:104BF00032700C70DFF8E0E0404BDFF8FC800028FA
:104C000040F01E81BCF1400F1BD144F0020C09EBB7
:104C1000CC03029CDFF8C0E05C60002A40F02681F3
:104C2000020442F088029DF804304EF83C2004440F
:104C300033700D702346402803D10020334A3B6077
:104C40001080334A012313704DE600F067FBA5E5A1
:104C5000214B2F4828491A614FF0020E80F800E0DE
:104C60002C4F0A702C49196099602C4E2C4D2D4CFC
:104C70009A610D213970FF213170DFF8B8E0297099
:104C80002270294D294A8EF800109F27012406F82A
:104C9000047C5D600470DA6007B0BDE8F08F244AE0
:104CA00047F8380013780133137057E543F82600AE
:104CB0000E4D3AE58B5D032B00F2F08001A252F815
:104CC00023F000BF5D4700005D470000814D0000FC
:104CD0007B4D0000100800200080FF1FEC07002023
:104CE00088070020DC07002014080020340700207B
:104CF000E8090020F009002004080020980700209F
:104D00002C070020F8090020240800204407002078
:104D100094200740C02007408800400088200740BA
:104D20008020074098200740480700209C0700206B
:104D3000050800208C200740C149C24B80220D206D
:104D400008701A70A2077FF50EAE05E640F2023237
:104D5000914240F0EE80A98801F07F01042968D8D3
:104D60006A88002A65D1B648CDF804E08900084475
:104D7000017841F00201017021E701238B55EDE438
:104D800000238B55EAE44FF0010388F80030013529
:104D9000042D06F1040607F1040708F101087FF469
:104DA000A1AEA94CA94B2278A94D049F059E0021D4
:104DB00029701A70130700F105816278A549DFF8A0
:104DC000A0820A7010074FF00001C9F83010C9F82E
:104DD000381000F1E080A049A2780A700021C9F8DB
:104DE0005010C9F858101107DFF8748200F10181E2
:104DF000E2789A499A4C0A7000211207C9F870109B
:104E0000C9F8781000F1B08033780193002183F065
:104E10000102C9F89010C9F89810D0E64FF00003CD
:104E200088F80030B3E7A98801F07F01042940F237
:104E30008D80834A0F2313708A4A0123137052E531
:104E400040287FF6E2AE44F002040EEBC401029E5D
:104E50004E60BAB19DF80410834A19703346403849
:104E600088F8005040334EF83420E7E69DF80430CF
:104E700033700204029B0D7042F0C80203444EF8E6
:104E80003C20D8E69DF804101970029B774A88F8F8
:104E90000050403840334EF83420CFE619F0080F68
:104EA0000CBF022303238B5558E4714A0F21117064
:104EB00060E6704A5468002CBBD06888B5F804E0FE
:104EC00003E00C325468002CB3D013888342F8D12D
:104ED00053887345F5D1000A03280CBF94F800E00D
:104EE000B2F808E003E0644A644C12782270E88863
:104EF000704580F03F8162490D784028844645F036
:104F0000020E28BF4FF0400C04EB0C0309EBCE025D
:104F1000029301235460CCEB00004FEA0C480022BE
:104F20000193C8245EE6554C4FF0020E2270627069
:104F3000DDE7B1F5A06F7FF47CAF01230022019380
:104F40003DE642F221329142F7D072E76A88002AA8
:104F50007FF46FAF3A48CDF804E089000844017847
:104F600021F0020101702AE600F084F9002800F027
:104F7000EF8008303D4AC4F88400C4F8802000F077
:104F800079F9002800F0DE800830374AC9F88C0033
:104F9000C9F8882038E700F06DF9002800F0C080DB
:104FA0000830324AC8F84400C8F8402000F062F9DE
:104FB000002800F0AF8008302B4AC9F84C00C9F82F
:104FC000482008E700F056F9002800F0CD800830AE
:104FD000264AC9F82400C9F8202000F04BF900281F
:104FE00000F0BC800830204AC9F82C00C9F82820FD
:104FF000E3E600F03FF9002800F09E8008301B4AED
:10500000C8F86400C8F8602000F034F9002800F007
:105010008D800830144AC9F86C00C9F86820E7E6AA
:10502000C86B083800F046F904E5486B083800F012
:1050300041F9F9E4C86A083800F03CF9EEE400BF31
:10504000C02007408020074098380100C420074056
:1050500005080020C8200740CC200740D02007408A
:105060000080FF1F94200740C800400088004000D7
:10507000990700209C380100100800200808002033
:1050800004080020606A083800F014F9C0E4C86F12
:10509000083800F00FF9FDE4486F083800F00AF90D
:1050A000F2E4C86E083800F005F9E7E4486E083805
:1050B00000F000F9DCE4C86D083800F0FBF8D1E43A
:1050C000486D083800F0F6F8C6E4C86C083800F0FF
:1050D000F1F8BBE4486C083800F0ECF8B0E4D1F823
:1050E0009C00083800F0E6F8ECE4D1F894000838A9
:1050F00000F0E0F8E0E4D1F88C00083800F0DAF8CD
:10510000D4E4D1F88400083800F0D4F8C8E44FF0B3
:10511000020EECE62A78C9F8480001322A705AE6F5
:105120002A78C8F8400001322A703FE72A78C9F887
:10513000680001322A705BE62A78C8F86000013204
:105140002A7061E72A78C9F8880001322A705BE684
:105150002A78C4F8800001322A7010E72A78C9F84A
:10516000280001322A7028E62A78C9F82000013286
:105170002A7032E7BEF1400FF44628BF4FF0400CD2
:1051800004EB0C0302930123CCEB0E004FEA0C4816
:105190000022019318E500BFF8B500F0DFFA294BB3
:1051A00029482A4C2A4F2B4DDFF8BCC0DFF8BCE061
:1051B000294E00221A605A609A60DA601A615A61B8
:1051C0009A61DA611A625A629A62DA621A635A63FF
:1051D0009A63DA631A645A649A64DA641A655A65DF
:1051E0009A65DA651A665A669A66DA661A675A67BF
:1051F0009A67DA67C3F880200168C3F8842041F415
:1052000080210160C3F307212170C3F307401349D4
:1052100038701B0E2B70FF238CF80030104D8EF869
:10522000003010480B700123337084F8642070261E
:105230004FF40074102207F82C3C2E70046081F8A3
:10524000F820F8BD0080FF1F348004409C200740F8
:10525000B0200740B42007409420074010200740AA
:1052600049E400E008E100E0802007408820074092
:10527000704700BF72B60D480268B2FA82F30B2B7A
:1052800010DC4FF00041D94022EA0102026062B610
:10529000074803EBC303DB00C2180021C1501046CE
:1052A0005160704762B60020704700BFF4F4FF1FE2
:1052B000BCEBFF1F0D4B0E4AC31AA2FB03231B09B5
:1052C0000B2B0CD80B4A127852B972B60A484FF021
:1052D0000041026821FA03F31A43026062B6704784
:1052E000064A1278002AF0D0FFF748B9BCEBFF1F3E
:1052F000398EE33805080020F4F4FF1F1008002061
:10530000044B054A1B6890881BB11A885B88D31A26
:105310001844704720080020E809002038B50E4BDB
:105320001B7873B90D4C216861B103F0FF054B8800
:105330000B800420FFF786F9256038BD084B012259
:105340001A7038BDFFF796FF0028F7D00146BDE878
:1053500038400420FFF776B9190800201C08002007
:105360001808002038B5224C237803B138BD01233A
:105370002370FFF7C5FF70BB00F048F840BB00F09A
:10538000DBF810BB00F06EF9E0B900232370EFF3F7
:105390000583002BEAD1EFF3108172B6154B186824
:1053A000E0B1154C2278CAB945691D60012323700C
:1053B000C5B1AA6101B962B60025457783689847EF
:1053C0002570D3E700F020F8DFE700F01BF8D9E7FD
:1053D00000F016F8D3E7FFF74BFFCDE70029C5D162
:1053E00062B638BD054B1D600029E5D1E3E700BF7B
:1053F00025080020140700201807002010070020AF
:10540000704700BF704700BF704700BF054A064B9A
:1054100010781B78C0B2DBB2984238BF4030C01A57
:10542000704700BF2C0800202D080020F0B4384B36
:105430001A7912F0300F2CD072B6997D01F0FF026C
:1054400000293DD062B6334F334938780D78334E5A
:105450001C46C0B2EDB2431C402BE17928BF0023AB
:10546000AB4202F1FF32C9B21CBFF154184612F030
:10547000FF02F0D12A4B1B68C2B23A704BB1A8426E
:1054800036BFC5F14005401B40192728C4BF012283
:105490001A701F49CA78D2B2150616D452060DD515
:1054A0001B4B1B795B0609D51E4B1F491B6800224D
:1054B0000A7003B11A70164B3C22DA70F0BC7047C8
:1054C0004022D9795A7462B6E3E70B791C06E5D518
:1054D000164B174E1C783378E4B2DBB29C420ED0E8
:1054E000144D01E0A3420AD00133402B28BF002312
:1054F0000879E85CC0B2C871087D0728F2D9DBB230
:10550000034933700B79180644BF7C23CB70C5E781
:1055100000A006402C0800202D0800207008002064
:1055200028080020B4080020B0080020B808002097
:10553000B108002030080020054A064B10781B787F
:10554000C0B2DBB2984238BF4030C01A704700BFCB
:105550002C090020C1080020F0B4384B1A7912F051
:10556000300F2CD072B6997D01F0FF0200293DD09A
:1055700062B6334F334938780D78334E1C46C0B28B
:10558000EDB2431C402BE17928BF0023AB4202F16E
:10559000FF32C9B21CBFF154184612F0FF02F0D11D
:1055A0002A4B1B68C2B23A704BB1A84236BFC5F154
:1055B0004005401B40192728C4BF01221A701F490B
:1055C000CA78D2B2150616D452060DD51B4B1B79DC
:1055D0005B0609D51E4B1F491B6800220A7003B1E8
:1055E0001A70164B3C22DA70F0BC70474022D97911
:1055F0005A7462B6E3E70B791C06E5D5164B174ED5
:105600001C783378E4B2DBB29C420ED0144D01E03A
:10561000A3420AD00133282B28BF00230879E85C75
:10562000C0B2C871087D0728F2D9DBB203493370D4
:105630000B79180644BF7C23CB70C5E700B0064049
:105640002C090020C1080020EC080020BC08002024
:1056500030090020C0080020340900202D09002056
:10566000C4080020054A064B10781B78C0B2DBB294
:10567000984238BF4030C01A704700BF3C09002034
:105680003D09002030B42B4B1A7994061FD52A48C7
:10569000DA790378294901333F2B0978C8BF002301
:1056A0008B42D2B203D0264CD9B2E2540170254AC3
:1056B000116861B1244A1278D2B2934236BFC2F166
:1056C00040029B1A9B18272BC4BF01230B70194A59
:1056D000D378DBB2180611D45A060DD5154B1B79B9
:1056E0005B0609D5194B1A491B6800220A7003B1E1
:1056F0001A70104B2C22DA7030BC704711790906F1
:10570000EAD5144910480C780178C9B28C420DD002
:105710004A1C272A84BF00210A460F4D054C98BF1A
:10572000D1B2AA5CD2B2E2710170D5E76C21D1701E
:10573000D2E700BF00C006403C0900203D09002020
:105740006809002038090020A9090020AC090020C0
:10575000A8090020B00900204009002070B584B0DD
:1057600072B6194B194D1A48702241260F24802118
:105770001A702E701A460470197013781B06FCD527
:10578000144B186862B6144B144C984298BF00EB47
:10579000800001A998BF40000A22FEF7C1FB01A9C1
:1057A0002046002311F8012B01333AB10A2B20F8CF
:1057B000022FF7D11623237004B070BD5B00DBB25B
:1057C000237004B070BD00BF00000240070002401B
:1057D00006000240080002407F96980084F5FF1FF3
:1057E00000B51D4A20F00043934283B019DDB3F1A8
:1057F000FF4F05DB014601F095FB03B05DF804FBAC
:10580000694600F079F800F00300012818D002285A
:105810000ED0D0B10199009800F034FA00F10040A8
:10582000EBE70022002100F03FFE03B05DF804FB2F
:1058300001220199009800F037FE00F10040DCE7FA
:105840000199009800F01EFAD7E70122019900980B
:1058500000F02AFED1E700BFD80F493FF0B58BB06A
:10586000054600F0BBF9224B93F90060731C044617
:105870000AD02946284601F025FE074620B9002116
:10588000284601F0F7FD10B920460BB0F0BD194BCA
:105890000897012228468DE80C0001F089F80022C3
:1058A000CDE90401CDE9020100239EB1104619465D
:1058B00001F0FCF9022ECDE906010DD102F02EF81F
:1058C00021230360089B6BB9DDE9060101F0D6FADC
:1058D0000BB0F0BDCDE90623684600F05BFE002862
:1058E000F0D1EBE702F01AF8089B0360ECE700BF89
:1058F0009AF5FF1FF03801002DE9F04FAA4A20F079
:105900000044944289B067DDA84A94420D46074698
:1059100001461CDC0028A64940F3EC8001F002FBA4
:10592000A44B24F00F049C42064663D0A24901F028
:10593000F9FA01462860304601F0F4FA9E4901F078
:10594000F1FA01236860184609B0BDE8F08F9B4A60
:10595000944261DDB4F1FF4F46DAE615863EA4EBD2
:10596000C654204601F0C4FD01F092FB03460146F7
:105970002046059301F0D6FA4FF0874101F0DCFB99
:10598000804601F0B5FD01F083FB01460446404628
:10599000069401F0C7FA4FF0874101F0CDFB0021DA
:1059A000079001F05DFD002800F0C5802046002131
:1059B00001F056FD002814BF01230223804A019202
:1059C000022100913246294605A800F01FFA002F57
:1059D000C0F2A780034603E0002208604A6000236B
:1059E000184609B0BDE8F08F01F09CFA002368600A
:1059F0002860F5E7734901F095FA7349044601F010
:105A000091FA01462860204601F08CFA6E4901F0B7
:105A100089FA01236860E3E700F0BEFD6B49804628
:105A200001F08AFB4FF07C5101F07EFA01F060FD3D
:105A3000064601F02DFB5E49834601F07DFB0146E1
:105A4000404601F06FFA5C498146584601F074FB0C
:105A50001F2E82461ADC5E4A711E24F0FF0352F8A4
:105A60002120934212D05146484601F05BFA80460D
:105A7000C5F800804146484601F054FA514601F00D
:105A800051FA002F686058DB3346A9E75146484673
:105A900001F048FAE215C0F3C753D31A082B804629
:105AA000E6DD48490392584601F046FB8046014630
:105AB000484601F037FA01460446484601F032FAFA
:105AC000414601F02FFA40498046584601F034FB28
:105AD000414601F027FA01468246204601F022FAAB
