:1000000000800020BD010000653B00001D3B00009A
:100010001D3B00001D3B00001D3B00001D3B000080
:100020001D3B00001D3B00001D3B0000653B000028
:10003000653B00001D3B0000653B00000D3B0000E0
:10004000653B0000653B0000653B0000653B000030
:10005000653B0000653B0000653B0000653B000020
:10006000653B0000653B0000653B0000653B000010
:10007000653B0000653B0000653B0000653B000000
:10008000653B0000653B0000653B0000653B0000F0
:10009000653B0000653B0000653B0000653B0000E0
:1000A000B5350000C1350000653B0000653B000030
:1000B000653B0000653B0000653B0000653B0000C0
:1000C000653B0000653B0000653B0000653B0000B0
:1000D000653B0000653B0000653B0000653B0000A0
:1000E000653B0000653B0000653B0000653B000090
:1000F000653B0000895D0000653B0000CD640000A9
:10010000653B00003D6A0000653B0000653B000068
:10011000653B0000653B0000653B0000653B00005F
:10012000653B0000653B0000653B0000653B00004F
:10013000653B0000653B0000653B0000653B00003F
:10014000653B0000653B0000653B0000653B00002F
:10015000653B0000653B0000653B0000653B00001F
:10016000653B000069430000653B0000653B000003
:10017000653B0000653B0000653B0000653B0000FF
:10018000653B0000653B0000653B0000653B0000EF
:10019000653B0000653B0000653B0000653B0000DF
:1001A000653B0000653B0000653B0000653B0000CF
:1001B000653B0000653B0000B5510000564B4CF21A
:1001C000205210B51A804DF628121A8000BF00BFC9
:1001D00003F0CCFC514B4FF010621A60504A9A6009
:1001E000504ADA60504A136813F4807304D14F49BF
:1001F0000B604FF4A85313604D4B1A78110703D5C9
:100200001A7842F008021A704A4B4B492A221A7097
:100210004A4A4B4B8B4204D252F8040F43F8040B6A
:10022000F8E7484B484900228B4202D243F8042B9E
:10023000FAE74649464A002352F8230041F82300D2
:1002400001336F2BF8D1434B434A802103F8011B44
:100250009342FBD1414B3D4A1A60414B8A221A70AE
:10026000A3F5805324225A70A0221A709A7992071B
:10027000FCD59A79D406FCD43A4A937903F00C035E
:10028000082B384BF9D103221A7140225A719A79FE
:100290009006FCD5334A9179324B4906FBD5324A58
:1002A000324911600221516020221A709A7902F0BD
:1002B0000C020C2AFAD12E4B2E4A1A602E4B2F4AD2
:1002C0001A6000225A60072243F8042C2C4AC3F813
:1002D0000C2D62B603F020FF144B1B68DA0705D51E
:1002E000284803F0A1FD284B284A1A60284B1B78A8
:1002F0005B0609D5244C254B22689A4204D121483B
:1003000003F092FD0023236008F094FF03F034FC17
:1003100005F096F9FEE700BF0E200540308004404E
:10032000823F04000100002B10D0034014D0034092
:1003300002D0074000E0074074ABFF1FF8570100F0
:10034000209FFF1F78ABFF1F20BAFF1F009AFF1FDF
:100350000000000000E400E05FE400E008ED00E0E1
:100360000050064000400640448004400000030165
:1003700004800440C010050014E000E0FF76010096
:1003800000002020DCFA3D5B1CE00340A5C3945A2A
:1003900000F00740FFFFFFFFFFFFFFFFFFFFFFFF32
:1003A000FFFFFFFFFFFFFFFFFFFFFFFFFFFFFFFF5D
:1003B000FFFFFFFFFFFFFFFFFFFFFFFFFFFFFFFF4D
:1003C000FFFFFFFFFFFFFFFFFFFFFFFFFFFFFFFF3D
:1003D000FFFFFFFFFFFFFFFFFFFFFFFFFFFFFFFF2D
:1003E000FFFFFFFFFFFFFFFFFFFFFFFFFFFFFFFF1D
:1003F000FFFFFFFFFFFFFFFFFFFFFFFFFFFFFFFF0D
:10040000FFFFFFFFFFFFFFFFFFFFFFFFDEF9FFFF23
:1004100010B5054C237833B9044B13B10448AFF33E
:1004200000800123237010BD78ABFF1F0000000087
:10043000F4570100084B10B51BB108490848AFF349
:1004400000800848036803B910BD074B002BFBD0A0
:10045000BDE81040184700BF000000007CABFF1F44
:10046000F457010074ABFF1F00000000002310B41C
:10047000104C4172026104600372C36041B11946BD
:1004800000E0026942F82310427A01339A42F8DC14
:10049000094B1A680AB90AE01A465369002BFBD1C6
:1004A0005061002343618380C38010BC7047186093
:1004B000F7E700BF7C9C0000D0B7FF1F38B5144B96
:1004C000144D1548042200245A861C6214216A86A1
:1004D0002C6204F05BFD2146104801F09FFF20468E
:1004E00003F050FA2146022003F0C2FD01210D2045
:1004F00003F0BEFD0121032003F0BAFD01210D2010
:1005000003F0A2FD01210320BDE8384003F09CBDAB
:1005100030B1FF1FF8B0FF1F0082FF1F44AEFF1F66
:100520002DE9F047904C914D914E4CF6CC4382B062
:1005300063620F2003F04CFA8E4B2F68186008F0AE
:100540002DFA394608F074F98B4B8C49186008F085
:1005500079FA394608F06EF98949286008F072FA8C
:10056000884908F023FB4FF07E5108F063F9002121
:100570003060054608F004FC002840F0FB84824906
:10058000284608F01BFC002800F0AA847F4BE3619A
:10059000284607F0D5FD022702460B4600977C4807
:1005A000DFF838827B4D04F02BFF794804F0D6FE4B
:1005B000112003F00DFA784BD8F80090186008F07D
:1005C000EDF9494608F034F9744B7549186008F0A4
:1005D00039FA494608F02EF9C8F8000008F00EFC78
:1005E0005B230021009340F2FF32012305F01CF849
:1005F0006C4B6D4A53F820301060E362EB62384672
:1006000003F028FD694C634F01280CBF4FF07E5367
:100610004FF0804323604CF6CC436B62102003F014
:10062000D7F908F0BBF9624908F00CFA554908F00F
:10063000BDFA604908F0FCF8316808F0FBF85E4B41
:100640002168186008F0B2FA0021044608F098FB0F
:10065000002840F08B844C49204608F0AFFB00286E
:1006600000F0E683494BEB61122003F0B1F908F08A
:1006700095F94FF07C5108F0E5F942494F4E504C46
:1006800008F094FA002108F0D5F83060142003F047
:100690009FF908F083F93B4908F088FA002108F037
:1006A000C9F82060142003F093F908F077F9354970
:1006B00000F1004008F07AFA4FF07E5108F0BAF8E5
:1006C000404B41491860054608F078FB002840F08F
:1006D00087803E49284608F053FB002840F00F84ED
:1006E0004FF08F41284608F0ADF908F087FB2768E6
:1006F000374C3549A061384608F060FB002800F00F
:1007000076830023DFF8D0802F49C4F81C80284668
:100710002362636208F052FB002873D12B492846FC
:1007200008F02EFB002840F069854FF08F412846E5
:1007300008F088F908F062FB264C2349A06138468E
:1007400008F03CFB002840F079852049384608F045
:1007500017FB002840F040844FF08F41384608F0E6
:1007600071F908F04BFB50E0F8B0FF1F8CAFFF1F92
:10077000D0B2FF1FD8B2FF1F60ACFF1F0AD7233CC7
:100780000080F94300C07F44A655AC460000FE7FC0
:1007900000B8FF1F30B1FF1F3CAEFF1F40AEFF1F70
:1007A0006F12033C20A0FF1FC8B2FF1F54ACFF1FF5
:1007B000000020410000A040D4B2FF1FE8B0FF1F9E
:1007C000ECB0FF1F58ADFF1F00FEFF4600FEFFC646
:1007D0001CAFFF1F54AFFF1F0000FF7F58ACFF1F6F
:1007E0002768B24CDFF8D082B149C4F81880384687
:1007F00008F0E4FA002800F0FA820023C4F81C8014
:1008000023626362AB4CAC48A0610023E06113201B
:100810002362636203F0DCF808F0C0F8A74908F02F
:1008200011F9A74908F0C2F9A64908F003F8A64B48
:10083000A6491860044608F0A3FA002840F068832F
:10084000A349204608F0BAFA002800F01284A14B10
:10085000A14AA24DA24F9D495A6220469D61DF6187
:1008600008F08EFA002840F0F0843A469D4B9A4FEB
:1008700096499D612046DA615F6208F081FA00289E
:1008800040F051839249204608F098FA002800F081
:10089000AC83934D914F944B8F4A8C499F61204676
:1008A000DD615A6208F06CFA002840F0CA84884979
:1008B000204608F083FA002800F0AE838848874C71
:1008C0008A4D8B4B2F688B4ADFF80CE29C616424C5
:1008D000C3F824E01460D86139468748DFF8709285
:1008E00007F0A6FF854B8649186008F0ABF839463B
:1008F00007F0A0FF286008F081FA4FF4007301218F
:1009000040F2FF320093A3F5806304F08DFE7D4D2D
:100910002860222003F05CF82B68184408F03EF8A9
:1009200000242146804608F049FA002800F0098397
:10093000634F4046394608F023FA002840F0F4831C
:10094000714A724C6C49724BC9F800701160E361D6
:10095000704B71491A6801208242086005D06F49C6
:100960000022B1F9021061862262012223201A605E
:1009700003F02EF808F012F8514908F017F9002199
:1009800007F058FF664B00211860074608F0F8F999
:10099000002840F009834FF07E51384608F00EFAE7
:1009A000002800F031844FF48033636201271F2058
:1009B00003F00EF80B2340F2FF320021009704F001
:1009C00033FE584C20601E2003F002F844F25063BE
:1009D00040F2FF320097002104F026FE2378524AAD
:1009E000102B106000F29282002B08BF3B464F4C48
:1009F000237607F0D3FF01464D4808F0D7F84FF0B3
:100A00007C5107F017FF08F0F9F9002840F39782AE
:100A100040280346A8BF4023DBB26376152002F0CE
:100A2000D7FF07F0BBFF4349434C08F00BF82449BC
:100A300008F0BCF8234907F0FDFE2060162002F004
:100A4000C7FF07F0ABFF3D4907F0FCFF1C4908F06A
:100A5000ADF84FF07F5107F0EDFE2468384B1B498D
:100A600018600746204608F08BF9002840F06382A2
:100A70001749204608F0A2F9002800F0E382184B3D
:100A8000DFF858802F4C3049C4F818803846E361AD
:100A900008F076F9002840F037822C49384608F0F3
:100AA0008DF9002840F09F8254E000BF1CAFFF1F6B
:100AB00000FEFF4654AFFF1F0000FF7F00C09945B6
:100AC00000C07F440000A04290AFFF1F0000A04183
:100AD0001EDE894698AFFF1F00B76D5B00BE6C50ED
:100AE000008C3C4B10B0FF1F4CB0FF1F18B2FF1F13
:100AF00088B0FF1F4CACFF1F0000C842F4B0FF1FBE
:100B00000AD7A33B44ACFF1F5CACFF1F68B1FF1FBB
:100B10005B8C940060AEFF1F50ACFF1F08A0FF1F4E
:100B200030B2FF1F5CADFF1F94ABFF1FC4B0FF1FAF
:100B3000A6552C470020694694AFFF1F0000604077
:100B40001CB2FF1FD4AFFF1F3333333F0000A04060
:100B500070AEFF1F39464FF07E5008F027F84FF077
:100B60009D4107F06FFF08F049F960621A2002F01A
:100B70002FFF07F013FFB44908F018F8002107F021
:100B800059FEB24B00211860044608F0F9F800281D
:100B900040F020824FF07E51204608F00FF90028E7
:100BA00000F044834FF48030A94CDFF82CA360623E
:100BB000252002F00DFF2B68184407F0EFFE0027F8
:100BC0003946814608F0FAF8002800F0EF81DFF896
:100BD00078824846414608F0D3F8002840F0F08279
:100BE0009C4A9D499D4BCAF800801160E361242016
:100BF00002F0EEFE002305221946009240F2F23286
:100C000004F012FD964B97491A680860904205D08F
:100C10009549002231F91010618622623468934EA2
:100C200018604FF400439249B361204608F0C6F8BB
:100C3000002840F067818F49204608F0A1F800287D
:100C400040F0CC814FF08F41204607F0FBFE08F0CA
:100C5000D5F8F06100241D203462746202F0B8FE01
:100C600007F09CFE784907F0A1FF002107F0E2FDA4
:100C7000814B00211860064608F082F8002840F0F9
:100C800091814FF07E51304608F098F8002800F02E
:100C9000C5824FF48030794CDFF8408260621C20BE
:100CA00002F096FE2B68184407F078FE00263146C5
:100CB000074608F083F8002800F06081624D38464E
:100CC000294608F05DF8002840F010826C4A62491D
:100CD000624BC8F800501160E3611B2002F078FEFF
:100CE000002305221946009240F2F23204F09CFCE7
:100CF000644B65491A680860904205D06349002238
:100D000031F9101061862262186072B6604A614B38
:100D1000D3610023137662B65F4C604D6049614831
:100D200023624FF4803643F2333702226362EB6171
:100D30002B626B62AF61A661E66100F0F3FF0222F5
:100D40005749594800F0EEFF02225549574800F034
:100D5000E9FF574800F0C6FE4FF07C5107F068FDF0
:100D6000544907F06FFE014607F064FD002107F0CB
:100D700061FD08F043F8504A034601460420136021
:100D800003F064F84D4800F0ADFE4FF07C5107F0E1
:100D90004FFD484907F056FE014607F04BFD002184
:100DA00007F048FD08F02AF8454A034601460520A9
:100DB000136003F04BF8434800F094FE4FF07C5171
:100DC00007F036FD3B4907F03DFE014607F032FDD6
:100DD000002107F02FFD08F011F83B4A03460146B9
:100DE0000620136002B0BDE8F04703F02FB8214998
:100DF000384607F0C5FF00287FD14FF08F413846B5
:100E000007F020FE07F0FAFF0023E0611849236293
:100E10002846636207F0D2FF002840F0E1801549C0
:100E2000284607F0ADFF00283FF47FAC274883E455
:100E30002749204607F006FE08F006F8254BF86122
:100E400098427FF611AC0DE400C07F4410B2FF1F42
:100E5000A0B1FF1F34B2FF1F0000C8425B8C94009A
:100E600064AEFF1FCCB2FF1F14A0FF1F74AEFF1FA4
:100E700000FEFF4600FEFFC6E4B0FF1FD8B1FF1F13
:100E80006CAEFF1F68AEFF1FF0B0FF1F8CA1FF1FED
:100E900018ACFF1F0000FF7FE4AEFF1FACAEFF1FCA
:100EA00000A0FF1F90ADFF1FB4ADFF1FD8ADFF1F07
:100EB00038B2FF1F00007F4364ACFF1F68B2FF1F02
:100EC00048ACFF1F98B2FF1FDCB2FF1F000001807B
:100ED0004B24BE470000FE7F40ACFF1F14B2FF1F33
:100EE000A249284607F0AEFD07F0AEFFA04BE06137
:100EF00098427FF64DABFFF749BB9E4884E79D487B
:100F0000FFF7F5BB9C48A4E69C482EE610236EE54F
:100F10009B4A9C4B9C4C9D48984994619C61D06134
:100F2000D861516259629A4B974C9848934A5A62D9
:100F30009C61D861C4E4954BDFF84C82A2E50123A3
:100F40006BE59448944BC9F8004018600746874900
:100F5000924C384607F076FD07F076FF844BE0614F
:100F600098427FF6F5AC824BE361F1E40023FB612C
:100F7000FFF77ABB0023E361FFF70ABB8548884B84
:100F8000C8F80060186005467849284607F05AFD01
:100F900007F05AFF764BE06198427FF69EAE744BA5
:100FA000E3619AE6204676E60023FEE479487D4B2D
:100FB000CAF80070186080466C49404607F042FD50
:100FC00007F042FF6A4BE06198427FF610AE684B33
:100FD000E3610CE60020E7E5664816E4654838E67C
:100FE0006548FFF7A9BB7048BFE57049204607F088
:100FF00029FD4FF09E41054607F024FD07F0FEFE57
:101000000746284605F0B4FF4FF09E4107F01AFD51
:1010100007F0F4FE05463EE42046644907F012FD61
:101020004FF09E41054607F00DFD07F0E7FE044630
:10103000284605F09DFF4FF09E4107F003FD07F0A5
:10104000DDFE3DE42046594907F0FCFC4FF09E418F
:10105000044607F0F7FC07F0D1FE8046204605F075
:1010600087FF4FF09E4107F0EDFC07F0C7FE0346F7
:1010700008E54E49424D204607F0E4FC074605F0DE
:1010800077FF4FF09E418046384607F0DBFC07F0C3
:10109000B5FE4FF09E41A861404607F0D3FC07F033
:1010A000ADFE364BE86142496B62204607F068FEB0
:1010B000002840F0CA803F49204607F07FFE002804
:1010C00040F0D0804FF09E41384607F0BBFC07F05F
:1010D00095FE0546384605F04BFF4FF09E4107F060
:1010E000B1FC07F08BFE0246FFF7C0BB3249384621
:1010F00007F0A8FC294607F059FD264907F09AFB9E
:10110000274BC8F8007031461860054607F038FED6
:1011100038B92A49284607F051FE00287FF43FAF2E
:1011200032E70023E361D8E52349404607F08AFC13
:10113000394607F03BFD174907F07CFB164BC9F811
:10114000008021461860074607F01AFE40B91B4987
:10115000384607F033FE00283FF4F9AE0F4C02E7A3
:101160000E4C0023E361FFF7F3BB00BF4B24BE47E7
:101170000000FE7F000001800000FF7F00B76D5B74
:1011800098AFFF1F10B0FF1F7B5517007A5517004F
:101190004CB0FF1FCDCC4C3D5CACFF1F68B1FF1FB6
:1011A0006CAEFF1F34B2FF1FD0CCCC0C46561538A6
:1011B0000000A0411EDE894666E6C742A655AC4641
:1011C0002A49484607F03EFC414607F0EFFC284913
:1011D00007F030FB274BCAF800903946186080466C
:1011E00007F0CEFD38B92449404607F0E7FD002856
:1011F0007FF4EDAEE0E60023E361F8E41F4C204B02
:10120000A3614046FFF701BB4FF08F41384607F01E
:1012100019FC07F0F3FD0346FFF7C7BB4FF08F4102
:10122000304607F00FFC07F0E9FD34E54FF08F4141
:10123000204607F007FC07F0E1FDB5E41148FFF791
:10124000E4BA1148114CFFF73BBB114A114B0F4C4C
:101250000D4811499461D061516259629C61D86115
:10126000FFF72EBB0D4A0E4DFFF700BB66E6C742E7
:10127000CDCC4C3D34B2FF1FA655AC4654AFFF1F3A
:10128000000001800000FF7F7A5517007B55170092
:1012900010B0FF1F4CB0FF1F00B76D5B008C3C4BC4
:1012A00000BE6C502DE9F04FB24BB34DDFF83093D8
:1012B000DFF830B3DFF830A383B0002211461846C0
:1012C00014460193FFF7D2F8019BAC481D602246FB
:1012D00021464FF080459D629C61DC611C625C622E
:1012E000DC621C865C869C86FFF7C0F8A34BA24D8F
:1012F0001D60224621464FF08045A1489D629C61B9
:10130000DC611C625C62DC621C865C869C86FFF78A
:10131000ADF89C4B984D03F128021846984B0421D8
:101320001D604FF080459D629C61DC611C625C62C7
:10133000DC621C865C869C86FFF798F8914B924D88
:101340001D604FF4803609F13402022148469E6147
:10135000DE611E625E62FFF789F88C4BC9F8284097
:1013600003F1340218468A4BC9F80030894BC9F89A
:101370001830A3F57C53183BC9F81C304FF4805348
:101380000221C9F82030844BC9F82430C9F82C4018
:10139000C9F83040FFF76AF8804B7D4D03F1180221
:1013A00018467A4B1D607B4D9D61A5F57C55183D17
:1013B000DD614FF480551D62774D5D6201219C62B5
:1013C000DC621C63FFF752F87448754A7549764D24
:1013D000056007F01DFF754B6B4D03F128021846A1
:1013E0000421FFF743F8724B03F1180218466F4BC4
:1013F00001211D609E61DE611E625E62FFF736F8AC
:101400006C4B6D4D03F134021846694B02210027E5
:101410004FF00008C3E908781D609C62FFF726F8CA
:10142000664B5B4D644F03F134021846614B1D60FF
:10143000584D9D61A5F57C55183DDD614FF48055F3
:101440001D62554D5D6202219C62DC621C63FFF7E8
:101450000DF85B4B4E4D03F128021846574B1D60AB
:101460004C4D9D61A5F57C55183DDD614FF48055CF
:101470001D62494D5D6204219C62DC621C63FEF7C3
:10148000F5FF4F4B404D4F481D60224621469E615F
:10149000DE611E625E62FEF7E9FF4A4B4A48186051
:1014A0002246214658461C76DC61FEF7DFFF324BB0
:1014B000CBF8003022464FF0804321465046CBF80F
:1014C0002830CBF81840CBF81C40CBF82040CBF8A4
:1014D0002440CBF82C40ABF83040ABF83240ABF8AE
:1014E0003440FEF7C3FF394BCAF8184003F11C0221
:1014F0001846214BCAF8003001214FF08043CAF84A
:101500002830CAF81C40CAF82040CAF82440CAF85B
:101510002C40AAF83040AAF83240AAF83440FEF72E
:10152000A5FF2A4B2A4A1A602A4B012103F118020F
:101530001846FEF79BFF274B1B481860184A1949AD
:10154000184607F065FE244B042103F128021846D3
:10155000FEF78CFF214B03F1180218461E4B0121A8
:101560001D609E61DE611E625E62FEF77FFF1B48AA
:101570000B4A3BE030B1FF1F4C500100F8B0FF1F99
:1015800068B1FF1F74AEFF1F2850010010B0FF1F8D
:101590001C50010000B28E0480F9855A90ADFF1FE7
:1015A000FC9FFF1F0D1D0000105001001CAFFF1F0E
:1015B00038B2FF1F88B0FF1FEC4F01004CB0FF1F77
:1015C00054AFFF1F18ACFF1F40500100C4B0FF1FF5
:1015D000F84F0100B4ADFF1FE4AEFF1FD8ADFF1FF1
:1015E00098AFFF1FD8B1FF1FA0B1FF1F3A493B4D75
:1015F000056007F00DFE3A4B394D03F134021846F1
:101600000221FEF733FF364A364B1360364B34491E
:10161000AC6203F118021846344B8B61A3F57C537E
:10162000183BEB614FF480532B62314B6B6201210D
:10163000EC622C63FEF71AFF2E4B2F4D03F11802BC
:101640001846294B02211F604FF000080027C3E90C
:1016500008789C62FEF70AFF264B284A1A60284B3E
:10166000284F03F1180218460121FEF7FFFE264B12
:1016700003F128021846224B04211F604FF0000896
:101680000027C3E908789C62FEF7F0FE1E4B1F4955
:101690001960DFF880C09E614FF0010E05F118015E
:1016A000DE611E625E62224620462C72EC60C5F846
:1016B00000C085F809E029612E46019B00E03169F0
:1016C00041F82200697A0C4C01329142F7DC104A51
:1016D000116811BB70E100BF0D1D0000105001002A
:1016E000D4AFFF1F1C50010098B2FF1F00B28E0440
:1016F00080F9855A60ADFF1F44AEFF1F0450010002
:1017000068B2FF1FEC4F0100ACAEFF1F2850010074
:10171000D0B7FF1F7C9C000011464A69002AFBD10C
:101720004D610026A54AA6486E61AE80EE80019309
:101730002A6000F0AFFDA34A019B1360012410460C
:10174000A14B16725360D660547203F003FD9F4A9A
:101750009F4B136010469C4B167253605672D660B6
:1017600003F0F8FC9B4A9C4B1672104682E8080274
:101770005472D66003F0EEFC984A974B1360104603
:10178000974B167253605672D66003F0E3FC954A8D
:10179000914B13601046944B167253605472D6608E
:1017A00003F0D8FC914A8C4B13601046904B167294
:1017B00053605472D66003F0CDFC8E4A864B1360A2
:1017C00010468D4B167253605472D66003F0C2FC03
:1017D0008A4A7D4B1672104682E808025672D6601D
:1017E00003F0B8FC864A784B136010467E4B1672A5
:1017F00053605672D66003F0ADFC824A824B16727B
:101800001046C2F8009053605672D66003F0A2FCF6
:101810007E4A754B1360022710467B4B547253600F
:10182000D660177203F096FC794A6D4B1360104630
:10183000784B167253605672D66003F08BFC764A72
:10184000714B136010466C4B167253605672D66023
:1018500003F080FC714A6C4B13601046644B1672A7
:1018600053605672D66003F075FC6D4A604B13608E
:1018700010466C4B177253605472D66003F06AFCCA
:10188000694A5D4B13601046664B16725360567280
:10189000D66003F05FFC654A624B13601046644BF0
:1018A000167253605672D66003F054FC614A624B64
:1018B00013601046614B167253605472D66003F089
:1018C00049FC5F4A5D4B16721046C2F800B0536087
:1018D0005672D66003F03EFC5A4A5B4B16721046B5
:1018E000C2F800B053605672D66003F033FC574A1A
:1018F000574B16721046C2F800A053605472D6605F
:1019000003F028FC534A544B16721046C2F800A04C
:1019100053605672D66003F01DFC504A444B13606E
:1019200010464B4B167253605672D66003F012FC91
:101930004B4A454B136010464A4B16725360567221
:10194000D66003F007FC484A3C4B13601046474BF7
:10195000167253605672D66003F0FCFB444A3E4B4D
:1019600013601046434B167253605672D66003F0F4
:10197000F1FB414A364B136010463C4B54725360A6
:101980001672D66003F0E6FB3C4A384B13601046F3
:101990003B4B167253605672D66003F0DBFB394A3C
:1019A000374B1672104682E828005672D66003B094
:1019B000BDE8F04F03F0CEBB1460B2E63450010036
:1019C00044AEFF1F98ABFF1F74AEFF1FA8ABFF1FF5
:1019D000F8B0FF1FB8ABFF1F68B1FF1FC8ABFF1FF8
:1019E00090ADFF1FD8ABFF1F10B0FF1FE8ABFF1F6C
:1019F00088B0FF1FF8ABFF1F4CB0FF1F08ACFF1FE4
:101A000020B2FF1F68ACFF1F1CAFFF1F78ACFF1F89
:101A100088ACFF1F38B2FF1F98ACFF1FA8ACFF1F98
:101A2000B8ACFF1F54AFFF1FC8ACFF1FD8ACFF1FDF
:101A3000C4B0FF1FE8ACFF1F18ACFF1FE4AEFF1FD0
:101A4000F8ACFF1F08ADFF1FB4ADFF1F80ADFF1F37
:101A5000D4AFFF1F18ADFF1FD8ADFF1F28ADFF1F6C
:101A600038ADFF1F98B2FF1F48ADFF1F60ADFF1FCD
:101A7000FCADFF1F68B2FF1F0CAEFF1F1CAEFF1FA7
:101A8000ACAEFF1F2CAEFF1F2DE9F04100218046B8
:101A900003F032FBF8B1D8E90823011D00F5827E7E
:101AA0000F684E688D68103151F8044CC7FBC7238E
:101AB000C6FBC623C5FBC523C4FBC4238E45EFD894
:101AC000D8F828100131C8E90823C8F82810BDE863
:101AD000F04103F0D3BAD8F828300133C8F82830E1
:101AE000BDE8F081F8B572B6002600270023D0E9E2
:101AF0000845826A8362C0E9086762B6D20120465F
:101B0000294607F0C1F906F05FFF05F06FFA0249B8
:101B100007F04CF8F8BD00BF00FEFF46F8B5037EA5
:101B2000102B04464FF000014FD0204603F0F0FA8E
:101B30000546002868D0637E012B57D9227E102AE3
:101B40004FF000062AD005EB4602B2F90470FBB153
:101B5000802E41D005EB46000230324601E0802A5B
:101B60003AD0237EC3F1100327FA03F101FA03F3FD
:101B700020F8023F0132637E911B9942EFDB802AFD
:101B80002AD0164605EB4602B2F90470002BDFD1CD
:101B90003246F4E73246802A1ED0164605EB46024E
:101BA000B2F90470002BF5D0802E15D005EB46015C
:101BB0000231324601E0802A0ED021F8027F013244
:101BC000637E901B9842F6DBE5E7437E012BACD8A1
:101BD00003F092FA0546B8B120462946002203F0E8
:101BE00071FA2846BDE8F84003F048BA811C00F5B8
:101BF0008170227E31F9023FC2F1100213419340FD
:101C000088420B80F5D1E7E7F8BD00BF2DE9F84326
:101C10000021054603F07CFA01210446284603F022
:101C20006BFA0646BCB3D0B304F5827E231D9E45F5
:101C300024D90C3004F10C0111E90C0050F8089C77
:101C400050F8048C12FB39FC2CF3CF3C12FB09F248
:101C500022F3CF32C2EA0C4213FB38FC2CF3CF3C08
:101C600013FB08F323F3CF33C3EA0C438E4501E99A
:101C70000C0000F1080001F10801DDD8284600221F
:101C8000214603F01FFA204603F0F8F93046BDE87C
:101C9000F84303F0F3B90028F9D1BDE8F8832046F2
:101CA000BDE8F84303F0EAB9F8B5C3696BB30021A6
:101CB000054603F02DFA044638B3B5F92000EE6965
:101CC000A11C04F5817731F8023F83F4004343FA05
:101CD00000F292B206EB420C36F912E0BCF902C0F7
:101CE00082409B1ACEEB0C0203FB02F303417344C8
:101CF0008F420B80E7D128462146002203F0E2F90B
:101D00002046BDE8F84003F0B9B9F8BD10B5044667
:101D1000C069034B236008B103F09CFC204610BD52
:101D20001050010079B3931EB3F5004F2BD22DE96B
:101D3000F041551E2B4224D10746C0690C469046FF
:101D400008B103F087FC4FEA480003F081FC04EB84
:101D50008808F861861E0C4954F8040B06F072FEE0
:101D600007F04CF8444526F8020FF4D110233B84C9
:101D70006B1006D00F22511E5B1010B28AB2FAD13E
:101D80003884BDE8F081704700FEFF462DE9F04F32
:101D900083B08846846A0190D0F81CC0D0F824A093
:101DA000C16A076BDDF8309008F5807026468346DF
:101DB00038F902EB4FEA0E3E5CFB17F401EB8404AA
:101DC0005AFB17F57644C4EB6606A6EB85065CFB6A
:101DD00016F007EB80005CFB10F104EB81015AFB6D
:101DE00010F5C1EB0E07A7EB85055CFB15F700EBC3
:101DF00087070C4424F34F34384420F34F303544E4
:101E000025F34F35C34522F8024B764623F8020BE3
:101E100029F8025BCCD1019A1346C3F828E0D162BD
:101E2000176303B0BDE8F08F2DE9F04F85B0884609
:101E30008169019101460C460390006A0290D1F835
:101E400024B08F6A206BC96ADDF838A0DDF83C90B9
:101E500008F58074009432F9026B029C06FB04F6CC
:101E600026F0784505F10065ED0055FB15F5284C89
:101E700055FB14F5ED00013CF616C6F106062C44A0
:101E80003441019D55FB14F4224D38F902CBAC428C
:101E9000A8BF2C4624024FEA0C3C54FB10F601EB81
:101EA00086065BFB10F107EB0C0EC6EB6E0EAEEB7D
:101EB000810E54FB1EF500EB850554FB15F106EB76
:101EC00081015BFB15F0C1EB0C07A7EB800754FB0E
:101ED00017F405EB84000E4426F34F36054425F332
:101EE0004F35BE442EF34F3E009C23F8026B444511
:101EF0002AF8025B674629F802EBACD1039A134635
:101F0000C3F828C0D162106305B0BDE8F08F00BFF0
:101F1000ABAAAA2AE71052002DE9F043002183B0B2
:101F2000044603F0E9F801210546204603F0E4F8F1
:101F30000646002D3CD003F055F8074600283CD05B
:101F400003F050F88046002842D003F04BF8814659
:101F5000002851D0002E45D0021D08F10403019243
:101F6000009320463B1D321D291DFFF75DFF3046C3
:101F700003F084F8284603F081F800223946204611
:101F800003F0A0F8384603F079F8012241462046D4
:101F900003F098F8404603F071F8204602224946C3
:101FA00003F090F8484603B0BDE8F04303F066B88C
:101FB0000028F8D103B0BDE8F083284603F05EF8AE
:101FC000002EF7D0304603B0BDE8F04303F056B81A
:101FD000284603F053F8384603F050F8002EE9D0B5
:101FE0003046F0E7031D00933A1D08F10403291D54
:101FF0002046FFF7CBFEBDE7284603F03FF8384602
:1020000003F03CF8404603F039F8002ED2D03046B9
:10201000D9E700BF10B5044603F072F9204610BDA1
:10202000024A0349034807F0F3B800BFFC9FFF1FB3
:1020300015200000E0B2FF1F38B5074D074C0848D7
:102040002A46214607F0E4F82A4621460548BDE81D
:10205000384007F0DDB800BFFC9FFF1F15200000CF
:10206000E8B2FF1FF0B2FF1F024A0349034807F01E
:10207000CFB800BFFC9FFF1F15200000F8B2FF1F64
:10208000024A0349034807F0C3B800BFFC9FFF1F83
:102090001520000000B3FF1F024A0349034807F060
:1020A000B7B800BFFC9FFF1F1520000008B3FF1F3B
:1020B000024A0349034807F0ABB800BFFC9FFF1F6B
:1020C0001520000010B3FF1F2DE9F8434FF0000862
:1020D000064600F11805474641463046002F4FD0CE
:1020E00003F00AF8F0B12C68B4F5803F07F1040161
:1020F00000F1040E07F5827C27D05EF8042B34FB38
:1021000002F334FB12F903F30F0209F30F03C2EADF
:1021100003430A6893FA12F341F8043B8C45ECD868
:1021200002F0ACFF08F10108B8F1040F05F1040555
:10213000D2D1002F40D030463946002202F0C2FFF3
:102140003846BDE8F84302F099BF07F10C0100F1F1
:102150000C0451F8083C54F8082C93FA12F341F897
:10216000083C54F8042C51F8043C93FA12F38C45C3
:1021700041F8043C04F1080401F10801E9D8CFE773
:1021800002F0C6FF07460028CCD02868B0F5803F93
:10219000C8D0391D07F582740B6830FB03F230FBA1
:1021A00013F302F30F0203F30F03C2EA034341F8F0
:1021B000043B8C42F0D8B5E7BDE8F883024A0349F6
:1021C000034807F025B800BFFC9FFF1F1520000043
:1021D00018B3FF1F10B5002102F08EFF70B172B668
:1021E0000A4B1A6872B10A490C6844B11C60086055
:1021F00062B61046BDE8104002F040BF10BD086056
:1022000062B610BD186062B610BD00BF30B3FF1FCC
:1022100020B3FF1F38B5184B18491A68184C1268BC
:102220001B79184D0B70A242286836BF2246A4F5D0
:10223000807202F58074C0B1011D31F9023B03F5D3
:1022400000431B1122F8023B9442F6D802F016FF1D
:102250000D4B0022196829601A600C4B1B781BB1CA
:102260000B4B4FF080421A6038BD4FF4006322F8E8
:10227000023B9442FBD8F0E724B3FF1F1F800040CD
:102280005097FF1F30B3FF1F20B3FF1F2CB3FF1F5A
:1022900008E200E0F8B501215148524E02F0CCFFAF
:1022A000514A52491368802043F48053136000243C
:1022B000087040F6080534800120083401F0DEFE85
:1022C000A3B2AB421CB2F6D1494B1B685B0208D5E6
:1022D000484B1A6848F6A273134048F6A27293421C
:1022E0006DD04349434A0B68434F444D4448454CE5
:1022F00043F480030B604FF0010E40F23F4648F676
:10230000A37140F20113C7F800E02E601160146061
:102310000360334D3C492B6800221960197C1A7404
:102320006FF03F01587C59740C21987C99744021BE
:10233000D87CD974997D9A750124D97DDC750220E9
:102340004FF0FF316FF001065A715A729A72DA72C9
:102350001A731A755A751A765A769A76DA765E7301
:102360009C71DC71187118729973D973997F2979EE
:102370009A7701F18041D87FDC7701F5043106209E
:102380001E7F1877B0205E7F5A770A70087002F0BF
:10239000F9FE2A791D4B1E4E187053119B0003F154
:1023A000604302F01F051B49327003F5614302F1DF
:1023B0001000AC40184D41F820501C60F8BD0F4B88
:1023C0001A6840F23F439A428BD10B4B1B68012B9A
:1023D00087D10B4B1A6840F201139A4281D198E7DA
:1023E00024B3FF1F00C00C402C80044021C00C40CF
:1023F0003C800440006003400C60034004600340E4
:1024000010600340A28F01005096FF1F2CB3FF1FE6
:102410001B800040009AFF1F15220000044A137819
:1024200002290CBF03F0BF0343F040031370704751
:1024300021C00C40024A0349034806F0E9BE00BF30
:10244000FC9FFF1F1520000024B3FF1F024A034911
:10245000034806F0DDBE00BFFC9FFF1F15200000F3
:1024600034B3FF1F024A0349034806F0D1BE00BF40
:10247000FC9FFF1F152000003CB3FF1F024A0349C9
:10248000034806F0C5BE00BFFC9FFF1F15200000DB
:1024900044B3FF1F024A0349034806F0B9BE00BF18
:1024A000FC9FFF1F152000004CB3FF1F024A034989
:1024B000034806F0ADBE00BFFC9FFF1F15200000C3
:1024C00054B3FF1F024A0349034806F0A1BE00BFF0
:1024D000FC9FFF1F152000005CB3FF1FF8B50546E9
:1024E00002F080FD002800F092802A7E0446031D41
:1024F00000F58276002A39D0286AE9696A6A81FA89
:10250000A0FEEFF300873F0140D49EFBF2FEBEF138
:102510007F0F54DD04F1140702E0E9696A6A10379D
:1025200011448818C0EA214110448318C3EA2040AE
:10253000134403EB020ECEEA234396447244EA614D
:10254000C2EA2E42BE4247F8101C47F80C0C47F86E
:10255000083C47F8042CE0D828462146002202F027
:10256000B1FD2046BDE8F84002F088BDEA69C2EA44
:1025700022421A605A609A60DA601A615A619A615E
:102580002033B34243F8042CF3D3E5E75AB90022D1
:10259000E8612A76C0EA2042B342DDD243F8042B38
:1025A0009E42FBD8D8E7571C022FB0D990FBF2FE11
:1025B00091FBF2F7C7EB0E0EBEF17F0FAADCBEF166
:1025C000010F18DD70461F4601E0E9696A6A11448F
:1025D0000A44EA610238C2EA2142012847F8042B82
:1025E000F3DCAEF1020E4FEA5E014A1C286AAEEB44
:1025F000410E03EB8203BEF1000FC8D0E9696A6A9D
:102600000A44C0EA22421A60286A0433BFE7F8BDD0
:102610002DE9F04F436AC469866985B02BB906EB92
:10262000C414846105B0BDE8F08F0546D0F8208061
:1026300002F0D8FC0746002800F04781B5F9323097
:1026400006EB0802009200F10408082B31D8DFE8FD
:1026500013F09B00B800000114010900C500DB0065
:10266000E9005000EE6A002E00F02D81D5F824C05C
:10267000009900F5827E40460A0E531CB3F5807F18
:1026800014BF5B000023C1F30F29F35E36F912205B
:1026900009FB03F3C9F5803909FB023353FB0CF343
:1026A00020F8023B70452144E6D1009B03EBC413A4
:1026B00000932C6A009AB5F93430141BAC616BB1ED
:1026C00007F5827101E0B5F93430B8F90020134400
:1026D00003F30F0328F8023B4145F4D828460022B3
:1026E000394602F0EFFC384605B0BDE8F04F02F085
:1026F000C5BCAB6ACDF808804FEA5309190C6FEAE4
:1027000009020192C1F57F434FF0FF3A4646FF337D
:10271000D5F824C0BAFBF3F3063007F5837B009AA3
:10272000BAFBF1FA03979E46DDF8048020E0C9EB7E
:1027300002073F0C0EFB07F76FF0004109EB0203A5
:10274000C91B1B0C09140AFB03F30CFB01F103F179
:10275000004390454FEA21414FEA234340F2AE80C7
:10276000318002308345224406F1020600F0B28037
:10277000130C0AFB03F31B0C0CFB03F391454FEA0C
:102780001343D4D93380ECE7D5F824C0554E0099D3
:1027900000F5827E40460B0E5A1C36F9139036F92E
:1027A0001220C1F30F2ACAF5803309FB03F30AFB99
:1027B000023353FB0CF320F8023B86452144EAD157
:1027C00073E76E6A009A00F58270434636FB12F199
:1027D00023F8021B83422244F8D166E76E6A26F38F
:1027E0004F06A86A009A0FFA86FEBB1D764207F5CF
:1027F000837190428CBF23F802EC23F8026C023301
:102800008B422244F5D150E7686A009A07F5827638
:10281000C043434630FB12F123F8021BB34222446B
:10282000F8D142E700F5827A009BC14603E0D1452A
:1028300033463FF43AAFB5F9302029F8022BE618B9
:10284000F5D3686A02F0ECFE6B6AA0EB63002886A1
:10285000EDE76E6A26F34F06009A30B2BB1D764252
:1028600007F58371002AB4BF23F8026C23F8020C29
:10287000023399422244F5D117E7811DD5F824C0CF
:10288000009A00F5837009E00CFB03F31B1421F898
:10289000023C0231884222443FF407AF930F013BD0
:1028A000012B4FEAE233EFD8D30BC3F57F43FF335D
:1028B0000CFB03F31B0C21F8023CEAE70CFB03F3CF
:1028C0001B1433804DE702F0D9FBAB6903EBC41353
:1028D000AB61A7E6009BDDF80880039F03EBC41300
:1028E0000093E6E6E04D0100064B074ADA6202215A
:1028F000002259609A7083F8242083F8302083F8EE
:102900003220704780B3FF1F5850010008B50121E5
:10291000007801F099FB0E4B1A7802B908BD0D4AF8
:10292000127800211970002AF8D0D00703D50A497F
:102930000A4B09681960910703D50749084B496894
:1029400019605307EAD5044A064B92681A6008BD1D
:10295000D8B3FF1F7CB3FF1F70B3FF1F00E100E07F
:1029600004E100E008E100E0204B1A781AB1007899
:10297000002101F069BB70B41D491E4A0C78126831
:1029800001251D7004B372B60B78DC0707D51A4C0D
:102990001A49266809681A4D314029602160990753
:1029A00007D5184C154926684968154D31402160F6
:1029B00069605B0707D51449104B0D689B68104C84
:1029C0002B400B60A36062B6104BD968914207D0D0
:1029D0000F4C1C600F49DA6042F080441C611960A2
:1029E0000078002170BC01F02FBB00BFD8B3FF1FDF
:1029F0007CB3FF1FD4B3FF1F80E100E064B3FF1F6F
:102A000070B3FF1F84E100E088E100E000C00240F5
:102A100001401F0000001F80F0B4134C134A2368CC
:102A200082B01746009300984FF0004680B2FF2511
:102A3000136843F480631360D6625563D36A002B36
:102A4000FCDABB6BDBB2FF2B0AD023680193019B3E
:102A50009BB21B1A8B42EBDB002002B0F0BC70472C
:102A6000012002B0F0BC7047D0B6FF1F00C002408A
:102A7000F8B50D464FF4967116460446FFF7CCFFA5
:102A8000284B1A684FF0004042F4806245F0400144
:102A90001A60D8621A465963D36A002BFCDA2149BE
:102AA00018204FF000470A6826FA00F342F48062CB
:102AB000DBB20A60CF624B63CB6A002BFCDA0838CA
:102AC00010F1080FEFD155B3082D0CBF8721FF215E
:102AD000144B1A684FF0004042F480621A60D862CA
:102AE0001A465963D36A002BFCDA0E4A00271646B1
:102AF0004FF00045FF21136843F480631360D562F3
:102B00005163D36A002BFCDAB36BD8B21B0660703A
:102B100000D4F8BD0137B7F5807FECD1F8BD952121
:102B2000D6E700BF00C00240F0B4164C164A236836
:102B300082B01746009300994FF0004689B2FF25F6
:102B4000136843F480631360D6625563D36A002B25
:102B5000FCDABB6BDBB2FF2B43700BD12368019314
:102B6000019B9BB25B1AB3F5967FE9DD002002B0B2
:102B7000F0BC7047A3F1FE00B0FA80F0400902B04B
:102B8000F0BC7047D0B6FF1F00C00240F8B5837894
:102B9000032B0E46044618BF4E021546FFF7E4FE0F
:102BA000324611212046FFF763FF18B92046FFF790
:102BB000BBFF20B92046FFF7A9FE0020F8BD204B3F
:102BC0002049214A1A608E4659631A4659631E46A7
:102BD000596305F5FD70A91C05F5FE77D36A13F05E
:102BE000F00FFBD0C6F834E0B36B01F8013C1B12C8
:102BF00001F8023C02318F42F0D105F50075A84280
:102C00000DD20F4A1646D36A13F0F00FFBD0B36B08
:102C1000191200F8021BA84200F8013CF3D3084B3C
:102C20000949084A196019465A63CB6A044A13F0E5
:102C3000F00FFAD02046936BFFF768FE0120F8BD35
:102C400000C00240FFFF009000041F80F0B4314E2E
:102C500033684FF0004743F4806333603D46F762CA
:102C6000344671633346511C02F20127E26A002A9E
:102C7000FCDA1A6811F8016C42F480621A60DD62B5
:102C80005E63E26A002AFCDA1A6811F8026B42F409
:102C900080628F421A60DD625E63E7D11D49CA6AB5
:102CA0001C4B002AFBDA1A684FF0004542F48062A0
:102CB000FF241A601946DD625C63CB6A154A002B5B
:102CC000FBDA13684FF0004543F48063FF24136080
:102CD0001146D5625463CB6A0E4A002BFBDA1368A7
:102CE0004FF0004543F48063FF2413601146D56222
:102CF0005463CB6A074A002BFBDA936BDBB203F019
:102D00001F024370A2F10500B0FA80F04009F0BC48
:102D1000704700BF00C0024070B5044671B18378AF
:102D2000032B0D4618BF4D021646FFF71DFE2A461F
:102D300018212046FFF79CFE054620B12046FFF7EC
:102D4000E5FD002070BD3246FE212046FFF77EFFE4
:102D50000028F3D04FF416712046FFF75DFE0028DF
:102D6000ECD02A460D212046FFF782FE0028E5D14F
:102D70000B4B1A684FF0004542F48062FF201A6046
:102D80001946DD625863CB6A054A002BFBDA936B68
:102D900013F0FF0FD2D12046FFF7B8FD012070BD20
:102DA00000C00240014B024A1A607047D4B3FF1FB3
:102DB0000110013838B590F90530002B03DBBDE870
:102DC000384000F091B904460121006900F0B6F9DD
:102DD000F8B1257D104B13EB45151AD0A3790F4A96
:102DE000012B9CBFA369EB61E36912686B831B0C29
:102DF000AB8232B105F1160105F1180090472B8B1B
:102E00006B82637903F07F036371BDE8384000F0A3
:102E10006BB9002038BD00BFE8B3FF1FDCB3FF1F54
:102E200010B500F1080204460121006A00F024FAFE
:102E300050B1E3693BB96379A268E26163F07F0353
:102E40006371012010BD012010BD00BFF8B583796A
:102E500013B182698A4201D20020F8BD022B0F46CD
:102E600005461AD007B32B6AE9681C7C4A1E04F198
:102E700009037C1EDA40DC40A24211D9EB69AB6049
:102E800005F1080606E0A968286A00F0BDF9013CD2
:102E90000028E1D03246002CF5D1EF600120F8BDCA
:102EA0000029EBD0A41AEBE7AF60EF600120F8BD7A
:102EB0002DE9F04F8B46817985B00129804601923A
:102EC00006D0012388F80430002005B0BDE8F08F5B
:102ED00042799107F5D553070AD5D8F80C40D8F8B0
:102EE00018108C4200F0C680FFF7B0FF0028E8D031
:102EF000019BD8F80C40002B00F0AF80DFF8C891A0
:102F0000DFF8C8A1019F3AE0002C43D1D8F808109F
:102F1000002940F08380D8F81C20002A00F092801D
:102F2000C8F80820C4F50076B6B2BE4239D890F889
:102F300010E04169023A02FA0EF20D44B6F5007F44
:102F4000154435D1DAF80020954204BF4FF0FF3226
:102F5000CAF80020584A294610685A46FFF7DCFE96
:102F60000028AED00BF5007B4FF40074D8F80C208D
:102F7000BF1B1444BFB2C8F80C40002F6DD0D8F866
:102F800020000579013D05EA542515F0FF05C4F33D
:102F90000804B9D0C4F50076B6B2BE42D8F808200D
:102FA000C5D9067C4169023AB2400D4415443E46FB
:102FB0002CB9D8F80C10D8F8182091421BD228460A
:102FC000012100F0BBF800283FF47BAF4C4404EB38
:102FD000060E744520D00BF1FF31621E0EF1FF3555
:102FE00011F8010F02F8010F9542F9D1C4EB0E0E52
:102FF000F3443446BAE700F077F800283FF461AFB5
:103000002E49CAF800500A784C4404EB060E42F0F0
:10301000010274450A70DED13446A7E703AA00F026
:10302000F3F800283FF451AFD8F82000244B90F873
:103030002060039A4FF6F871102E18BF19468A4285
:10304000FFF46EAF4046FFF7EBFE00283FF439AFC8
:10305000D8F82000D8F8082064E7D8F81830A34240
:103060000DD298F80520C8F8184042F0800288F880
:1030700005200FE0019B002B7FF440AF0AE0114BCD
:1030800098F805201B682BB1019B1BB142F0800210
:1030900088F8052012070AD598F80630002B3FF46F
:1030A00010AF4046FFF786FE00283FF40AAF0198B4
:1030B00005B0BDE8F08F00BFE4B3FF1FE8B5FF1F08
:1030C000F8FFFF0FDCB3FF1FE8B3FF1F98A1FF1F3E
:1030D00000B583B002AB012203F8011D1946FFF7CA
:1030E000E7FE03B05DF804FB70B50F4C23780BB915
:1030F000012070BD0D4B0E4D196828680D4AFFF771
:103100000BFE70B10C4E316819B9002323700120F9
:1031100070BD2868074AFFF7FFFD10B10023336038
:10312000F3E7002070BD00BFE8B5FF1F98A1FF1FA7
:10313000E4B3FF1FE8B3FF1FE0B3FF1F70B50D4DF1
:103140002B6883420E460ED00446FFF7CDFF08B928
:10315000002070BD084B094A18682146FFF716FD8C
:103160000028F5D02C60064B1978314319700120E6
:1031700070BD00BF98A1FF1FE4B3FF1FE8B3FF1F9E
:10318000E8B5FF1FF8B590F82030C469102B1A4B32
:1031900005460E4617461B6816D004EBD1149C4218
:1031A00016D106F07F06154A42F826701449287E8B
:1031B0000A78012842F001020A7018D9A968114A58
:1031C0000B4413600120F8BD04EB11249C4208D08D
:1031D00000212046FFF7B2FF50B195F82030102BA8
:1031E00007D1F6B2054A234622F81670DEE7012021
:1031F000F8BD2346D5E700BF98A1FF1FE8B3FF1F26
:10320000E8B5FF1FE0B3FF1FC36801338B4218D33B
:1032100070B590F82030102B154B044616460D461D
:10322000C0691B680FD000EBD11098420FD105F098
:103230007F01104B53F8213023F07043336001209D
:1032400070BD0020704700EB1120984207D000218C
:10325000FFF774FF50B194F82030102BE7D1E9B29A
:10326000044B33F811303360012070BD002070BD75
:1032700098A1FF1FE8B3FF1F2DE9F04F176883B037
:103280006FB301374FF0000AC36803F1010813B3AD
:103290008B46064691463C46002505E01C461F46E7
:1032A000F3680135AB4216D9A04538BF0224214648
:1032B00001AA304638BF2746FFF7A6FF631CD91B7B
:1032C00048B1019A002AE9D18B4510D01C46F36819
:1032D0000135AB42E8D8002003B0BDE8F08FA1F182
:1032E000010ABAFA8AFA07684FEA5A1ACCE7012C9F
:1032F000F1D9F36801339C42EDD86FF0704221465A
:103300003046FFF73FFF0028E5D0A74214D2013C2A
:10331000012CE0D9F36801339C42DCD8621C2146C1
:103320003046FFF72FFF0028D5D0A74204F1FF3425
:1033300002D0012CEED1CEE7D9F8001059B1012905
:10334000C9D9F36801339942C5D83A463046FFF7E8
:1033500019FF0028BFD0C9F80070BAF1000F01D0E2
:10336000013737600120B7E790F8392090F838002E
:10337000101A704790F8383090F839209A4205D9E1
:103380005A1C034480F83820187E70474FF0FF30F5
:10339000704700BF90F8383090F839209A4286BFC5
:1033A0001B18187E4FF0FF30704700BF704700BFFA
:1033B000B0F85E306BB190F85D30202B07D8C218A2
:1033C000013380F85D30012082F83B107047012303
:1033D00003710020704700BF38B50546B0F85E00A5
:1033E00090B195F85D301446C3F1210294420CD897
:1033F00005F13B001844224600F018F995F85D30BD
:10340000234485F85D30204638BD012014462871DC
:10341000EEE700BF10B50269D378DBB2D9060446E7
:103420003DD510215806D17038D503F0040303F0C0
:10343000FF02002B51D03D49626E00230B7084F8CF
:103440005D30002A5BD0904794F85D30002B56D059
:103450002369D0229A70236994F83B201A7123695A
:10346000012284F85C200222DA7010BD304B84F80F
:1034700060009C424AD02F4B9C4252D094F83910A5
:1034800013791F29DBB207D82848007820B16018CB
:10349000013184F8391003760223D37010BD590628
:1034A000C3D4917801F0100101F0FF000029DDD0B4
:1034B00013F001031ED194F85C1094F85D0088426B
:1034C00081BF4B1C091984F85C3091F83B301371B3
:1034D0002369D0229A702269DEE7236984F83920B3
:1034E000C0229A702369114A1979012111700222B0
:1034F000DA7010BDC023937022691379CCE70122E2
:10350000002384F85D2084F83B30A1E7626994F8D9
:103510006130094913440322187A00F0C5FB22697F
:10352000ACE7626994F861300449F3E758B6FF1FCD
:103530005CB6FF1FECB5FF1F9D350000A9350000EC
:103540000369DB7803F0200373B190F86030013336
:10355000DBB2012B80F860301AD9426990F86130F3
:103560001344187A00F01CBC70B5426903F0FF05E3
:1035700090F8613013440446187A00F011FCA36EF1
:103580005BB184F8385094F83900BDE870401847B2
:1035900090F85F30002BE0D0704770BD0148FFF716
:1035A000CFBF00BF5CB6FF1F0148FFF7C9BF00BF18
:1035B000ECB5FF1F0148FFF72DBF00BF5CB6FF1F32
:1035C0000148FFF727BF00BFECB5FF1FF0B410495B
:1035D000104B114A0A6100224FF47A740F4F1048C1
:1035E000104E114D0A710A7381F8612081F8622032
:1035F0001A711A7383F8612083F862204F618C601E
:103600009C601E615D6108601860F0BC704700BF7F
:103610005CB6FF1FECB5FF1F006006406050010064
:10362000A85001000070064080500100844641EA25
:10363000000313F003036DD1403A41D351F8043B2A
:1036400040F8043B51F8043B40F8043B51F8043B7C
:1036500040F8043B51F8043B40F8043B51F8043B6C
:1036600040F8043B51F8043B40F8043B51F8043B5C
:1036700040F8043B51F8043B40F8043B51F8043B4C
:1036800040F8043B51F8043B40F8043B51F8043B3C
:1036900040F8043B51F8043B40F8043B51F8043B2C
:1036A00040F8043B51F8043B40F8043B51F8043B1C
:1036B00040F8043B51F8043B40F8043B403ABDD28B
:1036C000303211D351F8043B40F8043B51F8043B2D
:1036D00040F8043B51F8043B40F8043B51F8043BEC
:1036E00040F8043B103AEDD20C3205D351F8043BBC
:1036F00040F8043B043AF9D2043208D0D2071CBF88
:1037000011F8013B00F8013B01D30B8803806046B0
:10371000704700BF082A13D38B078DD010F0030326
:103720008AD0C3F10403D21ADB071CBF11F8013B96
:1037300000F8013B80D331F8023B20F8023B7BE7E5
:10374000043AD9D3013A11F8013B00F8013BF9D210
:103750000B7803704B7843708B78837060467047AA
:10376000374A384913681B06FCD40B6813F08003F2
:10377000F8D172B634490A78002A5FD0334A344807
:10378000F0B4344C176806682568D4680C303E44A1
:10379000143200681268304F35442C4420440244EF
:1037A000C2F34E022D4E2E482E4D2F4C42F40042B5
:1037B0003A60376806682D682C4A24680C303E440D
:1037C000006812682A4F35442C4420440244C2F356
:1037D0004E02284E2848294D294C42F400423A60B6
:1037E000376806682D68274A24680C303E44006814
:1037F0001268254F35442C4420440244C2F34E0243
:10380000224E2348234D244C42F400423A6037684C
:1038100006682D68214A24680C303E44006812680E
:1038200035442C4420440244C2F34E021C4842F466
:10383000004202600B7062B6F0BC704762B670471F
:1038400024B0034024B00B40C9B6FF1F38B003407A
:103850003CB0034040B003402CB0034058B003409C
:103860005CB0034060B0034064B003406CB0034000
:1038700030B0034038B00B403CB00B4040B00B4080
:1038800044B00B404CB00B402CB00B4058B00B4038
:103890005CB00B4060B00B4064B00B406CB00B40B0
:1038A00030B00B4030B42948294A2A4B2A4D6024B5
:1038B000E121047011701B78284C082B30D00A2BA2
:1038C0002748284937D00C2B0CBF35223D22122324
:1038D0002A60236002600B60234B24491B78244A32
:1038E000BBB101230B601360224B23491B78234A91
:1038F000012B26D9042B0FD9082B1ED9102B94BFCE
:10390000862387230B6013601D4B01221A7030BC85
:1039100070470B601360E7E784230B601360F3E7E5
:1039200000F58E200F490830012213232A602360FE
:1039300002600B60D0E73922F7E785230B60136044
:10394000E2E780230B601360DEE700BF0040074022
:10395000014007409CA1FF1F08B003400CB003408A
:1039600008B00B400CB00B40CCB6FF1F20B003409A
:1039700020B00B409DA1FF1F24B0034024B00B409A
:10398000C9B6FF1F68B10E4A1378C3B90D4909784B
:103990000120107019B10C490C4A0B601360FFF73D
:1039A00081BF074B1A7852B1064A18701378002B62
:1039B000F5D0054A054B10601860FFF773BF7047DC
:1039C000CCB6FF1FC9B6FF1F24B0034024B00B4084
:1039D00028282FD8334B2DE9F0411E5CFF2E2BD029
:1039E000314B1B78002B2AD132062CD472B62F4DC6
:1039F0002F4C2F46012326602B7062B672B62368C7
:103A00001B060CD43B781BB9F4E72B78002BF1D0C4
:103A100062B601F043FE72B623681806F5D5254B51
:103A20001B6800222A7062B6234A107843FA00F01D
:103A3000BDE8F081002070470020BDE8F081FFF76D
:103A40008FFE3206D2D572B61C4DDFF87C801C4C3E
:103A500006F04007FFB206F03F06D8F80030DFB1AD
:103A600023F01003C8F8003001232660134A2B709E
:103A700062B672B6236819060CD413781BB9ECE74A
:103A80002B78002BE9D062B601F008FE72B62368ED
:103A90001B06F5D50B4BC3E743F01003C8F8003005
:103AA000E2E700BFC0500100C9B6FF1FCBB6FF1F41
:103AB00000B0034010B00340C8B6FF1FCAB6FF1FD6
:103AC00000B00B4010B00B400CB00B400B4A0C493F
:103AD000136843F4805313600B783BB1094B802289
:103AE0001A70094B80F30C0018807047054BC022F8
:103AF0001A70054B80F30C00188070472C8004402E
:103B0000CCB6FF1F21C00C4000C00C40024A136815
:103B100001331360704700BFD0B6FF1F08B5104CCB
:103B200008E0236859050DD423681A050FD42368CB
:103B3000DB0411D423685803F3D500F015FC236887
:103B40005905F1D502F020F923681A05EFD502F0E6
:103B5000BDFC2368DB04EDD502F070FFEAE700BF8F
:103B60003480044008B5FFF7D9FF00BF014B102295
:103B70001A80704700200540704700BF094908B50A
:103B80000B6830B16A461844A2F58052904202D2C6
:103B90000860184608BD05F047FB0C2303604FF092
:103BA000FF3008BDA0A1FF1FFEE700BFEFF31380A9
:103BB00070B9EFF310836BB9EFF305825AB94FF484
:103BC0008070EFF311832BB1984228BF18467047DD
:103BD0004FF0FF3070470F2A01D81846F1E7014B2C
:103BE000D05CEEE7F0E300E0704700BF10B40F4B8D
:103BF00053F8302092F880422CB1012369B182F849
:103C0000803010BC704703EBC0035B681A6841B991
:103C100022F002021A6010BC704782F8003110BC1A
:103C2000704742F003021A6010BC7047EC5001006C
:103C30001C4A02EBC00301295B6811D004291BD088
:103C400052F83000002280F8802229B1022920D0C9
:103C5000032922D01A6070474FF480721A607047AF
:103C600052F830004FF4A27280F880121A601A687D
:103C700022F020021A60704752F830104FF4A272FE
:103C8000012081F880021A601A6842F020021A604E
:103C9000704740F203121A6070474FF481721A6045
:103CA000704700BFEC500100212817D8F8B5042A4E
:103CB00013D8DFE802F0494C4F1446002C4872B686
:103CC000236823F4702343F08072C4F38401164305
:103CD000236040F82150266062B6F8BD70474FF46B
:103CE0001026244B03EBC0030D465C68216811F4D9
:103CF000E06134D0204B214A2149C3F89C2104F1D2
:103D000040422048C3F8A411A2F592211E4FC3F8E7
:103D1000A0017C291D48C3F8A871C3F8AC01CDD916
:103D2000A2F594237C2B18D9A2F596237C2B19D9C4
:103D3000A2F598237C2B17D9A2F59A227C2A15D9B3
:103D4000F8BD4FF43026CCE74FF40026C9E74FF416
:103D50004026C6E74FF42026C3E70D48AFE7FFF73C
:103D600067FFC7E70B48AAE70B48A8E70B48A6E799
:103D7000A4A1FF1FEC500100009AFF1FD19FFF1F5D
:103D8000799FFF1FA59FFF1F4D9FFF1F219FFF1FB3
:103D9000DCA1FF1F2CA2FF1F5CA2FF1F7CA2FF1F44
:103DA0001A4B03EBC00010B4426802F14043A3F584
:103DB00092217C2905D9A3F594217C2913D8144993
:103DC00000E0144972B61368134C23F08773C2F3F2
:103DD000840023F4803343F08073136041F8204063
:103DE00062B610BC7047A3F596217C2909D9A3F5CA
:103DF00098217C2907D9A3F59A237C2BF1D8074970
:103E0000E0E70749DEE70749DCE700BFEC500100C7
:103E1000DCA1FF1FA4A1FF1FE93B00007CA2FF1F44
:103E20002CA2FF1F5CA2FF1F30B4054B054D064CB2
:103E3000002210211A602A602060196030BC70478F
:103E400014D0034004D0034000D00340282838B5E4
:103E50002ED0002904464FDD5F4B1B78012505FA63
:103E600003F28A4202D8212837D938BD0338C2B2BA
:103E7000012A3AD9202C4AD0192C48D0574A126826
:103E800002FB011222FA03F31D2800F29B80DFE8F7
:103E900000F0928B847D9999766F99999999999967
:103EA00099999968615A53994C9999999999994511
:103EB000494B1B780B2B08D90C2B1CBF0C3B194111
:103EC0000846BDE83840FFF701BEC3F10C03994036
:103ED0000846BDE83840FFF7F9BD2946FFF786FEE2
:103EE0002946BDE83840FFF7A3BE3D4A126802FBF1
:103EF000011222FA03F3C7E72128B6D80021FFF701
:103F000075FE20460121BDE83840FFF791BE354AD5
:103F1000126802FB011222FA03F3B5E73249334A71
:103F20000B604FF45173136038BD3149314A0B6057
:103F30004FF45173136038BD2F49304A0B6040F283
:103F40004443136038BD2E492E4A0B6040F244436F
:103F5000136038BD2C492D4A0B6040F24443136076
:103F600038BD2B492B4A0B6040F24443136038BDE7
:103F700029492A4A0B6040F24443136038BD28495E
:103F8000284A0B6040F24443136038BD2649274A53
:103F90000B6040F24443136038BD2549254A0B604D
:103FA00040F24443136038BD2349244A0B604FF468
:103FB0005173136038BD2249224A0B604FF451738C
:103FC000136038BD212C3FF650AF7F29D4BF0021AC
:103FD0000121204693E700BF84A2FF1F0880034011
:103FE0000890034008800B4010800B4048A004401C
:103FF00018800B404CA004401880034008B00440D7
:104000001080034004B004404080034018C00440C6
:104010003880034014C004402880034010B004409E
:10402000208003400CB004403080034010C00440A6
:10403000488003401CC00440189003403490044062
:104040001090034030900440212801D8FFF7CEBDE6
:10405000704700BF212806D8044B53F8303093F83E
:104060000002C0B270470020704700BFEC50010052
:10407000212801D8FFF7DCBD704700BF2DE9F843C8
:10408000054672B6204F214B214A1B683C681268D6
:1040900062B6520102D5322B88BF013495B3C3F505
:1040A000BB331C4EDFF86490DFF86480FF334FF4BD
:1040B0007A72A6FB031302FB04F404EB931472B6AA
:1040C000D9F800103A68D8F800E062B6C1F5BB3301
:1040D000FF33A6FB03031EF0806FC4EB93134FF472
:1040E0007A7002D0322988BF013200FB0233B3F567
:1040F0007A7F04D3013D05D004F57A74DFE701F03F
:10410000CDFADCE7BDE8F883D0B6FF1F18E000E089
:1041100004ED00E0ABAAAAAAF8B52D4B2D49DFF8B3
:10412000D0E0DFF8D0C02C4E2C4D2D4C2D4A2E4F18
:104130004FF4000018604FF0807018604FF000706E
:1041400018604FF0806018604FF000601860002029
:10415000086028234BF6FF71CCF80010CEF8003031
:10416000336013602B6023603B60B362936209226B
:1041700045F8242CC4F8D80F05F57F65C7F8D41F7F
:1041800007F5FF2707F5FA67C6F8F83F2B6006F535
:10419000FF26C4F8D42F05F5FD2504F5FF2438606B
:1041A00006F2F4761148316005F5FF6504F5FD640B
:1041B0002B6023600260FFF775FB3220FFF75EFF84
:1041C00000F0FCFC4FF4AF70BDE8F840FFF756BFBD
:1041D00008E100E004800340148003402480034091
:1041E0002C8003401C8003403480034000800B403F
:1041F0000C80034008800340431E032B14D872B682
:104200000A4951F8230068B170B4094C058834F8A4
:104210001320466841F82360521B24F8132062B62D
:1042200070BC704762B67047002070472CB7FF1F04
:1042300008BAFF1F013803280BD872B6074B53F892
:10424000203043B100205B680130002BFBD162B607
:104250007047002070471846F9E700BF80B7FF1F7E
:10426000F0B472B61A491B4E012311F8014B194FD5
:104270009A00240742F0010505D556F8324064B192
:1042800056F83520BAB10133052BEED162B6124B88
:1042900000221A70F0BC00F00DBD0F4C0F4D2178BC
:1042A00047F8325007EB431308304A1E586022701B
:1042B00062B6F0BC70470849094B0A7847F83530B8
:1042C00007EBC5030830013A58600A7062B6F0E7A0
:1042D000305201000080FF1FA9B7FF1F8800400077
:1042E000C8004000431E032B1DD81B4A400140F06C
:1042F000100030B4104472B6184CE25C032A1BD88C
:10430000DFE802F00212151703220D88E25410F0C4
:10431000080F14BFC823882343EA0543083103600C
:10432000416062B630BC704708300222EDE70522DA
:10433000EBE708300422E8E7094A52F8230038B1D5
:10434000084A52F82300416042F8231062B6E9E7B8
:1043500042F82310034AF7E70080FF1FB8B7FF1F9A
:1043600080B7FF1F90B7FF1F2DE9F04FDFF800A3C4
:10437000DFF800B387B044E0A84F4FEA930807EB9B
:10438000C809013ED9F8042003F00803F6B2A2F1EF
:10439000080003F0FF04002B40F0FC8057F8383091
:1043A0001B0C99B222F8081C002B00F0EA809C4BF1
:1043B00022F8064C42F8044C53F82620002A00F05C
:1043C0002982984D55F826305860974C45F82600BC
:1043D00034F81630194424F8161000F04BFC00286D
:1043E00000F01182914A924B19F0080F00F1080079
:1043F00018BF1346C9F8040047F8383008238AF874
:1044000000309AF80040E4B260071AD5894B1B7857
:10441000A3B189490A7802F0FF0322B1013BDBB264
:104420000B7003B900BE85490A7802F0FF032AB178
:10443000013BDBB20B70002B00F0BB8104238AF838
:10444000003004F0080303F0FF02002B00F0C680E8
:104450009BF80030DBB21E098ED19C086F4F57F8D5
:10446000342007EBC401C2F38302013A49680C2AE5
:1044700000F28380DFE802F077778181818181819A
:1044800040818181070008686D4B6E4D0193674B39
:104490004A686D4E47F8343081B240F28164684B0F
:1044A0006A60286000220120A1421A603A61BA6164
:1044B000307000F2E180B1F5D06F80F02582B1F567
:1044C000817F00F0DE8100F2C181802900F034821A
:1044D000822940F0DC81A9885C4B042900F2D88154
:1044E0005B4C89000B44227062701A78930740F18C
:1044F00022832070022023E2514B01931A683AB3C1
:10450000544B514E5449188834780D7840288646CB
:1045100045F0020828BF4FF0400E002C84F0010443
:104520003470CEEB00000CBF8824C82407EBC8060B
:1045300080B285F0010544EA0E447260188047F8A5
:10454000384072440D70002800F0B780019B1A605B
:104550003C4B1A88B2F5A06F0FD100219A785970A0
:104560003E4B1A7009E0374A108842F2210290420D
:1045700000F0A8802D4A47F83420394A01231370EF
:104580003CE72A4A2A4B19F0080F18BF134647F890
:10459000383033E700F08EFB324A334952F8263088
:1045A000002B00F03B8158688C5D42F8260003F137
:1045B0000802C9F80420032C05D8DFE804F02C0217
:1045C000292602228A551A8819F0080F0CBF882361
:1045D000C82343EA024347F838300FE7E00700F109
:1045E000EB80210600F12881A20706D51F4A204949
:1045F00013780220DBB213700870E30602D51C4B5F
:1046000010221A7007B0BDE8F08F04228A55DAE74D
:1046100005228A55D7E703228A55D4E70080FF1F79
:104620002CB7FF1FD8B6FF1F08BAFF1FC8004000F5
:1046300088004000B4B7FF1F3DB7FF1FBCB7FF1F86
:10464000D4B6FF1FA0B7FF1F3CB7FF1FC020074015
:10465000ACB7FF1FE8B6FF1FA8B7FF1F98200740A1
:104660009420074080B7FF1FB8B7FF1F882007407E
:10467000802007409020074042F22104A14200F030
:10468000948043D8B1F5086F00F0A881B1F5106FA0
:1046900040F0FD80B84AB94CA978117004F180054A
:1046A00003E00834AC4200F09E81236A1906F8D575
:1046B000606A083800F0FEFAF3E7BEF1400F18BF59
:1046C000002243E7AE4ACD1D11F8013B02F8013F3D
:1046D000A942F9D1AB4A1268862A00F01181AA4991
:1046E000AA4E0A78307882F00105002842F00202D2
:1046F0000D700CBF8821C82147F8321007EBC202A9
:1047000080F0010000213070516033E742F2212433
:10471000A14240F0FE81DFF8BCC29D4B9D49AC78C0
:10472000DCF800501D6081460C700020029080462D
:104730008446044694490D7845F0020E07EBCE03FB
:10474000B9F1000F5C600CBF8824C82444EA080358
:1047500085F0010447F83E3032700C70DFF81CE23F
:104760008A4BDFF82482002840F09880BCF1400F8B
:104770001BD144F0020407EBC403029FDFF8FCE105
:104780005F60002A40F09F80020442F088020744E4
:104790004EF8342086F800900D703B46402804D136
:1047A00000207D4A019910800B607C4A0123137020
:1047B000E3E600F0C7FB41E6704B784872491A61A6
:1047C0004FF0020E80F800E0754F0A7075491960CD
:1047D0009960754E754D764C9A610D213970FF21A7
:1047E0003170DFF8F4E129702270724D724A8EF850
:1047F00000109F27012406F8047C5D600470DA60D5
:1048000007B0BDE8F08F6D4A47F8380013780133E0
:104810001370F3E543F82600694DD6E58B5D032B55
:1048200067D801A252F823F0FD430000FD430000C9
:104830007D4800007748000059495C4B80220D20DC
:1048400008701A70A2077FF5D8AECFE640F20232A8
:10485000914240F05681A98801F07F01042916D8C1
:104860006A88A2B94E4C89000C448146217841F0F7
:104870000201217059E701238B55BFE500238B55B9
:10488000BCE5A98801F07F01042940F24781444B2F
:104890000F221A70414A012313706EE640287FF6FA
:1048A00068AF44F002040EEBC401029E4E60AAB150
:1048B000444A83F800903346403888F8005040332B
:1048C0004EF834206DE70204029B86F8009042F017
:1048D000C8020D7003444EF834205FE783F800905F
:1048E000029B304A88F80050403840334EF834205C
:1048F00057E719F0080F0CBF022303238B557DE502
:10490000314A0F211170EAE6304A5468002CBED0BB
:104910006888B5F804E003E00C325468002CB6D087
:1049200013888342F8D153887345F5D1000A0328D0
:104930000CBF2078108903E0254C022022706270A1
:10494000EA88824280F00C810F490D78402A45F0B8
:10495000020E944607EBCE0028BF4FF0400C04EB4C
:104960000C0344600293CCEB02004FEA0C484FF07A
:1049700001090022C824E9E6B4B7FF1F0080FF1F29
:104980000FBAFF1F10BAFF1FA8B7FF1F3CB7FF1FCA
:1049900018BAFF1FCCB7FF1FE8B6FF1F94200740CF
:1049A000C020074088004000882007408020074042
:1049B00098200740ECB6FF1F40B7FF1FA9B7FF1FA5
:1049C000D8B6FF1FC80040003DB7FF1F345201009A
:1049D000ACB7FF1FD0B6FF1F8C200740684A694C58
:1049E00012782270ACE76849684B694A02916949BC
:1049F000694C6A4D039405964FF0000988461C46A1
:104A000016460495206828B1456800F053F92846F9
:104A1000002DF9D100232360049B30681A4600233F
:104A200042F8293028B1456800F044F92846002DA5
:104A3000F9D100223260029A98F800301146002223
:104A400041F8042B039A0291023B4FF0000122F837
:104A50001910032B07D8DFE803F0340234024FF0BB
:104A6000010388F8003009F10109B9F1040F04F1DC
:104A7000040406F1040608F10108C3D1484B059E61
:104A8000DFF83091DFF8308100211970012518F826
:104A9000013B09F8043B1A0718D4AC0044F00202A9
:104AA00044F00304002347F8323047F834303D4BDC
:104AB000994505F10105EAD196F8009089F00102C7
:104AC00033E64FF0000388F80030CCE700F0D2F86E
:104AD000AC0007EB451300F10802002837D05A60FC
:104AE000314B47F8343000F0C5F844F0010307EBD0
:104AF000C30200F1080100B351602C4A47F833208B
:104B0000CCE7B1F5A06F7FF4C2AE00224FF00109EF
:104B10000BE642F221329142F7D0B8E66A88002AC9
:104B20007FF4B5AE224C89000C448146217821F0F7
:104B300002012170F9E5022002E7194B44F001025D
:104B40001B7847F83200164A01331370A6E7144B5E
:104B5000134A1B78AC00013347F834001370C2E7E6
:104B60004028844628BF4FF0400C04EB0C03CCEBEC
:104B700000004FEA0C48029300224FF00109D9E5EA
:104B8000B4B7FF1FACB7FF1F90B7FF1F2CB7FF1FB5
:104B900080B7FF1FB8B7FF1F08BAFF1FD8B6FF1FA7
:104BA000A9B7FF1FD420074088004000C80040007C
:104BB000C0200740C4200740305201002DE9F843CF
:104BC000204C01F0A7FF002204F1880023461A6060
:104BD0005A60083383424FF00001F8D11A4A1B4F44
:104BE00013681B4D1B481C4EDFF87880DFF878C037
:104BF000DFF87890DFF878E043F480231360C4F3A3
:104C000007233B70C4F307432B70240EFF2302F5E8
:104C100028320470114D88F8003011488CF80030AB
:104C2000D4323370012389F8003070268EF80010DA
:104C30004FF40074102107F8183C2E7004601170B6
:104C4000BDE8F8830080FF1F348004409C200740AB
:104C5000B0200740B42007401020074049E400E09E
:104C600008E100E0802007408820074094200740AA
:104C70000021074072B60D480268B2FA82F30B2B8E
:104C800010DC4FF00041D94022EA0102026062B616
:104C9000074803EBC303DB00C2180021C1501046D4
:104CA0005160704762B60020704700BF88A2FF1FA6
:104CB000BC9BFF1F0D4B0E4AC31AA2FB03231B090B
:104CC0000B2B0CD80B4A127852B972B60A484FF027
:104CD0000041026821FA03F31A43026062B670478A
:104CE000064A1278002AF0D0FFF7BABABC9BFF1F21
:104CF000398EE338A9B7FF1F88A2FF1FB4B7FF1F83
:104D000038B50F4D286878B143880288C11801333F
:104D100093420C7A02D24380204638BDFFF7CAFF87
:104D2000002320462B6038BD064B1B782BB1032097
:104D3000FFF762FA28600028E6D14FF0FF3038BD57
:104D4000C8B7FF1FB4B7FF1F10B5094C206818B1D2
:104D500043881844007A10BD064B1B782BB1032002
:104D6000FFF74AFA20600028F2D14FF0FF3010BD63
:104D7000C8B7FF1FB4B7FF1F044B054A1B689088D4
:104D80001BB11A885B88D31A18447047C8B7FF1F35
:104D900008BAFF1F0B4B1B789BB110B50A4C20685B
:104DA00048B1FFF787FF002303202360FFF724FAB1
:104DB00030B1FFF77FFF0320FFF71EFA0028F8D17C
:104DC00010BD7047B4B7FF1FC8B7FF1F2DE9F04FE4
:104DD000DFF8F89083B0012289F80020019169B3CF
:104DE000DFF8EC80364F019E8346D8F80000B0B360
:104DF000344D4488C4F14001B14228BF314604EB30
:104E0000010E00221FFA8EFE2A70761AA0F802E028
:104E100000F1080251B1013C224459441BF8014BF6
:104E200002F8014F8B45F9D1B0F802E0BEF13F0F17
:104E30000BD8254A05211170002ED6D101980023E8
:104E400089F8003003B0BDE8F08F402202800146AF
:104E50000420FFF747FA0022C8F80020E9E73A7873
:104E60002AB3184D4AF2F9244FF0010A07E0013C39
:104E700016D02A78A2B900F011FC3A78BAB1042011
:104E8000FFF7D8F90728F2D889F800A0FFF7F2FE5B
:104E9000C8F800000028ACD10C4B013C1870E8D1D8
:104EA00001234FF0FF302B7003B0BDE8F08F0023DB
:104EB0004FF0FF3089F8003003B0BDE8F08F00BF3D
:104EC000B4B7FF1FC4B7FF1FBCB7FF1FBDB7FF1F9D
:104ED000C0B7FF1F00B583B002AB012103F8010D7D
:104EE0001846FFF773FF03B05DF804FBF8B5114BEC
:104EF0001B788BB1104E114D346801272F7064B1AF
:104F00000F4A638800271770214623800420FFF78B
:104F1000E9F9376000232B70F8BDFFF7ABFE084BB3
:104F200028B1014604201C70FFF7DCF9F2E71F707E
:104F3000F0E700BFB4B7FF1FC0B7FF1FBDB7FF1F2B
:104F4000BCB7FF1F38B50E4B1B7873B90D4C2168E9
:104F500061B103F0FF054B880B800420FFF7C2F915
:104F6000256038BD084B01221A7038BDFFF782FE5C
:104F70000028F7D00146BDE838400420FFF7B2B959
:104F8000BDB7FF1FC0B7FF1FBCB7FF1FC029F0B4DC
:104F900028BFC02172B6114B114E18600023336038
:104FA0007360B360F36033617361012799B15D0988
:104FB00003F01F0456F8252007FA04F401332243B6
:104FC0008B4246F82520F2D10023437001338B42F7
:104FD00000F58270F9D162B6F0BC7047D8B7FF1FF8
:104FE000E0B7FF1F70B472B6204B196821B9596839
:104FF00021B30433202200E000221D4E3478B1FAA0
:1050000081F54FF00040E8400134E4B221EA0000AD
:105010003470186062B6531B03EB83139A00154B70
:105020001549186802F5FB531C330122C2540A7853
:10503000A242184438BF0C7070BC7047996821B9FF
:10504000D96829B10C336022D7E708334022D4E76E
:10505000196921B9596929B11433A022CDE7103358
:105060008022CAE762B60846E6E700BFE0B7FF1F46
:10507000DDB7FF1FD8B7FF1FD4B7FF1F427872B646
:105080000378012B03D9013B037062B6704770B4FB
:1050900056110A4D0A4C55F826102378D2434FF08A
:1050A000004002F01F0220FA02F21143013B45F8D2
:1050B0002610237062B670BC704700BFE0B7FF1FB8
:1050C000DDB7FF1FC368B3B130B401E0DB688BB15B
:1050D000187A9042FAD158685C7A006950F82450E6
:1050E000002DF3D140F82410087801300870DB68F7
:1050F000002BEDD130BC7047437A8B4206D903694F
:10510000002253F8210043F8212070470020704707
:1051100038B5437A8B421AD9036953F821400022EB
:1051200043F821209CB12378012B0ED9FFF75AFFB9
:10513000054628B14FF48072211D0430FEF776FA3F
:105140002378013B2370284638BD204638BD002017
:1051500038BD00BF4368427A5B7A9A420ED872B675
:105160000168CA680AB90AE01A46D368002BFBD165
:10517000D060426801230B72137262B67047C86038
:10518000F7E700BF084B1A7862B930B407480849FE
:10519000D02505704FF0804401220C6010461A7033
:1051A00030BC704700207047DCB7FF1F5EE400E0B2
:1051B00008E100E01A491B4A1B48F8B50B681B4D73
:1051C000046843F080730B60136843F001031360BD
:1051D0002E6814B915E064699CB1237A002BFAD0CB
:1051E00023682F681B68204698472B68E188DB1BE3
:1051F0001B099AB28B42A28088BFE2806469002CAE
:10520000EBD10A4B0A4A1B6810880A4C9B1B1B09EE
:1052100099B28342218001D91180F8BDF8BD00BF49
:10522000FCED00E0001000E0D0B7FF1F041000E02C
:10523000DEB7FF1FF8B7FF1FF0B572B699B9026865
:105240008AB103790F2B0ED8274C218841FA03F538
:10525000ED070AD503F1007303F59063B2EB431F2A
:1052600003D162B6F0BD204C2188002341FA03F23D
:1052700012F0010207D00133102BF7D162B60022E1
:1052800003710260F0BD01259D402943218062B673
:10529000164E174D174FDFF864E0D9B2017134682C
:1052A00044F0020434602C6844F002042C60A6F53B
:1052B00080268224A5F5802503F100733C6003F568
:1052C0009063223E243D0C4C8EF800105B0131703F
:1052D0002970217003601A605A609A60DA601A615E
:1052E0005A619A61DA61F0BDFAB7FF1F408004404D
:1052F0003C800440008000401F8000401A80004035
:1053000003790F2B11D8094A10B4137072B60849EB
:1053100004790A880123A34022EA03030B8062B6C2
:105320001022002310BC0271036070471A800040F5
:10533000FAB7FF1FF8B572B106460F4614460025AE
:10534000336817F8011B1B6830469847013C054439
:10535000F6D12846F8BD1546FBE700BF00B5064A62
:10536000036812885B6883B001A9ADF804200222AB
:10537000984703B05DF804FBFC510100F0B5074607
:105380008BB0002A33D0012A08BF0A2251B321244E
:1053900000E0F4B2B1FBF2F502FB1511C8B2092925
:1053A00000F1300198BFC8B20AA988BF3730214444
:1053B00088BFC0B201F8240C661E2946002DE8D132
:1053C00033B1013CE4B20AAB23442D2203F8242C70
:1053D0003B6801AA11195B683846C4F1220298475C
:1053E0000BB0F0BD30228DF825202124E8E70368BA
:1053F000C9B21B6898470BB0F0BD00BFFFFFFFFFAD
:105400002DE9F04385B080461946104616461F46E2
:105410009DF8305003F082F9002840F0B18027F069
:105420000044304621464FF0FF32594B03F076F9E5
:1054300098B9304621464FF0FF32554B03F050F9F2
:1054400058B9D8F8003053495B6840460322984762
:105450008146484605B0BDE8F083304639464FF0F6
:1054600060424D4B03F050F9002870D13046394668
:105470004FF06042494B03F029F9002867D13046CC
:1054800039460022002303F021F9002863D1814628
:10549000002D65D0424B00240022104619463AA345
:1054A000D3E9002302F0A0FE01340B46E1B28D42A5
:1054B0000246F2D83046394602F0E4FC0F46064672
:1054C00003F042F9044602F019FE02460B4630464C
:1054D000394602F0D5FC4B4606460F460A222146C5
:1054E0004046FFF74BFF0F2D28BF0F2501352E2318
:1054F0008146EDB28DF8003001240022294B304660
:10550000394602F071FE0F46064603F01DF904AB62
:105510002344C0B200F1300203F8102C02F0FEFD6B
:1055200002460B463046394602F0AAFC0134E4B28A
:10553000A54206460F46E0D1D8F800302A465B68FF
:10554000404669469847484605B0BDE8F083D8F81C
:105550000030154978E707F100474FF0010997E758
:1055600000220F4B3046394602F08CFC03F0ECF879
:105570004B4601460A224046FFF700FF814668E796
:10558000D8F8003009495FE7000000A09999B93FB9
:10559000FFFFEF7F08520100FFFFEF41FFFFEFC168
:1055A0000000E03F000024400452010000520100CE
:1055B000F0B5164D2A680AB31549164BDFF85CE0C2
:1055C00082FB016781FB0214D617D1191444C6EB84
:1055D0002141C6EB244403FB04F40EFB112244F2E8
:1055E000A71303FB0243002B02DA03F10043013B44
:1055F000B3FBF0F22B6000FB1230F0BD064B2B60CA
:10560000B3FBF0F200FB1230F0BD00BFFCB7FF1F90
:105610005F0B4E83ECF4FFFF42CE0C1F1DF3010025
:1056200008B1FFF7C5BF704710B4019C401AE41AD7
:1056300004FB00F4521A94FBF2F010BC18447047BB
:1056400008B5FAF73BFFFAF76BFF00F027F8FAE727
:1056500003F018BE03F01EBEFFF79CBBFFF746BC6D
:10566000FFF772BBFFF74CBBFFF786BB084611463E
:10567000FFF7ACBB0846FFF72DBC00BF704700BF6B
:10568000044B054A1A604FF47A71002299601A712E
:105690001A73704700B8FF1F1452010010B5154C63
:1056A000237803B110BD01232370FFF765FB58B9C0
:1056B00000F0E8FA70B900F087FE88B901F050F9FF
:1056C000A0B90023237010BDFFF7D8FF00F0DAFA6D
:1056D0000028F0D001F0D4FA00F076FE0028EDD0DA
:1056E00001F082FB01F03CF90028EAD001F030FC27
:1056F000E7E700BF10B8FF1FF0B44D1E2E46002490
:1057000000E00134B0FBF2F302FB1300092800F1C2
:1057100030078ABF3730F8B2C0B206F8010F18461A
:10572000002BEED10A1953704CB1107815F8016FA7
:1057300028700133E01A834202F80169F5DB08465C
:10574000F0BC70472DE9F84F214B1B6807460BB1A1
:1057500001221A70DFF888901E4D99F80040DFF89A
:1057600084801D4E01343F2C8ABF4FF0000A5FFA3F
:1057700084FA5446AB462B78A34216D1FEF716FAAC
:1057800040281FDC33791B06F5D59BF80030013328
:105790003F2B86BF00221346DAB218F80330DBB283
:1057A000F3712A702B78A342E8D00C490A4BFFB260
:1057B00008F804700120BC22087089F800A0DA7093
:1057C000BDE8F88FFF28D6DDFFF768FFD3E700BFFD
:1057D000A4B8FF1FA1B8FF1F00A00640A0B8FF1F7C
:1057E000A8B8FF1F1CB8FF1F274A28491368F0B547
:1057F00043F4806313600A78254F264E264D274CCC
:10580000274900233B7033702B7023700B70002AE4
:1058100035D0152A26D0234B1B78012B2AD0052BF7
:1058200003D1214B4FF451721A60204B204C214977
:10583000C0F34436C0F347151E7000F01F005D70C2
:1058400004224FF0020E88273C26402598729A7059
:105850004FF4005083F813E05A751F74DE70257002
:105860000860F0BD144B40F213321A600D4B1B78E8
:10587000012BD4D1114B4FF451721A60D5E7104B64
:1058800040F213321A60C6E7348004405CB8FF1F50
:1058900018B8FF1F19B8FF1FA8B8FF1FA1B8FF1F36
:1058A000A0B8FF1F8CA2FF1F1CC0044000A0064030
:1058B0002DE400E004E100E018C0044044A00440EE
:1058C00040A00440144B14499B7803F0EC0200F014
:1058D00003031343420700F00F0248BF43F01003D5
:1058E000042A8B7013D00C4B0B4A5B79C10603F072
:1058F000EF0348BF43F0100353719379820603F01E
:10590000EF03054A48BF43F01003937170478B794A
:1059100043F040038B71E6E700A00640214B1B6873
:105920005B053ED510B5204C237823B1FFF7B6FEBA
:105930002378002BFAD11D481D4A1E4B4FF400540A
:1059400000210460D1701B78E3B1152B03D11A4BF1
:1059500040F203121A60194B1B7803F07F03012BEE
:105960001AD0052B03D1164B40F203121A60154BC7
:10597000154816491A68002303700B700AB10123F9
:10598000137010BD124B40F203121A600B4B1B78C0
:1059900003F07F03012BE4D10E4B40F203121A6097
:1059A000E5E7704734800440A0B8FF1F84E100E0C1
:1059B00000A006405CB8FF1F18C004408CA2FF1F67
:1059C0001CC0044014B8FF1F18B8FF1F19B8FF1FF0
:1059D00040A0044044A004400A4A38B50546137864
:1059E00003F0FF04002BFAD101212846FEF740FB0B
:1059F00021462846FEF728FB034A044B52F835207F
:105A00001A6038BDA0B8FF1FEC500100A4B8FF1FFA
:105A100009B140F08000174A1378984216D010B4AC
:105A2000154C246864050FD503F07F03012B1CD0AF
:105A3000052B11D0002900F07F0114BF60234423FF
:105A400001290DD0052902D0107010BC70470B49F8
:105A500043F440730B60F7E7084B00241C60E9E750
:105A6000074943F440730B60EEE7054B00241C60CC
:105A7000E0E700BF8CA2FF1F348004401CC004403C
:105A800044A00440104B1A7882420AD00F4909689A
:105A9000490505D5AAB1152A09D068B1152801D044
:105AA000187070470A4A40F213311160F8E7084A4B
:105AB000002111600028F1D1064A40F21331116033
:105AC000EEE704490A60E8E75CB8FF1F3480044051
:105AD00018C0044040A004400D4B1B6813F48063C1
