:1000000000800020BD010000FD460000B546000054
:10001000B5460000B5460000B5460000B5460000F4
:10002000B5460000B5460000B5460000FD4600009C
:10003000FD460000B5460000C13D0000C53E000081
:10004000FD460000FD460000FD460000FD460000A4
:10005000FD460000FD460000FD460000FD46000094
:10006000FD460000FD460000FD460000FD46000084
:10007000FD460000FD460000FD460000FD46000074
:10008000FD460000FD460000FD460000FD46000064
:10009000FD460000FD460000FD460000FD46000054
:1000A000813800008D380000FD460000FD4600004C
:1000B000FD460000FD460000FD460000FD46000034
:1000C000FD460000FD460000FD460000FD46000024
:1000D000FD460000FD460000FD460000FD46000014
:1000E000FD460000FD460000FD460000FD46000004
:1000F000FD460000595F0000FD46000085600000DD
:10010000FD460000B1610000FD460000FD46000014
:10011000FD460000FD460000FD460000FD460000D3
:10012000FD460000FD460000FD460000FD460000C3
:10013000FD460000FD460000FD460000FD460000B3
:10014000FD460000FD460000FD460000FD460000A3
:10015000FD460000FD460000FD460000FD46000093
:10016000FD4600005D4F0000FD460000FD4600001A
:10017000FD460000FD460000FD460000FD46000073
:10018000FD460000FD460000FD460000FD46000063
:10019000FD460000FD460000FD460000FD46000053
:1001A000FD460000FD460000FD460000FD46000043
:1001B000FD460000FD4600007D3B0000564B4CF222
:1001C000205210B51A804DF628121A8000BF00BFC9
:1001D00004F098FA514B4FF010621A60504A9A603E
:1001E000504ADA60504A136813F4807304D14F49BF
:1001F0000B604FF4A85313604D4B1A78110703D5C9
:100200001A7842F008021A704A4B4B492A221A7097
:100210004A4A4B4B8B4204D252F8040F43F8040B6A
:10022000F8E7484B484900228B4202D243F8042B9E
:10023000FAE74649464A002352F8230041F82300D2
:1002400001336F2BF8D1434B434A802103F8011B44
:100250009342FBD1414B3D4A1A60414B8A221A70AE
:10026000A3F5805324225A70A0221A709A7992071B
:10027000FCD59A79D406FCD43A4A937903F00C035E
:10028000082B384BF9D103221A7140225A719A79FE
:100290009006FCD5334A9179324B4906FBD5324A58
:1002A000324911600221516020221A709A7902F0BD
:1002B0000C020C2AFAD12E4B2E4A1A602E4B2F4AD2
:1002C0001A6000225A60072243F8042C2C4AC3F813
:1002D0000C2D62B604F0F8FC144B1B68DA0705D548
:1002E000284804F079FB284B284A1A60284B1B78D1
:1002F0005B0609D5244C254B22689A4204D121483B
:1003000004F06AFB0023236008F062F904F000FAAD
:1003100004F02EF9FEE700BF0E20054030800440B7
:10032000823F04000100002B10D0034014D0034092
:1003300002D0074000E007408CACFF1F0C4A0100D0
:10034000209FFF1F90ACFF1F94BAFF1F009AFF1F52
:100350000000000000E400E05FE400E008ED00E0E1
:100360000050064000400640448004400000030165
:1003700004800440C010050014E000E0FF76010096
:1003800000002020E6966D5C1CE00340A5C3945A53
:1003900000F00740FFFFFFFFFFFFFFFFFFFFFFFF32
:1003A000FFFFFFFFFFFFFFFFFFFFFFFFFFFFFFFF5D
:1003B000FFFFFFFFFFFFFFFFFFFFFFFFFFFFFFFF4D
:1003C000FFFFFFFFFFFFFFFFFFFFFFFFFFFFFFFF3D
:1003D000FFFFFFFFFFFFFFFFFFFFFFFFFFFFFFFF2D
:1003E000FFFFFFFFFFFFFFFFFFFFFFFFFFFFFFFF1D
:1003F000FFFFFFFFFFFFFFFFFFFFFFFFFFFFFFFF0D
:10040000FFFFFFFFFFFFFFFFFFFFFFFFDEF9FFFF23
:1004100010B5054C237833B9044B13B10448AFF33E
:1004200000800123237010BD90ACFF1F000000006E
:10043000084A0100084B10B51BB108490848AFF342
:1004400000800848036803B910BD074B002BFBD0A0
:10045000BDE81040184700BF0000000094ACFF1F2B
:10046000084A01008CACFF1F0000000010B50446D4
:1004700003F03CFB204610BD002310B4104C417229
:10048000026104600372C36041B1194600E0026971
:1004900042F82310427A01339A42F8DC094B1A6879
:1004A0000AB90BE01A465369002BFBD150610023B7
:1004B00043618380C380837210BC70471860F6E785
:1004C0003C8F000060B7FF1F38B5144B144D154822
:1004D000042200245A861C6214216A862C6203F0CE
:1004E000DBF92146104802F089F8204603F07EFF30
:1004F0002146022004F094FB01210D2004F090FB22
:100500000121032004F08CFB01210D2004F074FB79
:1005100001210320BDE8384004F06EBBB8B2FF1FD4
:1005200080B2FF1F0082FF1FCCAFFF1F2DE9F047F5
:10053000914C924D924E4CF6CC4382B063620F20A8
:1005400003F07AFF8F4B2F68186007F0F5FB3946F0
:1005500007F03CFB8C4B8D49186007F041FC394695
:1005600007F036FB8A49286007F03AFC894907F012
:10057000EBFC4FF07E5107F02BFB0021306005466D
:1005800007F0CCFD002840F017858349284607F086
:10059000E3FD002800F0C684804BE361284606F0A6
:1005A0009DFF022702460B4600977D48DFF84082F8
:1005B0007C4D03F0F5FC7A4803F0A0FC112003F019
:1005C0003BFF794BD8F80090186007F0B5FB49461F
:1005D00007F0FCFA754B7649186007F001FC4946B4
:1005E00007F0F6FA7349C8F8000007F0F9FB69490B
:1005F00007F0AAFC4FF07E5107F0EAFA07F0CCFDB5
:100600006D4B6E4A53F820301060E362EB6238465F
:1006100004F0F8FA6A4C634F01280CBF4FF07E5388
:100620004FF0804323604CF6CC436B62102003F004
:1006300003FF07F081FB634907F0D2FB554907F040
:1006400083FC614907F0C2FA316807F0C1FA5F4BD9
:100650002168186007F078FC0021044607F05EFD71
:10066000002840F0A5844C49204607F075FD00287D
:1006700000F0FC83494BEB61122003F0DDFE07F034
:100680005BFB4FF07C5107F0ABFB4249504D514CA6
:1006900007F05AFC002107F09BFA2860142003F0B1
:1006A000CBFE07F049FB3B4907F04EFC002107F069
:1006B0008FFA2060142003F0BFFE07F03DFB3549A0
:1006C00000F1004007F040FC4FF07E5107F080FA47
:1006D000414B42491860064607F03EFD002840F0B5
:1006E00089803F49304607F019FD002840F02984F1
:1006F0004FF08F41304607F073FB07F04DFD276840
:10070000384C3649A061384607F026FD002800F035
:100710008B830023DFF8D4803049C4F81C80304636
:100720002362636207F018FD002875D12C4930461A
:1007300007F0F4FC002840F085854FF08F413046EB
:1007400007F04EFB07F028FD274C2449A0613846EE
:1007500007F002FD002840F095852149384607F052
:10076000DDFC002840F05A844FF08F41384607F0F6
:1007700037FB07F011FD52E080B2FF1F14B1FF1FDD
:1007800060B4FF1F68B4FF1F98ADFF1F0AD7233C5A
:100790000080F94300C07F44A655AC460000FE7FB0
:1007A00098A3FF1FB8B2FF1FC4AFFF1FC8AFFF1F42
:1007B0006F12033C0000B44220A0FF1F58B4FF1F7B
:1007C0008CADFF1F000020410000A04064B4FF1F5B
:1007D00070B2FF1F74B2FF1FCCAEFF1F00FEFF46BA
:1007E00000FEFFC6A4B0FF1FDCB0FF1F0000FF7FAC
:1007F00090ADFF1F2768B54CDFF8DC82B449C4F820
:100800001880384607F0A8FC002800F00D8300236C
:10081000C4F81C8023626362AE4CAF48A061002321
:10082000E06113202362636203F006FE07F084FA9E
:10083000AA4907F0D5FAAA4907F086FBA94907F0AB
:10084000C7F9A94BA9491860044607F067FC0028BE
:1008500040F08083A649204607F07EFC002800F087
:100860002C84A44BA44AA54EA54FA0495A62204609
:100870009E61DF6107F052FC002840F00A853A468D
:10088000A04B9D4F99499E612046DA615F6207F057
:1008900045FC002840F069839549204607F05CFC40
:1008A000002800F0C583964E944F974B924A8F498B
:1008B0009F612046DE615A6207F030FC002840F05C
:1008C000E4848B49204607F047FC002800F0C783EA
:1008D0008B4A8A4C8D4B8849DA6159629C610E20A3
:1008E00003F0AAFD8A4E8B4B3768186007F024FA94
:1008F000394607F06BF9884B8849186007F070FAA1
:10090000394607F065F94FF07E51306007F05EF927
:100910004FF0894107F064FA8149824CDFF8589220
:1009200007F012FB4FF0884107F050F907F034FC54
:100930002060222003F080FD2368184407F0FCF9B2
:100940004FF000084146064607F0FCFB002800F087
:100950001A83634F3046394607F0E0FB002840F029
:100960000784714A714E7249724BC9F80070116068
:10097000F361714B71491A6801208242086005D009
:100980006F490022B1F902107186326201222320E0
:100990001A6003F051FD07F0CFF9514907F0D4FA7E
:1009A000002107F015F9674B00211860074607F092
:1009B000B5FB002840F01A834FF07E51384607F00F
:1009C000CBFB002800F044844FF4803373621F2077
:1009D00003F032FDC0EB4073D0EBC30048BF00F220
:1009E000FF30594E801200F10B031E20336003F0DC
:1009F00023FD564B564A03FB00F00028B8BF00F217
:100A0000FF308012337800F58C405030102B10608E
:100A100000F29E82002B08BF01234E4E337607F072
:100A20008BF901464C4807F08FFA4FF07C5107F0E4
:100A3000CFF807F0B1FB002840F3A382402803461B
:100A4000A8BF4023DBB27376152003F0F5FC07F056
:100A500073F94249424E07F0C3F9214907F074FA8D
:100A6000204907F0B5F83060162003F0E5FC07F0E8
:100A700063F93C4907F0B4F9194907F065FA4FF0FA
:100A80007F5107F0A5F83668374B184918600746BC
:100A9000304607F043FB002840F06F82144930468F
:100AA00007F05AFB002800F0F182154BDFF84C806C
:100AB0002E4E2F49C6F818803846F36107F02EFBFA
:100AC000002840F043822B49384657E0A4B0FF1F6E
:100AD00000FEFF46DCB0FF1F0000FF7F00C099450D
:100AE00000C07F440000A04218B1FF1F0000A041D9
:100AF0001EDE894620B1FF1F00B76D5B00BE6C5043
:100B0000008C3C4B98B1FF1FD4B1FF1F10B2FF1FE8
:100B1000A0B3FF1F84ADFF1F7CB2FF1F0AD7A33B0A
:100B200000807F447CADFF1F94ADFF1FF0B2FF1F1C
:100B30000000C84116232500E8AFFF1F88ADFF1F46
:100B400008A0FF1FBCB3FF1FD0AEFF1FB2B9FFFF4D
:100B5000ACACFF1F4CB2FF1FA6552C4700206946C6
:100B60001CB1FF1F00006040A4B3FF1F5CB1FF1F5A
:100B70003333333F0000A040F8AFFF1F07F0ECFA1B
:100B8000002840F0538239464FF07E5007F0DCF9E0
:100B90004FF09D4107F024F907F0FEFA70621A2029
:100BA00003F04AFC07F0C8F8B74907F0CDF9002177
:100BB00007F00EF8B54B00211860064607F0AEFAB4
:100BC000002840F029824FF07E51304607F0C4FAE9
:100BD000002800F04F834FF48030AD4EDFF83CA387
:100BE0007062252003F028FC2368184407F0A4F85D
:100BF00000273946814607F0A5FA002800F0F88161
:100C0000DFF884824846414607F088FA002840F021
:100C1000FB82A04AA049A14BCAF800801160F36191
:100C2000242003F009FC9E499E4F9F4A00EB4000A0
:100C3000430081FB03101844DB17C3EB60203B68C3
:100C40001060834205D0994A002332F91020728641
:100C500033622D68964E38604FF400439549B36176
:100C6000284607F079FA002840F06E81924928461C
:100C700007F054FA002840F0D4814FF08F41284605
:100C800007F0AEF807F088FAF06100251D20356204
:100C9000756203F0D1FB07F04FF87B4907F054F978
:100CA000002106F095FF854B00211860064607F0ED
:100CB00035FA002840F098814FF07E51304607F019
:100CC0004BFA002800F0CE824FF480307C4DDFF8E4
:100CD000508268621C2003F0AFFB2368184407F0C1
:100CE0002BF800263146074607F02CFA002800F0C2
:100CF0006781654C3846214607F010FA002840F01D
:100D00001982704A6449654BC8F800401160EB6174
:100D10001B2003F091FB624A6B4C6C4E216800EB88
:100D20004000430082FB03201844DB17C3EB602024
:100D30008142306005D0664A002332F910206A866D
:100D40002B62206072B6634A634BD3610023137633
:100D500062B6624C624D6349634823624FF4803649
:100D600043F2333702226362EB612B626B62AF6145
:100D7000A661E66101F0E2F802225A495B4801F0FF
:100D8000DDF8022257495A4801F0D8F8594800F0D6
:100D9000B5FF4FF07C5106F019FF574907F020F8D6
:100DA000014606F015FF002106F012FF07F0F4F9E6
:100DB000524A034601460420136003F01FFE5048C8
:100DC00000F09CFF4FF07C5106F000FF4A4907F00D
:100DD00007F8014606F0FCFE002106F0F9FE07F0D8
:100DE000DBF9484A034601460520136003F006FE7E
:100DF000454800F083FF4FF07C5106F0E7FE3E4986
:100E000006F0EEFF014606F0E3FE002106F0E0FEEC
:100E100007F0C2F93D4A034601460620136002B0BE
:100E2000BDE8F04703F0EABD2349384607F076F9FC
:100E3000002840F084804FF08F41384606F0D0FF04
:100E400007F0AAF90023E0611A4923623046636281
:100E500007F082F9002840F0E6801749304607F095
:100E60005DF900283FF469AC29486DE42949204622
:100E700006F0B6FF07F0B6F9274BF86198427FF607
:100E8000FBABFFF7F7BB00BF00C07F4498B3FF1F69
:100E900028B3FF1FC0B3FF1F0000C8411623250061
:100EA0006359A581ECAFFF1F5CB4FF1F14A0FF1FA7
:100EB000FCAFFF1F00FEFF4600FEFFC66CB2FF1F27
:100EC00060B3FF1FF4AFFF1FF0AFFF1F78B2FF1F2B
:100ED0008CA1FF1F50ADFF1F0000FF7F6CB0FF1FF4
:100EE00034B0FF1F00A0FF1F08AFFF1F2CAFFF1F74
:100EF00050AFFF1FC8B3FF1F00007F439CADFF1F13
:100F0000F8B3FF1F80ADFF1F28B4FF1F6CB4FF1F95
:100F1000000001804B24BE470000FE7F78ADFF1F1C
:100F20009CB3FF1FA349284606F05AFF07F05AF961
:100F3000A14BE06198427FF631ABFFF72DBB9F4894
:100F400080E79E48FFF7DBBB9D489DE69D4825E670
:100F5000102362E59C4A9D4B9D4C9E4899499461A3
:100F60009C61D061D861516259629B4B984C994AFF
:100F7000944959629C61DA61ACE4964BDFF8508287
:100F800096E501235FE59548954BC9F80080186008
:100F900007468849934E384606F022FF07F022F9AB
:100FA000854BF06198427FF6E4AC834BF361E0E45B
:100FB0000023FB61FFF760BB0023E361FFF7EEBA9C
:100FC0008648894BC8F80060186004467949204675
:100FD00006F006FF07F006F9774BE86198427FF6C6
:100FE00097AE754BEB6193E628466FE60023EDE480
:100FF0007A487E4BCAF80070186080466D494046BA
:1010000006F0EEFE07F0EEF86B4BF06198427FF6CB
:1010100007AE694BF36103E60020DEE56748FFF7A2
:10102000FEBB664830E66648FFF78EBB7048B5E504
:101030007049204606F0D4FE4FF09E41064606F069
:10104000CFFE07F0A9F80746304605F05FF94FF0EC
:101050009E4106F0C5FE07F09FF8064625E42046AF
:10106000644906F0BDFE4FF09E41064606F0B8FE0C
:1010700007F092F80446304605F048F94FF09E41DB
:1010800006F0AEFE07F088F8024623E430465949E0
:1010900006F0A6FE4FF09E41064606F0A1FE07F0C0
:1010A0007BF88046304605F031F94FF09E4106F05E
:1010B00097FE07F071F80346FAE44E49424E204687
:1010C00006F08EFE074605F021F94FF09E4180465E
:1010D000384606F085FE07F05FF84FF09E41B0619C
:1010E000404606F07DFE07F057F8364BF061424966
:1010F0007362204607F012F8002840F0CA803F498A
:10110000204607F029F8002840F0D0804FF09E419B
:10111000384606F065FE07F03FF80646384605F00B
:10112000F5F84FF09E4106F05BFE07F035F80246F9
:10113000FFF7A6BB3249384606F052FE214606F0BC
:1011400003FF264906F044FD274BC8F800703146DE
:101150001860044606F0E2FF38B92A49204606F036
:10116000FBFF00287FF43DAF30E70023EB61CFE5C4
:101170002349304606F034FE394606F0E5FE1749AD
:1011800006F026FD164BC9F8006041461860074678
:1011900006F0C4FF40B91B49384606F0DDFF0028C1
:1011A0003FF4F7AE0F4E00E70E4E0023F361FFF75A
:1011B000E0BB00BF4B24BE470000FE7F0000018063
:1011C0000000FF7F00B76D5B20B1FF1F98B1FF1FCC
:1011D0007B5517007A551700D4B1FF1FCDCC4C3D7D
:1011E00094ADFF1FF0B2FF1FF4AFFF1FC0B3FF1F8E
:1011F000D0CCCC0C465615380000A0411EDE8946E6
:101200009A99C741A655AC462A49484606F0E8FDDA
:10121000414606F099FE284906F0DAFC274BCAF849
:10122000009039461860804606F078FF38B92449A6
:10123000404606F091FF00287FF4EBAEDEE6002387
:10124000F361EDE41F4C204BA3614046FFF7E7BA82
:101250004FF08F41384606F0C3FD06F09DFF034670
:10126000FFF7B4BB4FF08F41304606F0B9FD06F0F2
:1012700093FF2BE54FF08F41304606F0B1FD06F0AD
:101280008BFFAAE41148FFF7CABA114A114CFFF7C5
:1012900021BB1149114B0F4C0D4A11488C61CA6199
:1012A000486258629C61DA61FFF714BB0D4A0E4E2A
:1012B000FFF7E6BA9A99C741CDCC4C3DC0B3FF1FAA
:1012C000A655AC46DCB0FF1F000001800000FF7F88
:1012D0007A5517007B55170098B1FF1FD4B1FF1F37
:1012E00000B76D5B008C3C4B00BE6C502DE9F04F9D
:1012F000002283B0AA4BAB48019311461446FFF776
:10130000BBF8A84BA84EDFF80C83A848C3F80080B0
:101310004FF0804A22462146C3F828A09C61DC6138
:101320001C625C62DC621C865C869C86FFF7A4F80B
:101330009E4B9F4FC3F80080224621463046C3F89B
:1013400028A09C61DC611C625C62DC621C865C869D
:101350009C86FFF791F8974BC6F8008003F12802AE
:1013600018460421C6F828A0B461F461346274629E
:10137000F46234867486B486FFF77EF8019B03F12D
:10138000340218468B4B4FF4803502211F609D615B
:10139000DD611D625D62FFF76FF8874B874F03F1D8
:1013A00034021846019B1F60854F9F61A7F57C574B
:1013B000183F4FF48059DF61824F5F620221C3F80A
:1013C00020909C62DC621C63FFF756F87E4B7B4FDB
:1013D00003F118021846784B1F60794F9F61A7F5FB
:1013E0007C57183FDF61774F5F62C3F8209001217F
:1013F0009C62DC621C63FFF73FF87348734A7449D0
:10140000744F076007F0D2F8734B694F03F128025D
:1014100018460421FFF730F8704B03F11802184604
:101420006D4B01211F609D61DD611D625D62FFF7F3
:1014300023F86B4B6B4F03F134021846674B4FF0A8
:10144000000C02214FF0000BC3E908BC1F609C6236
:10145000FFF712F8644B594FDFF8BCB103F13402C7
:1014600018465F4B1F60564F9F61A7F57C57183F8A
:10147000DF61544F5F620221C3F820909C62DC62FE
:101480001C63FEF7F9FF594B4C4F03F12802184635
:10149000554B1F604A4F9F61A7F57C57183FDF618E
:1014A000484F5F620421C3F820909C62DC621C6399
:1014B000FEF7E2FF4D4B3E4F4D481F60224621464E
:1014C0009D61DD611D625D62FEF7D6FF484B4948B4
:1014D00018602246214648481C76DC61FEF7CCFFA6
:1014E000454B4648C3F8008022462146C3F828A051
:1014F0009C61DC611C625C62DC621C865C869C8692
:10150000FEF7BAFF3E4B03F11C0218463B4B01218C
:10151000C3F80080C3F828A09C61DC611C625C6297
:10152000DC621C865C869C86FEF7A6FF344B354A3F
:101530001A60354BDFF8E4A003F1180218460121C8
:10154000FEF79AFF304B23481860204A204918467E
:1015500007F02CF82D4B042103F128021846FEF762
:101560008BFF2B4B03F118021846284B01211F60FB
:101570009D61DD611D625D62FEF77EFF2448134AB6
:101580001349144F076007F011F80BF134020221E0
:101590005846FEF771FF094BCBF8003040E000BF22
:1015A00020B1FF1FB8B2FF1FF0B2FF1F80B2FF1FB4
:1015B000E8420100FCAFFF1F98B1FF1FDC420100B1
:1015C00000B28E0480F9855A08AFFF1FFC9FFF1FF1
:1015D000251F0000D0420100A4B0FF1FC8B3FF1FA9
:1015E00010B2FF1FA8400100D4B1FF1FDCB0FF1FE5
:1015F00050ADFF1F0043010060B3FF1F28B3FF1F62
:101600004CB2FF1FB84201002CAFFF1F6CB0FF1F90
:1016100050AFFF1F0C4301005CB1FF1FCCAFFF1F99
:10162000364BCBF8209003F118021846344BCBF818
:101630001830A3F57C53183BCBF81C30314BCBF85A
:1016400024300121CBF82840CBF82C40CBF8304097
:10165000FEF712FF2C4B2D4F03F118021846274BB3
:1016600002211F604FF000080027C3E908789C6240
:10167000FEF702FF244B264A1A60264B234F03F144
:10168000180218460121FEF7F7FE234B03F128024A
:101690001846204B04211F604FF000080027C3E9C3
:1016A00008789C62FEF7E8FE1B4B1C491960DFF8C6
:1016B00078C09D614FF0010E0AF11801DD611D62D5
:1016C0005D62224620468AF80840CAF80C40CAF8F3
:1016D00000C08AF809E0CAF810105546019B00E0E6
:1016E000296941F822009AF809100D4C0132914203
:1016F000F6DC0C4A1168D1B9ACE200BF28B4FF1F78
:1017000000B28E0480F9855AD4AEFF1FA8400100B4
:10171000C4420100F8B3FF1F34B0FF1FE8420100CC
:10172000CCAFFF1F60B7FF1F3C8F000011464A6916
:10173000002AFBD1C1F814A00024DFF88093BE4A30
:10174000BE48CAF81440AAF80440AAF806408AF82D
:101750000A40CAF80020019300F0A8FEB84BC9F86F
:101760000030B84BC9F8043048464FF00103B64D7D
:1017700089F8093089F80840C9F80C4089F8104008
:1017800002F080F9B14AB249DFF83483B14F4846DC
:1017900006F00CFFB04B2B602846AA4B6B602C72F6
:1017A0006C72EC602C7402F06DF9A84AA849DFF85D
:1017B0001493284606F0FAFE019BC8F80430404610
:1017C0004FF0010388F8093088F80840C8F8006035
:1017D000C8F80C4088F8104002F054F99B4A9C4924
:1017E0009E4D404606F0E2FE9D4B7B6038463C72C3
:1017F0003E607C72FC603C7402F044F9934A944968
:10180000DFF8C482384606F0D1FE964B6B6028465E
:101810004FF00103944F6B722C722E60EC602C74AD
:1018200002F030F9894A8A49284606F0BFFE8F4BFC
:101830007B6038464FF001038D4D7B723C723E60F9
:10184000FC603C7402F01EF9804A8149384606F07B
:10185000ADFE884B6B6028464FF001036B722C7213
:101860002E60EC602C7402F00DF9784A7849824FB2
:10187000824E284606F09AFE724BC8F80030404669
:10188000019B7F4DC8F8043088F8084088F809406B
:10189000C8F80C4088F8104002F0F4F86B4A6C4924
:1018A000404606F083FE674B2B6028466D4B6B600D
:1018B0002C726C72EC602C7402F0E4F8634A644998
:1018C000DFF80882284606F071FE019B3B6038462F
:1018D0006C4B7B603C727C72FC603C7402F0D2F812
:1018E0005A4A5B49684D384606F060FE4FF00103E6
:1018F00073725C4B3360634B736030464FF002038E
:101900003372F460347402F0BDF8504A50495F4FAE
:10191000304606F04BFE524B2B6028465C4B2C7237
:101920006B606C72EC602C7402F0ACF8474A48496A
:10193000584B0193284606F039FE524BC9F8003047
:1019400048464C4BC9F8043089F8084089F80940EA
:10195000C9F80C4089F8104002F094F83B4A3C4921
:101960004D4E4E4D484606F021FE464BC8F800301D
:1019700040463E4BC8F8043088F8084088F80940D3
:10198000C8F80C4088F8104002F07CF82F4A304923
:10199000DFF83C91404606F009FE4FF002033B722F
:1019A000324B3B603E4B7B6038464FF001037B720D
:1019B000FC603C7402F066F8244A2549DFF8148183
:1019C000384606F0F3FD2B4B33603046344B7360E2
:1019D00034727472F460347402F054F81B4A1C4977
:1019E000304F304606F0E2FD2D4B2B6028462E4B43
:1019F0006B602C726C72EC602C7402F043F814492A
:101A0000124A2A4E284606F0D1FD019B284A1A6048
:101A1000284A5A6018464FF001021C725A72DC6064
:101A20001C7402F02FF8019B0949084A224D184600
:101A300006F0BCFD50E000BFF4420100CCAFFF1F38
:101A4000B8B2FF1FFCAFFF1FC4ACFF1FFC9FFF1FFE
:101A50006D040000ECACFF1F80B2FF1F00ADFF1F44
:101A600008AFFF1F98B1FF1F14ADFF1F10B2FF1F7B
:101A700028ADFF1FD4B1FF1FA0ADFF1FB4ADFF1FE6
:101A8000A8B3FF1FA4B0FF1FC8ADFF1F04AEFF1F08
:101A9000C8B3FF1F40AEFF1F18AEFF1F2CAEFF1FC5
:101AA000DCB0FF1F90AEFF1F4CB2FF1F9CAFFF1FAB
:101AB00050ADFF1F6CB0FF1FB0AFFF1FB0ACFF1FDA
:101AC000D8ACFF1FDCADFF1F3CADFF1FF0ADFF1F0B
:101AD000F4AEFF1F7CAEFF1F5F48604A0260604AA1
:101AE000047242604472C460047401F0CBFF5D492B
:101AF0005D4A594806F05AFD5C48584A02605C4A03
:101B0000047242604472C460047401F0BBFF564A20
:101B10005449564806F04AFD564B89F80840484655
:101B200089E808084FF0010389F80930C9F80C402A
:101B300089F8104001F0A6FF4B4A4A49484606F092
:101B400035FD4C4BC8F8003040464B4BC8F80430CC
:101B500088F8084088F80940C8F80C4088F8104018
:101B600001F090FF404A3F49404606F01FFD434BBD
:101B70003C72384687E808087C72FC603C7401F0CF
:101B800081FF3849384A384606F010FD3C48384A4B
:101B900002603C4A047242604472C460047401F002
:101BA00071FF3049304A364806F000FD36482C4A6D
:101BB0000260364A047242604472C460047401F0E8
:101BC00061FF2849284A304806F0F0FC30482A4A8C
:101BD0000260304A047242604472C460047401F0CE
:101BE00051FF2049204A2A4806F0E0FC2A484FF0DD
:101BF00001024272254AC0F800B042600472C4601B
:101C0000047401F03FFF184A1649234806F0CEFC41
:101C10001E4B33603046214B736034727472F46033
:101C2000347401F02FFF104A0E49304606F0BEFC16
:101C30001A4B2C72284685E808046C72EC602C74F0
:101C400001F020FF084A0749284603B0BDE8F04FDD
:101C500006F0ACBC14606FE554AEFF1F60B3FF1F0D
:101C60006CB0FF1F6D040000FC9FFF1F68AEFF1FDC
:101C70002CAFFF1F28B3FF1F50AFFF1F4CB2FF1F39
:101C8000A4AEFF1F28B4FF1FB8AEFF1FD4AEFF1FC6
:101C900074AFFF1FF8B3FF1F88AFFF1F34B0FF1FE3
:101CA0002DE9F0410021804601F0BEFEF8B1D8E9EF
:101CB0000823011D00F5827E0F684E688D68103183
:101CC00051F8044CC7FBC723C6FBC623C5FBC5237D
:101CD000C4FBC4238E45EFD8D8F828100131C8E9D9
:101CE0000823C8F82810BDE8F04101F059BED8F823
:101CF00028300133C8F82830BDE8F081F8B572B655
:101D0000002600270023D0E90845826A8362C0E9E3
:101D1000086762B6D2012046294606F083FA06F02B
:101D200021F804F031FB024906F00EF9F8BD00BFBE
:101D300000FEFF46F8B5037E102B04464FF000016D
:101D40004FD0204601F07CFE0546002868D0637E17
:101D5000012B57D9227E102A4FF000062AD005EB1E
:101D60004602B2F90470FBB1802E41D005EB46006B
:101D70000230324601E0802A3AD0237EC3F11003BC
:101D800027FA03F101FA03F320F8023F0132637EE0
:101D9000911B9942EFDB802A2AD0164605EB4602BA
:101DA000B2F90470002BDFD13246F4E73246802AC4
:101DB0001ED0164605EB4602B2F90470002BF5D092
:101DC000802E15D005EB46010231324601E0802A13
:101DD0000ED021F8027F0132637E901B9842F6DB21
:101DE000E5E7437E012BACD801F01EFE0546B8B1F5
:101DF00020462946002201F0FDFD2846BDE8F840B6
:101E000001F0CEBD811C00F58170227E31F9023FC8
:101E1000C2F110021341934088420B80F5D1E7E7ED
:101E2000F8BD00BF2DE9F8430021054601F008FE8A
:101E300001210446284601F0F7FD0646BCB3D0B3A5
:101E400004F5827E231D9E4524D90C3004F10C013B
:101E500011E90C0050F8089C50F8048C12FB39FC76
:101E60002CF3CF3C12FB09F222F3CF32C2EA0C4230
:101E700013FB38FC2CF3CF3C13FB08F323F3CF33D5
:101E8000C3EA0C438E4501E90C0000F1080001F1A2
:101E90000801DDD828460022214601F0ABFD20468E
:101EA00001F07EFD3046BDE8F84301F079BD002821
:101EB000F9D1BDE8F8832046BDE8F84301F070BDD4
:101EC000F8B5C3696BB30021054601F0B9FD0446BE
:101ED00038B3B5F92000EE69A11C04F5817731F81B
:101EE000023F83F4004343FA00F292B206EB420C45
:101EF00036F912E0BCF902C082409B1ACEEB0C020C
:101F000003FB02F3034173448F420B80E7D1284661
:101F10002146002201F06EFD2046BDE8F84001F0A8
:101F20003FBDF8BD10B50446C069034B236008B13E
:101F300002F00AFC204610BDD042010079B3931E86
:101F4000B3F5004F2BD22DE9F041551E2B4224D181
:101F50000746C0690C46904608B102F0F5FB4FEA0F
:101F6000480002F0EFFB04EB8808F861861E0C497C
:101F700054F8040B05F034FF06F00EF9444526F83A
:101F8000020FF4D110233B846B1006D00F22511E98
:101F90005B1010B28AB2FAD13884BDE8F081704784
:101FA00000FEFF462DE9F04F83B08846846A019019
:101FB000D0F81CC0D0F824A0C16A076BDDF83090BF
:101FC00008F580702646834638F902EB4FEA0E3E4C
:101FD0005CFB17F401EB84045AFB17F57644C4EB61
:101FE0006606A6EB85065CFB16F007EB80005CFB43
:101FF00010F104EB81015AFB10F5C1EB0E07A7EBC2
:1020000085055CFB15F700EB87070C4424F34F3480
:10201000384420F34F30354425F34F35C34522F87B
:10202000024B764623F8020B29F8025BCCD1019AC9
:102030001346C3F828E0D162176303B0BDE8F08F00
:102040002DE9F04F85B088468169019101460C4623
:102050000390006A0290D1F824B08F6A206BC96A9D
:10206000DDF838A0DDF83C9008F58074009432F972
:10207000026B029C06FB04F626F0784505F100652C
:10208000ED0055FB15F5284C55FB14F5ED00013C12
:10209000F616C6F106062C443441019D55FB14F496
:1020A000224D38F902CBAC42A8BF2C4624024FEA9D
:1020B0000C3C54FB10F601EB86065BFB10F107EBC2
:1020C0000C0EC6EB6E0EAEEB810E54FB1EF500EB54
:1020D000850554FB15F106EB81015BFB15F0C1EBA7
:1020E0000C07A7EB800754FB17F405EB84000E44A4
:1020F00026F34F36054425F34F35BE442EF34F3EAD
:10210000009C23F8026B44452AF8025B674629F8D5
:1021100002EBACD1039A1346C3F828C0D162106316
:1021200005B0BDE8F08F00BFABAAAA2AE7105200A5
:102130002DE9F043002183B0044601F075FC012134
:102140000546204601F070FC0646002D3CD001F00B
:10215000D3FB074600283CD001F0CEFB8046002888
:1021600042D001F0C9FB8146002851D0002E45D055
:10217000021D08F104030192009320463B1D321D0D
:10218000291DFFF75DFF304601F00AFC284601F0EB
:1021900007FC00223946204601F02CFC384601F0AD
:1021A000FFFB01224146204601F024FC404601F09D
:1021B000F7FB20460222494601F01CFC484603B0CA
:1021C000BDE8F04301F0ECBB0028F8D103B0BDE856
:1021D000F083284601F0E4FB002EF7D0304603B030
:1021E000BDE8F04301F0DCBB284601F0D9FB3846DE
:1021F00001F0D6FB002EE9D03046F0E7031D009336
:102200003A1D08F10403291D2046FFF7CBFEBDE768
:10221000284601F0C5FB384601F0C2FB404601F0FC
:10222000BFFB002ED2D03046D9E700BF10B5044620
:1022300001F04AFD204610BD024A0349034806F05A
:10224000B5B900BFFC9FFF1F2D22000070B4FF1F17
:1022500038B5074D074C08482A46214606F0A6F92E
:102260002A4621460548BDE8384006F09FB900BF20
:10227000FC9FFF1F2D22000078B4FF1F80B4FF1FBA
:10228000024A0349034806F091B900BFFC9FFF1FB3
:102290002D22000088B4FF1F024A0349034806F0BC
:1022A00085B900BFFC9FFF1F2D22000090B4FF1FC7
:1022B000024A0349034806F079B900BFFC9FFF1F9B
:1022C0002D22000098B4FF1F024A0349034806F07C
:1022D0006DB900BFFC9FFF1F2D220000A0B4FF1F9F
:1022E0002DE9F8434FF00008064600F1180547466F
:1022F00041463046002F4FD001F096FBF0B12C68DC
:10230000B4F5803F07F1040100F1040E07F5827C6B
:1023100027D05EF8042B34FB02F334FB12F903F3ED
:102320000F0209F30F03C2EA03430A6893FA12F398
:1023300041F8043B8C45ECD801F032FB08F1010870
:10234000B8F1040F05F10405D2D1002F40D030467A
:102350003946002201F04EFB3846BDE8F84301F053
:102360001FBB07F10C0100F10C0451F8083C54F8B4
:10237000082C93FA12F341F8083C54F8042C51F855
:10238000043C93FA12F38C4541F8043C04F1080430
:1023900001F10801E9D8CFE701F052FB0746002818
:1023A000CCD02868B0F5803FC8D0391D07F58274BD
:1023B0000B6830FB03F230FB13F302F30F0203F35D
:1023C0000F03C2EA034341F8043B8C42F0D8B5E75F
:1023D000BDE8F883024A0349034806F0E7B800BFA6
:1023E000FC9FFF1F2D220000A8B4FF1F10B5002185
:1023F00001F01AFB70B172B60A4B1A6872B10A4941
:102400000C6844B11C60086062B61046BDE810401C
:1024100001F0C6BA10BD086062B610BD186062B6A1
:1024200010BD00BFC0B4FF1FB0B4FF1F38B5184BBC
:1024300018491A68184C12681B79184D0B70A24283
:10244000286836BF2246A4F5807202F58074C0B1B8
:10245000011D31F9023B03F500431B1122F8023B39
:102460009442F6D801F09CFA0D4B002219682960BD
:102470001A600C4B1B781BB10B4B4FF080421A605B
:1024800038BD4FF4006322F8023B9442FBD8F0E7DA
:10249000B4B4FF1F1F8000405097FF1FC0B4FF1F40
:1024A000B0B4FF1FBCB4FF1F08E200E0F8B5012183
:1024B0004248434E01F0A4FB424A4349136880203E
:1024C00043F4805313600024087040F608053480FC
:1024D0000120083402F0AAFBA3B2AB421CB2F6D131
:1024E0003A4B1B685B0208D5394B1A6848F6A27351
:1024F000134048F6A27293424FD03449344A0B68D5
:10250000344F354D3548364C43F480030B604FF063
:10251000010E40F23F4648F6A37140F20113C7F89E
:1025200000E02E60116014600360244C2D4A236883
:1025300023491A6002259D802279196102F18042A7
:1025400002F50432284EDE6040F20111D9804FF4CA
:10255000807000210627B026D8829D60D88399829A
:102560009F8399611170167001F0F0FA22791F4B68
:102570001F4E187053119B0003F160431D4C3270C5
:1025800003F5614302F1100002F01F0701211A4D0B
:1025900044F82050B9401960F8BD0F4B1A6840F25A
:1025A0003F439A42A9D10B4B1B68012BA5D10B4B82
:1025B0001A6840F201139A429FD1B6E7B4B4FF1FE4
:1025C00000C00C402C80044021C00C403C800440E2
:1025D000006003400C60034004600340106003404F
:1025E000A28F01005096FF1F00FEFFFFBCB4FF1F2B
:1025F0001B800040009AFF1F2D240000044A13781E
:1026000002290CBF03F0BF0343F04003137070476F
:1026100021C00C40024A0349034805F0C7BF00BF70
:10262000FC9FFF1F2D220000B4B4FF1F024A034984
:10263000034805F0BBBF00BFFC9FFF1F2D22000019
:10264000C4B4FF1F024A0349034805F0AFBF00BFEF
:10265000FC9FFF1F2D220000CCB4FF1F024A03493C
:10266000034805F0A3BF00BFFC9FFF1F2D22000001
:10267000D4B4FF1F024A0349034805F097BF00BFC7
:10268000FC9FFF1F2D220000DCB4FF1F024A0349FC
:10269000034805F08BBF00BFFC9FFF1F2D220000E9
:1026A000E4B4FF1F024A0349034805F07FBF00BF9F
:1026B000FC9FFF1F2D220000ECB4FF1FF8B505465C
:1026C00001F01AF9002800F092802A7E0446031DCA
:1026D00000F58276002A39D0286AE9696A6A81FAA7
:1026E000A0FEEFF300873F0140D49EFBF2FEBEF157
:1026F0007F0F54DD04F1140702E0E9696A6A1037BC
:1027000011448818C0EA214110448318C3EA2040CC
:10271000134403EB020ECEEA234396447244EA616B
:10272000C2EA2E42BE4247F8101C47F80C0C47F88C
:10273000083C47F8042CE0D828462146002201F046
:1027400059F92046BDE8F84001F02AB9EA69C2EA21
:1027500022421A605A609A60DA601A615A619A617C
:102760002033B34243F8042CF3D3E5E75AB90022EF
:10277000E8612A76C0EA2042B342DDD243F8042B56
:102780009E42FBD8D8E7571C022FB0D990FBF2FE2F
:1027900091FBF2F7C7EB0E0EBEF17F0FAADCBEF184
:1027A000010F18DD70461F4601E0E9696A6A1144AD
:1027B0000A44EA610238C2EA2142012847F8042BA0
:1027C000F3DCAEF1020E4FEA5E014A1C286AAEEB62
:1027D000410E03EB8203BEF1000FC8D0E9696A6ABB
:1027E0000A44C0EA22421A60286A0433BFE7F8BDEF
:1027F0002DE9F04F436AC469866985B02BB906EBB1
:10280000C414846105B0BDE8F08F0546D0F820807F
:1028100001F072F80746002800F04781B5F9323020
:1028200006EB0802009200F10408082B31D8DFE81B
:1028300013F09B00B800000114010900C500DB0083
:10284000E9005000EE6A002E00F02D81D5F824C07A
:10285000009900F5827E40460A0E531CB3F5807F36
:1028600014BF5B000023C1F30F29F35E36F9122079
:1028700009FB03F3C9F5803909FB023353FB0CF361
:1028800020F8023B70452144E6D1009B03EBC413C2
:1028900000932C6A009AB5F93430141BAC616BB10B
:1028A00007F5827101E0B5F93430B8F9002013441E
:1028B00003F30F0328F8023B4145F4D828460022D1
:1028C000394601F097F8384605B0BDE8F04F01F001
:1028D00067B8AB6ACDF808804FEA5309190C6FEA64
:1028E00009020192C1F57F434FF0FF3A4646FF339C
:1028F000D5F824C0BAFBF3F3063007F5837B009AC2
:10290000BAFBF1FA03979E46DDF8048020E0C9EB9C
:1029100002073F0C0EFB07F76FF0004109EB0203C3
:10292000C91B1B0C09140AFB03F30CFB01F103F197
:10293000004390454FEA21414FEA234340F2AE80E5
:10294000318002308345224406F1020600F0B28055
:10295000130C0AFB03F31B0C0CFB03F391454FEA2A
:102960001343D4D93380ECE7D5F824C0554E0099F1
:1029700000F5827E40460B0E5A1C36F9139036F94C
:102980001220C1F30F2ACAF5803309FB03F30AFBB7
:10299000023353FB0CF320F8023B86452144EAD175
:1029A00073E76E6A009A00F58270434636FB12F1B7
:1029B00023F8021B83422244F8D166E76E6A26F3AD
:1029C0004F06A86A009A0FFA86FEBB1D764207F5ED
:1029D000837190428CBF23F802EC23F8026C02331F
:1029E0008B422244F5D150E7686A009A07F5827657
:1029F000C043434630FB12F123F8021BB34222448A
:102A0000F8D142E700F5827A009BC14603E0D14548
:102A100033463FF43AAFB5F9302029F8022BE618D7
:102A2000F5D3686A01F0CCFB6B6AA0EB63002886E3
:102A3000EDE76E6A26F34F06009A30B2BB1D764270
:102A400007F58371002AB4BF23F8026C23F8020C47
:102A5000023399422244F5D117E7811DD5F824C0ED
:102A6000009A00F5837009E00CFB03F31B1421F8B6
:102A7000023C0231884222443FF407AF930F013BEE
:102A8000012B4FEAE233EFD8D30BC3F57F43FF337B
:102A90000CFB03F31B0C21F8023CEAE70CFB03F3ED
:102AA0001B1433804DE700F07BFFAB6903EBC413CD
:102AB000AB61A7E6009BDDF80880039F03EBC4131E
:102AC0000093E6E6AC40010010B4047F4160022CA4
:102AD000C26002D010BC01F011B9836810BC184765
:102AE000F0B4464B464A186BDC6A017911704549CF
:102AF00022790A709A6A00790870002A46D05968CB
:102B0000C9688A423ED82168CC8B240402F1FF3088
:102B100065D4C0F30E00C883C88B80B2C882196B1D
:102B20000968C88B000452D4C2F30E00C883C88B56
:102B3000002480B212F1FF32C88218BF01229C62C9
:102B4000D96A2E4809680D6800F12404A54236D0E0
:102B50000068C46814F0804F0C680D6815BF2488A5
:102B600024780235013544F000440D604463196B4C
:102B7000254B09791970214912B1CA6A12791A7064
:102B8000F0BC7047521A9A620122D9E7586B196853
:102B900005681E4C0A63CC62CC682D681C4E24F07C
:102BA00080440327B542CC6083F825701FD1037F92
:102BB0004260022BC2601ED0F0BC01F09FB80168D9
:102BC00090F82400CC6840F000404863CFE7CC8BFD
:102BD000C2F3080004F47E442043C883A7E7CC8BEB
:102BE000C0F3080004F47E442043C88394E72B46D6
:102BF0001146F0BC18478368F0BC184798A1FF1F26
:102C00001F8000401C8000401B80004000000FFF20
:102C1000C92A000000207047704700BF064B074AD2
:102C2000DA620221002259609A7083F8242083F826
:102C3000302083F832207047F4B4FF1F9043010026
:102C400010B50121007801F0D7FF0E4A137893B137
:102C50000D49CB7A00241846147063B1DC0703D504
:102C60000A4A8869106018469A0705D4430702D5B6
:102C7000074B0A6A1A6010BD064BCA69C87A1A6007
:102C8000F4E700BF4CB5FF1F98A1FF1F00E100E073
:102C900008E100E004E100E01E4B1A781AB1007868
:102CA000002101F0A9BF70B41B4A1C49D47A0968FD
:102CB00001251D70ECB172B6D37ADE071C4606D52D
:102CC000174DD4682E68344094612C601C469D07D3
:102CD00006D5144D13692E68D47A3340D3612B6026
:102CE000630705D5104C536925682B401362236098
:102CF00062B61368DA688A4207D00C4C1C600C4A32
:102D0000D96041F080441C611A600078002170BCD9
:102D100001F072BF4CB5FF1F98A1FF1F48B5FF1F00
:102D200080E100E084E100E088E100E001403F0054
:102D300000003F80F0B41248124A036882B0164681
:102D40000093009F4FF00045FF24136843F4806315
:102D50001360D5625463D36A002BFCDAB36BDBB229
:102D6000FF2B09D003680193019BDB1B8B42ECD343
:102D7000002002B0F0BC7047012002B0F0BC7047E8
:102D8000BCB7FF1F00C00240F8B50D464FF4967166
:102D900016460446FFF7CEFF284B1A684FF0004056
:102DA00042F4806245F040011A60D8621A465963C5
:102DB000D36A002BFCDA214918204FF000470A683B
:102DC00026FA00F342F48062DBB20A60CF624B6302
:102DD000CB6A002BFCDA083810F1080FEFD155B39D
:102DE000082D0CBF8721FF21144B1A684FF00040BB
:102DF00042F480621A60D8621A465963D36A002B83
:102E0000FCDA0E4A002716464FF00045FF211368F2
:102E100043F480631360D5625163D36A002BFCDAFC
:102E2000B36BD8B21B06607000D4F8BD0137B7F59C
:102E3000807FECD1F8BD9521D6E700BF00C00240ED
:102E4000F0B41549154A0B6882B016460093009FEE
:102E50004FF00045FF24136843F480631360D5628C
:102E60005463D36A002BFCDAB36BDBB2FF2B4370E5
:102E70000AD10B680193019BDB1BB3F5967FEAD95E
:102E8000002002B0F0BC7047A3F1FE00B0FA80F061
:102E9000400902B0F0BC7047BCB7FF1F00C0024041
:102EA000F8B58378032B0E46044618BF4E0215462C
:102EB000FFF7F2FE324611212046FFF765FF18B9F1
:102EC0002046FFF7BDFF20B92046FFF7B9FE0020DE
:102ED000F8BD204B2049214A1A608E4659631A4694
:102EE00059631E46596305F5FD70A91C05F5FE776B
:102EF000D36A13F0F00FFBD0C6F834E0B36B01F8DF
:102F0000013C1B1201F8023C02318F42F0D105F561
:102F10000075A8420DD20F4A1646D36A13F0F00F7F
:102F2000FBD0B36B191200F8021BA84200F8013C59
:102F3000F3D3084B0949084A196019465A63CB6A0A
:102F4000044A13F0F00FFAD02046936BFFF778FE97
:102F50000120F8BD00C00240FFFF009000041F8068
:102F6000F0B4314E33684FF0004743F48063336070
:102F70003D46F762344671633346511C02F2012725
:102F8000E26A002AFCDA1A6811F8016C42F48062E5
:102F90001A60DD625E63E26A002AFCDA1A6811F8E0
:102FA000026B42F480628F421A60DD625E63E7D199
:102FB0001D49CA6A1C4B002AFBDA1A684FF000450B
:102FC00042F48062FF241A601946DD625C63CB6ABA
:102FD000154A002BFBDA13684FF0004543F4806379
:102FE000FF2413601146D5625463CB6A0E4A002B4E
:102FF000FBDA13684FF0004543F48063FF2413604D
:103000001146D5625463CB6A074A002BFBDA936BF7
:10301000DBB203F01F024370A2F10500B0FA80F0AA
:103020004009F0BC704700BF00C0024070B50446C4
:1030300071B18378032B0D4618BF4D021646FFF77A
:103040002BFE2A4618212046FFF79EFE054620B19A
:103050002046FFF7F5FD002070BD3246FE212046D8
:10306000FFF77EFF0028F3D04FF416712046FFF7DC
:1030700061FE0028ECD02A460D212046FFF784FE91
:103080000028E5D10B4B1A684FF0004542F48062EE
:10309000FF201A601946DD625863CB6A054A002B8F
:1030A000FBDA936B13F0FF0FD2D12046FFF7C8FD78
:1030B000012070BD00C00240014B024A1A607047F7
:1030C00048B5FF1F0110013838B590F90530002BC5
:1030D00003DBBDE8384000F06DB90446012100690A
:1030E00000F092F9F8B1257D104B13EB45151AD07D
:1030F000A3790F4A012B9CBFA369EB61E3691268B6
:103100006B831B0CAB8232B105F1160105F118007F
:1031100090472B8B6B82637903F07F036371BDE86B
:10312000384000F047B9002038BD00BF5CB5FF1F34
:1031300050B5FF1F10B500F1080204460121006AD6
:1031400000F000FA50B1E3693BB96379A268E2612B
:1031500063F07F036371012010BD012010BD00BF2B
:10316000F8B5837913B182698A4201D20020F8BD93
:10317000022B0F4605461AD007B32B6AE9681C7C60
:103180004A1E04F109037C1EDA40DC40A24211D938
:10319000EB69AB6005F1080606E0A968286A00F053
:1031A00099F9013C0028E1D03246002CF5D1EF60BE
:1031B0000120F8BD0029EBD0A41AEBE7AF60EF6067
:1031C0000120F8BD2DE9F04F8B46817985B00129AA
:1031D0000746019205D001233B71002005B0BDE8F0
:1031E000F08F42799107F6D5530708D5FC68B96985
:1031F0008C4200F0A880FFF7B3FF0028EBD0019BC2
:10320000FC68002B49D0DFF88C91DFF88CA1DDF849
:103210000480386A0679013E06EA542616F0FF0655
:10322000C4F3080442D1002C40D1B96800296FD101
:10323000FA69002A7ED0BA60C4F50075ADB2454582
:103240003AD9057C4169023AAA400E4416441FFA55
:1032500088F51CB9F868BA6990424CD23046012111
:1032600000F0D2F80028B6D04C4404EB050E7445AB
:103270000DD00BF1FF31621E0EF1FF3611F8010F78
:1032800002F8010F9642F9D1C4EB0E04A344FC6886
:10329000B8EB05082C44FC60BBD1BB69A34257D2F4
:1032A0007A79BC6142F080027A715AE0C4F5007507
:1032B000ADB24545BA68C4D8017C4069023A8A403B
:1032C0000644B5F5007F1644C3D1DAF800209642D3
:1032D00004BF4FF0FF32CAF800202A4A3146106876
:1032E0005A46FFF7A3FE00283FF475AF0BF5007BAD
:1032F0004FF40075CBE700F05DF800283FF46BAFAA
:103300002149CAF800600A7842F001020A70ABE76E
:1033100003AA00F0DFF800283FF460AF386A1B4BC7
:1033200090F82050039A4FF6F871102D18BF1946E7
:103330008A4280D33846FFF7FDFE00283FF44BAFAA
:10334000386ABA6878E7019B002B7FF45CAF08E02D
:103350000F4B7A791B6823B1019B13B142F08002B5
:103360007A71120709D5BB79002B3FF434AF384688
:10337000FFF7AAFE00283FF42EAF019805B0BDE884
:10338000F08F00BF58B5FF1F5CB7FF1FF8FFFF0F9E
:1033900050B5FF1F5CB5FF1FD0A1FF1F00B583B064
:1033A00002AB012203F8011D1946FFF70BFF03B022
:1033B0005DF804FB70B50F4C23780BB9012070BD8C
:1033C0000D4B0E4D196828680D4AFFF72FFE70B19E
:1033D0000C4E316819B900232370012070BD286894
:1033E000074AFFF723FE10B100233360F3E7002004
:1033F00070BD00BF5CB7FF1FD0A1FF1F58B5FF1FF6
:103400005CB5FF1F54B5FF1F70B50D4D2B6883428F
:103410000E460ED00446FFF7CDFF08B9002070BD60
:10342000084B094A18682146FFF73AFD0028F5D0F5
:103430002C60064B197831431970012070BD00BF14
:10344000D0A1FF1F58B5FF1F5CB5FF1F5CB7FF1F62
:10345000F8B590F82030C469102B1A4B05460E467B
:1034600017461B6816D004EBD1149C4216D106F007
:103470007F06154A42F826701449287E0A780128EA
:1034800042F001020A7018D9A968114A0B4413606E
:103490000120F8BD04EB11249C4208D000212046F5
:1034A000FFF7B2FF50B195F82030102B07D1F6B2DC
:1034B000054A234622F81670DEE70120F8BD2346B0
:1034C000D5E700BFD0A1FF1F5CB5FF1F5CB7FF1F92
:1034D00054B5FF1FC36801338B4218D370B590F801
:1034E0002030102B154B044616460D46C0691B684C
:1034F0000FD000EBD11098420FD105F07F01104B97
:1035000053F8213023F070433360012070BD002058
:10351000704700EB1120984207D00021FFF774FF9D
:1035200050B194F82030102BE7D1E9B2044B33F8B6
:1035300011303360012070BD002070BDD0A1FF1F8D
:103540005CB5FF1F2DE9F04F176883B06FB30137EB
:103550004FF0000AC36803F1010813B38B46064617
:1035600091463C46002505E01C461F46F3680135A0
:10357000AB4216D9A04538BF0224214601AA3046E5
:1035800038BF2746FFF7A6FF631CD91B48B1019A35
:10359000002AE9D18B4510D01C46F3680135AB42B7
:1035A000E8D8002003B0BDE8F08FA1F1010ABAFA13
:1035B0008AFA07684FEA5A1ACCE7012CF1D9F36866
:1035C00001339C42EDD86FF0704221463046FFF740
:1035D0003FFF0028E5D0A74214D2013C012CE0D9DE
:1035E000F36801339C42DCD8621C21463046FFF769
:1035F0002FFF0028D5D0A74204F1FF3402D0012CC0
:10360000EED1CEE7D9F8001059B10129C9D9F36834
:1036100001339942C5D83A463046FFF719FF0028D2
:10362000BFD0C9F80070BAF1000F01D00137376080
:103630000120B7E790F8392090F83800101A704749
:1036400090F8383090F839209A4205D95A1C034432
:1036500080F83820187E70474FF0FF30704700BF69
:1036600090F8383090F839209A4286BF1B18187E9F
:103670004FF0FF30704700BF704700BF38B50546B8
:10368000B0F85E0090B195F85D301446C3F12102A8
:1036900094420CD805F13B001844224600F070FF1C
:1036A00095F85D30234485F85D30204638BD012013
:1036B00014462871EEE700BFB0F85E306BB190F8A9
:1036C0005D30202B07D8C218013380F85D3001200F
:1036D00082F83B107047012303710020704700BF40
:1036E00010B50269D378DBB2D90604463DD5102166
:1036F0005806D17038D503F0040303F0FF02002B05
:1037000051D03D49626E00230B7084F85D30002A71
:103710005BD0904794F85D30002B56D02369D022BF
:103720009A70236994F83B201A712369012284F866
:103730005C200222DA7010BD304B84F860009C429D
:103740004AD02F4B9C4252D094F8391013791F293C
:10375000DBB207D82848007820B16018013184F81E
:10376000391003760223D37010BD5906C3D4917863
:1037700001F0100101F0FF000029DDD013F001037A
:103780001ED194F85C1094F85D00884281BF4B1CF8
:10379000091984F85C3091F83B3013712369D02209
:1037A0009A702269DEE7236984F83920C0229A7072
:1037B0002369114A1979012111700222DA7010BDB2
:1037C000C023937022691379CCE70122002384F887
:1037D0005D2084F83B30A1E7626994F861300949C3
:1037E00013440322187A01F037F82269ACE76269C2
:1037F00094F861300449F3E75DB7FF1FD4A1FF1FC0
:1038000040A2FF1F69380000753800000369DB78AB
:1038100003F0200373B190F860300133DBB2012B69
:1038200080F860301AD9426990F861301344187AF0
:1038300001F08EB870B5426903F0FF0590F8613071
:1038400013440446187A01F083F8A36E5BB184F840
:10385000385094F83900BDE87040184790F85F3050
:10386000002BE0D0704770BD0148FFF7CFBF00BF0D
:10387000D4A1FF1F0148FFF7C9BF00BF40A2FF1F2F
:103880000148FFF72DBF00BFD4A1FF1F0148FFF77C
:1038900027BF00BF40A2FF1FC029F0B428BFC0212E
:1038A00072B6124B124E134A186000231380336015
:1038B0007360B360F36033617361012799B15D098F
:1038C00003F01F0456F8252007FA04F401332243BD
:1038D0008B4246F82520F2D10023438001338B42EE
:1038E00000F58270F9D162B6F0BC704768B7FF1F6F
:1038F00070B7FF1F8AB7FF1FF0B472B6234F244E74
:103900003C8806F1180306EB8400984212D256F860
:10391000241099B9021D06F11B05631CAD1A03EBB7
:10392000950503E052F8041B41B90133AB421C4634
:103930001046F7D162B60020F0BC7047B1FA81F3AF
:103940004FF00042DA4021EA0201016001B901347E
:1039500010493C800A88013294B20C8062B6801B08
:103960008010C3EB401000EB801083000A480B4925
:10397000006803F5FB531C330125C5540D88AA428A
:10398000184488BF0C80F0BC704700BF8AB7FF1F87
:1039900070B7FF1F8CB7FF1F68B7FF1F64B7FF1F0B
:1039A000428872B60378012B03D9013B037062B6DB
:1039B0007047531170B40C4C0C4D54F823102E88E2
:1039C000D2434FF0004002F01F0220FA02F21143EE
:1039D000074A44F82310B34238BF2B801388013BB9
:1039E000138062B670BC704770B7FF1F8AB7FF1FA5
:1039F0008CB7FF1FC368B3B130B401E0DB688BB193
:103A0000187A9042FAD158685C7A006950F82450CC
:103A1000002DF3D140F82410087801300870DB68DD
:103A2000002BEDD130BC7047437A8B4206D9036935
:103A3000002253F8210043F82120704700207047EE
:103A400038B5437A8B421AD9036953F821400022D2
:103A500043F821209CB12378012B0ED9FFF74CFFAE
:103A6000054628B14FF48072211D043000F088FD16
:103A70002378013B2370284638BD204638BD0020FE
:103A800038BD00BF037C23BB4368427A5B7A9A420D
:103A90001FD830B472B60468E3682BB3DA6832B169
:103AA00019688C4216D01346DA68002AF8D1D8601B
:103AB0000023C360A37A0133A37202684168012323
:103AC00013728A7A1A448A7242681372037462B655
:103AD00030BC70475D6841688D42E4D11989038923
:103AE0009942F4D01346DFE7E060E1E7037C4BB393
:103AF0004368427A5B7A9A4224D872B60268D368E5
:103B000003B3984202D11EE0984202D0DB68002B3A
:103B1000FAD14368427A1B69002143F822100268F7
:103B2000937A013B937203689A7A02B91A724268D7
:103B3000937A013B937243689A7A02B91A7200230E
:103B4000037462B67047C368D360E2E7084B1A7823
:103B500062B930B407480849D02505704FF0804459
:103B600001220C6010461A7030BC7047002070476C
:103B70006CB7FF1F5EE400E008E100E01A491B4A51
:103B80001B48F8B50B681B4D046843F080730B604D
:103B9000136843F0010313602E6814B915E06469DB
:103BA0009CB1237A002BFAD023682F681B6820462B
:103BB00098472B68E188DB1B1B099AB28B42A280D5
:103BC00088BFE2806469002CEBD10A4B0A4A1B686B
:103BD00010880A4C9B1B1B0999B28342218001D992
:103BE0001180F8BDF8BD00BFFCED00E0001000E062
:103BF00060B7FF1F041000E088B7FF1F8EB7FF1FDC
:103C0000F0B572B699B902688AB103790F2B0ED854
:103C1000274C218841FA03F5ED070AD503F100731B
:103C200003F59063B2EB431F03D162B6F0BD204CA5
:103C30002188002341FA03F212F0010207D0013378
:103C4000102BF7D162B6002203710260F0BD01258E
:103C50009D402943218062B6164E174D174FDFF85D
:103C600064E0D9B20171346844F0020434602C6815
:103C700044F002042C60A6F580268224A5F5802558
:103C800003F100733C6003F59063223E243D0C4C2D
:103C90008EF800105B0131702970217003601A608A
:103CA0005A609A60DA601A615A619A61DA61F0BD0D
:103CB00090B7FF1F408004403C80044000800040DB
:103CC0001F8000401A80004003790F2B11D8094A49
:103CD00010B4137072B6084904790A880123A3400E
:103CE00022EA03030B8062B61022002310BC02718B
:103CF000036070471A80004090B7FF1F10B4EFF3C5
:103D0000108272B6437F33B9017F012907D003299E
:103D10000FD00123437702B962B610BC7047124C32
:103D20002168A1B1114943610B6883610860586142
:103D3000EFE70F4C216881B10E4943610B68836145
:103D4000086058610C4B4FF080511960E1E7074B58
:103D50004161816120601860DBE7064B4161816150
:103D600020601860EEE700BFA4B7FF1FA0B7FF1FD9
:103D700094B7FF1F98B7FF1F04ED00E070B5EFF395
:103D8000108272B60C4C206880B10C4E002543693D
:103D9000236073B19D6102B962B645778368984725
:103DA000EFF3108272B620680028F0D102B962B633
:103DB00070BD3360EFE700BF94B7FF1F98B7FF1FD8
:103DC000FFF7DCBF184A30B41468002C27D0036812
:103DD00021688B420ED2CB1A00218460C16023601F
:103DE000E06010600223037530BC704711688B429D
:103DF000144608D3A2685B1A0360002AF6D18260D9
:103E0000C460A060EEE7D268C2608460E060C5680C
:103E1000CB1A0222A8602360027530BC7047846010
:103E2000C4601060DEE700BF9CB7FF1FF8B5224EEC
:103E300034682CB32368002B3AD1204F1D4604E090
:103E40003468ECB12368002B32D1A36803B1DD6084
:103E500020693360036825751B68BB4221D1037F4D
:103E60004560022BC46020D0FFF748FF6368002B39
:103E7000E6D023602046FFF7A5FF3468002CE1D18F
:103E8000EFF3108372B60E4A00211068116003B977
:103E900062B628B18468FFF795FF20460028F9D163
:103EA000F8BD224600219847E0E783689847DDE7A0
:103EB000013B2360E4E700BF9CB7FF1FC92A000055
:103EC000ACB7FF1F024A136801331360FFF7AEBFA0
:103ED000BCB7FF1FF8B572B106460F461446002561
:103EE000336817F8011B1B6830469847013C0544AE
:103EF000F6D12846F8BD1546FBE700BF00B5064AD7
:103F0000036812885B6883B001A9ADF8042002221F
:103F1000984703B05DF804FB04440100F0B5074680
:103F20008BB0002A33D0012A08BF0A2251B32124C2
:103F300000E0F4B2B1FBF2F502FB1511C8B2092999
:103F400000F1300198BFC8B20AA988BF37302144B8
:103F500088BFC0B201F8240C661E2946002DE8D1A6
:103F600033B1013CE4B20AAB23442D2203F8242CE4
:103F70003B6801AA11195B683846C4F122029847D0
:103F80000BB0F0BD30228DF825202124E8E703682E
:103F9000C9B21B6898470BB0F0BD00BFFFFFFFFF21
:103FA0002DE9F04385B080461946104616461F4657
:103FB0009DF8305003F080FD002840F0B18027F0DC
:103FC0000044304621464FF0FF32594B03F074FD58
:103FD00098B9304621464FF0FF32554B03F04EFD65
:103FE00058B9D8F8003053495B68404603229847D7
:103FF0008146484605B0BDE8F083304639464FF06B
:1040000060424D4B03F04EFD002870D130463946DA
:104010004FF06042494B03F027FD002867D130463E
:1040200039460022002303F01FFD002863D181469A
:10403000002D65D0424B00240022104619463AA3B9
:10404000D3E9002303F09EFA01340B46E1B28D421E
:104050000246F2D83046394603F0E2F80F460646EB
:1040600003F040FD044603F017FA02460B463046C3
:10407000394603F0D3F84B4606460F460A2221463E
:104080004046FFF74BFF0F2D28BF0F2501352E238C
:104090008146EDB28DF8003001240022294B3046D4
:1040A000394603F06FFA0F46064603F01BFD04ABDA
:1040B0002344C0B200F1300203F8102C03F0FCF9E5
:1040C00002460B463046394603F0A8F80134E4B204
:1040D000AC4206460F46E0D1D8F8003022465B6875
:1040E000404669469847484605B0BDE8F083D8F891
:1040F0000030154978E707F100474FF0010997E7CD
:1041000000220F4B3046394603F08AF803F0EAFCF0
:104110004B4601460A224046FFF700FF814668E70A
:10412000D8F8003009495FE7000000A09999B93F2D
:10413000FFFFEF7F10440100FFFFEF41FFFFEFC1E2
:104140000000E03F000024400C440100084401004E
:10415000F0B5164D2A680AB31549164BDFF85CE036
:1041600082FB016781FB0214D617D1191444C6EBF8
:104170002141C6EB244403FB04F40EFB112244F25C
:10418000A71303FB0243002B02DA03F10043013BB8
:10419000B3FBF0F22B6000FB1230F0BD064B2B603E
:1041A000B3FBF0F200FB1230F0BD00BFB0B7FF1F51
:1041B0005F0B4E83ECF4FFFF42CE0C1F1DF301009A
:1041C00008B1FFF7C5BF7047374A384913681B0667
:1041D000FCD40B6813F08003F8D172B634490A7826
:1041E000002A5FD0334A3448F0B4344C176806686C
:1041F0002568D4680C303E44143200681268304F91
:1042000035442C4420440244C2F34E022D4E2E4825
:104210002E4D2F4C42F400423A60376806682D68F4
:104220002C4A24680C303E44006812682A4F3544FA
:104230002C4420440244C2F34E02284E2848294D03
:10424000294C42F400423A60376806682D68274AD4
:1042500024680C303E4400681268254F35442C44D5
:1042600020440244C2F34E02224E2348234D244CE4
:1042700042F400423A60376806682D68214A246893
:104280000C303E440068126835442C4420440244FB
:10429000C2F34E021C4842F4004202600B7062B648
:1042A000F0BC704762B6704724B0034024B00B40A6
:1042B000B5B7FF1F38B003403CB0034040B00340E7
:1042C0002CB0034058B003405CB0034060B00340E2
:1042D00064B003406CB0034030B0034038B00B40D2
:1042E0003CB00B4040B00B4044B00B404CB00B40D6
:1042F0002CB00B4058B00B405CB00B4060B00B4092
:1043000064B00B406CB00B4030B00B4030B4294867
:10431000294A2A4B2A4D6024E121047011701B7830
:10432000284C082B30D00A2B2748284937D00C2B93
:104330000CBF35223D2212232A60236002600B60ED
:10434000234B24491B78244ABBB101230B60136023
:10435000224B23491B78234A012B26D9042B0FD942
:10436000082B1ED9102B94BF862387230B60136064
:104370001D4B01221A7030BC70470B601360E7E7D9
:1043800084230B601360F3E700F58E200F4908309B
:10439000012213232A60236002600B60D0E73922D8
:1043A000F7E785230B601360E2E780230B6013605F
:1043B000DEE700BF0040074001400740ACA2FF1FFE
:1043C00008B003400CB0034008B00B400CB00B40E9
:1043D000B8B7FF1F20B0034020B00B40ADA2FF1FB5
:1043E00024B0034024B00B40B5B7FF1F68B10E4A9C
:1043F0001378C3B90D4909780120107019B10C491F
:104400000C4A0B601360FFF781BF074B1A7852B15B
:10441000064A18701378002BF5D0054A054B10603A
:104420001860FFF773BF7047B8B7FF1FB5B7FF1F1E
:1044300024B0034024B00B4028282FD8334B2DE95B
:10444000F0411E5CFF2E2BD0314B1B78002B2AD164
:1044500032062CD472B62F4D2F4C2F4601232660E6
:104460002B7062B672B623681B060CD43B781BB95E
:10447000F4E72B78002BF1D062B601F009FD72B69B
:1044800023681806F5D5254B1B6800222A7062B6F2
:10449000234A107843FA00F0BDE8F081002070470D
:1044A0000020BDE8F081FFF78FFE3206D2D572B64C
:1044B0001C4DDFF87C801C4C06F04007FFB206F074
:1044C0003F06D8F80030DFB123F01003C8F8003001
:1044D00001232660134A2B7062B672B62368190650
:1044E0000CD413781BB9ECE72B78002BE9D062B61B
:1044F00001F0CEFC72B623681B06F5D50B4BC3E763
:1045000043F01003C8F80030E2E700BF1444010094
:10451000B5B7FF1FB7B7FF1F00B0034010B003408F
:10452000B4B7FF1FB6B7FF1F00B00B4010B00B4071
:104530000CB00B400A4A0B49136843F480531360D4
:104540000B7843B9084BC0221A70084B80F30C005B
:1045500000B218807047044B80221A70F5E700BF44
:104560002C800440B8B7FF1F21C00C4000C00C4095
:1045700008B5FBF7A9FFFBF7D9FF01F089FCFAE7C3
:10458000844641EA000313F003036DD1403A41D35E
:1045900051F8043B40F8043B51F8043B40F8043B1D
:1045A00051F8043B40F8043B51F8043B40F8043B0D
:1045B00051F8043B40F8043B51F8043B40F8043BFD
:1045C00051F8043B40F8043B51F8043B40F8043BED
:1045D00051F8043B40F8043B51F8043B40F8043BDD
:1045E00051F8043B40F8043B51F8043B40F8043BCD
:1045F00051F8043B40F8043B51F8043B40F8043BBD
:1046000051F8043B40F8043B51F8043B40F8043BAC
:10461000403ABDD2303211D351F8043B40F8043B4C
:1046200051F8043B40F8043B51F8043B40F8043B8C
:1046300051F8043B40F8043B103AEDD20C3205D35C
:1046400051F8043B40F8043B043AF9D2043208D054
:10465000D2071CBF11F8013B00F8013B01D30B88C6
:1046600003806046704700BF082A13D38B078DD0A4
:1046700010F003038AD0C3F10403D21ADB071CBF76
:1046800011F8013B00F8013B80D331F8023B20F8E0
:10469000023B7BE7043AD9D3013A11F8013B00F819
:1046A000013BF9D20B7803704B7843708B788370A1
:1046B0006046704708B5104C08E0236859050DD4D2
:1046C00023681A050FD42368DB0411D42368580328
:1046D000F3D500F043FC23685905F1D501F03CFC0B
:1046E00023681A05EFD501F0CDFC2368DB04EDD576
:1046F00001F05EFDEAE700BF3480044008B5FFF733
:10470000D9FF00BF014B10221A80704700200540DE
:10471000704700BF094908B50B6830B16A461844B4
:10472000A2F58052904202D20860184608BD03F0FC
:1047300049FF0C2303604FF0FF3008BDB0A2FF1FFC
:10474000FEE700BF03F06CBF03F072BFF0B44D1E74
:104750002E46002400E00134B0FBF2F302FB13000C
:10476000092800F130078ABF3730F8B2C0B206F826
:10477000010F1846002BEED10A1953704CB1107876
:1047800015F8016F28700133E01A834202F80169BD
:10479000F5DB0846F0BC7047704700BF10B40F4B04
:1047A00053F8302092F880422CB1012369B182F88D
:1047B000803010BC704703EBC0035B681A6841B9D6
:1047C00022F002021A6010BC704782F8003110BC5F
:1047D000704742F003021A6010BC70474044010069
:1047E0001C4A02EBC00301295B6811D004291BD0CD
:1047F00052F83000002280F8802229B1022920D00E
:10480000032922D01A6070474FF480721A607047F3
:1048100052F830004FF4A27280F880121A601A68C1
:1048200022F020021A60704752F830104FF4A27242
:10483000012081F880021A601A6842F020021A6092
:10484000704740F203121A6070474FF481721A6089
:10485000704700BF40440100212848D8F8B5042A19
:1048600044D8DFE802F0484B4E0345004FF41026D1
:104870002B4B03EBC0030D465C68216811F4E0612B
:1048800048D0284B284A2949C3F89C2104F14042CA
:104890002748C3F8A411A2F59221264FC3F8A0011E
:1048A0007C292548C3F8A871C3F8AC012CD9A2F51E
:1048B00094237C2B2AD9A2F596237C2B28D9A2F508
:1048C00098237C2B29D9A2F59A227C2A27D81B4829
:1048D00072B6236823F4702343F08072C4F384011A
:1048E0001643236040F82150266062B6F8BD704739
:1048F0004FF43026BCE74FF40026B9E74FF44026CA
:10490000B6E74FF42026B3E70D48E1E70D48DFE7AF
:104910000D48DDE7FFF764FFB3E70C48D8E7F8BDC3
:1049200040440100009AFF1FD19FFF1F799FFF1F86
:10493000A59FFF1F4D9FFF1F219FFF1F8CA3FF1FE0
:10494000B4A2FF1FECA2FF1F3CA3FF1F6CA3FF1F1D
:104950001A4B03EBC00010B4426802F14043A3F5C8
:1049600092217C2923D9A3F594217C290DD9A3F583
:1049700096217C291FD9A3F598217C2919D9A3F563
:104980009A237C2B11D80E4C00E00E4C72B61368A3
:104990000D4823F08773C2F3840123F4803343F07E
:1049A0008073136044F8210062B610BC7047074C56
:1049B000ECE7074CEAE7074CE8E700BF404401009A
:1049C0008CA3FF1FECA2FF1F99470000B4A2FF1F9A
:1049D0006CA3FF1F3CA3FF1F30B4054B054D064CD5
:1049E000002210211A602A602060196030BC7047D4
:1049F00014D0034004D0034000D00340282838B529
:104A00002ED0002904464FDD5F4B1B78012505FAA7
:104A100003F28A4202D8212837D938BD0338C2B2FE
:104A2000012A3AD9202C4AD0192C48D0574A12686A
:104A300002FB011222FA03F31D2800F29B80DFE83B
:104A400000F0928B847D9999766F999999999999AB
:104A500099999968615A53994C9999999999994555
:104A6000494B1B780B2B08D90C2B1CBF0C3B194155
:104A70000846BDE83840FFF75DBDC3F10C0399401F
:104A80000846BDE83840FFF755BD2946FFF786FECA
:104A90002946BDE83840FFF7A3BE3D4A126802FB35
:104AA000011222FA03F3C7E72128B6D80021FFF745
:104AB00075FE20460121BDE83840FFF791BE354A1A
:104AC000126802FB011222FA03F3B5E73249334AB6
:104AD0000B604FF45173136038BD3149314A0B609C
:104AE0004FF45173136038BD2F49304A0B6040F2C8
:104AF0004443136038BD2E492E4A0B6040F24443B4
:104B0000136038BD2C492D4A0B6040F244431360BA
:104B100038BD2B492B4A0B6040F24443136038BD2B
:104B200029492A4A0B6040F24443136038BD2849A2
:104B3000284A0B6040F24443136038BD2649274A97
:104B40000B6040F24443136038BD2549254A0B6091
:104B500040F24443136038BD2349244A0B604FF4AC
:104B60005173136038BD2249224A0B604FF45173D0
:104B7000136038BD212C3FF650AF7F29D4BF0021F0
:104B80000121204693E700BF94A3FF1F0880034044
:104B90000890034008800B4010800B4048A0044060
:104BA00018800B404CA004401880034008B004401B
:104BB0001080034004B004404080034018C004400B
:104BC0003880034014C004402880034010B00440E3
:104BD000208003400CB004403080034010C00440EB
:104BE000488003401CC004401890034034900440A7
:104BF0001090034030900440212801D8FFF7CEBD2B
:104C0000704700BF212806D8044B53F8303093F882
:104C10000002C0B270470020704700BF404401004E
:104C2000212801D8FFF7DCBD704700BF2DE9F8430C
:104C3000054672B6204F214B214A1B683C6812681A
:104C400062B6520102D5322B88BF013495B3C3F549
:104C5000BB331C4EDFF86490DFF86480FF334FF401
:104C60007A72A6FB031302FB04F404EB931472B6EE
:104C7000D9F800103A68D8F800E062B6C1F5BB3345
:104C8000FF33A6FB03031EF0806FC4EB93134FF4B6
:104C90007A7002D0322988BF013200FB0233B3F5AB
:104CA0007A7F04D3013D05D004F57A74DFE701F083
:104CB000EFF8DCE7BDE8F883BCB7FF1F18E000E0C1
:104CC00004ED00E0ABAAAAAAF8B52D4B2D49DFF8F8
:104CD000D0E0DFF8D0C02C4E2C4D2D4C2D4A2E4F5D
:104CE0004FF4000018604FF0807018604FF00070B3
:104CF00018604FF0806018604FF00060186000206E
:104D0000086028234BF6FF71CCF80010CEF8003075
:104D1000336013602B6023603B60B36293620922AF
:104D200045F8242CC4F8D80F05F57F65C7F8D41FC3
:104D300007F5FF2707F5FA67C6F8F83F2B6006F579
:104D4000FF26C4F8D42F05F5FD2504F5FF243860AF
:104D500006F2F4761148316005F5FF6504F5FD644F
:104D60002B6023600260FFF7D1FA1920FFF75EFF86
:104D700000F05CFE40F21310BDE8F840FFF756BFAC
:104D800008E100E0048003401480034024800340D5
:104D90002C8003401C8003403480034000800B4083
:104DA0000C80034008800340431E032B14D872B6C6
:104DB0000A4951F8230068B170B4094C058834F8E9
:104DC0001320466841F82360521B24F8132062B672
:104DD00070BC704762B670470020704718B8FF1F5C
:104DE0007CBAFF1F013803280BD872B6074B53F863
:104DF000203043B100205B680130002BFBD162B64C
:104E00007047002070471846F9E700BF6CB8FF1FD5
:104E100030B472B62B4A13781D0706D52A4B196A8F
:104E2000002936D0996A002941D053781C0706D54D
:104E3000254B196C00293ED0996C002939D0937804
:104E4000190705D5204B196E002936D0996E89B106
:104E5000D3781B0707D51C4BD3F880207AB3D3F83F
:104E6000882011213AB162B6184B00221A7030BC6A
:104E700000F07EBE0D21154C154D227843F83150BF
:104E800003EBC1030830013A5860227062B630BCAF
:104E9000704704220D4C0F4D217843F8325003EB3C
:104EA000C20308304A1E5860227062B6EFE705213F
:104EB000E1E70921DFE70822ECE70C22EAE710220C
:104EC000E8E700BF784501000080FF1F95B8FF1F8D
:104ED000C800400088004000431E032B1DD81B4A19
:104EE000400140F0100030B4104472B6184CE25C3F
:104EF000032A1BD8DFE802F00212151703220D88DF
:104F0000E25410F0080F14BFC823882343EA054376
:104F100008310360416062B630BC7047083002223D
:104F2000EDE70522EBE708300422E8E7094A52F8EA
:104F3000230038B1084A52F82300416042F8231098
:104F400062B6E9E742F82310034AF7E70080FF1F43
:104F5000A4B8FF1F6CB8FF1F7CB8FF1F2DE9F04FEE
:104F6000DFF80CB3DFF80CA387B044E0AB4F4FEA97
:104F7000930807EBC809013ED9F8042003F00803A1
:104F8000F6B2A2F1080003F0FF04002B40F002810A
:104F900057F838301B0C99B222F8081C002B00F08F
:104FA000F0809F4B22F8064C42F8044C53F8262020
:104FB000002A00F0C5829B4D55F8263058609A4C67
:104FC00045F8260034F81630194424F8161000F07D
:104FD000AFFD002800F0AD82944A954B19F0080F00
:104FE00000F1080018BF1346C9F8040047F838302C
:104FF00008238BF800309BF80040E4B261071AD513
:105000008C4B1B78A3B18C490A7802F0FF0322B1C4
:10501000013BDBB20B7003B900BE88490A7802F08D
:10502000FF032AB1013BDBB20B70002B00F057826B
:1050300004238BF8003004F0080303F0FF02002B78
:1050400000F0CC809AF80030DBB21E098ED19C08AB
:10505000DFF8C89159F8342009EBC401C2F3830288
:10506000013A49680C2A00F28880DFE802F07C7C73
:105070008686868686864786868607000868704DFF
:105080004A68704F704E286081B240F28160674B71
:105090006A604FF0010E0022814249F834303A60D4
:1050A000C9F81020C9F8182086F800E05B4C00F21F
:1050B000E380B1F5D06F80F04683B1F5817F00F0D9
:1050C000FC8200F28D82802900F07783822940F0F3
:1050D000FA82A98801F07F01042900F2F4825B487A
:1050E0005B4C89000844227062700278930740F19B
:1050F000588484F800E04FF0020E42E3514F3A68C2
:1051000032B3544B504E5449188834780D784028A7
:10511000864645F0020828BF4FF0400E002C84F070
:1051200001043470CEEB00000CBF8824C82409EBC6
:10513000C80680B285F0010544EA0E44726018800A
:1051400049F8384072440D70002800F045813A60FB
:105150003B4B1A88B2F5A06F0FD100219A78597095
:105160003E4B1A7009E0364A108842F22102904202
:1051700000F037812D4A49F83420394A0123137051
:1051800036E72A4A2A4B19F0080F18BF134647F88A
:1051900038302DE700F0ECFC324A334952F8263023
:1051A000002B00F0D18158688C5D42F8260003F195
:1051B0000802C9F80420032C05D8DFE804F02C020B
:1051C000292602228A551A8819F0080F0CBF882355
:1051D000C82343EA024347F8383009E7E00700F103
:1051E0008181210600F1F281A20706D51F4A2049DC
:1051F00013780220DBB213700870E30602D51C4B53
:1052000010221A7007B0BDE8F08F04228A55DAE741
:1052100005228A55D7E703228A55D4E70080FF1F6D
:1052200018B8FF1FC4B7FF1F7CBAFF1FC80040009B
:1052300088004000A0B8FF1F29B8FF1FA8B8FF1FB3
:105240008CB8FF1FC0B7FF1F28B8FF1FC020074042
:1052500098B8FF1FD4B7FF1F94B8FF1F98200740CE
:10526000942007406CB8FF1FA4B8FF1F8820074098
:10527000802007409020074042F22100814200F048
:105280002A8100F2D880B1F5086F00F07682B1F57E
:10529000106F40F01882226AB349A878087012068D
:1052A00000F13A83D9F82820B049130600F10C83A5
:1052B000D9F83020AD49150600F10183D9F838201E
:1052C000AA49140600F1F682D9F84020A749100631
:1052D00000F14A83D9F84820A449120600F13F831F
:1052E000D9F85020A149130600F13483D9F8582089
:1052F0009E49150600F12983D9F860209B491406C0
:1053000000F11E83D9F868209849100600F1138334
:10531000D9F870209549120600F10883D9F8782051
:105320009249130600F1FD82D9F880208F491506B5
:1053300000F13183D9F888208C49140600F12583C7
:10534000D9F890208949100600F11983D9F89820DE
:105350008649120600F10D838548864A86490190E8
:105360008648874D874C0497002305960295804612
:105370000F4616461D460394306828B1446800F075
:10538000F7FB2046002CF9D100233360029B3868DC
:105390001A46002342F8253028B1446800F0E8FBA3
:1053A0002046002CF9D100223A60019A98F800308A
:1053B0001146002241F8042B039A0191023B4FF061
:1053C000000122F81510032B00F22B81DFE813F007
:1053D0007001250170012501BEF1400F18BF0022A8
:1053E000B5E6694A0D784878157050708D78C878A0
:1053F0009570D07010680D79157186284D7989796E
:105400005571917100F09B816049614E0A78307846
:1054100082F00105002842F002020D700CBF8821C5
:10542000C82149F8321009EBC20280F001000021C6
:10543000307051609EE642F22120814240F0CB81E3
:10544000544B554C5549A8781D682560CDF804E0AB
:105450000870002002908046844604464B490D782F
:1054600045F0020E09EBCE030393019B002B039B37
:105470005C600CBF8824C82444EA080385F001045A
:1054800049F83E3032700C70DFF8E0E0404BDFF856
:10549000FC80002840F01E81BCF1400F1BD144F07D
:1054A000020C09EBCC03029CDFF8C0E05C60002A30
:1054B00040F02681020442F088029DF804304EF844
:1054C0003C20044433700D702346402803D1002053
:1054D000334A3B601080334A012313704DE600F0DD
:1054E000B3FCA5E5214B2F4828491A614FF0020E65
:1054F00080F800E02C4F0A702C49196099602C4EFE
:105500002C4D2D4C9A610D213970FF213170DFF83F
:10551000B8E029702270294D294A8EF800109F2783
:10552000012406F8047C5D600470DA6007B0BDE811
:10553000F08F244A47F8380013780133137057E589
:1055400043F826000E4D3AE58B5D032B00F2F08008
:1055500001A252F823F000BFF14F0000F14F00000C
:10556000155600000F560000A0B8FF1F0080FF1F57
:105570007CB8FF1F18B8FF1F6CB8FF1FA4B8FF1F2F
:10558000C4B7FF1F7CBAFF1F84BAFF1F94B8FF1F68
:1055900028B8FF1FBCB7FF1F8CBAFF1FB8B8FF1F8A
:1055A000D4B7FF1F94200740C02007408800400068
:1055B000882007408020074098200740D8B7FF1F69
:1055C0002CB8FF1F95B8FF1F8C200740C149C24B64
:1055D00080220D2008701A70A2077FF50EAE05E636
:1055E00040F20232914240F0EE80A98801F07F0142
:1055F000042968D86A88002A65D1B648CDF804E045
:1056000089000844017841F00201017021E701237B
:105610008B55EDE400238B55EAE44FF0010388F845
:1056200000300135042D06F1040607F1040708F1E6
:1056300001087FF4A1AEA94CA94B2278A94D049F83
:10564000059E002129701A70130700F10581627808
:10565000A549DFF8A0820A7010074FF00001C9F8D1
:105660003010C9F8381000F1E080A049A2780A7023
:105670000021C9F85010C9F858101107DFF87482DA
:1056800000F10181E2789A499A4C0A7000211207D0
:10569000C9F87010C9F8781000F1B0803378019320
:1056A000002183F00102C9F89010C9F89810D0E6E3
:1056B0004FF0000388F80030B3E7A98801F07F01BC
:1056C000042940F28D80834A0F2313708A4A0123F4
:1056D000137052E540287FF6E2AE44F002040EEB70
:1056E000C401029E4E60BAB19DF80410834A19703D
:1056F0003346403888F8005040334EF83420E7E60F
:105700009DF8043033700204029B0D7042F0C80211
:1057100003444EF83C20D8E69DF804101970029B13
:10572000774A88F80050403840334EF83420CFE6AE
:1057300019F0080F0CBF022303238B5558E4714A5C
:105740000F21117060E6704A5468002CBBD0688845
:10575000B5F804E003E00C325468002CB3D0138891
:105760008342F8D153887345F5D1000A03280CBF52
:1057700094F800E0B2F808E003E0644A644C127860
:105780002270E888704580F03F8162490D7840289A
:10579000844645F0020E28BF4FF0400C04EB0C038A
:1057A00009EBCE02029301235460CCEB00004FEAD8
:1057B0000C4800220193C8245EE6554C4FF0020EBF
:1057C00022706270DDE7B1F5A06F7FF47CAF01233A
:1057D000002201933DE642F221329142F7D072E776
:1057E0006A88002A7FF46FAF3A48CDF804E0890058
:1057F0000844017821F0020101702AE600F098F9CE
:10580000002800F0EF8008303D4AC4F88400C4F856
:10581000802000F08DF9002800F0DE800830374A43
:10582000C9F88C00C9F8882038E700F081F9002811
:1058300000F0C0800830324AC8F84400C8F8402060
:1058400000F076F9002800F0AF8008302B4AC9F844
:105850004C00C9F8482008E700F06AF9002800F079
:10586000CD800830264AC9F82400C9F8202000F06D
:105870005FF9002800F0BC800830204AC9F82C00ED
:10588000C9F82820E3E600F053F9002800F09E80D4
:1058900008301B4AC8F86400C8F8602000F048F9D6
:1058A000002800F08D800830144AC9F86C00C9F84F
:1058B0006820E7E6C86B083800F05AF904E5486B41
:1058C000083800F055F9F9E4C86A083800F050F9D2
:1058D000EEE400BFC020074080200740784501006B
:1058E000C420074095B8FF1FC8200740CC200740C0
:1058F000D02007400080FF1F94200740C8004000D0
:105900008800400029B8FF1F7C450100A0B8FF1F98
:1059100098B8FF1F94B8FF1F606A083800F028F994
:10592000C0E4C86F083800F023F9FDE4486F083878
:1059300000F01EF9F2E4C86E083800F019F9E7E447
:10594000486E083800F014F9DCE4C86D083800F03F
:105950000FF9D1E4486D083800F00AF9C6E4C86CC4
:10596000083800F005F9BBE4486C083800F000F98D
:10597000B0E4D1F89C00083800F0FAF8ECE4D1F873
:105980009400083800F0F4F8E0E4D1F88C0008380E
:1059900000F0EEF8D4E4D1F88400083800F0E8F81C
:1059A000C8E44FF0020EECE62A78C9F8480001324C
:1059B0002A705AE62A78C8F8400001322A703FE778
:1059C0002A78C9F8680001322A705BE62A78C8F89C
:1059D000600001322A7061E72A78C9F88800013234
:1059E0002A705BE62A78C4F8800001322A7010E73A
:1059F0002A78C9F8280001322A7028E62A78C9F8DE
:105A0000200001322A7032E7BEF1400FF44628BF71
:105A10004FF0400C04EB0C0302930123CCEB0E007F
:105A20004FEA0C480022019318E500BFF8B500F0DA
:105A30002BFC294B29482A4C2A4F2B4DDFF8BCC0A0
:105A4000DFF8BCE0294E00221A605A609A60DA60E2
:105A50001A615A619A61DA611A625A629A62DA626A
:105A60001A635A639A63DA631A645A649A64DA644A
:105A70001A655A659A65DA651A665A669A66DA662A
:105A80001A675A679A67DA67C3F880200168C3F813
:105A9000842041F480210160C3F307212170C3F306
:105AA0000740134938701B0E2B70FF238CF8003011
:105AB000104D8EF8003010480B700123337084F8BD
:105AC000642070264FF40074102207F82C3C2E70CE
:105AD000046081F8F820F8BD0080FF1F3480044086
