:1000000000800020BD0100004D9800000598000010
:10001000059800000598000005980000059800006C
:100020000598000005980000059800004D98000014
:100030004D9800000598000055AF000059AF000032
:100040004D9800004D9800004D9800004D9800001C
:100050004D9800004D9800004D9800004D9800000C
:100060004D9800004D9800004D9800004D980000FC
:100070004D9800004D9800004D9800004D980000EC
:100080004D9800004D9800004D9800004D980000DC
:100090004D9800004D9800004D9800004D980000CC
:1000A0009D920000A99200004D9800004D9800001C
:1000B0004D9800004D9800004D9800004D980000AC
:1000C0004D9800004D9800004D9800004D9800009C
:1000D0004D9800004D9800004D9800004D9800008C
:1000E0004D9800004D9800004D9800004D9800007C
:1000F0004D9800004D9800004D9800004D9800006C
:100100004D9800004D9800004D9800004D9800005B
:100110004D9800004D9800004D9800004D9800004B
:100120004D9800004D9800004D9800004D9800003B
:100130004D9800004D9800004D9800004D9800002B
:100140004D9800004D9800004D9800004D9800001B
:100150004D9800004D9800004D9800004D9800000B
:100160004D980000F99F00004D9800004D98000048
:100170004D9800004D9800004D9800004D980000EB
:100180004D9800004D9800004D9800004D980000DB
:100190004D9800004D9800004D9800004D980000CB
:1001A0004D9800004D9800004D9800004D980000BB
:1001B0004D9800004D98000011AD0000564B4CF2D8
:1001C000205210B51A804DF628121A8000BF00BFC9
:1001D00009F040FB514B4FF010621A60504A9A6090
:1001E000504ADA60504A136813F4807304D14F49BF
:1001F0000B604FF4A85313604D4B1A78110703D5C9
:100200001A7842F008021A704A4B4B492A221A7097
:100210004A4A4B4B8B4204D252F8040F43F8040B6A
:10022000F8E7484B484900228B4202D243F8042B9E
:10023000FAE74649464A002352F8230041F82300D2
:1002400001336F2BF8D1434B434A802103F8011B44
:100250009342FBD1414B3D4A1A60414B8A221A70AE
:10026000A3F5805324225A70A0221A709A7992071B
:10027000FCD59A79D406FCD43A4A937903F00C035E
:10028000082B384BF9D103221A7140225A719A79FE
:100290009006FCD5334A9179324B4906FBD5324A58
:1002A000324911600221516020221A709A7902F0BD
:1002B0000C020C2AFAD12E4B2E4A1A602E4B2F4AD2
:1002C0001A6000225A60072243F8042C2C4AC3F813
:1002D0000C2D62B609F09AFD144B1B68DA0705D5A0
:1002E000284809F0F7FB284B284A1A60284B1B784E
:1002F0005B0609D5244C254B22689A4204D121483B
:1003000009F0E8FB0023236009F0AAFA0DF036FE9D
:100310000AF07CFEFEE700BF0E200540308004405E
:10032000823F04000100002B10D0034014D0034092
:1003300002D0074000E007408CA4FF1FE0A90100A5
:100340002095FF1F90A4FF1F48B3FF1F0090FF1FC1
:100350000000000000E400E05FE400E008ED00E0E1
:100360000050064000400640448004400000030165
:1003700004800440C010050014E000E0FF76010096
:10038000000020209A159A621CE00340A5C3945AED
:1003900000F00740FFFFFFFFFFFFFFFFFFFFFFFF32
:1003A000FFFFFFFFFFFFFFFFFFFFFFFFFFFFFFFF5D
:1003B000FFFFFFFFFFFFFFFFFFFFFFFFFFFFFFFF4D
:1003C000FFFFFFFFFFFFFFFFFFFFFFFFFFFFFFFF3D
:1003D000FFFFFFFFFFFFFFFFFFFFFFFFFFFFFFFF2D
:1003E000FFFFFFFFFFFFFFFFFFFFFFFFFFFFFFFF1D
:1003F000FFFFFFFFFFFFFFFFFFFFFFFFFFFFFFFF0D
:10040000FFFFFFFFFFFFFFFFFFFFFFFFDEF9FFFF23
:1004100010B5054C237833B9044B13B10448AFF33E
:1004200000800123237010BD90A4FF1F0000000076
:10043000DCA90100084B10B51BB108490848AFF30F
:1004400000800848036803B910BD074B002BFBD0A0
:10045000BDE81040184700BF0000000094A4FF1F33
:10046000DCA901008CA4FF1F0000000010B50446A9
:100470000AF0F8FB204610BD70B504460846164643
:100480000DF066FB054630460DF062FB401B002870
:1004900004FB00F40EDB104A04F2FF1382FB03128C
:1004A0001A44D817C0EB6220002B284400DB70BD33
:1004B000013870BD6FF4FF72074B144483FB0423B3
:1004C0002344E017C0EB6320002C054401DB681CCB
:1004D00070BD284670BD00BF03082080002310B403
:1004E000104C4172026104600372C36041B119464D
:1004F00000E0026942F82310427A01339A42F8DCA4
:10050000094B1A680AB90BE01A465369002BFBD154
:100510005061002343618380C380837210BC7047A5
:100520001860F6E79CEB00009CB2FF1F13490A68B5
:10053000002310B4124C0460437203610372C36061
:100540000AB919E01A465369002BFBD15061002308
:100550000C4943614FF080428380C3808372836182
:10056000C36103624362C362036303874387838774
:100570000160826210BC70470860E8E79CB2FF1F10
:100580009CEB00003C9F010038B5144B144D1548FE
:10059000042200245A871C620A216A872C620AF00E
:1005A00037FA2146104802F049F8204609F068F869
:1005B0002146022009F0B4FB01210D2009F0B0FB17
:1005C0000121032009F0ACFB01210D2009F094FB6F
:1005D00001210320BDE8384009F08EBB58AAFF1F57
:1005E00018AAFF1F0082FF1F28A8FF1F2DE9F84F40
:1005F0000E2009F06BF8BD4CBD4B256818600DF05E
:1006000077F829460CF0BEFFBA4BBB4918600DF0D5
:10061000C3F829460CF0B8FF4FF07E5120600CF073
:10062000B1FFB649B64DB74EB74FB84CDFF864A32B
:10063000DFF864930DF0B0F8B5490DF061F90021D1
:100640000CF0A2FF0DF084FA4CF6CC4373622860E4
:100650000F2009F03BF8D7F8008020600DF048F833
:1006600041460CF08FFFAB4BAB4918600DF094F88E
:1006700041460CF089FF3860102009F027F8A74B9D
:10068000DAF800B0186080460DF032F859460CF0E8
:1006900079FFA34BA04918600DF07EF859460CF085
:1006A00073FFDFF8F8B2CAF80000D9F8002020681C
:1006B000DBF800109B4CDFF8E8A2FFF7DDFE9A4B59
:1006C0009A4A2060126819684046FFF7D5FECAF8BA
:1006D0000000022009F016FB012800F01F852068A9
:1006E000DFF8C082924F45380DF002F891490DF0C5
:1006F00053F80AF011FE90490DF04EF82268DAF82E
:100700000030C8F80000D01845380CF0F1FF8949D6
:100710000DF042F80AF000FE87490DF03DF8D8F8D8
:1007200000403860002120460DF0D4F9002840F048
:100730003F85824920460DF0EBF9002800F02B841C
:100740007F4BF3613F687F4C4CF6CC430021384629
:1007500063620DF0BFF9002840F03D8577493846C7
:100760000DF0D6F9002800F00984754BE361DFF83D
:100770003882754F112008F0A9FFD8F800900CF0CE
:10078000B7FF49460CF0FEFE704B634918600DF050
:1007900003F849460CF0F8FE6D49C8F800000CF06B
:1007A000FBFF56490DF0ACF800210CF0EDFE694B53
:1007B000186082460DF0CCF9674A6849106000F174
:1007C000010E674A51F82E9052F820800CF090FFED
:1007D000014650460CF0D6FE034613207363636354
:1007E000C6F83090C4F83090C6F82C80C4F82C803D
:1007F00008F06CFF0CF07CFF5A490CF0CDFF3F492C
:100800000DF07EF858490CF0BFFE3860142008F057
:100810005DFF0CF06DFF55490CF0BEFF37490DF040
:100820006FF84FF07F510CF0AFFE3E68504B5149CE
:100830001860044630460DF04DF9002840F0618400
:100840004D4930460DF064F9002800F0B1834B4B60
:10085000DFF838814A4F4B49C7F818802046FB61C2
:100860000DF038F9002840F0D283474920460DF0BA
:100870004FF9002840F0E38421464FF07E500DF000
:100880003FF84FF09D410CF087FF0DF061F9786261
:10089000384930460DF01EF9002840F03A853649B7
:1008A00030460DF035F9002800F0E684334B374F21
:1008B000374E3449B7612046F3610DF00BF900283B
:1008C00040F02884304920460DF022F9002840F0FD
:1008D000B98421464FF07E500DF012F84FF09D4143
:1008E0000CF05AFF0DF034F960E000BFCCA8FF1FF8
:1008F000C8A8FF1F14AAFF1F0AD7A33B00C07F444C
:10090000C0A5FF1F18AAFF1FB8A8FF1F28ACFF1F14
:1009100000807F44D0A5FF1F0AD7233CC8A4FF1F37
:1009200060ABFF1F18ACFF1F0099FF1F7497FF1FDC
:1009300024ACFF1FA6AAAA3D0000DC43A655AC4686
:100940000000FE7F58AAFF1FC0A8FF1F24A8FF1F9A
:100950000000AE4210AAFF1F1CACFF1F0C96FF1F29
:100960009C97FF1F00C099450000A0420000604016
:1009700014A7FF1F0000A0411EDE8946008C3C4BDF
:10098000D0A8FF1F3333333F0000A04000BE6C509F
:1009900048A9FF1FC4A4FF1F7097FF1F0096FF1FE9
:1009A000BCA8FF1F20ACFF1FC8A5FF1F7062172047
:1009B00008F08CFEBF4BC04CC04900EB800000F239
:1009C000FF1083FB00230344C217C2EB63230028FC
:1009D000B8BF03F1FF33BA4A0B6032F913006087E6
:1009E0004FF0000800272220C4F82080E262226332
:1009F000676308F06BFE0CF07BFEB2490CF0CCFE96
:100A0000B1490CF07DFFB1490CF0BEFDB04B394649
:100A1000186006460DF05EF8002840F0E583AD4909
:100A200030460DF075F8002840F06883AA4930463A
:100A30000CF0B2FE0DF0B2F8A84BE061984200F263
:100A40005D83232008F042FE0CF052FE9E490CF01C
:100A500057FF00210CF098FDA14B002118600646BD
:100A60000DF038F8002840F0C2834FF07E51304638
:100A70000DF04EF8002800F03F844FF4803363629D
:100A80001E2008F023FE974B8A4A974E6FF4FF71A1
:100A900003FB00F0084482FB00230344C217C2EBAF
:100AA000632303F58C430028B4BF503351331F2018
:100AB000336008F00BFE6FF009036FF4FF7203FB65
:100AC00000F07C4B104483FB00230344C217002832
:100AD000C2EB6323B4BF03F10B0403F10C04834B9B
:100AE00030681C600CF004FE014681480CF008FFE1
:100AF0004FF07C510CF048FD0DF02AF800287D499C
:100B0000E3B240F3E78240280446A8BF4024102BFC
:100B10004C7640F2E482784A102354760B761376B2
:100B2000152008F0D3FD0CF0E3FD7449744E0CF071
:100B300033FE65490CF0E4FE72490CF025FD30608F
:100B4000162008F0C3FD0CF0D3FD6F490CF024FE15
:100B50005D490CF0D5FE4FF07F510CF015FD366865
:100B60006A4B6B491860044630460CF0B3FF00280E
:100B700040F0CC82674930460CF0CAFF002800F0F4
:100B80006483654BDFF8A081644F6549C7F818801E
:100B90002046FB610CF09EFF002840F02682614950
:100BA00020460CF0B5FF002840F0478321464FF067
:100BB0007E500CF0A5FE4FF09D410CF0EDFD0CF0C9
:100BC000C7FF7862524930460CF084FF002840F09D
:100BD0009D83504930460CF09BFF002800F0648351
:100BE0004D4B514F514E4E49B7612046F3610CF0C9
:100BF00071FF002840F090824A4920460CF088FF9F
:100C0000002840F0188321464FF07E500CF078FE0B
:100C10004FF09D410CF0C0FD0CF09AFF7062242053
:100C200008F054FD234B424C424900EB800000F297
:100C3000FF1083FB00230344C217C2EB6323002889
:100C4000B8BF03F1FF333C4A0B6032F913006087F1
:100C50004FF0000800272520C4F82080E2622263BC
:100C6000676308F033FD0CF043FD16490CF094FD6A
:100C700015490CF045FE15490CF086FC2F4B394602
:100C8000186006460CF026FF002840F0A8821149A3
:100C900030460CF03DFF002840F0A4810E4930465C
:100CA0000CF07AFD0CF07AFF0C4BE061984200F2F8
:100CB000998145E00308208098AAFF1F00AAFF1F22
:100CC0007897FF1F85EB9F4100C07F440AD7233CE4
:100CD000CCA5FF1FA655AC464B24BE470000FE7FA7
:100CE0007CABFF1FB1B9FFFFACA4FF1F38A7FF1FEC
:100CF000A6552C47C0A9FF1FE0A9FF1F0020694689
:100D0000C4A8FF1F0000A0420000604064ABFF1FAA
:100D10000000A0411EDE8946008C3C4B0CA9FF1F41
:100D20003333333F0000A04000BE6C5084A9FF1F46
:100D3000D8AAFF1F04AAFF1F8497FF1F80ABFF1FC5
:100D40001A2008F0C3FC0CF0D3FCBA490CF0D8FD13
:100D500000210CF019FCB84B0021186006460CF07D
:100D6000B9FE002840F03E824FF07E5130460CF034
:100D7000CFFE002800F0B8824FF48030606272B677
:100D8000AE4AAF48D0610023137662B6AD4A4FF445
:100D90008031136253629161D16172B6AA4AD06107
:100DA000137662B6A94AAA4C91611B20D1611362E5
:100DB000536208F08BFCA74BA74900EB800000F2C0
:100DC000FF1083FB00230344C217C2EB63230028F8
:100DD000B8BF03F1FF33A14A0B6032F913006087FB
:100DE0004FF0000800271C20C4F82080E262226334
:100DF000676308F06BFC0CF07BFC99490CF0CCFCB1
:100E00008C490CF07DFD97490CF0BEFB964B3946A2
:100E1000186006460CF05EFE002840F0CD81934934
:100E200030460CF075FE002840F0D98090493046DD
:100E30000CF0B2FC0CF0B2FE8E4BE061984200F276
:100E4000CE801D2008F042FC0CF052FC79490CF0D9
:100E500057FD00210CF098FB874B002118600646D7
:100E60000CF038FE002840F0B4814FF07E5130463F
:100E70000CF04EFE002800F02E824FF480336362A7
:100E8000122008F023FC2B687C4A184400281060CC
:100E9000C0F2958140F2FE33984240F3AA81784B2C
:100EA000784C4FF07C5119604FF4004340F2FF3111
:100EB000A3611160744DE36143F23336002373493B
:100EC0007348AE6102222362636201F001F80222DC
:100ED0006E49704800F0FCFF02226C496E4800F039
:100EE000F7FF6E4800F0D4FE4FF07C510CF04AFB47
:100EF0006B490CF051FC01460CF046FB00210CF054
:100F000043FB0CF025FE674A0346014604201360AC
:100F100008F0F4FD644800F0BBFE4FF07C510CF08B
:100F200031FB5F490CF038FC01460CF02DFB002131
:100F30000CF02AFB0CF00CFE5C4A0346014605202F
:100F4000136008F0DBFD5A4800F0A2FE4FF07C5120
:100F50000CF018FB52490CF01FFC01460CF014FB7E
:100F600000210CF011FB0CF0F3FD524A0346014640
:100F700013600620BDE8F84F08F0C0BD3C49384674
:100F80000CF00AFC0CF00AFE3A4BE06198427FF646
:100F9000EEABFFF7EABB364920460CF0FDFB0CF048
:100FA000FDFD344BF06198427FF6CCABFFF7C8BB38
:100FB000414930460CF0F0FB4FF09E4107460CF0E3
:100FC000EBFB0CF0C5FD804638460AF067F94FF0A0
:100FD0009E410CF0E1FB0CF0BBFD03463AE4254BCF
:100FE000E3612EE7234BE361AAE6DFF8E4803349AF
:100FF000C7F8248030460CF06DFD00283FF4E9ADC1
:101000002F4E304A304BB2614046F36106E6DFF8BE
:10101000C0802A49C7F8248030460CF05BFD0028C8
:101020003FF43DAC294E274A274BB2614046F3615D
:10103000BCE400BF00C07F4458ABFF1F94A5FF1F56
:101040000000FF7F80A8FF1F6CA5FF1F48A8FF1F9F
:1010500018ABFF1F03082080BCA5FF1F9097FF1F40
:1010600085EB9F410AD7233C44A8FF1FA655AC46F9
:101070004B24BE470000FE7F08AAFF1F5CABFF1F8A
:101080000CAAFF1F8CA6FF1F18A7FF1F0496FF1FA7
:10109000A4A7FF1FC8A7FF1FECA7FF1F88ABFF1F58
:1010A00000007F43D4A5FF1FB8ABFF1FC4A5FF1FDF
:1010B000E8ABFF1F2CACFF1F465615380000A041BF
:1010C00084A9FF1F7B5517007A55170048A9FF1FF9
:1010D00000B76D5B0124102B4C763FF61CAD002B46
:1010E00040F0A180012400280C7640F31D81994A2C
:1010F0004028A8BF40202346507610E5964BE36178
:101100009FE4964BDFF89082FFF7A4BB934BDFF888
:10111000888239E5924849E491487FE5DBF8000090
:10112000D7F800A08F4C904F0CF012FD45380CF012
:10113000DFFA8E490CF030FB0AF0EEF88C490CF027
:101140002BFB8046D9F800000CF002FD45380CF06E
:10115000CFFA86490CF020FB0AF0DEF884490CF047
:101160001BFB41460CF00EFA51460CF015FB814971
:101170000CF0C6FB41460CF007FA2060102008F086
:10118000A5FA0CF0B5FA7C4924680CF005FB794906
:101190000CF0B6FB79490CF0F5F921460CF0F4F9A6
:1011A0000021386020460CF095FC00283FF4C1AACD
:1011B0000023F361FFF7C6BAC4F81C8041E6704B08
:1011C000704C002119604FF400410023A1611360AD
:1011D00070E6002353E60023E361FFF7C8BAC4F8C2
:1011E0001C80ADE50020C9E5C4F81C8029E400237B
:1011F00045E40CF07DFA4FF07C510CF0CDFA5D49DE
:10120000604C0CF07DFB00210CF0BEF95C4B5E499C
:1012100018604FF40043A36105460CF079FC0028E8
:101220007BD05A4B46E600280B7600F38280494A71
:101230000121517673E45648F0E45548C1E454481E
:10124000FFF725BB5248FFF7B1BB524930460CF0BF
:10125000A3FA4FF09E4107460CF09EFA0CF078FC82
:10126000804638460AF01AF84FF09E410CF094FA86
:101270000CF06EFC034687E4304646490CF08CFACD
:101280004FF09E4106460CF087FA0CF061FC0746D1
:1012900030460AF003F84FF09E410CF07DFA0CF056
:1012A00057FC0346FFF704BB30463A490CF074FA8A
:1012B0004FF09E4106460CF06FFA0CF049FC0746D1
:1012C000304609F0EBFF4FF09E410CF065FA0CF050
:1012D0003FFC034686E44FF08F4130460CF05CFA49
:1012E0000CF036FC0346CAE54FF08F4130460CF057
:1012F00053FA0CF02DFC41E54FF08F4130460CF0D5
:101300004BFA0CF025FC0346FFF7B9BB134B224FF9
:1013100068E4124B204FFFF7CBBA204928460CF067
:10132000D9FB68B11E4BC5E50A4A23465476FFF740
:10133000F6BB084A4028A8BF40205076FFF7EFBB15
:101340004FF08F4128460CF027FA0CF001FC0346C1
:10135000B0E500BFE0A9FF1F0000FE7F7A5517002F
:1013600000B76D5B20ACFF1F24ACFF1FA6AAAA3DEF
:101370000000DC4300C07F44000020410000A0408A
:101380000CAAFF1F8CA6FF1F00FEFF460000FF7F78
:10139000D0CCCC0C465615387B55170000FEFFC646
:1013A000000001802DE9F04FAF48B04FDFF848A3AF
:1013B000DFF84893AE4DAF4E83B0FFF7B7F8AE48B5
:1013C000FFF7B4F8AD48FFF7B1F807F13402022196
:1013D0003846FFF783F8AA4BC7F818A003F1340288
:1013E0001846A84B3B604FF48058A74BC7F81C9099
:1013F00000240221C7F820807B62BC62FC623C634F
:10140000FFF76CF89E4B9F4A1A609D4AC3F818A0DC
:10141000C3F81C90C3F820809B4B53629B48946296
:10142000D4621463FFF782F8224621469848FFF7FA
:1014300055F8984B03F11C021846954B01211C7678
:10144000DC611D60FFF74AF8924B93481E60FFF77E
:101450006DF8924B924D03F1180218460121FFF7E7
:101460003DF88E488F4A904905600BF0DFFB8F4BAB
:101470007F4D03F11C0218460121FFF72FF88B4B1B
:101480008B481E6022462146FFF728F8894B8A4E7A
:1014900003F128021846864B04211D601C76DC618E
:1014A000FFF71CF8854B03F118021846814B4FF4E7
:1014B000803501211E609D61DD611D625D62FFF767
:1014C0000DF87F4B7F4E03F1280218467B4B4FF0FF
:1014D000000C04214FF0000BC3E908BC9C621E60A5
:1014E000FEF7FCFF784B744EDFF814B203F13402C0
:1014F0001846734B02211E609D61DD611D625D62B5
:10150000FEF7ECFF714B5F4E03F1340218466E4B51
:101510001E605D4EC3F818A0C3F81C90C3F820806D
:101520005E6202219C62DC621C63FEF7D7FF674BA0
:10153000544A1A60664B03F118021846634B0121A6
:10154000C3F818A0C3F81C90C3F820805E629C62A8
:10155000DC621C63FEF7C2FF5D48514E514A52499E
:1015600006600BF063FB5B4BDFF8988103F1180218
:1015700018460121FEF7B2FF56484A4A4A4906601A
:101580000BF054FB544B4F4E03F118021846022146
:10159000FEF7A4FF514B03F1180218464E4B0121F0
:1015A000C3F80080FEF79AFF4D4B03F1180218466E
:1015B0004A4B4FF0000A01214FF00009C3E9089A95
:1015C0009C621E60FEF78AFF454B1E60454B03F18F
:1015D00018021846424B0221C3E9089A9C62FEF7A2
:1015E0007DFF404BDFF808A1C3F800800BF1280213
:1015F00004215846FEF772FF3B4BCBF8185003F11D
:101600001C02184601212C4BCBF80030CBF81C50A3
:10161000CBF82050CBF82450FEF760FF324B334913
:101620009D61314DDFF8E0E0296001200AF11802E8
:10163000234621468AF80840CAF80C40CAF800E060
:101640008AF80900CAF81020544600E0226942F8DE
:1016500023109AF80920264801339A42F6DC254BDC
:101660001A68002A53D1C8E258AAFF1F48A9FF1FD1
:10167000309F0100E89D010018AAFF1F18ABFF1F53
:10168000D0A8FF1F0C9E010080F9855AD8AAFF1F21
:101690006CA5FF1FE0A9FF1F98AAFF1FC8A7FF1F87
:1016A000009E0100FC95FF1FB91E0000C0A9FF1F8E
:1016B00094A5FF1F48A8FF1F249E0100E8ABFF1F51
:1016C00080A8FF1FDC9D01000CA9FF1F84A9FF1F3C
:1016D000A4A7FF1FECA7FF1F3CA7FF1FB8ABFF1F6E
:1016E00088ABFF1F5CA7FF1F18A7FF1F189E0100F4
:1016F00028A8FF1F9CB2FF1F00B28E04E8728E0460
:101700008CA6FF1FF49D01009CEB00001A46536954
:10171000002BFBD1C2F814A00024DFF8A093C14B2A
:10172000C148CAF81440AAF80440AAF806408AF84A
:101730000A40DFF88C83CAF8003000F0D7FEBB4BBC
:10174000C9F80030484689F80840C9F8047089F89B
:101750000940C9F80C4089F8104009F04FFAB44923
:10176000B44AB54DB54E48460BF060FAB44BB54A95
:10177000C8F80030404688F80840C8F8042088F8C7
:101780000940C8F80C4088F8104009F037FAA94A17
:10179000A749DFF8309340460BF048FADFF828837A
:1017A000A94B6B6028462C726C72EC602C74C5F8E7
:1017B000008009F023FA9F4A9D4928460BF036FA2B
:1017C000A24DA34BC9F804304846C9F8008089F8F7
:1017D000084089F80940C9F80C4089F8104009F020
:1017E0000DFA944A9249DFF8E48248460BF01EFA5B
:1017F000984B6B6028462C722F606C72EC602C74D6
:1018000009F0FCF98B4A8A49934FDFF8C4922846C5
:101810000BF00CFA8B4B914DC8F800304046904BC2
:10182000C8F8043088F8084088F80940C8F80C4027
:1018300088F8104009F0E2F97E4A7D4940460BF0F5
:10184000F5F9884BDFF88C826B6028462C726C723D
:10185000EC602C742F6009F0D1F9764A744928465F
:101860000BF0E4F9804BC8F8043040464FF0010318
:1018700088F80930C8F8007088F80840C8F80C40AB
:1018800088F8104009F0BAF96A4A6949774D40462C
:101890000BF0CCF9764B736030464FF00103737256
:1018A00037603472F460347409F0A8F9614A604911
:1018B000704FDFF8248230460BF0B8F96E4B2B6086
:1018C000614B6B6028464FF001036B722C72EC6029
:1018D0002C7409F093F9574A5549684E28460BF085
:1018E000A5F95C4B3B603846614B7B603C727C7277
:1018F000FC603C7409F082F94E4A4D49604D38460F
:101900000BF094F95F4B7360304634727472F4607C
:101910003474356009F072F9464A45495A4F3046E9
:101920000BF084F94846594BC9F80050C9F8043007
:1019300089F8084089F80940C9F80C4089F8104036
:1019400009F05CF93B4A3A49514B019348460BF088
:101950006DF93F4BC8F8003040464E4BC8F8043094
:1019600088F8084088F80940C8F80C4088F810400A
:1019700009F044F92F4A2E49474E484DDFF85C9153
:1019800040460BF053F9364B3B603846364B7B6094
:101990003C727C72FC603C7409F030F9254A2449A1
:1019A000DFF83C8138460BF041F93D4B3360374B53
:1019B000736030464FF0010373723472F460347414
:1019C00009F01CF91B4A1A49364F30460BF02EF924
:1019D0001D4B2B60344B6B6028464FF001036B723C
:1019E0002C72EC602C7409F009F91149114A2F4E40
:1019F00028460BF01BF9019B244A1A6018462C4A12
:101A00001C725A605C72DC601C7409F0F7F8019B70
:101A10000749084A274D18460BF008F92648124A8C
:101A200002605FE0309E010028A8FF1F58AAFF1F38
:101A30006D040000FC95FF1FF4A4FF1F68ABFF1F9F
:101A400018AAFF1FD0A8FF1F48A8FF1F1CA5FF1F33
:101A5000C8A7FF1FE0A9FF1FD8AAFF1F44A5FF1FAB
:101A6000C0A9FF1FECA7FF1F0CA9FF1FD8A5FF1FD0
:101A700084A9FF1FECA5FF1F6CA5FF1F00A6FF1F79
:101A800098AAFF1FA4A7FF1F3CA6FF1F80A8FF1F47
:101A900078A6FF1FE8ABFF1F50A6FF1F64A6FF1F1D
:101AA00094A5FF1FECA6FF1F5CA7FF1F00A7FF1F49
:101AB0003CA7FF1F10A8FF1FB0A4FF1FCCA4FF1F4F
:101AC000E0A4FF1F08A5FF1F18ABFF1F30A5FF1FD5
:101AD00014A6FF1F58A5FF1F28A6FF1FC4A6FF1F9F
:101AE000D8A6FF1F464A42604FF0010204724272BC
:101AF000C460047409F082F84249434A43480BF039
:101B000095F84348434A0260434A04724260447273
:101B1000C460047409F072F83A493B4A3C480BF03F
:101B200085F83E483E4A02603E4A04724260447272
:101B3000C460047409F062F8334A324937480BF044
:101B400075F8394BC9F800304846384BC9F80430AD
:101B500089F8084089F80940C9F80C4089F8104014
:101B600009F04CF8284A274948460BF05FF8244B07
:101B700088F80840404688E8080888F80940C8F80E
:101B80000C4088F8104009F039F81F4A1D494046BA
:101B90000BF04CF84FF001037B721F4B3C72384640
:101BA00087E80808FC603C7409F028F8164A1549D3
:101BB00038460BF03BF81E4B736030463472C6F863
:101BC00000B07472F460347409F018F80E4A0D49CC
:101BD00030460BF02BF8164B2C72284685E808048B
:101BE0006C72EC602C7409F009F8074A0549284624
:101BF00003B0BDE8F04F0BF019B818608CE500BFDA
:101C00003CA7FF1F6D040000FC95FF1FB0A4FF1F41
:101C10007CA7FF1F84A9FF1F5CA7FF1F90A7FF1FC2
:101C2000A4A7FF1F88ABFF1FECA7FF1FB8ABFF1FC8
:101C300018A7FF1F2DE9F0410021804608F0B0FFF2
:101C4000F8B1D8E90823011D00F5827E0F684E68BF
:101C50008D68103151F8044CC7FBC723C6FBC6235F
:101C6000C5FBC523C4FBC4238E45EFD8D8F8281084
:101C70000131C8E90823C8F82810BDE8F04108F090
:101C80004BBFD8F828300133C8F82830BDE8F081C0
:101C9000F8B572B6002600270023D0E90845826A0D
:101CA0008362C0E9086762B6D201204629460BF07C
:101CB00095FF0BF033FD09F0AFFC02490BF020FE5D
:101CC000F8BD00BF00FEFF46F8B5037E102B0446AA
:101CD0004FF000014FD0204608F06EFF0546002867
:101CE00068D0637E012B57D9227E102A4FF0000660
:101CF0002AD005EB4602B2F90470FBB1802E41D028
:101D000005EB46000230324601E0802A3AD0237EBD
:101D1000C3F1100327FA03F101FA03F320F8023F9D
:101D20000132637E911B9942EFDB802A2AD016464E
:101D300005EB4602B2F90470002BDFD13246F4E71E
:101D40003246802A1ED0164605EB4602B2F90470D0
:101D5000002BF5D0802E15D005EB4601023132461E
:101D600001E0802A0ED021F8027F0132637E901BB1
:101D70009842F6DBE5E7437E012BACD808F010FF74
:101D80000546B8B120462946002208F0EFFE284655
:101D9000BDE8F84008F0C0BE811C00F58170227ECD
:101DA00031F9023FC2F110021341934088420B8087
:101DB000F5D1E7E7F8BD00BF2DE9F843002105465E
:101DC00008F0FAFE01210446284608F0E9FE06461E
:101DD000BCB3D0B304F5827E231D9E4524D90C30BC
:101DE00004F10C0111E90C0050F8089C50F8048C27
:101DF00012FB39FC2CF3CF3C12FB09F222F3CF3259
:101E0000C2EA0C4213FB38FC2CF3CF3C13FB08F363
:101E100023F3CF33C3EA0C438E4501E90C0000F1F4
:101E2000080001F10801DDD828460022214608F00B
:101E30009DFE204608F070FE3046BDE8F84308F0ED
:101E40006BBE0028F9D1BDE8F8832046BDE8F84311
:101E500008F062BEF8B5C3696BB30021054608F00F
:101E6000ABFE044638B3B5F92000EE69A11C04F5B9
:101E7000817731F8023F83F4004343FA00F292B2D3
:101E800006EB420C36F912E0BCF902C082409B1A04
:101E9000CEEB0C0203FB02F3034173448F420B8031
:101EA000E7D128462146002208F060FE2046BDE822
:101EB000F84008F031BEF8BD10B50446C069034BC8
:101EC000236008B109F0AEF8204610BD009E010065
:101ED00079B3931EB3F5004F2BD22DE9F041551E77
:101EE0002B4224D10746C0690C46904608B109F040
:101EF00099F84FEA480009F093F804EB8808F86174
:101F0000861E0C4954F8040B0BF046FC0BF020FE27
:101F1000444526F8020FF4D110233B846B1006D001
:101F20000F22511E5B1010B28AB2FAD13884BDE87C
:101F3000F081704700FEFF462DE9F04F83B08846E0
:101F4000846A0190D0F81CC0D0F824A0C16A076B45
:101F5000DDF8309008F580702646834638F902EBAC
:101F60004FEA0E3E5CFB17F401EB84045AFB17F5B5
:101F70007644C4EB6606A6EB85065CFB16F007EB21
:101F800080005CFB10F104EB81015AFB10F5C1EB02
:101F90000E07A7EB85055CFB15F700EB87070C44E4
:101FA00024F34F34384420F34F30354425F34F3574
:101FB000C34522F8024B764623F8020B29F8025B50
:101FC000CCD1019A1346C3F828E0D162176303B05D
:101FD000BDE8F08F2DE9F04F85B088468169019109
:101FE00001460C460390006A0290D1F824B08F6A33
:101FF000206BC96ADDF838A0DDF83C9008F58074E4
:10200000009432F9026B029C06FB04F626F0784538
:1020100005F10065ED0055FB15F5284C55FB14F551
:10202000ED00013CF616C6F106062C443441019D34
:1020300055FB14F4224D38F902CBAC42A8BF2C4614
:1020400024024FEA0C3C54FB10F601EB86065BFBC6
:1020500010F107EB0C0EC6EB6E0EAEEB810E54FBCF
:102060001EF500EB850554FB15F106EB81015BFBCA
:1020700015F0C1EB0C07A7EB800754FB17F405EB39
:1020800084000E4426F34F36054425F34F35BE44F5
:102090002EF34F3E009C23F8026B44452AF8025B66
:1020A000674629F802EBACD1039A1346C3F828C05F
:1020B000D162106305B0BDE8F08F00BFABAAAA2AB9
:1020C000E71052002DE9F043002183B0044608F0E8
:1020D00067FD01210546204608F062FD0646002DF9
:1020E0003CD008F0C5FC074600283CD008F0C0FCF6
:1020F0008046002842D008F0BBFC8146002851D021
:10210000002E45D0021D08F10403019200932046E1
:102110003B1D321D291DFFF75DFF304608F0FCFC1A
:10212000284608F0F9FC00223946204608F01EFD3A
:10213000384608F0F1FC01224146204608F016FD21
:10214000404608F0E9FC20460222494608F00EFD10
:10215000484603B0BDE8F04308F0DEBC0028F8D1E3
:1021600003B0BDE8F083284608F0D6FC002EF7D077
:10217000304603B0BDE8F04308F0CEBC284608F076
:10218000CBFC384608F0C8FC002EE9D03046F0E71A
:10219000031D00933A1D08F10403291D2046FFF793
:1021A000CBFEBDE7284608F0B7FC384608F0B4FC83
:1021B000404608F0B1FC002ED2D03046D9E700BF2F
:1021C00010B5044608F04AFE204610BD024A0349F5
:1021D00003480AF02BBD00BFFC95FF1FC121000082
:1021E00030ACFF1F38B5074D074C08482A4621463A
:1021F0000AF01CFD2A4621460548BDE838400AF091
:1022000015BD00BFFC95FF1FC121000038ACFF1FAA
:1022100040ACFF1F024A034903480AF007BD00BF54
:10222000FC95FF1FC121000048ACFF1F024A034973
:1022300003480AF0FBBC00BFFC95FF1FC121000052
:1022400050ACFF1F024A034903480AF0EFBC00BF2D
:10225000FC95FF1FC121000058ACFF1F024A034933
:1022600003480AF0E3BC00BFFC95FF1FC12100003A
:1022700060ACFF1F024A034903480AF0D7BC00BF05
:10228000FC95FF1FC121000068ACFF1F024A0349F3
:1022900003480AF0CBBC00BFFC95FF1FC121000022
:1022A00070ACFF1F2DE9F8434FF00008064600F11F
:1022B0001805474641463046002F4FD008F070FCC5
:1022C000F0B12C68B4F5803F07F1040100F1040E71
:1022D00007F5827C27D05EF8042B34FB02F334FB35
:1022E00012F903F30F0209F30F03C2EA03430A686A
:1022F00093FA12F341F8043B8C45ECD808F00CFC3F
:1023000008F10108B8F1040F05F10405D2D1002F3E
:1023100040D030463946002208F028FC3846BDE857
:10232000F84308F0F9BB07F10C0100F10C0451F877
:10233000083C54F8082C93FA12F341F8083C54F87E
:10234000042C51F8043C93FA12F38C4541F8043CF8
:1023500004F1080401F10801E9D8CFE708F02CFCEA
:1023600007460028CCD02868B0F5803FC8D0391D7A
:1023700007F582740B6830FB03F230FB13F302F3B2
:102380000F0203F30F03C2EA034341F8043B8C42FC
:10239000F0D8B5E7BDE8F88370B584692CB3B4F51F
:1023A000803F06464FF0000125D008F005FC0546A9
:1023B00000B3011D00F582700B6834FB03F234FB9F
:1023C00013F302F30F0203F30F03C2EA034341F8CE
:1023D000043B8842F0D830460022294608F0C6FB6C
:1023E0002846BDE8704008F097BB214608F0D8FBAE
:1023F0000028F6D170BD08F0D3FB04460028F9D0C0
:1024000030462146002208F0B1FB2046BDE870406E
:1024100008F082BB024A034903480AF007BC00BF28
:10242000FC95FF1FC121000078ACFF1F10B50021F3
:1024300008F0B6FB70B172B60A4B1A6872B10A495D
:102440000C6844B11C60086062B61046BDE81040DC
:1024500008F062BB10BD086062B610BD186062B6BD
:1024600010BD00BF90ACFF1F80ACFF1F38B5184BEC
:1024700018491A68184C12681B79184D0B70A24243
:10248000286836BF2246A4F5807202F58074C0B178
:10249000011D31F9023B03F500431B1122F8023BF9
:1024A0009442F6D808F038FB0D4B002219682960D9
:1024B0001A600C4B1B781BB10B4B4FF080421A601B
:1024C00038BD4FF4006322F8023B9442FBD8F0E79A
:1024D00084ACFF1F1F800040408DFF1F90ACFF1F8A
:1024E00080ACFF1F8CACFF1F08E200E0F8B50121B3
:1024F0004248434E08F04EFC424A4349136880204C
:1025000043F4805313600024087040F608053480BB
:102510000120083407F02CFCA3B2AB421CB2F6D168
:102520003A4B1B685B0208D5394B1A6848F6A27310
:10253000134048F6A27293424FD03449344A0B6894
:10254000344F354D3548364C43F480030B604FF023
:10255000010E40F23F4648F6A37140F20113C7F85E
:1025600000E02E60116014600360244C2D4A236843
:1025700023491A6002259D802279196102F1804267
:1025800002F50432284EDE6040F20111D9804FF48A
:10259000807000210627B026D8829D60D88399825A
:1025A0009F8399611170167008F09AFB22791F4B76
:1025B0001F4E187053119B0003F160431D4C327085
:1025C00003F5614302F1100002F01F0701211A4DCB
:1025D00044F82050B9401960F8BD0F4B1A6840F21A
:1025E0003F439A42A9D10B4B1B68012BA5D10B4B42
:1025F0001A6840F201139A429FD1B6E784ACFF1FDC
:1026000000C00C402C80044021C00C403C800440A1
:10261000006003400C60034004600340106003400E
:10262000A28F0100408CFF1F00FEFFFF8CACFF1F3C
:102630001B8000400090FF1F6D240000044A1378A7
:1026400002290CBF03F0BF0343F04003137070472F
:1026500021C00C40024A034903480AF0E7BA00BF10
:10266000FC95FF1FC121000084ACFF1F024A0349F3
:1026700003480AF0DBBA00BFFC95FF1FC121000030
:1026800094ACFF1F024A034903480AF0CFBA00BFC7
:10269000FC95FF1FC12100009CACFF1F024A0349AB
:1026A00003480AF0C3BA00BFFC95FF1FC121000018
:1026B000A4ACFF1F024A034903480AF0B7BA00BF9F
:1026C000FC95FF1FC1210000ACACFF1F024A03496B
:1026D00003480AF0ABBA00BFFC95FF1FC121000000
:1026E000B4ACFF1F024A034903480AF09FBA00BF77
:1026F000FC95FF1FC1210000BCACFF1F00207047EC
:10270000704700BF036D0BB101207047406D003072
:1027100018BF0120704700BF10B50446806D18B186
:102720000BF05CFC0023A365236D2BB104F11800B2
:10273000BDE8104005F0F8BB636D002BF6D110BD6D
:10274000F0B5002395B01A460546183104A84FF499
:102750007A74224F8DF804308DF80C301293139355
:102760000294009705F034FC129B002B2BD05C20C8
:1027700008F054FC04461A4B9DF80400029A1949CB
:10278000236000269DF80C302073A160226104A90B
:10279000237504F11800666005F098FB6368124A1F
:1027A000A76001334FF47A71A6652E712E732C61E8
:1027B0006360A9602A600D4B009304A805F0B4FB88
:1027C000284615B0F0BD139B002BD0D1064A2B71C3
:1027D000AC602B732B612A60EDE700BF849E010083
:1027E000D49E01003C9E0100A89E0100609E010055
:1027F000036D13B1184603F013BE406D08B101F02C
:102800004BBC4FF0FF30704700B5836C83B063B1B1
:10281000184601220DF1070103F032FD01280CD109
:102820009DF8070003B05DF804FBC06C28B10122DD
:102830000DF1070101F05CFBF0E74FF0FF30F1E72D
:10284000F0B5036D83B00C462BB318460DF10602AC
:1028500001A903F079FBD8B1BDF80430BDF806201A
:1028600003B9AAB102F01F06C3F343155912C2F30C
:1028700045177600013D01F5EA6103F01F03D2120E
:1028800026706571A17123716770A27003B0F0BDED
:10289000002003B0F0BD406D0028F9D00DF1060214
:1028A00001A901F0B5FAD6E7036D9BB11A7812F0D1
:1028B000700F00D1704710B504460021184603F090
:1028C000D1FE606D28B100220023BDE8104001F068
:1028D000FBBB10BD406D0028ECD090F8313013F0F8
:1028E000500FE7D00022002301F0EEBB38B5846D15
:1028F0000CB1204638BD05464FF480700BF066FBE6
:102900000146A86580B1286D0C7028B14FF4807223
:1029100005F014F9AC6DECE7686D40B14FF48072CE
:1029200002F050FFAC6DE4E7024CAC65E1E70C4609
:10293000DFE700BFC4ACFF1F8A79A2F150031B067A
:1029400020D4F0B54B79046D0D798E784F780978E5
:10295000013385B002F26C72DBB244B103918DE8B1
:10296000E0002046042103F095FF05B0F0BD406D66
:102970000028FAD003918DE8E000042102F05EF90E
:1029800005B0F0BD00207047D0B5046D8CB1012BAF
:1029900008BF002A01D30020D0BD1146204603F015
:1029A00061FE0028F7D0204603F0DCFF0028F2D0BB
:1029B000D0BD446D002CEED0204601F085FB0028F0
:1029C000E9D02046BDE8D04002F0E6B9F0B5036D8D
:1029D00083B00C462BB318460DF1060201A903F093
:1029E000C3FAD8B1BDF80430BDF8062003B9AAB1C6
:1029F00002F01F06C3F343155912C2F345177600C0
:102A0000013D01F5EA6103F01F03D21226706571E2
:102A1000A17123716770A27003B0F0BD002003B0F4
:102A2000F0BD406D0028F9D00DF1060201A901F0BA
:102A3000FFF9D6E7036D13B1D86900217047436DE4
:102A400013B118695969704718461946704700BF95
:102A5000036D13B1586900217047436D13B193E8BA
:102A60000300704718461946704700BF036D13B145
:102A7000184603F005BC406D08B101F039BA4FF0BB
:102A8000FF307047836C13B1184603F0C9BCC06CAB
:102A900008B101F001BB4FF0FF307047036D33B157
:102AA0001B7813F0700F14BF012000207047406D99
:102AB00030B190F8313013F0500F14BF01200020D6
:102AC000704700BF8A79A2F150031B0620D4F0B5ED
:102AD0004B79046D0D798E784F780978013385B084
:102AE00002F26C72DBB244B103918DE8E000204643
:102AF000022103F0CFFE05B0F0BD406D0028FAD0F2
:102B000003918DE8E000022102F098F805B0F0BDD5
:102B100000207047036963B11A68074992698A42C5
:102B200008D1186D08B103F0AFBE586D08B101F0BF
:102B300019BF704718461047512B0000836C13B122
:102B4000184603F0A1BEC06C08B101F00BBF70477E
:102B5000036D13B1184603F097BE406D08B101F044
:102B600001BF704710B5036982B08DF80710BBB183
:102B70001968104ACC68944215D1186D30B1012201
:102B80000DF1070103F02AFF02B010BD586D0028B7
:102B9000FAD001220DF1070102F06EF902B010BD6A
:102BA000184602B010BD184601220DF10701A047DA
:102BB00002B010BDF92B0000036973B11A6808490F
:102BC00052698A4207D1186D08B103F029BC586DCB
:102BD00018B101F061BA184610474FF0FF30704746
:102BE000F1270000836C13B1184603F0F7BEC06CE8
:102BF00008B102F041B97047036D13B1184603F0F4
:102C0000EDBE406D08B102F037B9704700B5836C76
:102C100083B08DF8071043B1184601220DF107016A
:102C200003F0DCFE03B05DF804FBC06C0028F9D0B3
:102C300001220DF1070102F01FF903B05DF804FB5A
:102C400003697BB110B41C680B48E46884420ED160
:102C5000186D10B110BC03F0C1BE586D20B110BC8E
:102C600002F00AB900207047002010BC70471846D7
:102C7000234610BC184700BFF92B0000036923B39B
:102C800010B51968124A8C68944282B014D1186D3C
:102C900048B101220DF1070103F0F2FA90B19DF85D
:102CA000070002B010BD586D0028F8D001220DF1C8
:102CB000070101F01DF9F1E7184601220DF10701A6
:102CC000A047EBE74FF0FF30EBE74FF0FF307047E6
:102CD0006D2A0000826C62B1137803F0080303F0E0
:102CE000FF0003B3D3695069181A48BF6FF0004062
:102CF0007047C16CC1B191F8313003F0080303F0A3
:102D0000FF0083B1D1E90423D1E90001101A30B4E6
:102D100063EB010100256FF000448D4208BF84423F
:102D200000D2204630BC704708467047026D62B141
:102D3000137803F0080303F0FF0003B3D36950696D
:102D4000181A48BF6FF000407047416DC1B191F84B
:102D5000313003F0080303F0FF0083B1D1E904230D
:102D6000D1E90001101A30B463EB010100256FF0C6
:102D700000448D4208BF844200D2204630BC7047D8
:102D800008467047006970B30368184A1B6993428C
:102D90000ED1026D6AB1137803F0080303F0FF004F
:102DA0000BB3D3695069181A48BF6FF000407047E1
:102DB0001847416DC1B191F8313003F0080303F0B9
:102DC000FF0083B1D1E90423D1E90001101A30B426
:102DD00063EB010100256FF000448D4208BF84427F
:102DE00000D2204630BC7047084670472D2D0000A9
:102DF000D0B4039C16461F4634B1012C1ED0022CC1
:102E00000DD00020D0BC7047046DDCB1012B08BF91
:102E1000002AF6D220461146D0BC03F023BC036D35
:102E2000B3B1DA69B61847F10007012F08BF002EC9
:102E3000E7D231461846D0BC03F014BC036D8BB109
:102E40005A69EFE7406D0028DBD0D0BC01F03CB9F7
:102E5000406D0028D5D0D0E9042392197B41D0BC25
:102E600001F032B9406D0028CBD0D0E9002392198F
:102E70007B41EAE738B50446806D0C4B236018B1FE
:102E80000BF0ACF80023A365236D04F118054BB1DA
:102E9000284605F049F8064BA360284605F044F89B
:102EA000204638BD636D002BF2D1F4E7D49E0100BB
:102EB000609E010038B50446806D0E4B236018B14A
:102EC0000BF08CF80023A365236D04F118056BB19A
:102ED000284605F029F8084BA360284605F024F899
:102EE00020465C2108F0A0F8204638BD636D002B19
:102EF000EED1F0E7D49E0100609E010070B5046938
:102F0000244B036005461CB16668013E66600EB145
:102F1000284670BD2368204ADB6A93422CD1A06DFD
:102F200010B10BF05BF8A665236D5BB304F11800DC
:102F300004F0FAFF2C69002CEAD02368174A5B687A
:102F400093421CD1A06D164B236018B10BF046F8CC
:102F50000023A365236D04F11806BBB1304604F0CD
:102F6000E3FF104BA360304604F0DEFF20465C21F7
:102F700008F05AF8284670BD20469847DAE7204600
:102F80009847C5E7636D002BD0D1D3E7636D002B65
:102F9000E4D1E6E7A89E010019270000B52E000045
:102FA000D49E0100609E010070B50569284B036046
:102FB00004461DB16E68013E6E602EB1204614219C
:102FC00008F032F8204670BD2B68224ADB6A934233
:102FD00030D1A86D10B10BF001F8AE652B6D7BB34D
:102FE00005F1180004F0A0FF2569002DE6D02B683C
:102FF000194A5B68934220D1A86D184B2B6018B119
:103000000AF0ECFF0023AB652B6D05F11806DBB170
:10301000304604F089FF124BAB60304604F084FF69
:1030200028465C2108F000F82046142107F0FCFF38
:10303000204670BD28469847D6E728469847BDE702
:103040006B6D002BCCD1CFE76B6D002BE0D1E2E7AD
:10305000A89E010019270000B52E0000D49E010093
:10306000609E0100F8B5054607F002FD002800F05B
:1030700092802A7E0446031D00F58276002A39D00C
:10308000286AE9696A6A81FAA0FEEFF300873F01C6
:1030900040D49EFBF2FEBEF17F0F54DD04F1140715
:1030A00002E0E9696A6A103711448818C0EA2141D0
:1030B00010448318C3EA2040134403EB020ECEEA07
:1030C000234396447244EA61C2EA2E42BE4247F864
:1030D000101C47F80C0C47F8083C47F8042CE0D8C3
:1030E00028462146002207F041FD2046BDE8F84071
:1030F00007F012BDEA69C2EA22421A605A609A6079
:10310000DA601A615A619A612033B34243F8042CA1
:10311000F3D3E5E75AB90022E8612A76C0EA2042F3
:10312000B342DDD243F8042B9E42FBD8D8E7571CAC
:10313000022FB0D990FBF2FE91FBF2F7C7EB0E0E17
:10314000BEF17F0FAADCBEF1010F18DD70461F46ED
:1031500001E0E9696A6A11440A44EA610238C2EA94
:103160002142012847F8042BF3DCAEF1020E4FEAAE
:103170005E014A1C286AAEEB410E03EB8203BEF1EE
:10318000000FC8D0E9696A6A0A44C0EA22421A609C
:10319000286A0433BFE7F8BD2DE9F04F436AC469DC
:1031A000866989B02BB906EBC414846109B0BDE807
:1031B000F08F0546076A07F05BFC0590002800F0D9
:1031C0008981F2190492B5F93A30059A02F104089E
:1031D000082B23D8DFE813F08E00AC00090054015F
:1031E000BA0016012D013C0144006E6A26F34F0619
:1031F000059A134602F58371049A30B2063376427B
:10320000002AB4BF23F8026C23F8020C023399425F
:103210002244F5D1049B03EBC41304932C6A049A53
:10322000B5F93C30141BAC6173B1059A02F582719B
:1032300001E0B5F93C30B8F90020134403F30F0363
:1032400028F8023B4145F4D8059C28460022214637
:1032500007F08CFC204609B0BDE8F04F07F05CBCDD
:10326000AA6ACDF804804FEA520C130C6FEA0C02E4
:103270001146059AD5F824E0C3F57F4B4FF0FF398E
:10328000901D464602F5837A0BF1FF0B049AB9FBB9
:10329000FBFB8846B9FBF3F920E0CCEB02073F0CBF
:1032A0000BFB07F76FF0004102EB0C03C91B1B0C73
:1032B000091409FB03F30EFB01F103F100439045F0
:1032C0004FEA21414FEA234340F2FC803180023033
:1032D0005045224406F1020600F00181130C09FB5F
:1032E00003F31B0C0EFB03F362454FEA1343D4D2E6
:1032F0003380ECE7059BD5F824E07C4E049903F578
:10330000827740460B0E5A1C36F913C036F912204C
:10331000C1F30F29C9F580330CFB03F309FB02331A
:1033200053FB0EF320F8023BB8422144EAD171E787
:10333000059B6E6A049A03F58270434636FB12F1D0
:1033400023F8021B83422244F8D163E7D5F82CA06E
:10335000BAF1000F00F0BB806B6B029319464FF07F
:103360007E500AF00FF9059BD5F824B0D5F83090BF
:10337000049ECDF8188003F5827347460390D84623
:103380000193CB460795350E691CB1F5807F14BFBC
:1033900049000021C6F30F2C3AF915003AF9012033
:1033A000CCF5803E0EFB00F00CFB020050FB08F059
:1033B0003BF915203BF901100EFB02FE0CFB01EE60
:1033C0005EFB08F50AF094F903990AF0E5F98146E5
:1033D00028B20AF08DF902990AF0DEF90146484652
:1033E0000AF0D2F80AF0B4FB019B27F8020B9F42C7
:1033F0002644C8D1049BDDF81880079D03EBC41355
:1034000004930BE76E6A26F34F06059AA86A1346E3
:1034100002F58371049A37B20633764290428CBF2C
:1034200023F8027C23F8026C02338B422244F5D14C
:10343000F0E6059B686A049A03F58276C04343462A
:1034400030FB12F123F8021BB3422244F8D1E1E62B
:10345000059B474603F58279049B03E04F453346BD
:103460003FF4D8AEB5F9382027F8022BE618F5D38B
:10347000686A07F0C7FD6B6AA0EB63002887EDE779
:10348000059BD5F824E0049A991D03F5837009E0A3
:103490000EFB03F31B1421F8023C02318842224444
:1034A0003FF4B8AE930F013B012B4FEAE233EFD864
:1034B000D30BC3F57F43FF330EFB03F31B0C21F843
:1034C000023CEAE70EFB03F31B143380FFE605988A
:1034D00007F022FBAB6903EBC413AB6166E6049B08
:1034E000DDF8048003EBC413049397E6D09B01003E
:1034F00010B4047F4160022CC26002D010BC07F0FF
:10350000C7BC836810BC18472DE9F0410468E56822
:1035100015F0807F794D256052D1DF0740F1B380EF
:10352000002900F0E3800D78012B18BF45F000451D
:103530006563013190F8248003F1FF3C48EA0828D4
:10354000BCF1000F00F0A88021B14D7811F8028B7A
:1035500045EA082845682E7ABCF1020F06F1FF36CD
:103560004FEA06360CBF48F0805548F01045B6B219
:103570006563ACF1020C08E00AB114700132013B42
:1035800005F47045B54216D90468E56A15F0F00FE8
:10359000F6D0A46B13F0010F17464FEA242EEBD19F
:1035A0001AB107F802EB54703A4605F47045B5427B
:1035B000A3F10203E8D8BCF1000F6DD00468C3E7A3
:1035C000DD074CD5002900F089800D78012B18BF4C
:1035D00045F000456563013103F1FF3E90F824C0DA
:1035E000BEF1000F41D029B191F801C00D78023130
:1035F00045EA0C2C45682E7ABEF1020F06F1FF3623
:103600004FEA06360CBF4CF080554CF01045B6B270
:103610006563AEF1020E08E00AB114700132013B9D
:1036200005F47045B54215D90468E56A15F0F00F48
:10363000F6D013F0010F1746A46BEDD122B107F8B5
:10364000024B241254703A4605F47045B542A3F17A
:103650000203E9D8BEF1000F07D00468C3E79E4615
:1036600090F824C0BEF1000FBDD11BB30468E16A1D
:1036700011F0F00FFBD0A16BDC071DD50AB1117062
:103680000132013BF1E790F824809C4648EA082883
:10369000BCF1000F7FF458AF63B10468E16A11F028
:1036A000F00FFBD0DE07A16B0FD50AB1117001320C
:1036B000013BF1E7BDE8F0812AB114460D1204F890
:1036C000021B55702246023BCFE72AB114460D1269
:1036D00004F8025B51702246023BDDE790F824506B
:1036E000012B18BF45F00045656375E790F824503D
:1036F000012B18BF45F0004565631BE700041F80E0
:10370000F0B4464B464A186BDC6A017911704549A2
:1037100022790A709A6A00790870002A46D059689E
:10372000C9688A423ED82168CC8B240402F1FF305C
:1037300065D4C0F30E00C883C88B80B2C882196BF1
:103740000968C88B000452D4C2F30E00C883C88B2A
:10375000002480B212F1FF32C88218BF01229C629D
:10376000D96A2E4809680D6800F12404A54236D0B4
:103770000068C46814F0804F0C680D6815BF248879
:1037800024780235013544F000440D604463196B20
:10379000254B09791970214912B1CA6A12791A7038
:1037A000F0BC7047521A9A620122D9E7586B196827
:1037B00005681E4C0A63CC62CC682D681C4E24F050
:1037C00080440327B542CC6083F825701FD1037F66
:1037D0004260022BC2601ED0F0BC07F059BB0168EA
:1037E00090F82400CC6840F000404863CFE7CC8BD1
:1037F000C2F3080004F47E442043C883A7E7CC8BBF
:10380000C0F3080004F47E442043C88394E72B46A9
:103810001146F0BC18478368F0BC18470499FF1F95
:103820001F8000401C8000401B80004000000FFFF4
:10383000F134000090E80C00F0B41C685968256869
:10384000164F174E29432160164D17491760D66051
:1038500015611160417A154A5C180A3194F82440C8
:1038600053F8215002EBC40149680D60017A5C18DD
:1038700003EB8101247ECD6902EBC40149680D6030
:10388000817A581803EB810390F83000596B02EBF2
:10389000C002F0BC53681960704700BF01401F00B0
:1038A000011000380110007800001F801CA40100E6
:1038B0000BB1FFF729BE7047704700BFF0B5012B71
:1038C00095B005463AD0022B01F1040140F20223E3
:1038D000684618BF002304F011FC129B002B36D061
:1038E0005C2007F09BFB04469DF804601E481F49BE
:1038F000029A9DF80C30206004AF2673A160002668
:10390000394604F1180022612375666004F0DEFA7E
:1039100063681748174AA66501334FF47A712E7110
:103920002E732C61A0606360A9602A60124B009323
:10393000384604F0F9FA284615B0F0BD44F20223E7
:103940000431684604F0DAFB129B002BC8D1139BAC
:10395000002BC5D14FF47A71064A2B712B732B6162
:10396000A9602A6004AFE1E7D49E01003C9E0100FB
:10397000849E0100A89E0100609E010010B5D0F851
:1039800084448EB0A4B10A4668462146012300242F
:103990008DF800408DF801408DF8024002F046FCA1
:1039A00008B90EB010BD684603F096FC0EB010BD0D
:1039B000D0F888040028F4D00A460123014668465E
:1039C0008DF831408DF832408DF8334000F03EFEE6
:1039D0000028E6D0684600F0A1FE0EB010BD00BF82
:1039E00010B5D0F884448EB07CB10A46012304F5AA
:1039F0008961684600248DF800408DF801408DF8FB
:103A0000024002F04DFB0EB010BDD0F88804002833
:103A1000F9D00A46012300F5896168468DF83140E6
:103A20008DF832408DF8334001F066F80EB010BDCD
:103A300030B5D0F884448FB074B100250A462B46C7
:103A4000214668468DF800508DF801508DF80250DF
:103A500002F0ECFB0FB030BDD0F888040028F9D09C
:103A60000A462346014668468DF831408DF83240BB
:103A70008DF8334000F0EAFD0FB030BD38B5054693
:103A8000D0F88404C0B1C469013C04F05DF9D5F8F4
:103A90008434241A43B198794FF4007303FA00F088
:103AA00080B2A0FB040138BDD5F8883463B1D3F8E7
:103AB0003C04A0FB040138BDD5F8880420B1D0F83F
:103AC000304402F083F8E2E70020002138BD00BF57
:103AD00030B5D0F884448FB0A4B100250A462B46F7
:103AE000214668468DF800508DF801508DF802503F
:103AF00002F09CFB08B90FB030BD684602F084FDAF
:103B00000FB030BDD0F888040028F4D00A46234610
:103B1000014668468DF831408DF832408DF83340CB
:103B200000F094FD0028E6D0684600F055FE0FB086
:103B300030BD00BF70B5D0F884448EB01646C4B115
:103B4000002504F589640A462B46214668468DF80F
:103B500000508DF801508DF8025002F005FB08B9B5
:103B60000EB070BD32462146684602F08FFC0EB0A2
:103B700070BDD0F888040028F2D000F589650A46A7
:103B80002346294668468DF831408DF832408DF83D
:103B9000334000F0EBFC0028E2D03246294668466C
:103BA00001F002F80EB070BDD0F884244AB19179CA
:103BB000D0694FF400738B409BB20138A3FB000126
:103BC0007047D0F8882432B1D2F83034D2F83C04AF
:103BD000A3FB000170470020002170472DE9F04150
:103BE000D0F8904492B04CB11F46236805469B69BB
:103BF00020469847B0F5405F064603D8002012B033
:103C0000BDE8F0814FF400700AF0E0F9804600282A
:103C1000F4D0B6F1806F07AE3B46214630464246AF
:103C200037D803F033FE044640460AF0D7F9002C9B
:103C3000E4D095F8AC44FF2C34D095F8ADC4D5F859
:103C4000B0E4D5F8B4748DF804408DF805C0CDF813
:103C500008E0039701AB93E8070004AB83E8070093
:103C60008DF810408DF811C0CDF814E0069793E858
:103C7000070086E8070005F2944496E80E00204607
:103C800004F052FB95F8A734C5F890442BB10120FD
:103C9000B5E701F0CDFA0446C6E72146281D04F039
:103CA000C9F9F4E7002385F8AC44C5F89034012045
:103CB000A5E700BFF0B50446D0F890048BB088B3F8
:103CC00094F8BC54002D3AD194F8AC64FF2E2DD05A
:103CD00094F8ADC4D4F8B0E4D4F8B4748DF80060AE
:103CE0008DF801C0CDF804E002979DE8070003AB12
:103CF00083E807008DF80C608DF80DC0CDF810E05A
:103D0000059793E8070006AB83E8070004F29446A2
:103D10000ECB304604F008FB94F8A734C4F8906446
:103D2000ABB1284684F8BC040BB0F0BD284684F83B
:103D3000AC64C4F8905484F8BC040BB0F0BD06AA7F
:103D40000A2104F0E9FB84F8BC040BB0F0BD314655
:103D5000201D04F06FF984F8BC040BB0F0BD00BF67
:103D6000F0B4114B114D124C1D602926FF25C3F8EC
:103D70009C4400240F4883F8A764012783F8BD54AE
:103D800083F8AA4483F8B844C3F8940483F8A5746C
:103D9000C3F88444C3F8884483F8BC44064A0749FE
:103DA0001846F0BC08F042BFC8ACFF1F4CA0010091
:103DB0000110013844A10100FC95FF1FB938000033
:103DC000F0B500F1240305460E46174693E80700B8
:103DD00085B001AC84E8070072012146286A01F031
:103DE00085FE012806D13A462146286A01F046FEA2
:103DF00005B0F0BD002005B0F0BD00BF10B5044611
:103E000000F0B0FD002384F8313084F8333010BD69
:103E100038B50D46144600F124010022006A01F075
:103E20002DFE20B143892B8003892380012038BDDA
:103E300038B50D46144600F124010022006A01F055
:103E40001DFE20B1C3892B8083892380012038BDCA
:103E500090F831200AB10020704738B504460D466D
:103E6000114638220AF0ACFB4023012084F831309F
:103E700084F83300256238BD70B40D4609782029D6
:103E800003D115F8014F202CFBD0184915600EE026
:103E9000A4F12206F6B21D2E20D904F0BF063C2E56
:103EA0000ED05C2C0CD02E2C02D0202C00D0956093
:103EB0002C782E46013564B12F2C06D01F2CE7D864
:103EC000002070BC704716F8014F202CFBD02F2C1F
:103ED000F9D01E60114670BC01F0D8BC21FA06F67C
:103EE000F607DAD5002070BC704700BF0101003131
:103EF0002DE9F04F90F83330DE0783B004465AD5F1
:103F00005D060E46934640F1B780D4E90001D4E93E
:103F1000042310EB0B0841F100094B4508BF424553
:103F2000C0F0B080BBF1000F6ED0A146F9E80601E9
:103F30005D46276AD7F838340340C3F3080A002BDC
:103F400068D150EA010275D194F8312051064CBF76
:103F5000D7F83424E269A261D7F82C0497F845E435
:103F60005B0A023A191802FA0EF21144BAF1000F74
:103F70002CD1B5F5007F29D3D7F81C22914225D04A
:103F8000B5F5806F5DD34FF0010808FA0EF8C3EB6A
:103F900008034FEA5528984528BF984691423BD8D8
:103FA00008EB01039A4237D207F50470019104F03F
:103FB0000FFE019980BB94F832304FF0FF3043F090
:103FC000020384F8323003B0BDE8F08F07F50470C7
:103FD000002204F0CDFD0028EDD0CAF50078A845F8
:103FE00028BFA84600EB0A014246304605F062F9B8
:103FF00042460023D4E9000180185941B5EB080579
:104000004644C4E9000194D10025C5EB0B0003B080
:10401000BDE8F08FA2699FE7D7F814020368324623
:104020001F694346B8470028C5D04FEA4828424692
:104030000023DFE794F83320520610D5A26901323D
:1040400089E7D7F8140203683246DB6898470028EE
:10405000B1D04FF4007200234FF40078CAE738461D
:104060004A46A169019301F023FD0028A3DB0CD08F
:10407000276AA269019B6FE790F8313018073FF576
:1040800044AF4FE7C0EB020B4CE794F8313013F02C
:10409000500FBAD18FE700BFF0B583B001220DF108
:1040A00007010446D0E900678569FFF721FF012871
:1040B00008BF9DF80700A56118BF4FF0FF30C4E9A5
:1040C000006703B0F0BD00BF2DE9F04F90F831E07C
:1040D000856983B00446BEF1000F1BD0D0E9000112
:1040E000994208BF904216461F463BD056EA070346
:1040F00007D10023A3610120C4E9006703B0BDE834
:10410000F08F1EF0080F0AD0D4E90423BB4208BF89
:10411000B24204D2A561002003B0BDE8F08F236A4B
:10412000019393F845C494F833A00CF1090C5FFA9D
:104130008CFC16F1FF3247F1FF33CCF1200803FA73
:1041400008FB22FA0CF242EA0B02ACF1200B23FA34
:104150000BF31AF0400F42EA030205D0E3691A4458
:10416000A261C8E70120D7E710F1FF3941F1FF3A1A
:1041700029FA0CFC0AFA08F84CEA080C2AFA0BFB9C
:104180004CEA0B0C6245534617D21EF0400F16BF87
:10419000019BE369D3F83434A361904604F1180914
:1041A0004A46B8F1000FA6D0A169206A01F080FC50
:1041B000002808F1FF38F3DCACE750EA0103E4D053
:1041C000CCEB0202E9E700BF2DE9F04F0C468FB0BF
:1041D00090F831100193814621B994F8313013F0F1
:1041E000500F07D1002089F8310089F833000FB053
:1041F000BDE8F08F019B03F00303012B154606D0A9
:10420000022B00F0FE80002BECD1012200E0022204
:10421000019B03F0080313430293002D40F0DD805F
:104220000327029B002643F04003B346039320225A
:1042300006A92046FFF75CFEF0B12028D2D19DF8F8
:104240001830180645D4BBF1000F04D12268D4F809
:1042500018A0A2F12008BB453CBF0BF1010B5FFA8F
:104260008BFB002B00F0CF80202206A920460026E1
:10427000FFF73EFE0028E0D1019B9905B2D5029BD5
:104280009A07AFD5002DADD0BB4580F0C5802B4639
:104290005E4655469A460AE02028A3D11EB92268F8
:1042A000A569A2F12008DEB2B74240F2B280202216
:1042B00006A92046FFF71CFE731C0028ECD12046FF
:1042C000D4F818B000F07EFB00288BD0C4F818B0EA
:1042D000EAE756BBBB4538BF4FF0000B852BA6D194
:1042E0003146382248460AF06BF99DF81C309DF89B
:1042F000192089F83020D90603F0370258BF42F060
:10430000080289F831202368216AA269C9F82420AB
:10431000203BC9F82010C9F8283094F83330C3F393
:10432000801389F82C30012681E7C02B29D0C12BBE
:104330009AD12A4606A9484601F01EFA002866D0FE
:10434000AB89002B7FF473AFAA686B689A427FF445
:104350006EAF019B1F053FF545AF019B13F4884FDE
:1043600040F0AC8099F833309E0700F1A780019BA4
:104370005B053FF537AF019B580400F1BD8001207C
:1043800035E79DF819309DF8082089F833209B0700
:1043900044BF9DF80C3089F83330DDE90823DDE9AE
:1043A0000C01C9E904230B9BC9F81C30C9E90201BF
:1043B000002DCED09DF81B302A69296869604FF026
:1043C00000009A42A8817FF44FAFBDF81C60AB8A11
:1043D000F61AB6FA86F6760929E72B69614F0E338D
:1043E000A7FB0337D4E90023FF0802371343FFB2CA
:1043F0003FF417AF00230022C4E900230023A36188
:104400000FE7032204E7002D7FF436AFEAE6064605
:104410000DE75346AA461D4694F833603822002122
:1044200048460AF0CDF8C6F380160823226A89F8B8
:104430002C60C9F824A0C9F8288089F831302B688D
:10444000C9F8202000266B60AE819FB307F1FF38CA
:10445000DFF814A1B3465FFA88F8012259464846AE
:10446000FFF7AEFC044600283FF4BCAE90F90030E4
:10447000002BFFF6B7AE202200210AF0A1F8002E93
:1044800043D0BBF1010F59D0C123A34623701E3482
:10449000AB8928461BB96A68AB689A4205D004F01C
:1044A0006FFC2BF8020F5C45F2D101365FFA86FBF8
:1044B000BB45D2D3484600F055FA98E699F831301A
:1044C00013F0110F7FF48EAE019B5D057FF553AFA6
:1044D00099F833309C077FF585AE002200234846CB
:1044E000FFF7F2FD00283FF47DAE484600F054FC93
:1044F00000283FF477AE42E7D9E904234846FFF7A6
:10450000E3FD00287FF43BAF6CE68523237089F838
:10451000308084F80180DAF80030EBB10DF113023D
:104520000DF1160105A89847BDF81410BDF8162026
:104530009DF81330618122812375B6E7029B84F8D0
:1045400001B063F07F03C022227089F833302B69F9
:10455000E370AB8AA380A8E745F221436381E3813E
:104560006382A2E78988888894B1FF1F2DE9F04112
:10457000044696B094F83150019200208DF8510015
:104580008DF852008DF85300ADF8140035B99846F7
:1045900091F8313013F0500F0E4603D1002016B0C1
:1045A000BDE8F08113782F2B154624D0002716E0A4
:1045B000019D2D782046002D32D0FFF705FE3422D4
:1045C00021460028EAD008A804F074FE204600F036
:1045D000C9F9019D84F8317008AE84F8337029461A
:1045E00001AB02AA2046FFF747FC002302AA31468E
:1045F0000028DDD1D2E70135019529782F29FAD09D
:10460000B9B1382208A80021376A09F0D9FF402241
:10461000012308AE10978DF851208DF85330C5E76F
:10462000434602AA31462046FFF7CEFD16B0BDE84C
:10463000F08138222046356A09F0C2FF402301206C
:10464000256284F8313084F83300A8E719B101F508
:104650008961FFF78BBF0846704700BFF0B490F840
:10466000314024B991F8313013F0500F02D10020BD
:10467000F0BC7047D1E90067002706F01F0656EA34
:104680000703F4D113462246F0BCFFF79DBD00BFDF
:104690008169F8B50446006A01B10131012201F0D7
:1046A0003FF9012806462FD9012301461A46206A00
:1046B00001F090F9074638B3A06994F8333030B36D
:1046C0005A0613D5421C964225D023F0400284F8A6
:1046D0003320E36905E0206A01F02CFAA0B1A0695B
:1046E0002B465D1C834219462A46F4D34FF0FF3215
:1046F0003146206A01F01EFA30B1A16959B1324643
:10470000206A01F017FA30B900273846F8BD43F0A7
:10471000400384F83330A6613846F8BD90F8333052
:104720009A0739D5C1692DE9F0410546A9B9002498
:1047300007E0037803F07F03037095F83030A3425D
:104740002CD3214601222846FFF73AFB0134E4B27C
:104750000028EED10020BDE8F0815B06006A35D567
:10476000D5E9026790F845340933DBB216F1FF361C
:1047700047F1FF37C3F1200426FA03F207FA04F4E5
:10478000203B27FA03F322431A430132002301F0AE
:1047900021F90028CBD1DDE7002070472C6A0023E7
:1047A000204685F8313085F8333004F011FA0028BE
:1047B000D0D004F5047004F00BFA0028CAD0D4F865
:1047C00040040368BDE8F041DB69184701F0C2F915
:1047D0000028ACD1BEE700BF90F83130D90601D433
:1047E0000020704710B5002288B000230446FFF770
:1047F0006BFC06E0202819D19DF800301A0615D46C
:1048000033B1202269462046FFF772FB0028F1D120
:1048100094F83330082243F0020384F8333084F8EC
:1048200031202046FFF77AFF08B010BD002008B005
:1048300010BD00BF2DE9F0430026494F83B08046EC
:104840003446002231464046FFF7BAFA054630B1F9
:104850000378C02B6DD0C12B69D0852B09D098F877
:10486000323043F0010388F83230002003B0BDE855
:10487000F08398F83130D7F8009003F03703838045
:10488000B9F1000F10D00DF103020DF1060101A8DE
:10489000C847BDF80620BDF804309DF803106975BF
:1048A000AA812A82EB816B82D8F8202092F81032FC
:1048B00043F0010382F8103295F800E00021E20392
:1048C000685C42EA540310FA83F301299CB201F1B7
:1048D000010126D01F29F2D9013698F83030F6B2FE
:1048E000B342AED2012208F12401D8F8200001F031
:1048F000C5F80028B3D0D8F820504480284604F0EA
:1049000067F90028ABD005F5047004F061F90028C0
:10491000A5D0D5F840040368DB69984700289ED0ED
:10492000A4E7BEF1850F0CBF04210221C7E79E4614
:10493000C4E798F8333013F0400F437814BF43F0C6
:10494000020323F002034370D8E90423C0E90223E1
:10495000D8E90223D8F81C104161C0E90623A3E777
:1049600094B1FF1F90F8312092B138B590F8332000
:1049700011060FD4056A0446284604F029F988B9BF
:1049800094F8323043F0010384F83230002038BD0F
:104990000120704702F07F0280F83320BDE83840E4
:1049A000FFF748BF05F5047004F012F90028E7D0BE
:1049B000D5F840040368DB6998470028E0D001205F
:1049C00038BD00BF2DE9F04190F83130590604465A
:1049D00060D48068236AD3F83C341844B0F1806F07
:1049E00002D30020BDE8F0812046FFF751FE0028E9
:1049F000F7D0266A96F81032DA074FD44FF0FF331B
:104A0000002506F50878C6F81C3286F810522946AB
:104A10004FF40072404609F0D3FD226AA36992F870
:104A20004504D2F82C14023B834001265F1816FA85
:104A300000F310D0D2F84004036879191B6A42468B
:104A4000984701350028CCD0226A92F8453406FAFE
:104A500003F3AB42EED894F831305B0615D494F8EA
:104A6000333063F07F0384F83330D2F83C64D4E908
:104A70000223D4E9040192194FF000077B41801909
:104A80007941C4E90223C4E904012046BDE8F041AC
:104A9000FFF768BF006A01F037F99BE706F504707D
:104AA00004F096F80028A9D19BE700BF10B591F853
:104AB000314014F0500F01D1002010BD40F6022308
:104AC0000446FFF781FB0028F6D0102384F831302C
:104AD0002046FFF777FF0028EED0A369E361204668
:104AE00000230022FFF7F0FAC12384F83330204678
:104AF000BDE81040FFF736BFF0B5044697B094F814
:104B0000316001920020ADF814008DF851008DF84D
:104B100052008DF8530036B91F4691F8313013F02A
:104B2000500F0D4602D1002017B0F0BD13782F2B87
:104B3000114624D001AB02AA2046FFF79DF90023BD
:104B400002AA29460028EED0019E3678204626B3D8
:104B5000FFF73AFB40B9002FE5D0294602AA2046CC
:104B6000FFF7A4FF0028DED02146342208A804F075
:104B7000A1FB2046FFF742F908AD0199DAE70131C0
:104B800001910B782F2BFAD0296A08A8FFF760F95A
:104B90000028C8D0019908ADCCE702AA29462046D2
:104BA000FFF784FF17B0F0BD30B590F831309DB0FD
:104BB000002413F0180F8DF831408DF832408DF835
:104BC00033408DF869408DF86A408DF86B4003D012
:104BD0000B6A056A9D4202D000201DB030BD05461B
:104BE00040F601236846FFF7C1FC0028F4D03422C8
:104BF00029460EA804F05EFB09AB93E8070005F117
:104C0000240383E8070095F833309DF8302085F8B9
:104C1000302063F07F0385F833302846FFF7A2FE8B
:104C20000028D9D0022208230EA815948DF86B20F5
:104C30008DF86930FFF772FDCFE700BF2DE9F84F1F
:104C400090F831509DF828909DF82C709DF830A078
:104C50009DF834802C0776D5A2F2BC7295B27F2DD8
:104C600071D85A1E0B2A6ED809F1FF321E2A6AD853
:104C7000172F68D8BAF13B0F65D8B8F13B0F62D84F
:104C800004469B460E46FFF76DFE00285BD04FEAB8
:104C9000680249EA4B1942EA4A1A49EA452518F0DE
:104CA000010F4AEAC7274FF0000AADB2BFB20CBFEE
:104CB000D1464FF06409D34606F001080022514660
:104CC0002046FFF77DF800283DD090F800E0BEF1C7
:104CD000850F41D037D3AEF1C003012B33D800216B
:104CE0004FEACB3210F801C042EA5B031CFA83F3AF
:104CF00001291FFA83FB01F1010127D01F29EFD9F8
:104D00000AF1010A94F830305FFA8AFA5345D5D295
:104D1000012204F12401206A00F0B0FE98B1246A57
:104D2000A0F802B0204603F053FF60B104F5047010
:104D300003F04EFF38B1D4F840040368DB699847AC
:104D400008B1BDE8F88F0020BDE8F88FBEF1850FEF
:104D50000CBF04210221C3E794F83130226A03F02A
:104D60003703838092F8103243F0010382F8103247
:104D7000B8F1000F01D007824582B20703D580F851
:104D8000149007814581730703D580F815908781BA
:104D9000C58190F800E0A2E790F833309A0718D563
:104DA000F0B5C56983B08DB103F04003044603F04C
:104DB000FF0083B9A169002941D10195E16129462C
:104DC000206A00F0C7FE30BB002000E0012003B0E5
:104DD000F0BD00207047206AA16990F84534D4E9FD
:104DE00002670933DBB216F1FF36C3F1200E47F13B
:104DF000FF3726FA03F207FA0EFE203B42EA0E02C4
:104E000027FA03F31A430132B1B1013D6D1A0131A2
:104E10002A44019102BBD4E9000194F8333063F0D5
:104E20007F03C4E90201C4E9040184F83330204659
:104E3000FFF798FD03B0F0BD0195E161EAE702AA32
:104E400042F8040D206A00F033FE0028BCDB0AD1D2
:104E5000019D002DDFD0B2E70023019900F0BAFDDB
:104E60000028D8D1B0E74FF0FF32A169206A00F0E6
:104E700061FE0028ECD1A7E72DE9F04F90F8333020
:104E800083B09D070446009240F1AA801A07894624
:104E900000F19F80009B002B00F01C812146F1E86F
:104EA0000623DDF8008001914FF0010BCA46206A0D
:104EB000D0F838541540C5F3080945BBA16900294D
:104EC00000F0C28094F833305B0640F1D680D4E91C
:104ED000026790F84524E3690932D2B216F1FF3631
:104EE00047F1FF37C2F1200ED64007FA0EFE203AF6
:104EF00046EA0E0627FA02F2164333449942C0F0FE
:104F0000B9802046FFF7C4FB002869D0206AA66953
:104F1000D0F82C7490F845E46D0A023EE91906FABF
:104F20000EF63144B9F1000F40F08780B8F5007FEC
:104F300060D2D4E90423D4E90067B8F5007F454680
:104F400028BF4FF400759F4208BF964234BF01222C
:104F5000052200F5047003F00BFE002840D0484401
:104F60002A465146A94404F0A5F9B9F5007F00F09E
:104F70009C8028460021D4E90023D4E90467121854
:104F80004B419F4208BF9642AA44C5EB0808C4E9BA
:104F9000002307D294F83310C4E9042361F07F01A1
:104FA00084F83310B8F1000F81D1D4E9020199429D
:104FB00008BF9042C0F08280484B1B68002B00F075
:104FC000878094F83330009863F07F0384F833309F
:104FD0000DE0D0E90423FFF777F800287FF45AAFFB
:104FE00094F8323043F0010384F83230002003B0EB
:104FF000BDE8F08FB8F5806F2AD30BFA0EF35D1B76
:10500000D0F81C224FEA5823AB4228BF2B469142CE
:105010004FEA432508D8CE18B24205D24FF0FF32EE
:1050200080F81092C0F81C22D0F81402066852468C
:10503000766AB04700289CD1D2E7C9F5007545458E
:1050400028BF4546012284E7E669F6B1A6615FE71D
:10505000D0F81C32994221D0D0F81402036852468D
:105060001B6A98470028BBD04FF4007000214FF412
:10507000007580E74E1CA6614AE7019A00F018FD12
:105080000028ADDB7FF442AF3BE72046FFF700FB93
:105090000028A5D0A669E661206A39E74FF0FF3302
:1050A00080F81092C0F81C32D6E7206A00F5047030
:1050B00003F08EFD00287FF45CAF91E794F8331085
:1050C000009861F07F01C4E9022384F833108EE771
:1050D00000988CE7D4E9002367E700BF94B1FF1F75
:1050E00070B5044608460D4609F0EAFA2368024600
:1050F000294620465B68BDE8704018478368C3F3C3
:10510000080383B100210269D1540133B3F5007F54
:10511000F9D1C3680269016810B41C68246A184692
:10512000234610BC18470120704700BF8268034621
:10513000C2F30802006930B481545D68986840F297
:10514000FF1401EB75010130A2425960986002D052
:10515000012030BC7047D868196804681A69246A4D
:105160004D1C1D60234630BC184700BF38B50C46A7
:10517000C9B20546FFF7DAFF00B938BD210A284653
:10518000BDE83840FFF7D2BF2DE9F843002680463E
:10519000016086604660B0B203F0FEFEB042814618
:1051A00005460DD001464046FFF7E0FFA0B30136AB
:1051B000B6F5803FEFD34046BDE8F843FFF79EBF0A
:1051C000741CB4F5803F14D1C6F58037B7F5007F65
:1051D0004FF480341AD2A9B24046FFF7C7FF013519
:1051E000D0B1A542F7D32E46E2E70134B4F5803FB3
:1051F000EAD0A0B203F0D0FEA042F6D0A71BB7F5CC
:10520000007F03D2A642E6D34E46C4E74FF6FF71B5
:105210004046FFF7ABFF10B90020BDE8F883B9B2F4
:105220004046FFF7A3FF0028F6D02646C0E700BFA0
:105230002DE9F04F14460A68C160046189B08146C7
:10524000926908460E461F469047B0F5801F11D25E
:105250005FB13B68AA495B681522384698473B68AE
:10526000A8495B6838460F2298470025284609B0B0
:10527000BDE8F08F05460123022201E095424FD997
:105280000133DBB2202B4FEA4202F7D1A3F10B022C
:1052900052100121D0B291400690049101334FF099
:1052A00001085B1008FA03F303FA08F105939B0069
:1052B00001910293029BEB1AD34003FA02F8039385
:1052C000019B4FF400720021204698444FF0010BDF
:1052D00009F076F94FF0000AFF230721FE2284F837
:1052E000C21184F8C32184F8BFB184F8C0B184F836
:1052F000C1A184F8C43184F8C53133680199C4F878
:10530000C6114AF655221B6AC4F8CA81A4F8FE21C8
:105310005146224630469847B0B9002F9FD1A4E7A6
:105320001C2BB3D808221A2B069200F29D814FF451
:10533000004302934FF4804301934FF4807304932E
:105340004FF400530593B5E74FF4007251462046E1
:1053500009F036F9019B23649021A365039B059A0C
:10536000C4F848804FF0EB0E76204FF05808E36504
:10537000A1709DF8183022654FF0450162656566A1
:10538000412284F86D305425202384F800E06070B9
:105390004FF0040E4FF480704FF0090CE17084F868
:1053A000048080214FF04608A27123726372A372B9
:1053B00084F86F10C4F844A0C4F84CA0A4F86AA004
:1053C00084F86EB084F870A084F80580E571C4F8A4
:1053D00060E0A4F8680084F86CC004F1770304F27C
:1053E000FD11F42203F8012F9942FBD14AF6552210
:1053F0000023A4F8FE211D464FF0010802E001330E
:1054000008F10108A3F16A02012A04D9702BF6D031
:10541000E25C02EB7505B8F5007FF0D133680199C5
:105420001B6A22463046984700283FF476AF33681F
:1054300001991B6A22460C313046984700283FF4F8
:105440006CAF42460021204609F0BAF84AF65523CF
:10545000019AA4F8FE31631ECDF81C9002F1010AF6
:1054600002F1090B069304F2FF1899464B4613F814
:10547000012F984502EB7505F9D1336822461B6A66
:1054800051463046984700283FF447AF33682246DC
:105490001B6A0AF10C013046984700283FF43DAFE3
:1054A0000AF1010AD345E1D14FF4007200212046F0
:1054B000DDF81C9009F084F8019B03F10B0A069BB0
:1054C00013F8012F984502EB7505F9D13368224690
:1054D0001B6A59463046984700283FF41EAF336890
:1054E00022461B6A0BF10C013046984700283FF416
:1054F00014AF0BF10103534506D09B46DFE700BF15
:1055000074A00100D8A00100231F04F5FE7243F827
:10551000045F9342FBD1336851461B6A22463046F2
:10552000984700283FF4F9AE33680BF10D011B6A70
:1055300022463046984700283FF4EFAE2FB13B6833
:1055400087495B680C2238469847039B4FF40072EA
:10555000002120469D0009F033F80199059AF823AF
:105560000A4405F20725904623704FEA552B23463F
:1055700004F11301FF2203F8012F9942FBD14FF0F0
:10558000000A2346AD0B54469A4604E0002C64D032
:105590000134A34518D0B4FBF5F305FB134333B92D
:1055A00001227049384617B13B685B6898473368F9
:1055B00052461B6A04EB0801304698470028E5D1A3
:1055C000002F7FF44CAE50E654468FB33B686649DB
:1055D0005B68022238469847039D049B0735ED0817
:1055E00005F2FF184FEA582898453FF638AE4FF4B9
:1055F00000720021504608F0E3FF07238AF80030CC
:105600004FF0000A07E0BAF1000F00F083800AF1C2
:10561000010AD0452CD0336802991B6A22465144B6
:10562000304698470028EED1002F7FF418AE1CE6D4
:10563000039D049B0735ED0805F2FF184FEA582833
:1056400098453FF612AE4FF400723946504608F0C6
:10565000B7FF07238AF80030D2E74FF400722146E3
:10566000504608F0ADFF93E74FF48071049115E6C2
:10567000002F61D0019B3D4938464FEA4308FFF7B0
:105680002FFD049B484608EB0301FFF77DFD002832
:105690003FF4E5ADD9F80830049AB3EB422F3FF65A
:1056A000DEAD33493846FFF71BFD4FF40072002191
:1056B000204608F085FF03230221822281202370E7
:1056C000616384F8200084F84020D9F804206264E3
:1056D00063650499D9F80820A265002308EB410905
:1056E000A563E365984607E0B8F1000F1DD0049B61
:1056F00008F10108984510D0336822461B6A09EB6F
:1057000008013046984705460028EDD1002F7FF468
:10571000A6ADAAE584F800A079E7002F3FF4A6AD76
:1057200038461449FFF7DCFCA0E54FF4007241460F
:10573000204608F045FFDAE7019B4FEA4308049B47
:10574000484608EB0301FFF71FFD00283FF48DAD2D
:10575000D9F80830049AB3EB422F3FF686ADA4E7A0
:105760008CA001009CA00100B4A00100A0A0010039
:10577000B8A00100C8A001002DE9F0410C46154673
:1057800001F11E08AB8934F8026F28461BB96A681C
:10579000AB689A420ED003F0F3FA03F0FDFB074624
:1057A000304603F0F9FB874209D14445EAD1012094
:1057B000BDE8F081B6FA86F04009BDE8F08100202E
:1057C000BDE8F0812DE9F84F90F831308946002B83
:1057D00044D090F83030012B804651D9013A8E18D0
:1057E0000C4602274FF0000B002239464046FEF7D8
:1057F000E7FA98B30378C12B30D1824600F11E0539
:1058000019E000F510539BB2B3F5806F26D21E4B02
:105810004FEA8B2BC0F309000BEA0303184300F592
:1058200080303246214603F021FB88B1AA45044668
:105830004FF0000B1DD03AF8020FBBF1000FE0D182
:1058400000F520539BB2B3F5006F0CD30028E8D1CC
:10585000C9EB040000232370BDE8F88F002089F80D
:105860000000BDE8F88FB3F5806FF7D2AA458346F4
:10587000E1D1013798F83030FFB2BB42B4D2E7E74C
:105880000C460020E6E700BF00FC0F00F8B50A68F0
:105890004A6000230E461F468B810B611C464FF663
:1058A000FF7516E003F06CFAA84221D003F074FBF8
:1058B000E30343EA540454FA80F33169B789C3F32C
:1058C0004E02041242EAC33314FA83F40131A4B243
:1058D00031613046002FE5D17268B3689A42E1D158
:1058E0003069B4820138FE288CBF00200120F8BD49
:1058F0000020F8BD38B50C46D0F82414154601EB4D
:10590000D41100F50470012203F032F9034628B1E6
:10591000A400C4F3080401201D5138BD38BD00BFE8
:105920002DE9F84F804691468B46002944D08F1EC2
:10593000D8F830349F423BD207F00705012303FA21
:1059400005F5EDB2C7F3C80A3E463C46D8F82C141C
:10595000002201EB1431404603F00AF9C0B110F8FF
:105960000A100AE04A452AD0A74210D0D8F83024BD
:10597000944217D213F0FF050CD001340D424FEAC8
:105980004503A4EB0602EDD0A7422646EED1012046
:10599000BDE8F88F0AF1010ABAF5007F4FF0010562
:1059A000DDD101E0002634464FF0000A0125CDE7A5
:1059B0000027BA460125C7E7D0F82074B8E7BBF145
:1059C000000F04D1B9F1010F08BFC8F82064B01C62
:1059D000BDE8F88F2DE9F04702398046D0F8300451
:1059E00015468A18824238D89A46D8F82034BAF137
:1059F000000F35D1994238BFC8F8201401F00704D0
:105A00000122D8F82C3402FA04F4E4B203EB113981
:105A1000C1F3C806012249464046914403F0A8F864
:105A2000D8B1871900F5007017F8012B224214BF76
:105A300001260026564582EA04024FEA44040CD0AF
:105A4000013D07F8012C15D014F0FF04EED1B84247
:105A500026464FF00104E7D1DCE70020BDE8F087DF
:105A60009942CBD89A42C9D9824228BF0022C8F8AD
:105A70002024C3E70120BDE8F08700BFF8B50E463B
:105A800096E82800D0F83814D0F82C4490F84574E3
:105A90002940023B04EB5121BB40194400F504703E
:105AA00003F066F818B17368C3F308031844F8BD2F
:105AB00038B5D0F8303401338B4214D30C46D0F8CB
:105AC0002414154600F5047001EBD411002203F0F4
:105AD0004FF840B1A100C1F30801405828600130DF
